:020000040800F2
:10000000E8070020010200080D150008051500088A
:100010000915000831050008D5150008000000008A
:10002000000000000000000000000000151500089E
:10003000350500080000000011150008191500081A
:100040001B0200081B0200081B0200081B0200081C
:100050001B0200081B020008390500081B020008EB
:100060001B02000875050008B90500081B020008FE
:100070001B0200081B0200081B0200081B020008EC
:100080001B0200081B0200081B0200081B020008DC
:100090001B0200081B0200081B0200081B020008CC
:1000A0001B0200081B0200081B0200081B020008BC
:1000B0001B0200081B0200081B0200081B020008AC
:1000C0001B0200081B0200081B0200081B0200089C
:1000D0001B020008A91500081B0200081B020008EB
:1000E0001B0200081B0200081B0200081B0200087C
:1000F0001B0200081B0200081B0200081B0200086C
:100100001B0200081B0200081B0200081B0200085B
:100110001B0200081B0200081B0200081B0200084B
:100120001B0200081B0200081B0200081B0200083B
:1001300000F002F800F055F814A696E8000CB2445E
:10014000B344DA4501D100F04CF8BAE80F000FA62D
:1001500096E83000A5EB040504EB0607AAEB0704BC
:10016000A7F101074FEA15154FEA3414A4F1010471
:10017000AC4201D300F035F813F0010F18BFFB1AA1
:1001800043F0010300F001F8DBE7184760170000B7
:1001900080170000103A24BF78C878C1FAD85207F7
:1001A00024BF30C830C144BF04680C6070470000F1
:1001B000704700000023002400250026103A28BFC5
:1001C00078C1FBD8520728BF30C148BF0B607047C9
:1001D000642900F07780002070471FB51FBD10B55F
:1001E00010BD00F073F91146FFF7F7FF01F064FA54
:1001F00000F091F903B4FFF7F2FF03BC01F0ECF952
:100200000948804709480047FEE7FEE7FEE7FEE7AA
:10021000FEE7FEE7FEE7FEE7FEE7FEE704480549E6
:10022000054A064B704700001D1500083101000803
:10023000E8010020E8070020E8030020E803002090
:10024000704700000FB4044910B503AA029800F0EB
:100250000FF910BC5DF814FB740000202DE9F0418B
:100260000E460446002020622046E168884730B3ED
:10027000252805D0D4E901219047206A401CF2E7E7
:10028000E168204600278847050018D0A5F1410005
:10029000192802D820354FF40067324629462046F7
:1002A0002760FFF795FF40B1012804D0F61D26F026
:1002B00007060836D8E7361DD6E72846DAE7206A6B
:1002C000BDE8F0812DE9F04106460024106875294B
:1002D000314616A510D0AFF30080002802DA404264
:1002E00013A507E031688A0701D512A502E0490786
:1002F00004D511A5012401E0AFF3008000210A22FA
:1003000006F1240709E0B0FBF2FCB0FBF2F302FBBC
:100310001C00303078541846491C0028F3D123467D
:100320002A463046BDE8F04100F049B80000000020
:100330002D0000002B0000002000000010B5044636
:1003400003E001F073F9401C09D014F8010B0549D2
:100350000028F6D1BDE810400A2001F067B94FF03F
:10036000FF3010BD740000204FF0000200B51346AE
:1003700094469646203922BFA0E80C50A0E80C50C5
:10038000B1F12001BFF4F7AF090728BFA0E80C5076
:1003900048BF0CC05DF804EB890028BF40F8042B6F
:1003A00008BF704748BF20F8022B11F0804F18BFDC
:1003B00000F8012B704770477047704770472DE970
:1003C000F0470D4699469246044600F1240801681C
:1003D000880604D5E06921F01001216000E00120C9
:1003E000A84201DD471B00E00027A1697A1902EB52
:1003F0000900081AA0612078C00602D42046AFF395
:100400000080002608E0D4E901211AF80600904790
:10041000206A401C761C20624E45F4DB2078C00622
:100420000AD52046AFF3008006E0D4E90121302050
:100430009047206A401C2062381EA7F10107F4DCB7
:1004400007E0D4E9012118F805009047206A401C14
:100450002062281EA5F10105F3DC2046AFF30080E1
:100460002078000602D50220BDE8F0870120FBE7D6
:10047000074B70B50D467B4400F011F80446284642
:1004800000F020F810B14FF0FF3070BD204670BD75
:10049000B311000001694A1C02610878704700B579
:1004A0008FB0CDE901310021059105497944CDE9AD
:1004B000031011466846FFF7D1FE0FB000BD0000E3
:1004C000E5FFFFFF007B00F080007047754600F0FD
:1004D0002BF8AE4605006946534620F007008546D6
:1004E00018B020B5FFF79AFEBDE820404FF0000697
:1004F0004FF000074FF000084FF0000BAC46ACE89F
:10050000C009ACE8C009ACE8C009ACE8C00921F0FA
:1005100007018D46704710B50446AFF300802046B2
:10052000BDE81040FFF766BE00487047100000208D
:10053000FEE7000070470000B0B540F2144401200F
:10054000C4F20104012500F0F5F8142001F04CF884
:1005500004F57B70012100F0E7F9012807D140F292
:10056000C800C2F200000168C1F10101016025600C
:10057000B0BD0000B0B50820082500F0DBF840F25F
:10058000C800C2F20000006880B140F600441420A8
:10059000C4F2010401F028F804F54060082100F0DD
:1005A000C3F918B92046202100F0C4F940F21440E4
:1005B000C4F201000560B0BDB0B51020102500F0F8
:1005C000B9F840F2C800C2F200000068A0B141F6DC
:1005D00000041420C4F2010401F006F820461021A2
:1005E00000F0A2F940B9A4F54060202100F0A2F982
:1005F0002046202100F09EF940F21440C4F2010090
:100600000560B0BD40F27000C2F2000000687047A3
:1006100090F82110022927D1026840F2040C1368D7
:10062000C4F2020C23F00E03136013680CF17C017A
:100630008A4223F0010111601AD940F20841C4F244
:1006400002018A424ED040F21C41C4F202018A42A9
:1006500041D040F23041C4F202018A4246D14FF407
:100660008073CCF8003457E0042181630120704787
:100670004321C4F202018A420EDD6B21C4F2020161
:100680008A421BDC4421C4F202018A423BD0582139
:10069000C4F202018A4222E00821C4F202018A4225
:1006A0002FD01C21C4F202018A4232D03021C4F280
:1006B00002018A4213D14FF480722BE06C21C4F204
:1006C00002018A4222D08021C4F202018A4206D16C
:1006D0004FF080721EE01023CCF800341CE04FF481
:1006E000803217E00123CCF8003415E00CF5886166
:1006F0004FF480338A4208BF4FF48053CCF8003463
:100700000AE0012206E04FF4805203E04FF4801229
:1007100000E01022CCF80020416B4FF480720029D9
:10072000028404BF0020704780B58847002080BD48
:100730007047000040F21441C4F201010A6802420D
:1007400014BF08607047FFF7F3BF00002DE9F04FBA
:1007500082B00E68002E00F0E380A0F1804241F6E6
:10076000004540F20043A2F58432C4F2010506249C
:10077000C4F201034FEAB227A84208BF05244FF094
:10078000000E4FF001080F254FF0000A4FF0000B4C
:10079000052F38BF4FEAB224009408E00E680AF132
:1007A000010A36FA0AF20EF1040E00F0B98008FAD6
:1007B0000AFC16EA0C09F1D04E684FF6FF72C1F23E
:1007C0001002964210DC122E50D8DFE806F0330AF1
:1007D00048454F4F4F4F4F4F4F4F4F4F4F4F4F4148
:1007E0004C00D1F80CB041E04FF6FF72C1F221028B
:1007F00096420FDC0022C1F2110296421AD000226A
:10080000C1F21202964215D00022C1F22102964294
:1008100010D02BE00022C1F2220296420AD0002220
:10082000C1F23102964205D00022C1F23202964254
:100830001CD100BF8A6842B1012A14BFC0F814C09D
:10084000C0F810C04FF0080B10E04FF0040B0DE0A3
:10085000CA6802F1040B09E04FF0000B06E0CA6819
:1008600002F1080B02E0CA6802F10C0B0246744662
:10087000B9F5807F24BF0432203C166805FA04F7DE
:1008800026EA07070BFA04F637431760CA79D2063F
:100890007FF584AF41F21807C4F202073A684FF6B9
:1008A000084542F001023A603A68CFF6FF7502F05F
:1008B00001020192019A2AF003021A440F245759A7
:1008C0000EF00C06B440A743009C04FA06F637432A
:1008D00057514E680F25F2031A6854BF22EA0902E5
:1008E00042EA09021A605A68B70354BF22EA0902B1
:1008F00042EA09025A60F7029A6854BF22EA0902E2
:1009000042EA0902B70240F20C479A60C4F20107BA
:100910003A6854BF22EA090242EA09023A603DE716
:1009200002B0BDE8F08F00008068084018BF0120C9
:1009300070470000C26802EA0103914341EA0341A3
:1009400001617047002A08BF090401617047000077
:1009500040F2E010C2F200000068704740F2080068
:1009600040F2E011C2F20000C2F2000100780A6811
:10097000104408607047000080B542F20000C4F2E5
:100980000200016841F010010160052000F070F8DC
:100990000F2000F005F800F02BF8002080BD0000CB
:1009A000B0B540F20802C2F2000240F2040112782F
:1009B000C2F200014FF47A730968B3FBF2F2044605
:1009C000B1FBF2F1084600F001FB0F2C4FF00105DE
:1009D0000CD858B94FF0FF3021460022002500F016
:1009E0001BF840F20C00C2F2000004602846B0BDC3
:1009F00070470000002848BF704700F01F01012227
:100A000002FA01F11C2202EAD0004EF20012CEF2EC
:100A1000000281507047000010B54EF60C5CCEF21B
:100A2000000CDCF80030C3F3022E8EF00704042C17
:100A300028BF0424BEF103034FF0FF3E0EFA04F476
:100A400038BF0023A14399400EFA03F39A431143A0
:100A500000F1604200F00F03090102F56442043B1B
:100A60006344002848BF03F10C02117010BD000060
:100A70004EF60C51CEF200010A684FF6FF031A4001
:100A800060F30A2242F0806040F0FD700860704719
:100A9000002804BF012070472DE9F04381B042F2E5
:100AA0000008C4F202080446D8F800000D4600F021
:100AB000070088420CD2D8F8000020F00700284335
:100AC000C8F80000D8F8000000F00700A8426BD179
:100AD000206841F204098107C4F2020917D54107D1
:100AE00005D5D9F8001041F4E061C9F800100107FC
:100AF00005D5D9F8001041F46051C9F80010D9F8B3
:100B00000010A26821F0F0011143C9F80010C007DD
:100B100041D1D8F8000000F00700A8420CD9D8F85D
:100B2000000020F007002843C8F80000D8F80000B3
:100B300000F00700A84237D12068410707D5D9F84F
:100B40000010E26821F4E0611143C9F800100007C9
:100B500008D5D9F80000216920F4605040EAC100AE
:100B6000C9F80000D9F8002002F00C00082841F272
:100B70000020C0F27A0049D141F6DC03C2F3834180
:100B8000C0F60003595CD20334D440F60010C0F222
:100B90003D0048433AE0606859F8041C022807D039
:100BA000012824D1890305D4012001B0BDE8F083D8
:100BB0008901F9D5D9F8001021F003010843C9F8DB
:100BC0000000FFF7C5FE064641F28837D9F800005D
:100BD000616800F00C00B0EB810F9AD0FFF7B8FE0F
:100BE000801BB842F2D9032001B0BDE8F083890729
:100BF000DAD5DFE7D9F8002041F6C203C2F340425C
:100C0000C0F600039A5C4843B0FBF2F0D9F800103C
:100C100041F6C402C1F30311C0F60002515C40F278
:100C2000040220FA01F140F20C00C2F20000006858
:100C3000C2F200021160FFF7B3FE002001B0BDE870
:100C4000F083000040F2040041F20401C2F200000F
:100C5000C4F202010068096841F6D402C1F302211E
:100C6000C0F60002515CC8407047000040F204002A
:100C700041F20401C2F20000C4F2020100680968F6
:100C800041F6D402C1F3C221C0F60002515CC84053
:100C900070470000002804BF012070472DE9F04193
:100CA00082B00446007841F20006C007C4F2020692
:100CB00047D0706800F00C00042808D13068800329
:100CC0003FD56068E8BB012002B0BDE8F0817068E4
:100CD00000F00C00082802D17068C003EED46568EB
:100CE00030682DB1B5F5A02F09D0B5F5803F0AD0F9
:100CF00020F480303060306820F4802005E040F43B
:100D000080203060306840F480303060FFF720FE93
:100D1000002D054612D000BF3068800311D4FFF7C4
:100D200017FE401B6428F7D916E100BFFFF710FE3D
:100D3000401B64284FF0030000F2D8803068800325
:100D4000F4D42078800719D5706810F00C0F07D004
:100D5000706800F00C00082827D17068C00324D404
:100D60003068800703D52069012840F0A6803068EC
:100D7000616920F0F80040EAC10030602078000787
:100D80004ED5A06938B30020C4F242200121C0F83A
:100D90008014FFF7DDFD0546706A80072DD4FFF74C
:100DA000D7FD401B0228F7D9D6E02069002840F281
:100DB0000000C4F2422000F0A88001210160FFF78A
:100DC000C7FD054630688007D1D4FFF7C1FD401B41
:100DD0000228F7D9C0E00020C4F242200021C0F868
:100DE0008014FFF7B5FD0546706A800718D5FFF738
:100DF000AFFD401B0228F7D9AEE040F20400C2F27A
:100E00000000006844F6D351C1F26201A0FB010169
:100E1000480A019000BF0198411E00280191F9D1B4
:100E20002078400717D4E5698DB1706800F00C0098
:100E3000082846D1012D40D07068216A00F4803224
:100E40008A423AD1616A00F47010884235D100209C
:100E500002B0BDE8F081F0695FEAC00808D4F0692B
:100E600040F08050F061F06900F0805000900098F0
:100E700047F20007C4F200073868C0050FD438688D
:100E800040F480703860FFF763FD05463868C005A0
:100E900005D4FFF75DFD401B6428F7D95CE0E568E9
:100EA000306A1DB1052D41D0012D43D020F0010045
:100EB0003062306A20F004003EE0012002B0BDE85C
:100EC000F0810027C4F2422700203866FFF740FD7A
:100ED000022D05460ED100BF3068800153D5FFF7C3
:100EE00037FD401B02284FF00300F5D902B0BDE8E2
:100EF000F08100BF30688001A9D5FFF729FD401BB4
:100F000002284FF00300F5D9F0E700210160FFF758
:100F10001FFD0546306880077FF530AFFFF718FDED
:100F2000401B02284FF00300F4D9DFE740F0040033
:100F30003062306A40F001003062FFF709FD002D99
:100F4000054641F2883712D0306A800712D4FFF785
:100F5000FFFC401BB842F7D9032002B0BDE8F08186
:100F6000FFF7F6FC401BB8424FF00300BED8306AD2
:100F70008007F5D4B8F1000F3FF555AFF06920F0C8
:100F80008050F0614FE7206AB0F5803F05D171686D
:100F9000A26821F40031114371607168626A21F422
:100FA000741111430843706001203866FFF7D0FCCC
:100FB000044600BF306880013FF549AFFFF7C8FC29
:100FC000001B02284FF00300F4D98FE7411E0020D8
:100FD000B0EB116F1CBF012070474EF21002CEF231
:100FE000000251604EF62351CEF20001F0230B7047
:100FF000072190601160704770470000B0B501682C
:101000000A68CC684B6902F02F05202D04F02005FA
:1010100004D11DB1BDE8B04000F088BA5FEA027C9F
:101020001EBF03F0010E04F4907313EB0E032CD1DA
:10103000130619D514F0800316D090F83920212A10
:1010400011D18268B2F5805F03D10269002A00F0F5
:101050008E80026A531C036212784A60C28C013A85
:101060001304C28476D0B0BD5206FCD514F0400201
:1010700008BFB0BDCA6822F04002CA60202180F8D3
:101080003910BDE8B04000F03BBAD10718BF14F4E6
:10109000807102D1510706D40CE0C16B41F001010F
:1010A000C163510706D5BEF1000F03D0C16B41F0FB
:1010B0000201C163910706D5BEF1000F03D0C16BD9
:1010C00041F00401C163BCF1000F06D55EEA0501E1
:1010D00003D0C16B41F00801C163C16B0029C2D0CC
:1010E000910604D51DB1044600F020FA204601689F
:1010F0004A69C36B02F0400203F00803D21823D000
:10110000CA6822F49072CA604A6922F001024A61F8
:10111000202280F83A204A69520624D54A6922F0F2
:1011200040024A61416BF1B141F22152C0F6000226
:10113000044608464A63FFF76BFA002893D0606BB9
:10114000416BBDE8B04008470446FFF755FF00205B
:10115000E063B0BDC86820F08000C860C86840F097
:101160004000C860B0BDBDE8B040FFF745BF026AAF
:1011700032F8023B6FF35F234B6002626EE70000C0
:10118000002804BF0120704710B5044690F83900CC
:1011900028B9002084F83800204600F061F82420A7
:1011A00084F839002068D4E90212C36823F400539C
:1011B000C360036923F440531A430261D4E9042352
:1011C0001143C268194341F20C639A431143C16051
:1011D0004169A26921F44071114343F60002C4F24F
:1011E00001029042416102D0FFF72CFD01E0FFF7C0
:1011F0003DFDD4E90023192148439900B0FBF1F0EB
:1012000048F21F5CC5F2EB1CA0FB0C314FF69C733F
:101210004909C0F6FF7301FB0300322303EB001002
:10122000A0FB0C03F02000EA531000EB0110C3F305
:101230004311084490601069202120F4904010610F
:10124000506920F02A005061D06840F40050D0600E
:101250000020E06384F8391084F83A1010BD0000D3
:10126000B0B584B040F60004C4F20104006804F58F
:101270004051884201D004B0B0BD41F21800C4F220
:10128000020001686D4641F004010160016801F04F
:10129000040100910099016841F0040101600168B6
:1012A00001F0040100910099016841F4804101605E
:1012B0000068294600F48040009000984FF40070C8
:1012C000009002200190012002900320039020460C
:1012D000FFF73CFA4FF48060009000200190204618
:1012E0002946FFF733FA2520FFF784FB2520032149
:1012F0000322FFF791FB04B0B0BD0000034690F855
:101300003A0020280AD100294FF0010018BF002A16
:1013100000D1704793F83800012801D102207047AE
:101320009962002022219A85DA85D86383F83A10E1
:10133000196883F83800CA6842F48072CA604A6942
:1013400042F001024A61CA6842F02002CA60704756
:10135000006843F60001C4F20101884218BF7047DB
:1013600040F2DC10C2F20000B0F90010002921D4D4
:1013700040F2D002C2F2000289B21378B1F5804F78
:1013800004D20D2B0CD141F4804212E048F2000C43
:101390000022CFF6FF7C0A2B08BF41EA0C0208E0CE
:1013A00040F21412C2F2000253544A1CC62988BFEC
:1013B0000022028040F2D40040F2D001C2F20000CC
:1013C000C2F200010122FFF799BF00002DE9F043AE
:1013D00081B0044690F8390020280DD10E4600292E
:1013E0004FF0010018BF002A02D101B0BDE8F08320
:1013F00094F83800012803D1022001B0BDE8F08341
:10140000012084F838000020E0632120994684F808
:1014100039001546FFF79CFAA584E584A16880464B
:10142000B1F5805F02D1206900283DD03746002603
:10143000002084F83800E08C58B309F1010509E078
:1014400097B117F8010B21684860E08C0138E084FF
:10145000E08CF0B1206800680006F1D4BDB1B9F1AC
:10146000000F0ED122E000BF36F8020B21686FF3A7
:101470005F2048600027E8E701680906E0D4002DF6
:10148000FAD0FFF765FAA0EB080048450ED82068AF
:10149000F2E72068006840062AD4B9F1000F05D0B1
:1014A00019F1010517D01CE00027C1E72068C168C9
:1014B00021F4D071C160416921F001014161202016
:1014C00084F8390084F83A00002084F838000320BA
:1014D00001B0BDE8F08320680168490608D4002DFA
:1014E000FAD0FFF735FAA0EB08004845F3D9DDE75D
:1014F000202084F83900002001B0BDE8F08300000E
:1015000070470000FEE70000FEE7000070470000A3
:101510007047000070470000FFF720BA70470000D6
:10152000406A0021C185C184FFF766BD90F83A107A
:10153000222918BF70478268B2F5805F01D1016926
:1015400049B3816AB2F5805F07D00AB9026922B156
:101550000268526802F07F0201E0026852680A7075
:10156000816A01318162C18D01390A04C18500D0CF
:1015700070470168CA6822F02002CA60CA6822F473
:101580008072CA604A6922F001024A61202180F813
:101590003A10FFF7DDBE0168826A49686FF35F2188
:1015A00022F8021B8262DEE780B540F2D400C2F26C
:1015B0000000FFF723FD41F60000C4F201002021E6
:1015C000FFF7B8F940F27000C2F200000168013183
:1015D000016080BDFEE700007047000040F2CC01D2
:1015E000C2F200010860704780B54EF2180140F267
:1015F000CC02CEF20001C2F2000251F804CC126813
:10160000002350434FF47A7200FB02FE086800BFCB
:101610000A688242FCD003449B1A824228BF63447A
:101620007345104628BF80BDF2E7000043F6000175
:10163000C4F201010A685206FCD5C2B24A60704782
:1016400070B584B041F21800C4F20200016840F69F
:10165000004441F0080101600168C4F2010401F096
:1016600008010091009901686D4641F04001016058
:101670000068202600F04000009000980120CDE98D
:10168000010003200390204629460096FFF75EF8EC
:10169000009604F5406630462946FFF757F8204685
:1016A00020210122FFF74EF9304620210122FFF7C9
:1016B00049F904B070BD000090B040F60044C4F297
:1016C0000104FFF759F94FF4E01000F0ADF848209D
:1016D000FFF784FF4FF4E13000F0D4F8FFF7B0FFDC
:1016E0002046202100224FF0000BFFF72BF940F29B
:1016F000D400C2F2000090E88E00D0E904658DE8C5
:101700008E0000F120078ECFD0E906CECDE904652A
:10171000D0E90C65D0E90E400DF1200888E88E0074
:1017200040F2DC1840F21417CDE90E40CDE90C650B
:10173000C2F200080FF2A80AC2F200076C4631A5F7
:101740004FF00009CDE906CE02E00A20FFF74CFF7A
:10175000B8F90000B0F1FF3F15DCC6B25046314683
:10176000FEF770FD2046394632464FF47A73FFF794
:101770002DFE009801684906FCD52846FEF7DEFDDF
:10178000A8F800B0E4E709F1010945F629401FFA7D
:1017900089F6CCF28F2070434AF614614FEAF000CC
:1017A000C0F24711884205D8FEF72CFF014616A06B
:1017B000FEF748FD4EF6EF60CEF6EE60704348F659
:1017C00088014FEA7000C0F688018842BDD840F613
:1017D0000040C4F201002021FFF7ACF8B5E700BFDC
:1017E0000D0A796F75722073656E646564206D658E
:1017F00073736167657320776572653A25640D0AB6
:10180000000000000D0A0D00696E7075742C656E85
:101810006420617320656E7465723A657874693A04
:1018200025640D0A00000000F0B58FB005AD044638
:1018300028462821FEF798FD0120002605904FF448
:1018400080300227CDE90606CDE90C7028460496C3
:10185000CDE90266CDE900660E94FFF71BFA00B1F0
:10186000FEE70F20CDE900074FF48060CDE90306C5
:10187000684602210296FFF70BF900B1FEE70FB0B0
:10188000F0BD000010B540F2D40443F60001C2F2EE
:101890000004C4F2010100220C23C4E90010204618
:1018A000C4E90222C4E90423A261FFF769FC40F203
:1018B000D001C2F2000120460122BDE81040FFF72E
:1018C0001DBD010200000000000000000102030431
:1018D00006070809000000000102030402030405D2
:1018E000060708090A0B0C0D0E0F1010101900083E
:1018F00000000020100000009401000820190008DA
:1019000010000020D8070000B4010008000000000B
:10191000010000000024F40001000000100000009D
:0400000508000131BD
:00000001FF
