:020000040800F2
:10000000980E0020490100081D310008272400082F
:10001000352F00082B0D0008D13A00080000000021
:10002000000000000000000000000000F93200089D
:100030002D0D0008000000001F31000845330008A6
:100040006301000863010008630100086301000800
:100050006301000863010008390E00083F0E000824
:100060006301000863010008450E000863010008F1
:1000700063010008630100086301000863010008D0
:1000800063010008630100086301000863010008C0
:1000900063010008630100086301000863010008B0
:1000A00063010008630100086301000863010008A0
:1000B0006301000863010008630100086301000890
:1000C0006301000863010008630100086301000880
:1000D00063010008C53A00086301000863010008D5
:1000E0006301000863010008630100086301000860
:1000F0006301000863010008630100086301000850
:10010000630100086301000863010008630100083F
:10011000F53400086301000863010008630100086A
:10012000630100086301000863010008630100081F
:10013000DFF810D000F08CFB00480047F14A0008BF
:10014000AFF30080980E002006488047064800471D
:10015000FEE7FEE7FEE7FEE7FEE7FEE7FEE7FEE777
:10016000FEE7FEE7C933000831010008202A04DB5E
:10017000203A21FA02F00021704721FA02F3D04020
:10018000C2F12002914008431946704740EA01033A
:100190009B0703D009E008C9121F08C0042AFAD23D
:1001A00003E011F8013B00F8013B521EF9D2704701
:1001B000D2B201E000F8012B491EFBD270470022A9
:1001C000F6E710B513460A4604461946FFF7F0FF56
:1001D000204610BD30B505462A460B4612F8010BE5
:1001E00013F8014B08B1A042F8D01CB1002802D08E
:1001F0006D1CF1E7284630BDCAB2401E10F8011F41
:100200008A4202D00029F9D100207047421C10F820
:10021000011B0029FBD1801A704730B5044600202D
:10022000034600E05B1C934203D2E05CCD5C401BC4
:10023000F8D030BD034611F8012B00F8012B002A3D
:10024000F9D11846704700000FB400B58DB010A961
:1002500009900B9000914FF0FF300A9000200C9015
:1002600005480690054807906A4609A80F9900F0CE
:1002700009F90DB05DF814FBA1040008BF040008E3
:100280002DE9FF5F1D464FF0FF3BD5E90146914642
:100290005F464FF00008A9697F1C01988847296ACA
:1002A000824688470028F6D1BAF1FF3F0CD024F4EB
:1002B000C064002E19DD600614D5BAF12B0F09D0E9
:1002C000BAF12D0F0ED103E0584604B0BDE8F09FFF
:1002D00044F48064A9697F1C01988847761E824691
:1002E000002E02DDBAF1300F03D0B9F1000F26D095
:1002F00032E0A969761E44F400747F1C0198884797
:100300008246002E05DDBAF1780F06D0BAF1580FFB
:1003100003D0B9F1000F10D01EE0B9F1000F02D0E8
:10032000B9F1100F18D1A969761E24F400747F1C4E
:10033000019888478246102002E0082000E00A2049
:10034000814609E008FB0908A969761E44F4007497
:100350007F1C019888478246002E05DD494650469D
:1003600000F07BF80028EDDAE96901988847A005DC
:1003700002D46FF00100A8E7E00725D1600613D58D
:10038000600502D5C8F1000000E0404629680A1D5A
:100390002A600968220501D5087015E0220701D5F9
:1003A000088011E008600FE02868011D29600068DE
:1003B000210502D580F8008006E0210702D5A0F8CB
:1003C000008001E0C0F8008038467EE730B50B467B
:1003D000014600202022012409E021FA02F59D4275
:1003E00005D303FA02F5491B04FA02F52844151E49
:1003F000A2F10102F1DC30BD2DE9F05F05460020DD
:1004000092469B4688460646814640241BE0284685
:10041000414647462246FFF7A9FE53465A46C01AB0
:10042000914110D311461846224600F023FA2D1AA6
:1004300067EB01084F4622460120002100F01AFA1E
:1004400017EB00094E41201EA4F10104DFDC4846F1
:1004500031462A464346BDE8F09F3A2800D230385C
:1004600020F02002412A01D3A2F13700884201D3B3
:100470004FF0FF30704700000268114413780160AC
:1004800018467047D1600449516104491162002146
:100490001161114600F014BA79040008B708000889
:1004A000426842B1016811F8013B23B1521EC0E914
:1004B0000012184670470121C160881E70474268CB
:1004C0005AB1C368016843B983688B4205D0491E9D
:1004D000521CC0E90012002070474FF0FF307047F7
:1004E0002DE9FE4F804681EA0300C00F0C460090C4
:1004F00021F0004123F00045B8EB0200A94105D2EC
:100500004046214690461C460B46024623F00040DA
:10051000104347D0270DC7F30A00C3F30A510290D6
:10052000401A019040286BDAC3F3130040F4801B9B
:100530000098924620B10023D2EB030A63EB0B0B29
:1005400001985946C0F14002504600F093F9064622
:100550000D4650465946019A00F09BF910EB0800F1
:100560006141002487EA115284EAE7731A4340D0BC
:10057000009A62B3019A012A4FEA075215DC001B68
:1005800061EB02014FF0004202EA0752CDE900425E
:10059000001C41F5801132462B4600F038FB03B0B9
:1005A000BDE8F08F40462146F9E7001B61EB0201F0
:1005B000001C41F5801300185B412018A2F50017BC
:1005C00047EB030140EAD570B6196D4111E06D08A3
:1005D0004FEA360645EAC0754FEA0752001B61EB49
:1005E0000201001C41F5801149084FEA3000001952
:1005F000514132462B4603B0BDE8F04F00F0F8BA47
:100600000098012240000023D0EB020263EBE0736C
:10061000009821464FEAE074B8EB000061EB04015A
:10062000E9E783F000435BE781F0004158E72DE9FB
:10063000FE4F81EA030404F0004421F000410094DD
:100640004FF0000B23F0004350EA01045ED052EA61
:1006500003045BD0C3F30A54C1F30A552C44A4F23B
:10066000F3340194A0FB0254C1F3130141F480114F
:10067000C3F3130343F4801301FB024400FB034E56
:10068000840A970A44EA815447EA8357A4FB07681F
:1006900002958D0A05FB07854FEA932C04FB0C5449
:1006A0002705029D4FEA065847EA1637B5EB0805BD
:1006B0006EEB070C870E920E47EA811742EA83120F
:1006C000A7FB0201B6EB0B0164EB00042B0D43EA20
:1006D0000C335E1844EB1C50DA465146E7FB02012E
:1006E000C5F313044FEA0B3343EA14534FEA0432C1
:1006F000019C43EA0603A4F10C040294009CCDE99A
:1007000000B400F084FA03B0BDE8F08F0020014689
:10071000F9E72DE9F04D81EA030404F0004B21F0E4
:10072000004514464FF0000A23F0004150EA05024C
:1007300020D054EA01021DD0C5F30A570246C5F382
:100740001303C1F31300C1F30A5640F4801543F4B8
:100750008013A7EB0608101BD64608F2FD3873EB92
:10076000050002D308F1010801E092185B41B8F1DD
:10077000000F03DA00200146BDE8F08D00204FF4A1
:100780008011064684460EE0171B73EB050705D360
:10079000121B63EB050306434CEA010C49084FEAC0
:1007A000300092185B4150EA0107EDD152EA030094
:1007B00012D082EA040083EA0501084305D0101B29
:1007C000AB4106D20122002306E000224FF0004395
:1007D00002E06FF0010253101AEB06004CEB0851D7
:1007E00010EB0A0041EB0B01BDE8F04D00F000BA40
:1007F000C1F30A52C1F3130140F2FF3341F48011F7
:100800009A4202DA00200146704740F233439A428E
:10081000A2F2334202DC5242FFF7A8BC00F02AB831
:1008200030B5041E71F1000404DB4FF00044404277
:1008300064EB0101141E73F1000405DB1C464FF04C
:100840000043524263EB0403994208BF904230BD1B
:10085000064C074D06E0E06840F0010394E807000D
:1008600098471034AC42F6D3FFF766FC908300083B
:10087000B0830008202A04DB203A00FA02F10020AD
:1008800070479140C2F1200320FA03F319439040CE
:100890007047202A06DBCB17203A41FA02F043EAE0
:1008A000E07306E041FA02F3D040C2F12002914029
:1008B000084319467047C0B24FF4F05100F0F6B942
:1008C0002DE9F34F8BB04FF0000801F10C000C46FE
:1008D0004FF0010B46460DF1080A019062690121B3
:1008E00001989047051E2DD0252D2CD0216A8847D0
:1008F000C0B16269012101989047216A88470028A8
:10090000F7D1411E62690198904700E0761CA16909
:100910000B988847216A88470028F7D1E1690B982E
:100920008847DBE7A1690B9888470746A84201D1B1
:10093000761CD3E7E1690B9888477F1C02D1B8F198
:10094000000F6FD047E1002762693D4639460198A4
:1009500090472A2804D16269012101989047012516
:10096000DFF888926269012101989047A0F1300177
:100970000A290AD24F45E5DC07EB870100EB410766
:10098000303FDFD445F01005ECE7E90601D46FF005
:1009900000476C280AD04C2814D0682815D06A2843
:1009A0000DD074281CD07A281AD01DE0626901216C
:1009B000019890476C2802D045F0040514E045F0FA
:1009C00002050DE045F020050AE062690121019869
:1009D0009047682802D045F0080505E045F4006519
:1009E0006269012101989047C4E9015765283DD00B
:1009F00019DC58287AD00CDC452837D004DC2528AF
:100A000026D0412831D131E046282FD047282CD19B
:100A10002CE05B2877D0612828D063287CD064281C
:100A200023D15AE0D1E06F2848D008DC66281DD0D9
:100A300067281BD0692821D06E2816D127E070289E
:100A400045D0732868D0752847D078280DD14DE05F
:100A5000A1690B988847054625283FF469AFE169ED
:100A60000B9888476D1C3FF46AAFB4E023466A4692
:100A70006FF001000B99AFF300809FE045F040005C
:100A80006060A80723464FF0000236D43EE0E80736
:100A90007FF447AF2068011D21600068290501D55A
:100AA00006701BE7290701D5068017E7A90703D5BC
:100AB000F117C0E9006111E706600FE745F040005B
:100AC0006060A80723464FF0080216D41EE040F6E7
:100AD0000E0125EA0100606016E045F0400060600C
:100AE000A80723464FF00A0207D40FE045F0400064
:100AF0006060A80708D5234610226FF001000B990B
:100B0000AFF300805AE007E0234610226FF00100A7
:100B10000B99FFF7B5FB51E04FF000094F464B46EC
:100B2000632802D05B2807D041E02079C00601D4B9
:100B30000120A06001273AE06269012101989047F5
:100B40005E2805D14FF00109626949460198904736
:100B5000216939B900210A46534643F82120491C2E
:100B60000829FADBB0B3216969B9C11700EBD1627A
:100B700053110AEB830122F01F02821A01200B6835
:100B8000904003430B6062690121019890475D2802
:100B9000E8D1B9F1000F09D00020514651F82020CA
:100BA000D24341F82020401C0828F7DB02AB224644
:100BB00000976FF001000B99AFF3008000280CDA6A
:100BC000401C08D1BBF1000F05D04FF0FF300DB035
:100BD000BDE8F08FFFE74046F9E7E90701D108F1EA
:100BE000010806444FF0000B78E60000CCCCCC0C9A
:100BF00010B5141E73F1000408DA401C41F1000125
:100C000092185B411A4301D120F0010010BD2DE97B
:100C1000F04D92469B4611B1B1FA81F202E0B0FA72
:100C200080F220329046FFF725FE04460F4640EA48
:100C30000A0041EA0B0153465A46084313D01146B5
:100C400053EA010019D0C8F140025046FFF78EFA6E
:100C500005460E46504659464246FFF70BFE0843EE
:100C600005D0012004E020463946BDE8F08D002083
:100C7000054346EAE0762C4337430A986305E40AC5
:100C8000A0EB08000022FD0A44EA47540A3002D5CE
:100C900000200146E9E7010510196941DDE9084531
:100CA00000196941BDE8F04DA2E700007F2801D995
:100CB000002208E0064A02EB5002C007127800D179
:100CC000120902F00F020120904008407047000016
:100CD0005083000870B58C1810F8015B15F00703FD
:100CE00001D110F8013B2A1106D110F8012B03E0C5
:100CF00010F8016B01F8016B5B1EF9D12B0705D4CD
:100D00000023521E0DD401F8013BFAE710F8013B15
:100D1000CB1A921C03E013F8015B01F8015B521E31
:100D2000F9D5A142D8D3002070BDFEE7704700007E
:100D3000F0B50E4623490546ADF50D7D09686FF007
:100D40000F001446086029461FA003F0B5F8284696
:100D5000FFF75CFA82B2234629461A4801F012FBDB
:100D60004FF40A77394601A8FFF729FA0025ADF8B4
:100D70002C528BAB3A4601A91248009401F066F858
:100D80000446014612A003F097F834B115A003F011
:100D900093F800200DF50D7DF0BDBDF82C1201A8D3
:100DA0004554014618A003F087F8314601A8FFF723
:100DB00011FA08B10120EDE7314615A003F07CF8E7
:100DC000E7E70000BC0100203E3E3E202573000006
:100DD0005B5B20B4AEBFDAD7B4CCAC3A25645D5DC2
:100DE0000A000000212121205541525420726563E0
:100DF000656976652074696D656F7574206F722002
:100E00006572726F720A00003C3C3C2025730A0038
:100E100021212120457870656374656420726573B3
:100E2000706F6E7365206E6F7420666F756E643AB6
:100E30002025730A00000000012000F0E5B8022020
:100E400000F0E2B8102000F0DFB872B6FEE710B58F
:100E500090F821100022022905D00421816380F836
:100E60002020012010BD01680B6823F00E030B60E9
:100E700001680B6823F001030B6090F84030C46BED
:100E8000012101FA03F3636080F8211080F820202B
:100E9000104610BD2DE9F05F90F8211000240229C2
:100EA00003D004218163012485E001680A6822F0EF
:100EB0000E020A6001680A6822F001020A603F4ED1
:100EC0003E4FB215DFF8F4C0DFF8F090DFF8ECA089
:100ED000DFF8E8B0DFF8E4E00168783F13011502BD
:100EE000ACF1640CA9F15009AAF13C0AABF1280B52
:100EF000AEF1140E4FF48018B14227D9B9420ED08A
:100F0000614512D049451DD0514518D0594518D0DA
:100F1000714501D1424615E0294EB14201D101226D
:100F200010E0274E1436B14201D110220AE0244EBF
:100F30002836B14206D0224A3C32914201D11A46AB
:100F400000E02A461E49091F0A602BE0B94213D06F
:100F5000614517D0494522D051451DD059451DD076
:100F6000714501D142461AE0B14202D14FF0807280
:100F700015E0134EB14201D1012210E0104E14369B
:100F8000B14201D110220AE00D4E2836B14206D0FE
:100F90000B4A3C32914201D11A4600E02A460749E9
:100FA00080394A60012180F82110002180F820104A
:100FB000416B01B188472046BDE8F09F80000240A8
:100FC0000804024070B5044600F030F90546601C84
:100FD00002D004480078044400F028F9401BA042E5
:100FE000FAD370BD980000200121064A012805D0DF
:100FF000022805D0102800D19170704711707047F9
:1010000051707047A8000020044910B50A680242D8
:1010100002D00860FFF7E8FF10BD00001404014093
:101020002DE9F84FDFF8C8910024A9F1040B2346FD
:101030000F2709F1040AABF1040ED1E00125A54008
:1010400006EA0502AA4276D1DFF8A8C14E68A6EBEF
:101050000C0866452BD00DDC032E34D005DC36B3EE
:10106000012E19D0022E2FD11BE0112E16D0122ED8
:101070002AD119E0B8F5881F19D006DCB8F5803FF1
:1010800015D0B8F5801F1FD111E0B8F5001F0ED0A4
:10109000B8F5041F18D10AE0CB6815E0CB681B1D1A
:1010A00012E0CB6808330FE0CB680C330CE08B68A0
:1010B0002BB1012B4FF0080303D0456104E004235A
:1010C00002E0056100E00023FF2A01D8064601E0A6
:1010D00000F104064FEA840501D9A5F12005D6F8F0
:1010E000008007FA05FC28EA0C0803FA05F548EA2F
:1010F0000508C6F800804D68ED0070D53E4DAE691C
:1011000046F00106AE61AD6924F0030605F0010565
:1011100000953A4D06EB050CDCF80850A607360F93
:1011200007FA06F825EA0805DFF8D480404503D120
:101130004FF0000825E052E0DFF8C880404502D1BA
:101140004FF001081DE0DFF8C080404502D14FF0AC
:10115000020816E0DFF8B480404502D14FF00308E2
:101160000FE0DFF8AC80404502D14FF0040808E002
:10117000DFF8A080404502D14FF0050801E04FF0B4
:10118000060808FA06F848EA0508CCF808804D6811
:10119000D9F80060ED024D4601D5164300E09643B4
:1011A0002E604D68DAF80060AD02554601D5164351
:1011B00000E096432E604D68DBF80060AD035D46AD
:1011C00001D5164300E096432E604D68DEF80060BE
:1011D000ED03754601D5164300E096432E60641C6E
:1011E0000A681646E2407FF429AFBDE8F88F000098
:1011F00008040140000011100010024000000140EE
:1012000000080140000C01400010014000140140A2
:1012100000180140001C01408068084000D00120F7
:1012200070470AB1016170470904FBE70148806813
:10123000704700009800002002488168027811443D
:101240008160704798000020074810B5016841F0A0
:1012500010010160032000F075F80F2000F006F87F
:1012600000F024F8002010BD0020024070B50D4DA4
:1012700004464FF47A712878B1FBF0F00A49096806
:10128000B1FBF0F000F0CEFD48B9102C07D20022DF
:101290002146501E00F036F800206C6070BD012021
:1012A00070BD000098000020A40000200C4808B584
:1012B000816941F001018161816901F001010091C1
:1012C000C16941F08051C161C06900F08050009057
:1012D0000448416821F0E06141F00071416008BDBF
:1012E0000010024000000140002809DB00F01F024E
:1012F000012191404009800000F1E020C0F8001178
:1013000070470000F0B40E4B1B680C46C3F3022379
:10131000C3F10705042D00D90425191D072901D2A1
:10132000002300E0DB1E012606FA05F1491E2140DC
:1013300099409E40761E16403143F0BC02F0FABD43
:101340000CED00E0064900F0070208684FF6FF03C5
:10135000184040EA0220034A10430860704700002A
:101360000CED00E00000FA05014901200862704719
:1013700000000E4210B501460020284C04292FD051
:101380000BDC012930D0022929D100F06BF961680A
:10139000C1F38131491C49001FE0082920D01029E0
:1013A0001DD161682268D20119D51D48C1F383425D
:1013B000C903805C0AD56168194AC1F34041921E95
:1013C000515C184AB2FBF1F1484301E01649484329
:1013D0006168490203D440000321B0FBF1F010BD65
:1013E000BDE8104000F04EB9226AC2F30121012984
:1013F00003D1920701D5C80310BD022905D1626A45
:10140000920702D549F6404010BD0329FCD121685E
:101410008903F9D54FF2244010BD000000100240AE
:10142000E04F000800127A0000093D002DE9F84362
:1014300005460078354CC00754D0E0690026C0004E
:1014400008D4E06940F08050E061E069012600F0D6
:10145000805000902E480168C90512D4016880466A
:1014600041F480710160FFF7E1FE074605E000BF2F
:10147000FFF7DCFEC01B642823D8D8F80000C005A5
:10148000F6D5206A10F4407021D0A98801F440718B
:1014900081421CD0206A1F49012220F440700A605A
:1014A00000220A602062C00711D0FFF7BFFE074686
:1014B00041F2883808E000BFFFF7B8FEC11B414584
:1014C00002D90320BDE8F883206A8007F4D5206A9A
:1014D000696820F44070084320621EB1E06920F082
:1014E0008050E0612878800705D56068A96820F4FD
:1014F0004040084360602878C00605D56068696987
:1015000020F48000084360600020DBE70010024008
:1015100000700040400442422DE9F0470F460500AC
:1015200061D0434E306800F00700B84209D23068FD
:1015300020F0070038433060306800F00700B84200
:1015400051D128683B4C810712D5400703D560680C
:1015500040F4E06060602878000703D5606840F4DC
:10156000605060606068A96820F0F0000843606027
:101570002878C00728D06868012810D02168022880
:1015800010D0890700292EDA616821F00301014398
:101590006160FFF74BFE804641F288390DE021681B
:1015A0008903EFE78901EDE7FFF740FEA0EB0801B3
:1015B000494502D90320BDE8F0876068696800F0FA
:1015C0000C00B0EB810FEFD1306800F00700B8429B
:1015D0000BD9306820F0070038433060306800F0E5
:1015E0000700B84201D00120E5E72878400705D57B
:1015F0006068E96820F4E0600843606028780007CC
:1016000006D56068296920F4605040EAC100606036
:1016100000F038F86168084AC1F30311515CC84012
:101620000649086006480068FFF720FE0020C2E770
:101630000020024000100240F04F0008A4000020EB
:101640009C0000200448054900684968044AC1F329
:101650000221515CC8407047A400002000100240E5
:10166000005000080448054900684968044AC1F36D
:10167000C221515CC8407047A40000200010024005
:10168000005000080E4A51680E4801F00C03042B6C
:1016900011D0082B0FD10C48C1F38343C903C05CA0
:1016A0000AD55168084AC1F34041921E515C054A6F
:1016B0005043B0FBF1F070470449484370470000C5
:1016C0000010024000127A00CE4F000800093D00D1
:1016D0002DE9F84F040070D02078C04DC00749D0E4
:1016E0006868C0F38100012807D06868C0F38100F2
:1016F000022809D16868C00306D52868800339D557
:1017000060680028E7D035E06068B0F5803F0BD016
:1017100010B1B0F5A02F11D0286820F480302860D7
:10172000286820F4802002E0286840F48030286097
:10173000606890B1FFF77AFD06460AE0286840F439
:1017400080202860F0E700BFFFF770FD801B642851
:1017500073D828688003F7D50CE0FFF767FD0646CD
:1017600005E000BFFFF762FD801B6428F0D8286801
:101770008003F7D420789A4E80074FF001094FF08C
:10178000000839D5686810F00C0F07D06868C0F3FE
:101790008100022809D16868C00306D42868800740
:1017A00014D52069012808D110E02069B0B1C6F82D
:1017B0000090FFF73BFD074605E00AE1FFF736FD25
:1017C000C01B0228C4D828688007F7D5286861693B
:1017D00020F0F80040EAC10028600DE0C6F8008063
:1017E000FFF724FD074604E0FFF720FDC01B022899
:1017F00023D828688007F7D4207800072CD57948AB
:10180000A169D9B1C0F80090FFF710FD074604E0C8
:10181000FFF70CFDC01B02280FD8686A8007F7D5B8
:1018200071484FF4FA510068B0FBF1F0009000BF2E
:101830000098411E0091FAD20EE080E0C0F80080CE
:10184000FFF7F4FC074604E0FFF7F0FCC01B02289A
:1018500075D8686A8007F7D42078400760D5E869B2
:101860000027C00008D4E86940F08050E861E869CA
:10187000012700F0805000905C480168C90513D42E
:101880000168834641F480710160FFF7CFFC824616
:1018900006E000BFFFF7CAFCA0EB0A0064284ED8A0
:1018A000DBF80000C005F5D5E06801280AD008B1D2
:1018B000052813D0286A20F001002862286A20F049
:1018C000040002E0286A40F001002862E06841F26A
:1018D000883B98B1FFF7AAFC82460BE0286A40F0EB
:1018E00004002862EEE700BFFFF7A0FCA0EB0A01AE
:1018F00059455AD8286A8007F6D50CE0FFF796FCC0
:10190000824605E0FFF792FCA0EB0A0159454CD84E
:10191000286A8007F6D41FB1E86920F08050E8619A
:10192000E06988B36968C1F38101022944D00228C3
:10193000C6F8608004D0FFF779FC044638E034E054
:10194000FFF774FC074604E0FFF770FCC01B022899
:101950002BD828688001F7D4206AB0F5803F05D1E4
:101960006868A16820F4003008436860D4E9080181
:101970000843696821F4741108436860C6F86090F0
:10198000FFF754FC044606E025E000BFFFF74EFCDD
:10199000001B022809D828688001F7D51BE000BF8A
:1019A000FFF744FC001B022802D90320BDE8F88F92
:1019B00028688001F4D40EE00128F7D06868226A14
:1019C00000F48031914204D1616A00F470108842C1
:1019D00001D00120EAE70020E8E700000010024003
:1019E0000000424280044242A400002000700040F7
:1019F000024850F8210080B270470000006C00409F
:101A0000024800EB810091B201607047006C004019
:101A100070B5040003D0607C002610B105E0012001
:101A200070BD2674204600F03DF802206074204608
:101A300000F052F8042550BB204601F071FB30BB8A
:101A40002068416821F007014160A06820B1144876
:101A5000016821F0010101601148001F0168A268BE
:101A600021F46071114301606068411C04D10120C0
:101A7000FFF780FC58B1401E2268C0F3034191601B
:101A8000216880B2C860204601F064FB08B165742B
:101A9000C5E7E67301206073A0736074002070BD19
:101AA000306C004008B50068084988420DD1FFF746
:101AB0005BFC0748C16941F00061C161C06905492B
:101AC00000F0006000900120086008BD0028004080
:101AD000001002403C04424270B504000AD0206865
:101AE000416821F008014160FFF7A0FB05464FF473
:101AF0007A7608E0012070BDFFF798FB401BB042EA
:101B000001D9032070BD206840680007F4D500208B
:101B100070BD70B5040009D0606A002540B1256130
:101B20006561A56294F8510040B10CE0012070BDE0
:101B30006068B0F5827FF4D0E561F2E784F8505038
:101B4000204600F03FF8022084F851002068016828
:101B500021F040010160A088218900F4827001F425
:101B600004410843A18901F400610843217C01F08C
:101B700002010843217D01F001010843218B01F49A
:101B800000710843217F01F03801084394F82010C8
:101B900001F080010843218D01F4005108432168C0
:101BA0000860A069042101EA1040216848602068AB
:101BB000C16921F40061C1616565012084F85100AB
:101BC000002070BD30B585B00024009401940294CB
:101BD000039400681449884223D11448816941F470
:101BE00080518161816901F480510491816941F0E2
:101BF0000401816180690E4D00F004000490A02072
:101C00000090022001900320039069462846FFF7C8
:101C100007FA4020CDE90004694628460294FFF700
:101C2000FFF905B030BD0000003001400010024057
:101C3000000801402DE9FF4F81B01D469346044640
:101C40004FF001090E9EFFF7F1FA074694F8510094
:101C50006168012806D0B1F5827F3CD1A168C9BB7B
:101C6000042838D10298002871D0BBF1000FFBD0B6
:101C7000002DF9D094F8500001282CD04FF0010A23
:101C800084F850A094F85100042802D0052084F86C
:101C900051004FF00008C4F85480C4F838B0E5870C
:101CA000A58702992163E586A586C4F84080C4F81B
:101CB000448020680168490603D4016841F040016E
:101CC0000160E068B0F5006F606808D0F0B3012DE6
:101CD00049D081E0FFE7022005B0BDE8F08F08B1F0
:101CE000012D39D1206B21680088C860206B801CD1
:101CF0002063E08E401EE0862EE020688168890720
:101D00000FD5E18E69B1B9F1010F0AD1216B0988B4
:101D1000C160206B801C2063E08E401EE0864FF087
:101D2000000920688168C9070CD0E18F51B1C068F3
:101D3000A16B0880A06B801CA063E08F401EE08731
:101D40004FF00109FFF772FAC01B01E00BE067E0FA
:101D5000B04201D3701C50D1E08E0028CDD1E08F6D
:101D60000028CAD13EE0206B216800780873206B00
:101D7000401C2063E08E401EE0862DE020688168D4
:101D800089070FD5E18E69B1B9F1010F0AD1216B35
:101D900009780173206B401C2063E08E401EE086B2
:101DA0004FF0000920688168C9070CD0E18F51B15C
:101DB000C068A16B0870A06B401CA063E08F401E40
:101DC000E0874FF00109FFF731FAC01BB04202D3A0
:101DD000701C01D011E086B1E08E0028CED1E08FDA
:101DE0000028CBD13A463146204601F00FFA50B1D7
:101DF0002020606584F8508012E084F851A084F8B7
:101E00005080032068E7A06818B92068C16880681E
:101E1000009084F851A084F85080606D0028F1D0C3
:101E2000012059E710B5401EB0F1807F01D3012099
:101E300010BD4FF0E02460610F21601702F07AF8C6
:101E40000020A06107202061002010BD2DE9F84F7F
:101E5000044690F84200DDF828901F4615460E46CD
:101E6000202802D00220BDE8F88FF6B1EDB14FF086
:101E70000008C4F84480222184F842100121216323
:101E8000C4F83480FFF7D2F9A5858246E585A068BD
:101E90004FF4805B584501D1206940B1354600269A
:101EA000A7F800804FF020083AE00120DBE700258A
:101EB000F6E720680168C9060AD501684168009103
:101EC000398829B10220606384F842800020CAE783
:101ED0000168890618D525B1A168594528D031B1C6
:101EE00007E04068C0F3080026F8020B06E021690D
:101EF000F1B1406800F07F0005F8010B3888401C04
:101F00003880E08D401EE085B9F1FF3F08D0FFF733
:101F10008DF9A0EB0A0149450CD8B9F1000F09D0A1
:101F2000E08D0028C5D1A08DE18D401A3880CBE727
:101F30004068E1E784F84280032094E770477047E7
:101F4000F8B5016804460868CA684B6910F00F0FBD
:101F50004FF0000559D003F0010602F490773743A3
:101F600065D0C10705D0D10503D5616C41F00101F1
:101F70006164410705D5D90703D0616C41F00201C6
:101F80006164810705D5D90703D0616C41F0040174
:101F90006164010707D502F02001314303D0616C71
:101FA00041F008016164616C00293AD0800604D5D3
:101FB000900602D5204601F0D2FA20684069616C93
:101FC000C0F38010090700D460B3204601F0A0FAE6
:101FD00020684069400621D52068143050E8001F71
:101FE00021F0400140E80012002AF5D1E06BA8B1D1
:101FF0006D494163E06BFEF74DFF002811D0E06BA7
:10200000416B01B0BDE8F040084783060FD5930649
:102010000DD52046BDE8F84001F0A1BA2046FFF7F3
:102020008EFFF8BD2046FFF78AFF6564F8BD266B7A
:102030002023012E7CD1C6067AD5D60678D508682D
:102040004868009048694FF00206400640D5E16BB1
:10205000086840680004000CE8D0A28D8242E5D9EF
:10206000E085886920282DD020680C3050E8001FBA
:1020700021F4807140E80012002AF5D12068143064
:1020800050E8001F21F0010140E80012002AF5D1BC
:102090002068143050E8001F21F0400140E8001291
:1020A000002AF5D184F84230256320680C3050E8CE
:1020B000001F21F0100140E80012002AF5D1E06B6A
:1020C000FEF7C5FE6663A08DE18D401A81B22AE05D
:1020D000A08DE18D401A81B2E08D0028A6D00029A4
:1020E000A4D022680C3252E8000F20F4907042E82D
:1020F0000007002FF5D12068143050E8002F22F09F
:10210000010240E80027002FF5D184F84230256312
:1021100020680C3050E8002F22F0100240E8002325
:10212000002BF5D166632046FFF708FFF8BDFFE7F7
:1021300005062BD5150629D594F841002128F5D19F
:10214000A068B0F5805F01D12069B0B1206A411C60
:102150002162216800784860E08C401E0004000C79
:10216000E084E3D12068C16821F08001C16020686B
:10217000C16841F04001C160D8E7206A0088C0F31F
:1021800008004860206A801C2062E5E74006CDD543
:102190005006CBD5CA68204622F04002CA6084F8B7
:1021A000413000F03FF9C1E70135000870B5040087
:1021B00004D094F84100002510B106E0012070BD64
:1021C00084F84050204600F023F8242084F8410091
:1021D0002068C16821F40051C160204601F020FA56
:1021E0002068016921F4904101612068416921F072
:1021F0002A0141612068C16841F40051C1606564F1
:10220000202084F8410084F842006563002070BDFE
:1022100070B586B00024009401940294039403687E
:102220002E482D4E051502210322B34226D1C36943
:1022300043F40023C361C36903F400230493836957
:1022400043F0100383618069CDE9005100F0100074
:10225000CDE90320224D69462846FEF7E1FEE81449
:10226000CDE90004694628460294FEF7D9FE002213
:1022700011463420FFF746F8342028E0194EB342C7
:1022800027D1836943F480438361836903F48043E6
:102290000493836943F0040383618069039200F02F
:1022A000040004907015CDE900010F4E69463046D8
:1022B000FEF7B6FECDE90054694630460294FEF7BB
:1022C000AFFE002211462520FFF71CF82520FFF75E
:1022D0000BF806B070BD0000004C0040001002403A
:1022E00000100140003801400008014090F84230E1
:1022F000202B01D00220704721B11AB100230363C3
:1023000001F0EAB90120704710B51649884227D17B
:10231000154C608840F2FF31884217D2617860889E
:10232000124A0244401C6080117011A10F48FDF751
:1023300051FF68B13A210D48FDF75EFF40B10B49EE
:102340000DA001F0B9FD0120207001E000206080A7
:1023500005490122BDE81040491C0248FFF7C6BFED
:1023600010BD0000BC0100203C01002096060020AA
:102370002B4950440000000072656376454E443A94
:10238000257300002DE9F843044690F84100984673
:1023900016460D46202802D00220BDE8F88385B1FC
:1023A0007EB100206064212084F84100FEF73EFFEA
:1023B000A6848146E684A0682027B0F5805F02D01D
:1023C00003E00120E9E7206910B12E4600250EE068
:1023D00000260CE08021204601F099F9A8B9C6B189
:1023E00016F8010B21684860E08C401EE084E08C08
:1023F0004B464FF00002CDF800800028EAD14FF0A4
:102400004001204601F083F940B184F84170032077
:10241000C3E735F8020BC0F30800E3E784F8417026
:102420000020BAE77047FEE710B5084C102120469F
:10243000FEF7F2FE08B1022010BD10212046FEF783
:10244000EBFE0028F9D0012010BD0000000801407B
:10245000F0B5184B4FF400775F619E155E61164D25
:102460002A242C6080245C611C611E614FEA102CC0
:10247000C5F800C05C611C61C0B228605C611C6171
:102480005E612B2028605C611C611E61080A286067
:102490005C611C61C8B228605C611C615E612C20BB
:1024A00028605C611C611E612A605C611C611F61A7
:1024B000F0BD0000001001400C0C014070B5141A72
:1024C0005E1A641C761C7443049D02F085FC084867
:1024D0004FF48071016142154261064B802102E098
:1024E0001D6041610161641EFAD2026170BD00008D
:1024F000001001400C0C014038B5C848816941F01A
:1025000004018161816941F004018161816941F0C7
:1025100004018161816941F004018161816941F0B7
:1025200004018161BE48016841F0405101600168C9
:1025300021F040410160BB48016841F040710160F9
:10254000016821F040610160016841F04051016083
:10255000016821F040410160416841F003014160A0
:10256000416821F00C014160416841F03001416057
:10257000416821F0C0014160AB494FF01130086063
:10258000091D0860A8484FF6FF751030056032201D
:1025900002F026FAD32002F00DFC02F02FFB02F02D
:1025A0002DFB02F02BFBA14C05EA0020208102F05C
:1025B00025FB21890843A0F51341208141397CD1B5
:1025C000CF2002F0F7FB002002F0E2FBC12002F076
:1025D000DFFB302002F0DCFBED2002F0EBFB64209F
:1025E00002F0D6FB032002F0D3FB122002F0D0FB56
:1025F000812002F0CDFBE82002F0DCFB852002F018
:10260000C7FB102002F0C4FB7A2002F0C1FBCB20F4
:1026100002F0D0FB392002F0BBFB2C2002F0B8FB0B
:10262000002002F0B5FB342002F0B2FB022002F0E1
:10263000AFFBF72002F0BEFB202002F0A9FBEA204E
:1026400002F0B8FB002002F0A3FB002002F0A0FB88
:10265000C02002F0AFFB1B2002F09AFBC12002F069
:10266000A9FB012002F094FBC52002F0A3FB30205F
:1026700002F08EFB302002F08BFBC72002F09AFBA9
:10268000B72002F085FB362002F094FB482002F0D0
:102690007FFB3A2002F08EFB552002F079FBB1203F
:1026A00002F088FB002002F073FB1A2002F070FB9E
:1026B000B62002F07FFB0A2000E0ADE002F068FBEC
:1026C000A22002F065FBF22002F074FB002002F071
:1026D0005FFB262002F06EFB012002F059FBE02098
:1026E00002F068FB0F2002F053FB2A2002F050FB9F
:1026F000282002F04DFB082002F04AFB0E2002F0D9
:1027000047FB082002F044FB542002F041FBA920C3
:1027100002F03EFB432002F03BFB0A2002F038FBB4
:102720000F2002F035FB002002F032FB002002F007
:102730002FFB002002F02CFB002002F029FBE120FF
:1027400002F038FB002002F023FB152002F020FBF2
:10275000172002F01DFB072002F01AFB112002F0E7
:1027600017FB062002F014FB2B2002F011FB562071
:1027700002F00EFB3C2002F00BFB052002F008FBF0
:10278000102002F005FB0F2002F002FB3F2002F0B8
:10279000FFFA3F2002F0FCFA0F2002F0F9FA2B209A
:1027A00002F008FB002002F0F3FA002002F0F0FA39
:1027B000012002F0EDFA3F2002F0EAFA2A2002F0AE
:1027C000F9FA002002F0E4FA002002F0E1FA002019
:1027D00002F0DEFAEF2002F0DBFA112002F0EAFA52
:1027E000322002F0FDF8292002F0E4FA002000F087
:1027F0001FF800200090A0880021401E83B260884E
:10280000401E82B20846FFF759FE05494FF40040CA
:102810000C3108600120207038BD0000001002401B
:102820000408014000100140000C01408C0600200B
:1028300030B500241649F0224FF4A073012803D0CC
:1028400020B1032802D005E0062007E000258D71A5
:102850004A808B80052801D0062803D101258D717F
:102860004B808A8058B1032804D0052804D006285C
:1028700004D004E0C02402E0602400E0A02436205C
:1028800002F098FA44F00800BDE8304002F080BA47
:102890008C0600202DE9FF4F82B0814601909846BA
:1028A0000E468A46580701D0012100E0002101EBC5
:1028B000D80000FB08FB0498294900EB400001EB1D
:1028C000C0000024009045E0B8F10C0F08D0B8F12A
:1028D000100F07D0B8F1180F0DD0B8F1200F12D09B
:1028E000009814E004981F4900EB001001EB400031
:1028F000204485780CE00498194900EBC000603151
:1029000001EBC00003E01849049801EBC010055D1D
:102910000027E80705D00F98314682B24846FFF7F6
:1029200097FD761C7F1C6D08FFB2F6B2082FF0D31E
:1029300009F10100019900F0FF09A9EB01014145EE
:1029400005D10AF10800DDF8049000F0FF0A641CCC
:102950005646A4B25C45B7D306B0BDE8F08F000080
:1029600008500008B4000020D05100082DE9FC4FA9
:10297000DFF88C800546DDE90BBA98F800001C46AC
:1029800016460F46002839D0A9460C2C33D0102CFF
:1029900031D0182C2FD0202C2DD018242BE000BFA4
:1029A000B8F80210091BA94202DA39194D468FB254
:1029B000B8F80400001BB84220DB7F2A0BD2CDE917
:1029C00000BA23463946284602F018F805EB5400B1
:1029D00085B2761C0FE0304600F090FC411C07D019
:1029E000CDE900BAC2B2F9B2E8B22346FFF752FF0E
:1029F000281985B2B61C3278002AD1D1BDE8FC8FE7
:102A00008C06002010B5142000F0B2F8800705D124
:102A10000321BDE81040142000F0F5B810BD7CB5CE
:102A20000446002529460D2000F083F993202070EC
:102A30002020607001A823460090022219460C2035
:102A400000F0EDF8010009D1225C401C5540C0B2F5
:102A50000428F9D3205CA84200D0022108467CBD9E
:102A60002DE9F0410E46074615460421052000F0E9
:102A700036F880210A2000F0C6F8002405E0395D10
:102A8000092000F056F9641CE4B2B442F7D30321E4
:102A9000012000F04EF9FF24052000F069F8641EC3
:102AA00014F0FF0401D04007F6D5222000F060F8B2
:102AB0002870212000F05CF86870BDE8F08170B5E6
:102AC00005460146262000F05AF8040003D12846A6
:102AD000FFF7A5FF044600F00EF8204670BD70B564
:102AE0000C46054600F044F820EA04012846BDE8FB
:102AF000704000F01EB90EB550208DF80400002083
:102B00008DF805000DF10602022101A8FFF7A8FFCC
:102B100002A801AB0090042219460C2000F07FF8B7
:102B20000EBD10B500F042F88D212A2000F001F909
:102B30003E212B2000F0FDF81E212D2000F0F9F899
:102B400000212C2000F0F5F87F21262000F0F1F87C
:102B50008421182000F0EDF84021152000F0E9F85C
:102B60003D21112000F0E5F8BDE81040FFF74ABF15
:102B70007E2101EA400040F0800000F017BB7CB5E8
:102B80000C46054607210D2000F0D3F8257001A85A
:102B900023460090012219460C2000F040F818B995
:102BA000BDF80410102900D002207CBD0F210120A7
:102BB00000F0BFB810B586B093218DF804107021D5
:102BC0008DF80510002101AA435C5418491CC9B2B4
:102BD000A3700529F8D3072101A8D21DFFF740FFF4
:102BE00004A801AB0090092219460C2000F017F848
:102BF00018B9BDF81000182802D0002006B010BD8A
:102C00009DF80400FAE770B50C460546FFF7B0FFE3
:102C100040EA04012846BDE8704000F08AB82DE97A
:102C2000FF5F00270226DDF838A015468B46814657
:102C3000B8460C2805D0B9F10E0F05D11227102087
:102C400001E077273020804647F08001022000F025
:102C500070F880210420FFF742FF80210A20FFF74F
:102C6000D2FF0021012000F064F8002406E01BF8E8
:102C70000410092000F05DF8641CA4B2AC42F6D345
:102C80004946012000F055F8B9F10C0F03D180211D
:102C90000D20FFF7B8FF4FF4FA650420FFF768FF37
:102CA0006D1E2D0404462D0C04D0E00702D114EA59
:102CB000080FF2D080210D20FFF711FF35B106205B
:102CC000FFF756FF10F01B0F04D0022604B0304669
:102CD000BDE8F09F00263C40E00700D00126B9F196
:102CE0000C0FF3D10A20FFF743FF04460C20FFF737
:102CF0003FFF10F007004FEAC40104D00839084430
:102D0000AAF8000001E0AAF8001024B1102C04D9A0
:102D10001024002503E00124FBE7002506E009203C
:102D2000FFF726FF039948556D1CADB2A542F6D3B7
:102D3000CCE77E2202EA400000F050BA2DE9F043D1
:102D400085B000253F48009501950295039581695E
:102D500041F010018161816901F0100104918169E4
:102D600041F020018161816901F0200104918169B4
:102D700041F004018161816901F0040104918169DC
:102D800041F0080181618069DFF8BC8000F0080033
:102D90000490002204214046FEF743FA012220213C
:102DA0004046FEF73EFADFF8A4900122042148468F
:102DB000FEF737FA042601AA01240227009682E8CA
:102DC000B00069464046FEF72BF921480094CDE952
:102DD0000107204F69463846FEF722F9122000907D
:102DE0001D48CDE9010469463846FEF719F920204F
:102DF00003278DE8B10069464046FEF711F901AAA4
:102E0000009682E8B00069464846FEF709F90022BC
:102E100011460620FEF776FA0620FEF765FA002234
:102E200011460720FEF76EFA0720FEF75DFA002232
:102E300011460A20FEF766FA0A20FEF755FA05B099
:102E4000BDE8F0830010024000100140000C01407A
:102E5000000021100008014000001110064805493B
:102E600001604FF0FF3141604FF48071816000F0EC
:102E7000DBB800000028004050010020104810B5C9
:102E80000E4901604FF48271416000218160C16090
:102E90004FF400720161C0E905121822C0E9072150
:102EA000416281620A21C162FEF733FE002803D02D
:102EB000BDE81040FDF7C9BF10BD00000030014063
:102EC000640100200C4810B50A4901604FF4E1315B
:102ED0004160002181600C22C160C0E9041281615F
:102EE000C161FFF763F9002803D0BDE81040FDF78A
:102EF000ACBF10BD004C0040BC0100200C4810B518
:102F00000A4901604FF4E1314160002181600C22E7
:102F1000C160C0E904128161C161FFF747F900286F
:102F200003D0BDE81040FDF790BF10BD0038014050
:102F300004020020FEE700002DE9FE4F33A107C97F
:102F40008DE80700344800683349091D0968DFF837
:102F5000CC8001EB0047B7FBF8F43148314D0188D4
:102F6000A1422DD0048040F2B2764FF4B77A4FF4EC
:102F7000B6790CE0304601F0BFFE20B1544508D3CD
:102F8000A4F5B77401E0A4F26D14761CB6B24C45FA
:102F9000F0D8AE800026E9460CE0A88801F0ACFE2F
:102FA00008B1012E2ED019F80600A04204D8241A28
:102FB000761CB6B21C2CF0D2761CAE71641CEC717F
:102FC000B7FBF8F008FB10704FF46161B0FBF1F251
:102FD0002A70B0FBF1F201FB12033C22B3FBF2F3C7
:102FE0006B70B0FBF1F301FB1300B0FBF2F102FBDD
:102FF0001100A870EA79A979A88801F059FE287211
:10300000BDE8FE8F1D2CD7D31D3CD1E71F1C1F1E12
:103010001F1E1F1F1E1F1E1F182800408051010069
:103020000000002044010020164800B5C1698BB0A3
:1030300041F00061C161C06900F000600090FEF7DE
:1030400093F901211048FEF7D3FC4AF2A5529042B1
:1030500013D001210C48FEF7D3FC0B48FEF7D8FC37
:1030600008B1FDF7F2FE2C2208496846FDF78EF8FC
:10307000684600F00FF80BB000BD0549012008605C
:10308000F9E700000010024050010020A04F0008A6
:103090003C0442421CB58168172901DD172181607B
:1030A00042683B213B2A00DD416002683B2A00DD8B
:1030B000016001780279CDE90021037A0D22072110
:1030C00040F2DF7001F0BEFD04461148C16941F0D5
:1030D0000061C161C06900F000600090FEF744F932
:1030E0000C49086840F0100008600A4AA0B2183283
:1030F0001060200C121F1060086820F0100008609B
:103100000548006841688906FCD500201CBD000008
:10311000001002400428004050010020FEE77047E4
:1031200070B50446FEF782F805464FF47A7606E05D
:10313000FEF77CF8401BB04201D9032070BD206827
:1031400040688006F4D52068416841F01001416074
:10315000002070BD70B504460068416821F0100180
:103160004160FEF763F805464FF47A7607E000BF4A
:10317000FEF75CF8401BB04201D9032070BD206807
:1031800040688006F4D5002070BD00000EB5012314
:103190008DF804000A20009002AA01A90248FEF757
:1031A00049FD9DF808000EBD6401002070B50A4D70
:1031B0000446002204212846FEF733F82046FFF794
:1031C000E5FF0020FFF7E2FF044601220421284624
:1031D000FEF727F8204670BD0010014070B50A4C7C
:1031E0000E460546002204212046FEF71AF828461E
:1031F000FFF7CCFF3046FFF7C9FF2046BDE870401F
:1032000001220421FEF70DB800100140F8B5154663
:103210000E460B46009204460122022100F010F8EF
:1032200040B93346002280212046009500F008F87E
:10323000002804D0606D40F0200060650320F8BDD8
:103240002DE9F8431E46914688460446089DFDF741
:10325000EDFF401B351AFDF7E9FF074625480068DA
:10326000C0F3CB30684338E0701C37D0FDF7DEFF89
:10327000C01BA84203D215B1009860B32CE02068AF
:10328000416821F0E00141606068B0F5827F0BD1B8
:10329000A068B0F5004F02D0B0F5806F04D120686F
:1032A000016821F040010160A06AB0F5005F09D11A
:1032B0002068016821F4005101602068016841F430
:1032C00000510160012084F85100002084F8500072
:1032D0000320BDE8F8830025401E00902068816827
:1032E00038EA010004D000214945BDD10020F0E7B3
:1032F0000121F9E7A40000207047000070B590F9A3
:10330000001090F901200E4B4FF0FF35002000BF58
:1033100000EB001403EB440494F900608E4208D1E2
:1033200094F90140944204D100B2411C05D040B24E
:1033300070BD401C80B20428EAD3284670BD00004E
:10334000B4000020FDF778BF70B596B0282168461C
:10335000FCF735FF14210AA8FCF731FF18210FA84C
:10336000FCF72DFF0920012400904FF48030002548
:1033700004940694CDE901050226CDE907604FF4D7
:10338000E01009906846FEF7A3F908B172B6FEE7AF
:103390000F20CDE90A064FF48060CDE90C500221E0
:1033A0000AA80E95FEF7B8F808B172B6FEE74FF41A
:1033B0000070CDE90F400FA8FEF738F8002801D0C3
:1033C00072B6FEE716B070BD7047000070B50122FE
:1033D00017491848FEF78AFF17A44FF4FA7540F60C
:1033E000B83605E017A000F067FD2846FDF7EAFDB6
:1033F00032461EA12046FDF79BFC0028F2D04FF478
:103400007A70FDF7DFFD1AA000F056FD00F062FBB8
:103410001DA000F051FD23A000F04EFD00F094FC33
:1034200027A000F049FDBDE870402CA000F044BD8D
:103430003D010020BC01002041542B5253540D0A81
:10344000000000005B5B574152494E475D5D4553AC
:10345000503832363620D6D8C6F4CAA7B0DCA3AC72
:10346000D6D8CAD42E2E2E0A000000004F4B0000E2
:103470005B5B494E464F5D5DC9E8D6C34150C4A36E
:10348000CABD2E2E2E0A00005B5B494E464F5D5D85
:10349000C9E8D6C34150C4A3CABDB3C9B9A62E0A50
:1034A000000000005B5B494E464F5D5DC5E4D6C33E
:1034B000544350B7FECEF1C6F72E2E2E000000006A
:1034C0005B5B494E464F5D5DC5E4D6C3544350B780
:1034D000FECEF1C6F7CDEAB3C9000000544350B7A1
:1034E000FECEF1C6F7C8ABB2BFC5E4D6C3CDEAB3D2
:1034F000C92E0A000148FEF723BD0000BC010020D0
:1035000010B5406A0021C185C184FEF718FD10BDC9
:1035100001680C3151E8002F22F4907241E8002339
:10352000002BF5D10168143151E8002F22F001027F
:1035300041E80023002BF5D1016B012909D1016875
:103540000C3151E8002F22F0100241E80023002B3B
:10355000F5D1202180F8421000210163704708B5A1
:1035600090F84210222901D0022008BD82684FF451
:1035700080539A4201D1016921B1816A9A421BD0DC
:103580004AB10AE00268816A5268C2F308020A80FE
:10359000816A891C08E0026972B10268526802F00F
:1035A0007F020A70816A491C8162C18D491E09042B
:1035B000090CC18503D01BE002685268F1E701687D
:1035C000CA6822F02002CA600168CA6822F48072C8
:1035D000CA6001684A6922F001024A61202180F82C
:1035E000421000214163026B012A03D0FEF78CFEDA
:1035F000002008BD016301680C3151E8002F22F062
:10360000100241E80023002BF5D101680A68D206B8
:1036100002D50A6849680091818DFEF78FFCE7E7C3
:1036200070B5044600680169E26821F44051114315
:1036300001612169A0680843616908432168CA687B
:1036400041F20C639A430243CA6020684169A2694F
:1036500021F44071114341611E492068884202D122
:10366000FEF700F801E0FDF7EDFF00EBC00101EB14
:103670000012606864218000B2FBF0F3B3FBF1F349
:103680006FF018067343B2FBF0F5B2FBF0F605EBF2
:103690008305322303EB0515B5FBF1F5B6FBF1F617
:1036A00005F0F00505EB0615B2FBF0F6B2FBF0F005
:1036B000B0FBF1F06FF01802504306EB800003EB13
:1036C0000010B0FBF1F0216800F00F002844886082
:1036D00070BD00000038014081628285C2850021F2
:1036E0004164222180F84210016921B10168CA6851
:1036F00042F48072CA6001684A6942F001024A617C
:103700000068C16841F02001C160002070472DE9C8
:10371000F843984617460D460446089E24E0701C60
:1037200022D0FDF783FDA0EB0800B0421AD8CEB13D
:103730002068C168490717D5802D15D0402D13D0BA
:103740000168C94309070FD401680025406800904B
:103750002046FFF7DDFE0820606484F84050012019
:10376000BDE8F8830320FBE72068006835EA000025
:1037700004D00020B842D2D00020F1E70120F9E7C0
:103780002DE9FC410020FFF753F84FF6FF740021AC
:103790004FF4A073F02208460094FEF78FFE45F226
:1037A000AF2500211423F02208460095FEF786FE7F
:1037B000102332A201210A20CDE90045FFF7D6F8F7
:1037C00000F0E8F83223F022142100200095FEF7E3
:1037D00075FE4DF6FB56302344221621022000963A
:1037E000FEF76CFE0027CDE90076102328A21E21EB
:1037F0000420FFF7BBF828A000F095F85023F02232
:10380000322100200095FEF759FE4E234422342138
:1038100002200096FEF752FECDE90076102324A286
:103820003C210420FFF7A2F823A000F093F844F60F
:103830004925AA23F022962100200095FEF73EFE9E
:10384000182325A297210A20CDE90045FFF78EF81D
:103850004FF49673E622AF210A200094FEF72EFE65
:1038600000F0E8F8CDE9007410231FA24FF49B711B
:103870001420FFF77BF8BDE8FC81000041747465FB
:103880006E64616E63652053797374656D0000002A
:103890005374617475733A0053797374656D206263
:1038A00065206C756E6368696E672E2E2E000000B1
:1038B0004361726449443A0057616974696E6720D4
:1038C000666F72207365742054435020736572765E
:1038D00065722E2E2E000000526563656E742052B4
:1038E00065636F7264733A0049443A203233393069
:1038F00037343432330000001CB504464DF6FB501B
:1039000000904E23EE2234214820FEF7D7FD4FF6DB
:10391000FF710020CDE90001102322463C214B20FD
:10392000FFF724F81CBD1CB504464DF6FB50009073
:103930003023EE2216214820FEF7C0FD4FF6FF711E
:103940000020CDE90001102322461E214B20FFF765
:103950000DF81CBD7CB504464FF478459623F02243
:10396000502100200095FEF7A9FD4FF6FF70009052
:103970009223EC2254210420FEF7A0FD4FF4FC60BA
:10398000CDE90050182322465A210520FEF7EEFF0C
:103990007CBD000000B585B0FFF7CEFA0F488178F6
:1039A0000091437802780EA102A800F0AFFA45F228
:1039B000AF2000901423F0220021A020FEF77EFD0E
:1039C0004FF4FC614FF6FF70CDE90001102302AA0D
:1039D0000221A020FEF7CAFF05B000BD440100206F
:1039E000253032643A253032643A253032640000A2
:1039F0001CB54FF4FC649623F02250210020009463
:103A0000FEF75CFD4FF6FF7000909223EC225421EC
:103A10000420FEF753FD0094202303A25F213C20E5
:103A20000194FEF7A3FF1CBD537563636573732197
:103A3000000000002DE9FC414FF6FF754FF496732E
:103A4000E622AF210A200095FEF738FD00240A4E39
:103A5000A046B427C4EB041006EB400207EB40007D
:103A6000CDE9008581B210230F20FEF77FFF641C93
:103A7000042CEFDBBDE8FC811D0000201CB54FF6D7
:103A800020549623F022502100200094FEF716FDCA
:103A90004FF6FF7000909223EC2254210420FEF791
:103AA0000DFD4FF4FC60CDE90040202302A264210B
:103AB0003C20FEF75BFF1CBD57616974696E672E81
:103AC0002E2E00000148FEF73BBA00000402002041
:103AD000FEE7000070B522A000F0EEF94FF4FA7591
:103AE00027A66C0005E02AA000F0E6F92846FDF7BD
:103AF00069FA22462FA13046FDF71AF90028F2D0C4
:103B00002DA000F0D9F934A000F0D6F938A605E0D0
:103B100041A000F0D1F92846FDF754FA224625A12C
:103B20003046FDF705F90028F2D043A000F0C4F9B3
:103B300047A000F0C1F94CA605E052A000F0BCF986
:103B40002846FDF73FFA22461AA13046FDF7F0F865
:103B50000028F2D0BDE8704052A000F0ADB90000DE
:103B60005B5B494E464F5D5DC9E8D6C3B9A4D7F744
:103B7000C4A3CABDCEAA41502E2E2E0A00000000BA
:103B800041542B43574D4F44453D320D0A00000030
:103B9000C9E8D6C3B9A4D7F7C4A3CABDCEAA4150B9
:103BA000CAA7B0DCA3ACD5FDD4DAD6D8CAD42E2EA1
:103BB0002E0A00004F4B00005B5B494E464F5D5D97
:103BC000C9E8D6C3B9A4D7F7C4A3CABDCEAA415089
:103BD000B3C9B9A60A0000005B5B494E464F5D5D64
:103BE000C9E8D6C34150B2CECAFD2E2E2E0A00001F
:103BF00041542B43575341503D2257454E5A484953
:103C00004D4F222C2257454E5A48494D4F222C31B8
:103C10002C340D0A00000000C9E8C9E8D6C34150A1
:103C2000B2CECAFDCAA7B0DCA3ACD5FDD4DAD6D8D3
:103C3000CAD42E2E2E0A00005B5B494E464F5D5DB6
:103C4000C9E8D6C34150B2CECAFDB3C9B9A60A006D
:103C50005B5B494E464F5D5DC9E8D6C3B1BEBBFA5A
:103C600049502E2E2E0A000041542B4349504150FA
:103C70003D223139322E3136382E382E31220D0A7E
:103C800000000000C9E8D6C3B1BEBBFA4950CAA7BC
:103C9000B0DCA3ACD5FDD4DAD6D8CAD42E2E2E0AE9
:103CA000000000005B5B494E464F5D5DC9E8D6C32E
:103CB000B1BEBBFA4950B3C9B9A60A0070B50546F2
:103CC0008EB014460E4610A000F0F6F83421684677
:103CD000FCF775FA23462A4612A1684600F016F949
:103CE0004FF47A752A4614A16846FDF721F831464B
:103CF00012A000F0E1F82B46224631461148FEF7AB
:103D000041FB0EB070BD000053656E64696E6720A4
:103D10006461746120746F20636C69656E742E2E0B
:103D20002E0A000041542B43495053454E443D2533
:103D3000642C25640D0A00004F4B000073656E640F
:103D40003A257300BC01002070B54FF4FA751CA62B
:103D50006C0005E01EA000F0AFF82846FDF732F930
:103D6000224623A13046FCF7E3FF0028F2D021A031
:103D700000F0A2F825A605E02AA000F09DF828464C
:103D8000FDF720F922461AA13046FCF7D1FF0028A2
:103D9000F2D02BA000F090F833A605E036A000F09A
:103DA0008BF82846FDF70EF9224611A13046FCF7A4
:103DB000BFFF0028F2D0BDE8704037A000F07CB80B
:103DC00041542B4349504D55583D310D0A000000D8
:103DD000B6E0C1ACBDD3CAB9C4DCCAA7B0DCA3ACE1
:103DE000D5FDD4DAD6D8CAD42E2E2E0A0000000073
:103DF0004F4B00005B5B494E464F5D5DD2D1CAB967
:103E0000C4DCB6E0C1ACBDD30A00000041542B4372
:103E100049505345525645523D312C383038300DBB
:103E20000A000000544350B7FECEF1C6F7BDA8C14A
:103E3000A2CAA7B0DCA3ACD6D8CAD42E2E2E0A00B4
:103E40005B5B494E464F5D5D544350B7FECEF1C6B5
:103E5000F7BDA8C1A2B3C9B9A6A3ACB6CBBFDABAA5
:103E6000C5383038302E0A0041542B43495044495C
:103E70004E464F3D310D0A00C9E8D6C3495044CAE9
:103E8000FDBEDDB8F1CABDCAA7B0DCA3ACD6D8CAA6
:103E9000D42E2E2E0A0000005B5B494E464F5D5D1E
:103EA000C9E8D6C3495044CAFDBEDDB8F1CABDB3A6
:103EB000C9B9A62E0A0000000FB4054B10B503A91E
:103EC000044A029800F018F910BC5DF814FB0000D9
:103ED000D94A0008400100200FB47CB50C0009ADA0
:103EE00001D0611E00E00021CDE90001064B6A46C9
:103EF0002946089800F000F9002C02D0009A002111
:103F000011707CBC5DF814FBFF4700080FB4084B30
:103F100010B504A902AA039800F0EEF8044602A91D
:103F2000002000F077FC204610BC5DF814FB000078
:103F3000154800080907090E002804DB00F1E020FD
:103F400080F80014704700F00F0000F1E02080F8C6
:103F5000141D704702E008C8121F08C1002AFAD1D8
:103F600070477047002001E001C1121F002AFBD1F9
:103F7000704700002DE9FF5F82B00021DDE90430C9
:103F8000020DDDF840B0034318D044F61050A2F201
:103F9000FF3242431514119801281FD0A5EB0B00E6
:103FA000401C5FEA000A4FF000064E4FDFF83891E0
:103FB000B046504615D5CAF1000413E0119801240B
:103FC0004AA3012801D16FEA0B010298119AC0E9B6
:103FD0000031C0E9024206B0BDE8F09FCBF100001D
:103FE000DFE704460021404A491842EB0450CDE97E
:103FF000001012E0E00707D032463B4640464946F3
:10400000FCF715FB8046894632463B46104619466A
:10401000FCF70DFB06460F466410002CEAD1DDE9E3
:104020000401DDE90023BAF1000F06DAFCF7FFFA1C
:1040300042464B46FCF7FBFA05E0FCF76AFB4246BA
:104040004B46FCF766FB04460E460022284BFCF765
:10405000E7FB03D84FF0FF30014607E00022254B75
:1040600020463146FCF73CFAFCF7C2FB102409E07D
:10407000002C0ADB0A220023FCF7BEF9039B303236
:104080001A55641E50EA0102F2D1641C039AC4F16D
:1040900011031444119A012A03D0012208430DD1BF
:1040A0000AE0084304D000204FF0110B119072E792
:1040B000A3EB0B056D1E0DE05B4504DD4FF0000228
:1040C00005F1010504E003DA4FF00002A5F1010556
:1040D000002AECD002981199C0E90231C0E90045EC
:1040E00079E70000000014400000F03F30000000BD
:1040F0000000F0430000E03F2DE9FF4F95B09A46E5
:10410000884606460025EEE1252877D1002427467B
:10411000F94A0121039400E0044316F8013F203BD3
:1041200001FA03F01042F7D130782A2811D06FF04D
:104130002F033078A0F13002092A16D8039A44F0F0
:10414000020402EB820203EB42021044761C03904D
:10415000EFE758F8042B0392002A03DA504244F4A4
:104160000054039044F00204761C30782E2816D1B7
:1041700016F8010F44F004042A280DD06FF02F0226
:104180003078A0F13003092B09D807EB870302EB45
:104190004303C718761CF3E758F8047B761C307885
:1041A0006C280FD006DC4C2817D068280DD06A2860
:1041B00014D104E0742810D07A280FD10DE044F413
:1041C00000140AE044F4801401E044F440147278CE
:1041D000824202D104F58014761C761C3078662861
:1041E0000BD013DC582877D009DC002875D045287F
:1041F000F6D04628F4D047281AD193E118E0632876
:1042000035D0642879D0652812D18BE1702873D01D
:1042100008DC6728F1D069286FD06E280DD06F2890
:1042200006D1ACE073282CD0752874D0782853D0F0
:104230005246179990476D1C54E1C4F3025002286E
:1042400009D003280DD0D8F8001004280DD00D6037
:1042500008F1040846E1D8F80010EA17C1E9005255
:10426000F6E7D8F800100D80F2E70D70F0E718F8C7
:10427000041B8DF8001000208DF80100EB46012092
:1042800003E058F804BB4FF0FF3061074FF0000126
:1042900002D40DE009F101018946B9420FDA8145E6
:1042A000F8DB1BF809100029F4D108E009F101013D
:1042B00089468142FADB1BF809100029F6D10398E0
:1042C0005346A0EB090721463846179A00F080FABA
:1042D000284400EB090507E044E008E10DE01BF885
:1042E000010B524617999047B9F10109F7D253468D
:1042F00021463846179AF2E039E00A21C4F3025207
:104300004FF0000B0091022A06D058F8040BC11799
:10431000032A09D00AE023E008F1070020F0070291
:10432000F2E80201904605E000B2C117042A01D16B
:1043300040B2C117002906DA0A460021404261EB6B
:1043400002012D2202E0220504D52B228DF8042043
:10435000012203E0E20701D02022F7E7914657E06F
:104360000A2100E010214FF0000B00910BE010211A
:104370004FF0000B44F004040827009103E00820EC
:104380004FF0000B0090C4F30252022A05D058F8F7
:10439000040B0021032A08D008E008F1070020F0F0
:1043A0000702F2E80201904603E080B2042A00D13D
:1043B000C0B24FF0000922072AD53278702A07D000
:1043C000DDF800C08CF0100C5CEA0B0C05D00EE0A0
:1043D00040228DF80420012208E050EA010306D0B3
:1043E00030238DF804308DF8052002229146009B81
:1043F00083F0080353EA0B030AD150EA010201D10A
:10440000620705D530228DF804204FF001097F1E88
:104410003278582A04D039A20C920CAA02920BE0EE
:104420003BA2F9E75B46009AFBF7E6FF0C9B9B5C1F
:10443000029A521E0292137050EA0102F2D10298BF
:1044400004A9081A00F1200B600702D524F4803477
:1044500000E001275F4502DDA7EB0B0000E0002034
:1044600000EB0B01009003984944401A0390E003CD
:1044700006D453462146179A039800F0A9F905443B
:10448000002706E001A85246C05D179990476D1CB1
:104490007F1C4F45F6DBE0030CD553462146179AA7
:1044A000039800F095F9054404E03020524617992E
:1044B00090476D1C0099481E00900029F5DC08E02B
:1044C0000298029952460078491C02911799904728
:1044D0006D1CBBF10001ABF1010BF1DC5BE100F005
:1044E00065F90544761C307800287FF40DAE19B0CC
:1044F0002846BDE8F08F0000092801003031323332
:10450000343536373839616263646566000000000F
:1045100030313233343536373839414243444546F9
:1045200000000000600700D4062708F1070020F013
:104530000700F0E80223804603F0004C5FEA0C001D
:1045400001D097A009E0200501D596A005E0E0077D
:1045500001D095A001E0AFF24C001390307823F029
:10456000004365280CD006DC452809D046281DD01C
:1045700047287FD13BE0662818D067287AD136E0FB
:104580000021112F01DB112000E0781CCDE9000192
:1045900004A90CA8FFF7EEFCDDE90D010C9A4FF021
:1045A000000B07F10109109200914EE04FF000401E
:1045B0000097CDE9011004A90CA8FFF7DBFCDDE9A9
:1045C0000D020C9B0F994FF0000B91461093009237
:1045D00011B9791C00EB0109B7EB090003D4C0F154
:1045E000FF3B07F10109A9EB0700019042E0012F11
:1045F00000DA01270021112F01DD112000E03846EB
:10460000CDE9000104A90CA8FFF7B4FCDDE90D0118
:104610000C9A00914FF0000BB946109221070FD46D
:10462000009A4A4503DA914601E0A9F10109B9F17E
:10463000010F05DD109AA9F10101515C3029F4D078
:10464000B84202DA10F1040F03DA0121CDE90110BA
:1046500010E0002803DC8344A9EB000102E0411CC8
:10466000494500DD8946A0EB0B00401C01904FF04E
:1046700000400290200705D40198484502DB4FF026
:10468000FF30019000208DF84B0002980DF14B0790
:10469000B0F1004F25D002200C902B200D900298F5
:1046A00000280CDA404202902D200D9007E00A21EC
:1046B0000298FBF78BFE3031029007F8011D0C9930
:1046C000481E0C900029F2DC02980028EFD1791ED8
:1046D0000D980870307800F0200040F0450007F891
:1046E000020D11A8C01BC01D02901398007800B1E4
:1046F000012000EB0901019801EBE07102980144EF
:104700000398401A401E0390E00306D45346214606
:10471000179A039800F05CF805441398007818B1D4
:104720005246179990476D1CE00323D55346214606
:10473000179A039800F04CF805441BE0BBF1000FFA
:1047400007DB0098584504DD1098179910F80B0006
:1047500001E0179930205246904701980BF1010B68
:10476000401E05F10105019004D12E2052461799F3
:1047700090476D1CB9F10001A9F10109DEDC05E0EB
:1047800017F8010B5246179990476D1C0299481E65
:1047900002900029F4DC53462146179A03989EE6BE
:1047A0002D0000002B000000200000002DE9F0414A
:1047B000044600251E461746880404D405E0394601
:1047C0002020B0476D1C641EF9D52846BDE8F08155
:1047D0002DE9F041044600251E469046C80301D548
:1047E000302700E02027880404D505E041463846FC
:1047F000B0476D1C641EF9D52846BDE8F0814A68B3
:10480000002A06D00A68531C0B6010704868401ECE
:10481000486070470A68531C0B60107070470000B6
:10482000F0B5A1B04448FEF74AF900287CD14249CE
:10483000042208394048FBF7F0FC3F4E0C3E38B9E3
:10484000FCF7F4FCB168401A40F6B831884271D9DF
:10485000F0687060FCF7EAFC374CB0606078E27892
:10486000A1788DE80700237834A240213948FFF76A
:1048700033FB3848FFF740F837A0FFF754F8FFF74D
:10488000B7F8FEF759FB384D38A1A87800906B783F
:104890002A781EA8FFF73AFB207802AFE378A278C7
:1048A000617887E80F00A9786878CDE900012B7856
:1048B00032A21E2116A8FFF70FFB032514F10507EE
:1048C000C5EB051007EB4000A0F11E01FBF7B2FCA1
:1048D0006D1E002DF4DC184816A9401DFBF7AAFC3C
:1048E000FFF7A8F86078E278A1788DE807002378D0
:1048F0002CA2402106A8FFF7EFFA06A92FA0FFF788
:10490000DBFA06A8FBF782FC82B206A93078FFF733
:10491000D5F90948FEF74EF908B1FEF7ECF840F278
:10492000DC50FCF74FFB00E004E02BA0FEF7FBFFA0
:10493000FFF7A4F821B0F0BD180000205549443A13
:104940002025303258253032582530325825303223
:10495000580000004C0200204361726420526561DF
:1049600064656421000000004401002025303264A9
:104970003A253032643A253032640A003E20253030
:1049800032643A253032643A253032642055494445
:104990003A253032582530325825303258253032B9
:1049A00058000000434152443E25303258253032F1
:1049B000582530325825303258000000416C72655D
:1049C0006164792053656E64204361726449443A9E
:1049D0002025730A0000000052656164792E0000F2
:1049E00040F28A214843044948604868002802D0C0
:1049F0004868401EF8E77047AC0000202DE9FF4FE3
:104A00002F4CDDF834B01D460F466180580700D0AA
:104A1000012000EBD50069084843203A607002F09D
:104A2000FF0A0026DFF89C9045E00C2D2CD0102DBD
:104A30002ED0182D30D0202D40D1234901EB8A10E3
:104A40004FF00008805D20702078000605D51FFA21
:104A50008BF239460098FDF7FBFC20787F1C400064
:104A60002070B9F80400BFB2B84227D96088381A5C
:104A7000A84217D100986788401C80B20090B9F80E
:104A8000021081421AD914E00AEB4A000F4906E0ED
:104A90000F4901EB0A10D3E70E490AEBCA0001EBFC
:104AA0008000CDE708F1010000F0FF08B8F1080F21
:104AB000CAD3761CF6B260788642B6D3BDE8FF8FC3
:104AC000AC0000208C060020906B0008D05300083A
:104AD00044580008345E000813B54FF47A7301227D
:104AE00069460248FDF74EFC00981CBD04020020F8
:104AF0001CB5FCF7A9FBFEF727FCFEF71FF9FEF734
:104B0000FDF9FEF7DFF9FEF7B9F9FEF7A7F9FDF7B2
:104B1000F3FCFEF706F80124009423460D2207213A
:104B200040F2E970019400F0FBF8FEF729FEFEF771
:104B30004DFC1C4D4FF47A761BA0FFF7BDF91C48C5
:104B4000FDF7BDFF002829D0FCF770FB6968401A0B
:104B5000B0420AD9FCF76AFB686016A0FEF7CCFEEB
:104B600016A0FEF7E0FEFEF789FFC820FCF72AFA40
:104B7000FEF710FFFDF758FC0128DDD1287800284A
:104B8000DAD110A0FEF7E6FE2C7000F069F912A051
:104B9000FFF792F914A0FEF7DDFECDE7FFF740FE28
:104BA000E6E70000040000207768696C650A0000F1
:104BB000180000204E6F20636172640052656164CA
:104BC000792E0000534554205254432056414C55F1
:104BD000452E2E2E000000000A5345542052544307
:104BE000204F5645520A000052544320534554204A
:104BF00053554343455353210000000070B50F4AFD
:104C00004FF088301060131D18600C484FF6FF7489
:104C1000143004600A498015086145004D61402642
:104C20004E61181D00680E6180B20D614FF01131A8
:104C300011601960014910310C6070BD000C014019
:104C400000100140F0B5891EDDE9055449B2002984
:104C500003DC0C31401E49B280B26426B0FBF6F78B
:104C6000461E40F26D1C06FB0CF606EB9006F61B8A
:104C70004FF4C877B0FBF7F0064440F26F104143A1
:104C80000C2091FBF0F01D303044521E07491044B7
:104C9000084400EB400003EBC000C0EB001005EB44
:104CA0008000C0EB001004EB8000F0BDC606F5FFED
:104CB00010B5032903D20C31401EC9B280B24B1C7F
:104CC00002EB410103EB43030524B3FBF4F364223D
:104CD000B0FBF2F21944014401EB9001891A4FF440
:104CE000C872B0FBF2F008440721401C90FBF1F2BF
:104CF00001FB1200C0B210BD810705D16421B0FBD9
:104D0000F1F201FB120141B94FF4C871B0FBF1F2AD
:104D100001FB120008B1002070470120704700001D
:104D20007CB5DDE90645CDE90045FFF78BFF04467C
:104D30001448C16941F08051C161C16901F08051DD
:104D40000091C16941F00061C161C06900F000607B
:104D50000090FCF709FB0C49086840F0100008605F
:104D6000094AA0B218321060200C121F10600868A7
:104D700020F0100008600548006841688906FCD5ED
:104D800000207CBD0010024004280040500100209B
:104D900006494FF480720A614A154A61044B186053
:104DA0008020486108610A617047000000100140DE
:104DB0000C0C014006494FF480724A614A154A6161
:104DC000044B18608020486108610A617047000048
:104DD000001001400C0C0140F0B51F4C4FF4007C5A
:104DE000C4F814C0A71567611C4E2A2535608025BC
:104DF0006561256127614FEA102EC6F800E0656104
:104E00002561C0B2306065612561100A306065615E
:104E10002561D0B230606561256167612B2030600B
:104E2000656125612761080A306065612561C8B246
:104E3000306065612561180A306065612561D8B20E
:104E400030606561256167612C2030606561256196
:104E5000C4F810C0F0BD0000001001400C0C01406F
:104E600030B595B036A2402102A8FFF735F802A868
:104E7000FBF7CCF9354C82B202A92078FEF71EFF71
:104E80000A20FCF79FF84FF4806529463048FBF76D
:104E900096F94FF4FA600090A31C2A462C492D483D
:104EA000FCF7D4FF2A462A492A48FDF71FFA6088F2
:104EB000002843D0264928A0FEF7FEFF00201290CC
:104EC000139014903A212248FBF796F9401C0446AF
:104ED000014627A0FEF7F0FF14A8009013AB12AA1A
:104EE00026A12046FBF7B0F91298172801DD1720FC
:104EF000129013993B203B2900DD139014993B2914
:104F000000DD149012AC20A094E80E00FEF7D4FF50
:104F100014981399C0B2C9B2CDE9001012980D22AD
:104F2000C3B2072140F2E970FFF7FAFEFEF732FD47
:104F30001420FCF747F817A0FEF7BEFF15B030BDF0
:104F40005254433E414E5954494D45000C000020F7
:104F50008C020020BC0100205B7265636976653AB3
:104F60005D25735B726563697665454E445D0A0035
:104F70000A74696D3A25730A0000000025643E2515
:104F8000643E25640000000025643A25643A2564E7
:104F900000000000525443204F5645520A000000C2
:104FA00001000000010000000100000001000000FD
:104FB000010000007D000000000000000000000073
:104FC00000000000000000000000000001020203D9
:104FD0000405060708090A0B0C0D0E0F101001023C
:104FE00002030405060708090A0B0C0D0E0F10102A
:104FF0000000000000000000010203040607080989
:105000000000000001020304224400C05FD555D512
:105010005FC000000402090F080F080F080F080006
:1050200000FE0A8ABEAAABAABE8A0A0008070008C8
:10503000090A04040A090800482A987F284A10EF40
:1050400008F80800090B05050B0008050205080013
:105050008888FF4800FEAAAAFAAAAE0000080F0836
:1050600006010F0404040F0000800004081800C0AB
:1050700000F84848484848484848FC0000000000FC
:105080000000010780780700E02F2424E42424E4B2
:1050900024242FE0200000000001013F3F202020B9
:1050A0003F2020203F20203F2020203F2030200094
:1050B00000800004183800C000F8F8484848484804
:1050C000484848FC0800000000800187C2380700FB
:1050D000C08F0F04FC040404FC04048FE060000093
:1050E0000000113F01002020202722203F20202007
:1050F0003F2423212030200000000000F010101079
:105100001030D0121C1C1010F0501010981000001D
:10511000000000C0FF0101414141DF4949494949BF
:105120005FC141010101000000201807004040401C
:10513000202011120C080C121130202060202000B9
:105140000000000848C88808080838E8C8040404B3
:1051500004C4762604000000001010101010171070
:1051600010D070FCFF70981413101010101800006D
:105170000040402010080C06030000FF7F000003E1
:1051800004181030602020000000008040F0F896E5
:1051900090909092FC9C90909090909010000000C5
:1051A0000082818080FFBF94949494B4DF9494949F
:1051B0009494969890C00000004020201010080C95
:1051C000040201703F010204080810303020000082
:1051D000000000000818706000008000F8F0101057
:1051E0001010101010101010F81000000000000037
:1051F0000000081870200080700F0000FFFF42427E
:105200004242424242424242FF000000000000008F
:1052100000004040C0E0FC070000FCF8090808F866
:10522000F8080808F8F8080808F8FC08000000006A
:10523000000000003F3F002020203F3F2020203F73
:105240003F2020203F3F2020203F3F2030300000E3
:105250000000000000E0C0404040404040C04044EA
:105260005878504040C0404040406070604000006E
:105270000000000000FFFF080808080808FFFF09F9
:105280000808080808FFFF0908080C0C08000000BF
:1052900000000000F07F030000000808081B6BC935
:1052A0000909090989EB7B3C180000000000000097
:1052B0000040300E034040404020202010101808CD
:1052C0000D07060F0D181810303030703000000038
:1052D000000000001070E04000FCFC0800C06030DE
:1052E000100000E07C180800000000000000000032
:1052F000000002828242221A0EFFFF0A1B32720352
:10530000C2321EFF0202020202FE3E02030200003F
:10531000000009080808C8F89E0F0A08C8F83C09E8
:10532000000000001FF8C0F03F0700000000000070
:1053300000002020201010080C0507030342462E11
:105340001010080C06030103060C1C381010100086
:1053500000000000000004F8080000000000F80849
:1053600008080808080808080808FCF800000000F9
:1053700000020202020202FF028242432280FF82F6
:105380008282828282FAFA82828287C7C08000008B
:1053900000001C0C060603FF01000000E07F070070
:1053A000E0202020203F3F202020F0E000000000EF
:1053B000000008081030381F20100C070100000002
:1053C0007F0808080808080808083F3F0000000098
:1053D00000000000000000000000000000000000CD
:1053E0003F4000000000000000003000400030009E
:1053F0004000000009000BC03D000BC03D0009004B
:1054000018C024407FE0224031800000180024C0F2
:105410001B000D803240018003801C4027401C800F
:105420000740004010006000000000000000000085
:105430000000000000001F802040402000004020AD
:1054400020401F8000000000090006001F800600A9
:1054500009000000040004003F8004000400000074
:1054600000100060000000000000000004000400C4
:1054700004000400040000000000004000000000E0
:1054800000000000002001C00600380040000000BD
:105490001F802040204020401F800000000010405E
:1054A0003FC000400000000018C0214022402440BE
:1054B0001840000010802040244024401B80000041
:1054C00002000D0011003FC0014000003C8024405C
:1054D00024402440238000001F8024402440344086
:1054E000038000003000200027C0380020000000AA
:1054F0001B802440244024401B8000001C0022C04C
:10550000224022401F8000000000000008400000F0
:105510000000000000000000046000000000000027
:10552000000004000A00110020804040090009002A
:10553000090009000900000000004040208011001F
:105540000A00040018002000234024001800000076
:105550001F802040274029401F400000004007C016
:1055600039000F0001C0004020403FC024402440CB
:105570001B8000001F802040204020403080000021
:1055800020403FC0204020401F80000020403FC0FE
:1055900024402E4030C0000020403FC024402E0058
:1055A000300000000F0010802040224033800200B5
:1055B00020403FC0040004003FC020402040204065
:1055C0003FC02040204000000060202020203FC03D
:1055D0002000200020403FC024400B0030C020406D
:1055E00020403FC020400040004000C03FC03C0081
:1055F00003C03C003FC0000020403FC00C402300DF
:105600003FC020001F802040204020401F8000001D
:1056100020403FC024402400180000001F8021408B
:10562000214020E01FA0000020403FC02440260071
:1056300019C0004018C0244024402240318000009E
:10564000300020403FC020403000000020003F805C
:10565000004000403F80200020003E0001C00700C5
:1056600038002000380007C03C0007C038000000A8
:10567000204039C0060039C02040000020003840DA
:1056800007C0384020000000304021C0264038408C
:1056900020C00000000000007FE04020402000000B
:1056A000000070000C00038000400000000040205B
:1056B00040207FE0000000000000200040002000AB
:1056C000000000000010001000100010001000107A
:1056D0000000000040000000000000000000028008
:1056E0000540054003C0004020003FC00440044086
:1056F00003800000000003800440044006400000D6
:1057000000000380044024403FC0004000000380AC
:105710000540054003400000000004401FC0244035
:1057200024402000000002E00550055006500420EF
:1057300020403FC00440040003C00040000004407B
:1057400027C000400000000000100010041027E0F7
:105750000000000020403FC00140070004C004409A
:10576000204020403FC000400040000007C004002F
:1057700007C0040003C00000044007C00440040048
:1057800003C0004000000380044004400380000088
:10579000041007F004500440038000000000038060
:1057A0000440045007F00010044007C00240040009
:1057B00004000000000006400540054004C0000051
:1057C000000004001F800440004000000400078027
:1057D0000040044007C000400400070004C00180EE
:1057E00006000400060001C0070001C0060000001A
:1057F000044006C0010006C0044000000410071069
:1058000004E00180060004000000044005C00640DA
:10581000044000000000000004007BE04020000085
:10582000000000000000FFF0000000000000402029
:105830007BE00400000000004000800040002000E9
:1058400020004000000000000000000000000000F8
:10585000000000000000000000001FCC000C000051
:105860000000000000000800300060000800300068
:1058700060000000022003FC1E20022003FC1E200A
:105880000220000000000E1811043FFF10840C7865
:10589000000000000F0010840F3800C00778188443
:1058A0000078000000780F8410C411240E9800E4E2
:1058B000008400080800680070000000000000007C
:1058C0000000000000000000000007E0181820049D
:1058D00040020000000040022004181807E0000009
:1058E000000000000240024001800FF001800240F1
:1058F000024000000080008000800FF800800080DF
:10590000008000000001000D000E000000000000FB
:105910000000000000000080008000800080008007
:10592000008000800000000C000C0000000000005F
:105930000000000000000006001800600180060062
:1059400018002000000007F00808100410040808E0
:1059500007F000000000080408041FFC0004000415
:105960000000000000000E0C1014102410441184DC
:105970000E0C000000000C18100411041104128811
:105980000C700000000000E00320042408241FFC29
:105990000024000000001F981084110411041088D6
:1059A00010700000000007F0088811041104188826
:1059B0000070000000001C00100010FC13001C0010
:1059C0001000000000000E381144108410841144AF
:1059D0000E38000000000700088C104410440888AE
:1059E00007F00000000000000000030C030C0000A2
:1059F000000000000000000000010106000000009F
:105A0000000000000000008001400220041008088F
:105A100010040000022002200220022002200220A6
:105A200002200000000010040808041002200140B9
:105A30000080000000000E001200100C106C10809E
:105A40000F00000003E00C1813E4142417C4082806
:105A500007D000000004003C03C41C40074000E4E1
:105A6000001C000410041FFC1104110411040E8812
:105A70000070000003E00C1810041004100410085B
:105A80001C10000010041FFC10041004100408086F
:105A900007F0000010041FFC1104110417C41004C7
:105AA0000818000010041FFC1104110017C010009A
:105AB0000800000003E00C181004100410441C78C7
:105AC0000040000010041FFC10840080008010843F
:105AD0001FFC10040000100410041FFC100410042C
