:020000040800F2
:10000000480E002019020008512300084923000867
:100010004D230008A50D0008052D00080000000074
:100020000000000000000000000000007D29000822
:10003000A90D000800000000DD2800088129000843
:10004000092D00083302000833020008E1280008E7
:100050003302000833020008AD0D00083302000827
:1000600033020008E90D00082D0E000833020008D5
:10007000330200083302000833020008330200088C
:10008000330200083302000833020008330200087C
:10009000330200083302000833020008330200086C
:1000A000330200083302000833020008330200085C
:1000B00089290008B5290008330200083302000826
:1000C000330200083302000833020008330200083C
:1000D00033020008D92C000833020008330200085C
:1000E000330200083302000833020008330200081C
:1000F000E12B000833020008592A000833020008E7
:100100003302000833020008C52900083302000842
:100110003302000833020008D1290008152A00081C
:1001200033020008330200083302000833020008DB
:1001300000F002F800F061F814A696E8000CB24452
:10014000B344DA4501D100F058F8BAE80F000FA621
:1001500096E83000A5EB040504EB0607AAEB0704BC
:10016000A7F101074FEA15154FEA3414A4F1010471
:10017000AC4201D300F041F813F0010F18BFFB1A95
:1001800043F0010300F001F8DBE71847103E0000E0
:10019000303E0000103A24BF78C878C1FAD8520720
:1001A00024BF30C830C144BF04680C6070470000F1
:1001B000704700000023002400250026103A28BFC5
:1001C00078C1FBD8520728BF30C148BF0B607047C9
:1001D000642900F0B580732900F081830020704706
:1001E0001FB500F0D1FD04000020002103F0F6F956
:1001F000401C60601FBD10B510BD00F097FD11469A
:10020000FFF7EEFF02F01EFE00F0C2FD03B4FFF7A1
:10021000F2FF03BC02F07EFD094880470948004711
:10022000FEE7FEE7FEE7FEE7FEE7FEE7FEE7FEE7A6
:10023000FEE7FEE704480549054A064B7047000003
:10024000852900083101000848080020480E0020D8
:10025000480A0020480A0020704700000FB40449F3
:1002600010B503AA029800F03FFB10BC5DF814FB28
:10027000940400200FB41CB5084B06AA7B446946C1
:100280000090059800F001FB04460020694600F04C
:100290000FFB20461CBC5DF814FB0000310600007B
:1002A00070B5044685690068C10601D5302600E0B6
:1002B0002026C00707D070BDD4E901213046904701
:1002C000206A401C20626D1EF6D570BD70B50446D4
:1002D00085690078C00707D170BDD4E901212020CD
:1002E0009047206A401C20626D1EF6D570BD70B527
:1002F0000C460546012A05D02878800600D5EA6913
:10030000002302E0012305E05B1C934202D2E05C83
:100310000028F9D1A869E618C01AA861286A18440B
:1003200028622846FFF7BCFF04E0D5E9012114F854
:10033000010B9047B442F8D32846FFF7C7FF70BDC2
:100340002DE9F0410646002410687529314616A5AE
:1003500010D0AFF30080002802DA404213A507E076
:1003600031688A0701D512A502E0490704D511A515
:10037000012401E0AFF3008000210A2206F12407E6
:1003800009E0B0FBF2FCB0FBF2F302FB1C003030E2
:1003900078541846491C0028F3D123462A46304693
:1003A000BDE8F04100F012BA000000002D0000008E
:1003B0002B000000200000002DE9F05F8946044674
:1003C0004FF0000ADFF874B1FB44C0F820A02046CB
:1003D000E1688847002874D0252806D0D4E9012197
:1003E0009047206A401C2062F1E700265F462046C5
:1003F000E16888472028054607DB312D05D27819AA
:1004000010F8200C08B10643F1E7B00701D526F03B
:100410000406C4F81CA00027C4F818A02A2D09D08F
:10042000284603F0D4F838B304EB8708303DC8F809
:10043000185019E059F8041B204604EB870291611B
:10044000E1688847012F054618D1E069002820DAC5
:1004500026F020061DE0D8F8180000EB800005EB20
:1004600040003038C8F818002046E1688847054643
:1004700003F0ADF80028EED1012F0AD02E2D08D1BF
:100480002046E16888477F1C0546022F46F020067B
:10049000C4DBA069002803DA404246F00106A061EF
:1004A000F00701D026F010066C2D0BD0682D09D076
:1004B0004C2D39D06A2D35D0742D35D07A2D33D0CE
:1004C00016E038E0E1682F4620468847B8420546E6
:1004D00009D16C2F26D04FF48060E1680643204696
:1004E0008847054604E06C2F1AD04FF4807006430D
:1004F0000DB3A5F14100192802D8203546F4006655
:100500004A462946204626604E46FFF761FE80B1E6
:1005100001280BD0F61D26F0070000F1080956E768
:100520004020E4E78020D8E70020D6E706F1040960
:100530004DE7284652E7206ABDE8F09F3C320000B4
:100540000FB400B58DB010A9099000910B904FF039
:10055000FF300A9000200C90064878440690064828
:1005600078446A4607900F9909A800F0E3F90DB0A6
:100570005DF814FBF70300000F0400002DE9FF5F96
:100580001D464FF0FF3B91464FF000085F46D5E90E
:100590000146A96901987F1C8847296A82468847D5
:1005A0000028F6D1BAF1FF3F0CD0002E24F4C0642D
:1005B00019DD600614D5BAF12B0F09D0BAF12D0F51
:1005C0000ED103E0584604B0BDE8F09F44F48064C7
:1005D000A96901987F1C8847761E8246002E02DD9D
:1005E000BAF1300F03D0B9F1000F26D032E0A9697B
:1005F000761E01987F1C44F400748847002E8246C2
:1006000005DDBAF1780F06D0BAF1580F03D0B9F171
:10061000000F10D01EE0B9F1000F02D0B9F1100F99
:1006200018D1A969761E01987F1C24F400748847AC
:100630008246102002E0082000E00A20814609E0FE
:10064000A96908FB0908761E01987F1C44F4007410
:1006500088478246002E05DD4946504600F056F98F
:100660000028EDDAE96901988847A00502D46FF007
:100670000100A8E7E00725D1600613D5600502D583
:10068000C8F1000000E0404629680A1D2A60096898
:10069000220501D5087015E0220701D5088011E078
:1006A00008600FE02868011D29600068210502D557
:1006B00080F8008006E0210702D5A0F8008001E064
:1006C000C0F8008038467EE710B5044603E002F02B
:1006D00073FB401C09D014F8010B05490028F6D122
:1006E000BDE810400A2002F067BB4FF0FF3010BD9C
:1006F000940400204FF0000200B51346944696463D
:10070000203922BFA0E80C50A0E80C50B1F1200124
:10071000BFF4F7AF090728BFA0E80C5048BF0CC0D2
:100720005DF804EB890028BF40F8042B08BF704730
:1007300048BF20F8022B11F0804F18BF00F8012BA2
:10074000704700004FF0013C50F8042B51F8043B77
:100750009A4221D1A2EB0C03934313EACC1317D195
:1007600050F8042B51F8043B9A4215D1A2EB0C032C
:10077000934313EACC130BD150F8042B51F8043BEC
:100780009A4209D1A2EB0C03934313EACC13DBD0BA
:100790004FF00000704700BFD01A01BAB1FA81F1E2
:1007A00001F0180122FA01F0CB40DBB2C0B2C01A4E
:1007B000C1F120012CFA01F3D11A914311EAC311BE
:1007C000E6D1704770477047704770472DE9F04792
:1007D0000D4699469246044600F1240801688806B1
:1007E00004D5E06921F01001216000E00120A84259
:1007F00001DD471B00E00027A1697A1902EB09001F
:10080000081AA0612078C00602D42046FFF748FDF0
:10081000002608E0D4E901211AF806009047206A72
:10082000401C761C20624E45F4DB2078C0060AD5B9
:100830002046FFF735FD06E0D4E90121302090473E
:10084000206A401C2062381EA7F10107F4DC07E093
:10085000D4E9012118F805009047206A401C206265
:10086000281EA5F10105F3DC2046FFF72FFD2078B7
:10087000000602D50220BDE8F0870120FBE700005A
:1008800001694A1C02610878704700B58FB0CDE954
:1008900001310021059105497944CDE90310114644
:1008A0006846FFF789FD0FB000BD0000E5FFFFFFC0
:1008B0000A6802F8010B0A60704710B5436913B16A
:1008C000AFF3008001E0FFF712FD012010BD1278A8
:1008D00000F124010A7000224A700122EDE711683C
:1008E0004FF0FF32E9E70000074B70B50D467B443F
:1008F000FFF7CBFF0446284600F010FA10B14FF086
:10090000FF3070BD204670BDC72400003A2800D2D9
:10091000303820F02002412A01D3A2F1370088426A
:1009200001D34FF0FF307047026811441378016023
:1009300018467047D16005497944516104497944AA
:10094000116200211161114600F02EB8EDFFFFFF8A
:1009500053000000426842B1016811F8013B23B125
:10096000521EC0E90012184670470121C160881E5E
:10097000704742685AB1C368016843B983688B42C3
:1009800005D0491E521CC0E90012002070474FF0EC
:10099000FF30704710B5044600F0EEF90068005DC6
:1009A00000F0010010BD00002DE9F34F4FF0000AE8
:1009B0000C4656468DB001200C9001F10C000B90B6
:1009C00062690B9801219047051E2DD0252D2CD052
:1009D000216A8847C0B162690B9801219047216A5A
:1009E00088470028F7D16269411E0B98904700E0C4
:1009F000761CA1690D988847216A88470028F7D19D
:100A0000E1690D988847DBE7A1690D988847A842FE
:100A1000074601D1761CD3E7E1690D9888477F1C12
:100A200002D1BAF1000F6FD06BE162690B98002719
:100A30003D46394690472A2804D162690B98012126
:100A400090470125DFF8D08262690B980121904719
:100A5000A0F130010A290AD24745E5DC07EB8701FE
:100A600000EB4107303FDFD445F01005ECE7E90625
:100A700001D46FF000476C280AD04C2814D06828A5
:100A800015D06A280DD074281CD07A281AD01DE001
:100A900062690B98012190476C2802D045F004054B
:100AA00014E045F002050DE045F020050AE062691A
:100AB0000B9801219047682802D045F0080505E011
:100AC00045F4006562690B9801219047C4E901571C
:100AD00065283DD019DC58287AD00CDC452837D061
:100AE00004DC252826D041289ED131E046282FD08D
:100AF000472899D12CE05B2877D0612828D063283B
:100B00007CD0642823D15AE0F6E06F2848D008DC76
:100B100066281DD067281BD0692821D06E2816D1E1
:100B200027E0702845D0732868D0752847D07828EA
:100B30000DD14DE0A1690D988847252805463FF461
:100B400069AFE1690D9888476D1C3FF46AAFD8E042
:100B50000D9923466A466FF00100AFF30080C5E0AF
:100B600045F0400023464FF000026060A80736D4ED
:100B70003EE0E8077FF447AF2068011D2160006870
:100B8000290501D506701BE7290701D5068017E75F
:100B9000A90703D5F117C0E9006111E706600FE767
:100BA00045F0400023464FF008026060A80716D4C5
:100BB0001EE040F60E0125EA0100606016E045F0F7
:100BC000400023464FF00A026060A80707D40FE0F8
:100BD00045F040006060A80708D5234610220D9913
:100BE0006FF00100AFF3008080E007E010222346A1
:100BF0000D996FF00100FFF7C1FC77E04FF000099D
:100C000063284F46C8464B46CB4602D05B2806D0E9
:100C100038E0E80601D40120A060012732E06269D3
:100C2000D4F80CB00B98012190475E2807D14FF003
:100C3000010949466269D4F80CB00B9890472169C4
:100C400039B900210A4603AB43F82120491C082981
:100C5000FADBD8B3216949B308F1010862690B983E
:100C6000012190475D28F4D1B9F1000F09D000208F
:100C700003A951F82020D24341F82020401C082825
:100C8000F7DB03AB2069002820794FEA40701ED0C3
:100C90005B462246CDF80080CDE901970D990028EA
:100CA0006FF0010020DAAFF300801FE0C11703AA44
:100CB00000EBD1614B1121F01F0102EB8302411ABD
:100CC00013680120884003431360C7E719E00D99BA
:100CD000224600286FF00100009702DAAFF300808F
:100CE00004E0AFF3008001E0AFF3008000280ADAEF
:100CF000401C06D10C9820B14FF0FF300FB0BDE87A
:100D0000F08F5046FAE7E90701D10AF1010A0644DB
:100D100000200C9054E60000CCCCCC0C007B00F002
:100D20008000704700487047300000207546FFF78C
:100D3000F9FFAE4605006946534620F00700854698
:100D400018B020B5FFF776FABDE820404FF0000656
:100D50004FF000074FF000084FF0000BAC46ACE836
:100D6000C009ACE8C009ACE8C009ACE8C00921F092
:100D700007018D467047000010B500F005F8001D12
:100D800010BD00BF592800000048704750000020E7
:100D900010B50446AFF300802046BDE81040FFF7D1
:100DA00035BA0000FEE7000070470000B0B540F221
:100DB00014440120C4F20104012500F0EFF81420CE
:100DC00001F0D8FF04F57B70012100F0E1F9012862
:100DD00007D140F2F440C2F200000168C1F1010104
:100DE00001602560B0BD0000B0B50820082500F006
:100DF000D5F840F2F440C2F20000006880B140F63D
:100E000000441420C4F2010401F0B4FF04F5406072
:100E1000082100F0BDF918B92046202100F0BEF9E4
:100E200040F21440C4F201000560B0BDB0B510201E
:100E3000102500F0B3F840F2F440C2F20000006860
:100E4000A0B141F600041420C4F2010401F092FFA5
:100E50002046102100F09CF940B9A4F54060202103
:100E600000F09CF92046202100F098F940F214404F
:100E7000C4F201000560B0BD90F82110022927D10D
:100E8000026840F2040C1368C4F2020C23F00E0353
:100E9000136013680CF17C018A4223F00101116098
:100EA0001AD940F20841C4F202018A424ED040F2FF
:100EB0001C41C4F202018A4241D040F23041C4F2E6
:100EC00002018A4246D14FF48073CCF8003457E0D7
:100ED00004218163012070474321C4F202018A4248
:100EE0000EDD6B21C4F202018A421BDC4421C4F2F4
:100EF00002018A423BD05821C4F202018A4222E018
:100F00000821C4F202018A422FD01C21C4F202013E
:100F10008A4232D03021C4F202018A4213D14FF406
:100F200080722BE06C21C4F202018A4222D080211F
:100F3000C4F202018A4206D14FF080721EE01023F3
:100F4000CCF800341CE04FF4803217E00123CCF8D9
:100F5000003415E00CF588614FF480338A4208BFF5
:100F60004FF48053CCF800340AE0012206E04FF43D
:100F7000805203E04FF4801200E01022CCF80020F1
:100F8000416B4FF480720029028404BF0020704737
:100F900080B58847002080BD7047000040F21441B2
:100FA000C4F201010A68024214BF08607047FFF7EB
:100FB000F3BF00002DE9F04F82B00E68002E00F064
:100FC000E380A0F1804241F6004540F20043A2F5E3
:100FD0008432C4F201050624C4F201034FEAB227A9
:100FE000A84208BF05244FF0000E4FF001080F255E
:100FF0004FF0000A4FF0000B052F38BF4FEAB22424
:10100000009408E00E680AF1010A36FA0AF20EF1BD
:10101000040E00F0B98008FA0AFC16EA0C09F1D0B7
:101020004E684FF6FF72C1F21002964210DC122E8B
:1010300050D8DFE806F0330A48454F4F4F4F4F4F27
:101040004F4F4F4F4F4F4F414C00D1F80CB041E044
:101050004FF6FF72C1F2210296420FDC0022C1F26C
:10106000110296421AD00022C1F21202964215D005
:101070000022C1F22102964210D02BE00022C1F2E0
:10108000220296420AD00022C1F23102964205D0D5
:101090000022C1F2320296421CD100BF8A6842B1DE
:1010A000012A14BFC0F814C0C0F810C04FF0080BDC
:1010B00010E04FF0040B0DE0CA6802F1040B09E0E8
:1010C0004FF0000B06E0CA6802F1080B02E0CA68A4
:1010D00002F10C0B02467446B9F5807F24BF04323E
:1010E000203C166805FA04F726EA07070BFA04F60F
:1010F00037431760CA79D2067FF584AF41F21807EB
:10110000C4F202073A684FF6084542F001023A601D
:101110003A68CFF6FF7502F001020192019A2AF0B7
:1011200003021A440F2457590EF00C06B440A7438B
:10113000009C04FA06F6374357514E680F25F20318
:101140001A6854BF22EA090242EA09021A605A6880
:10115000B70354BF22EA090242EA09025A60F702C1
:101160009A6854BF22EA090242EA0902B70240F231
:101170000C479A60C4F201073A6854BF22EA090298
:1011800042EA09023A603DE702B0BDE8F08F000094
:101190008068084018BF012070470000C26802EA5A
:1011A0000103914341EA034101617047002A08BFEE
:1011B000090401617047000040F64400C2F20000DB
:1011C0000068704740F2080040F64401C2F2000097
:1011D000C2F2000100780A681044086070470000FD
:1011E00080B542F20000C4F20200016841F0100133
:1011F0000160052000F070F80F2000F005F800F005
:101200002BF8002080BD0000B0B540F20802C2F209
:10121000000240F204011278C2F200014FF47A7326
:101220000968B3FBF2F20446B1FBF2F1084600F0A4
:1012300013FD0F2C4FF001050CD858B94FF0FF30BB
:1012400021460022002500F01BF840F20C00C2F2FB
:10125000000004602846B0BD70470000002848BF69
:10126000704700F01F01012202FA01F11C2202EA7C
:10127000D0004EF20012CEF2000281507047000002
:1012800010B54EF60C5CCEF2000CDCF80030C3F367
:10129000022E8EF00704042C28BF0424BEF10303A1
:1012A0004FF0FF3E0EFA04F438BF0023A1439940EB
:1012B0000EFA03F39A43114300F1604200F00F036A
:1012C000090102F56442043B6344002848BF03F16E
:1012D0000C02117010BD00004EF60C51CEF2000150
:1012E0000A684FF6FF031A4060F30A2242F080605A
:1012F00040F0FD70086070472020C4F20E200121EC
:1013000001607047411E0F294FF0000047D8DFE809
:1013100001F00A35460846464608464646464646D1
:10132000464700F0F9B941F20400C4F20200C16975
:1013300040F202320A40B2F5817F04BF4FF4004010
:10134000704701F44071B1F5407F0FD0B1F5007FD7
:101350001CBF00207047026A920744BF49F6404014
:101360007047B1F5407F1CBF0020704750F8040C57
:101370004FF22441800301EAE070704780B500F02D
:10138000B7F941F20401C4F2020109680222C1F373
:10139000813102EB4101B0FBF1F0BDE880407047C4
:1013A00041F20401C4F202010A6851F8040CC001C0
:1013B0005CBF00207047C2F3834011A3185CD203C6
:1013C00005D440F60012C0F23D0250430BE00A681B
:1013D0000FA3C2F340429A5C41F20023C0F27A03A9
:1013E000B3FBF2F250430968490248BF70474AF61E
:1013F000AB214000CAF6AA21A0FB010148087047B2
:1014000002030405060708090A0B0C0D0E0F101045
:10141000010200002DE9F04182B00446007841F25B
:101420001C06C007C4F202064AD030685FEAC00852
:1014300008D4306840F080503060306800F0805050
:101440000190019847F20007C4F200073868C00510
:1014500012D4386840F480703860FFF7ADFE05465E
:101460003868C00508D4FFF7A7FE401B6428F7D9E9
:10147000032002B0BDE8F081706810F4407012D013
:10148000616801F4407188420DD0706840F24042BA
:10149000C4F24222012320F4407113600023C007EC
:1014A0001360716025D17068616820F44070084352
:1014B000B8F1000F706003D4306820F080503060C5
:1014C0002068810707D556F8181CA26821F440410E
:1014D000114346F8181CC00607D556F8180C616968
:1014E00020F48000084346F8180C002002B0BDE844
:1014F000F081FFF761FE054641F28837706880078A
:10150000D1D4FFF759FE401BB8424FF00300F5D984
:10151000ECE70000002804BF012070472DE9F043EC
:1015200081B042F20008C4F202080446D8F8000074
:101530000D4600F0070088420CD2D8F8000020F0D9
:1015400007002843C8F80000D8F8000000F00700A2
:10155000A8426BD1206841F204098107C4F2020954
:1015600017D5410705D5D9F8001041F4E061C9F855
:101570000010010705D5D9F8001041F46051C9F8F1
:101580000010D9F80010A26821F0F0011143C9F849
:101590000010C00741D1D8F8000000F00700A842B1
:1015A0000CD9D8F8000020F007002843C8F8000044
:1015B000D8F8000000F00700A84237D120684107A2
:1015C00007D5D9F80010E26821F4E0611143C9F8A9
:1015D0000010000708D5D9F80000216920F46050F8
:1015E00040EAC100C9F80000D9F8002002F00C0060
:1015F000082841F20020C0F27A0049D143F6527324
:10160000C2F38341C0F60003595CD20334D440F6E0
:101610000010C0F23D0048433AE0606859F8041CED
:10162000022807D0012824D1890305D4012001B064
:10163000BDE8F0838901F9D5D9F8001021F0030144
:101640000843C9F80000FFF7B7FD064641F28837A6
:10165000D9F80000616800F00C00B0EB810F9AD05F
:10166000FFF7AAFD801BB842F2D9032001B0BDE804
:10167000F0838907DAD5DFE7D9F8002043F2196350
:10168000C2F34042C0F600039A5C4843B0FBF2F05C
:10169000D9F8001043F21B62C1F30311C0F6000237
:1016A000515C40F2040220FA01F140F20C00C2F257
:1016B00000000068C2F200021160FFF7A5FD0020E3
:1016C00001B0BDE8F083000040F2040041F20401E3
:1016D000C2F20000C4F202010068096843F22B6202
:1016E000C1F30221C0F60002515CC84070470000FF
:1016F00040F2040041F20401C2F20000C4F202010F
:101700000068096843F22B62C1F3C221C0F60002EF
:10171000515CC8407047000041F2040CC4F2020C56
:10172000DCF8003003F00C00082841F20020C0F281
:101730007A0018BF704743F65271C3F38342C0F674
:1017400000018A5CD90305D440F60010C0F23D00C8
:1017500050437047DCF8001043F21963C1F3404175
:10176000C0F60003595C5043B0FBF1F07047000035
:10177000002804BF012070472DE9F04182B00446E3
:10178000007841F20006C007C4F2020647D0706834
:1017900000F00C00042808D1306880033FD5606851
:1017A000E8BB012002B0BDE8F081706800F00C00D9
:1017B000082802D17068C003EED4656830682DB186
:1017C000B5F5A02F09D0B5F5803F0AD020F48030C0
:1017D0003060306820F4802005E040F480203060E4
:1017E000306840F480303060FFF7E6FC002D05469D
:1017F00012D000BF3068800311D4FFF7DDFC401B1E
:101800006428F7D916E100BFFFF7D6FC401B642817
:101810004FF0030000F2D88030688003F4D42078C1
:10182000800719D5706810F00C0F07D0706800F0B1
:101830000C00082827D17068C00324D430688007C2
:1018400003D52069012840F0A6803068616920F046
:10185000F80040EAC1003060207800074ED5A0694A
:1018600038B30020C4F242200121C0F88014FFF7F1
:10187000A3FC0546706A80072DD4FFF79DFC401B32
:101880000228F7D9D6E02069002840F20000C4F20F
:10189000422000F0A88001210160FFF78DFC054681
:1018A00030688007D1D4FFF787FC401B0228F7D9A6
:1018B000C0E00020C4F242200021C0F88014FFF7ED
:1018C0007BFC0546706A800718D5FFF775FC401B46
:1018D0000228F7D9AEE040F20400C2F2000000682E
:1018E00044F6D351C1F26201A0FB0101480A019004
:1018F00000BF0198411E00280191F9D120784007CE
:1019000017D4E5698DB1706800F00C00082846D145
:10191000012D40D07068216A00F480328A423AD1A9
:10192000616A00F47010884235D1002002B0BDE831
:10193000F081F0695FEAC00808D4F06940F0805097
:10194000F061F06900F080500090009847F20007C5
:10195000C4F200073868C0050FD4386840F48070BE
:101960003860FFF729FC05463868C00505D4FFF745
:1019700023FC401B6428F7D95CE0E568306A1DB1A0
:10198000052D41D0012D43D020F001003062306A96
:1019900020F004003EE0012002B0BDE8F081002705
:1019A000C4F2422700203866FFF706FC022D0546E8
:1019B0000ED100BF3068800153D5FFF7FDFB401BFF
:1019C00002284FF00300F5D902B0BDE8F08100BF56
:1019D00030688001A9D5FFF7EFFB401B02284FF0CC
:1019E0000300F5D9F0E700210160FFF7E5FB0546AC
:1019F000306880077FF530AFFFF7DEFB401B022821
:101A00004FF00300F4D9DFE740F004003062306AA1
:101A100040F001003062FFF7CFFB002D054641F298
:101A2000883712D0306A800712D4FFF7C5FB401BFD
:101A3000B842F7D9032002B0BDE8F081FFF7BCFB44
:101A4000401BB8424FF00300BED8306A8007F5D47F
:101A5000B8F1000F3FF555AFF06920F08050F0610C
:101A60004FE7206AB0F5803F05D17168A26821F484
:101A70000031114371607168626A21F4741111437D
:101A80000843706001203866FFF796FB044600BFEC
:101A9000306880013FF549AFFFF78EFB001B02283D
:101AA0004FF00300F4D98FE746F60040C4F200007F
:101AB00050F8210080B2704790B246F60042C4F25E
:101AC000000242F821007047002804BF012070473F
:101AD00070B50446407C20B900202074204600F0F8
:101AE0007BF8022060742068416821F008014160A1
:101AF000FFF762FB054600BF20684068060707D471
:101B0000FFF75AFB401BB0F57A7FF5D9002E51D56F
:101B1000FFF752FB054600BF206841688E0608D4D7
:101B2000FFF74AFB401BB0F57A7FF5D9002E06D4AB
:101B300040E0416841F010014160002E3AD5226832
:101B4000A068536846F62C41C4F2000123F0070355
:101B5000536018B14A6822F001024A600A6822F410
:101B60006072104308606068411C04D10120FFF7D7
:101B7000C9FB60B3013821688A6822F00F0242EA8B
:101B800010428A60CA6860F30F02CA60486820F099
:101B900010004860FFF710FB054600BF2068406852
:101BA00086060BD4FFF708FB401BB0F57A7FF5D90A
:101BB000002E03D401200421617470BD40F2011194
:101BC0000020A4F80D100121E073617470BD0421A0
:101BD0000120617470BD000070B590B040F23C40CF
:101BE00041F22004C4F242200121C4F20204016047
:101BF0002068C82540F00100206000BF20688007F1
:101C00000CD40520013D01F0B5F82804F6D10820D8
:101C1000069045F251044FF4007505E0042045F2AA
:101C200050044FF480750690002001260D9006A800
:101C30000996FFF79DFD6846CDE90065FFF7EAFBD1
:101C4000FFF75AFB40F20050C2F200000121224689
:101C5000FFF732FF10B070BD411E0020B0EB116FD6
:101C60001CBF012070474EF21002CEF200025160FC
:101C70004EF62351CEF20001F0230B700721906045
:101C800011607047704700007047000090F83C20DA
:101C9000012A4FF0020209D080F83D20026851610C
:101CA0000121002280F83D1080F83C20104670474A
:101CB000006840F60041C4F20001884200D070473D
:101CC00040F21070C2F2000090F90010002948BFE5
:101CD0007047C9B2402916D24022027040F23862E1
:101CE000C2F2000240F212711268C2F2000100203A
:101CF00008805062106A20F00A001062106A40F0FA
:101D000002001062704710B540F2386441F0800163
:101D1000C2F2000401702046002100F0F5F840F204
:101D20001271C2F2000122680880106A20F00A00D5
:101D30001062106A106210BD10B504460068016997
:101D4000890744BFC1685FEA81713FD42068016997
:101D5000490744BFC1685FEA417143D42068016903
:101D6000090744BFC1685FEA017148D4206801696E
:101D7000C90644BFC1685FEAC1614CD420680169EB
:101D8000C9071CBFC1685FEAC17151D120680169F0
:101D9000090644BFC1685FEA016150D42068016947
:101DA000490644BFC1685FEA41614FD421680869B0
:101DB000800646BFC8685FEA806010BD6FF02002F1
:101DC00020460A61BDE81040FFF75EBF6FF00201D8
:101DD000016101212177806980073ED02046FFF70D
:101DE00067FF40E06FF00401016102212177806903
:101DF00010F4407F3AD02046FFF75AFF3CE06FF0E6
:101E00000801016104212177C069800737D020468D
:101E1000FFF74EFF39E06FF01001016108212177D3
:101E2000C06910F4407F33D02046FFF741FF35E012
:101E30006FF001010161204600F038F8A6E76FF06D
:101E4000800101612046FFF71DFFA7E76FF0400109
:101E50000161204600F064F8A8E7204600F022F86F
:101E6000204600F021F8002020776FE7204600F0A0
:101E700019F8204600F018F8002020776EE7204679
:101E800000F010F8204600F00FF8002020776DE7F2
:101E9000204600F007F8204600F006F800202077E2
:101EA0006CE700007047000070470000006840F6D3
:101EB0000041C4F20001884200D0704740F2107027
:101EC000C2F2000090F900104029B8BF7047C9B2B3
:101ED00001F03F023F2A14D140F23861C2F2000102
:101EE00009680A6A22F00A020A620A6A0A62FF2183
:101EF000017040F21270C2F200004FF6FF710180D3
:101F000070470131017070474FEAB101032984BF66
:101F100000207047006800EB8100406B70470000B4
:101F20007047000070470000B0B501680A68CC68CF
:101F30004B6902F02F05202D04F0200504D11DB1BE
:101F4000BDE8B04000F08ABE5FEA027C1EBF03F02D
:101F5000010E04F4907313EB0E032CD1130619D564
:101F600014F0800316D090F83920212A11D182680C
:101F7000B2F5805F03D10269002A00F08E80026A08
:101F8000531C036212784A60C28C013A1304C28463
:101F900076D0B0BD5206FCD514F0400208BFB0BDEB
:101FA000CA6822F04002CA60202180F83910BDE8DA
:101FB000B04000F0A1B9D10718BF14F4807102D16C
:101FC000510706D40CE0C16B41F00101C163510718
:101FD00006D5BEF1000F03D0C16B41F00201C16311
:101FE000910706D5BEF1000F03D0C16B41F004018B
:101FF000C163BCF1000F06D55EEA050103D0C16BD9
:1020000041F00801C163C16B0029C2D0910604D51B
:102010001DB1044600F022FE204601684A69C36BE8
:1020200002F0400203F00803D21823D0CA6822F459
:102030009072CA604A6922F001024A61202280F847
:102040003A204A69520624D54A6922F040024A6180
:10205000416BF1B142F65142C0F600020446084617
:102060004A63FEF709FF002893D0606B416BBDE81F
:10207000B04008470446FFF755FF0020E063B0BDBD
:10208000C86820F08000C860C86840F04000C860A0
:10209000B0BDBDE8B040FFF745BF026A32F8023B71
:1020A0006FF35F234B6002626EE70000002804BFFD
:1020B0000120704710B5044690F8390028B9002077
:1020C00084F83800204600F061F8242084F83900B4
:1020D0002068D4E90212C36823F40053C360036983
:1020E00023F440531A430261D4E904231143C26824
:1020F000194341F20C639A431143C1604169A269DB
:1021000021F44071114343F60002C4F201029042EF
:10211000416102D0FFF7D8FA01E0FFF7E9FAD4E90C
:102120000023192148439900B0FBF1F048F21F5CED
:10213000C5F2EB1CA0FB0C314FF69C734909C0F6AD
:10214000FF7301FB0300322303EB0010A0FB0C0321
:10215000F02000EA531000EB0110C3F343110844D0
:1021600090601069202120F490401061506920F0A7
:102170002A005061D06840F40050D0600020E06335
:1021800084F8391084F83A1010BD0000B0B584B05E
:1021900040F60004C4F20104006804F5405188428E
:1021A00001D004B0B0BD41F21800C4F202000168D1
:1021B0006D4641F004010160016801F004010091E5
:1021C0000099016841F004010160016801F0040117
:1021D00000910099016841F480410160006829463E
:1021E00000F48040009000984FF4007000900220AE
:1021F000019001200290032003902046FEF7DAFEB2
:102200004FF4806000900020019020462946FEF7A0
:10221000D1FE2520FFF722F8252003210322FFF716
:102220002FF804B0B0BD0000034690F83A00202813
:102230000AD100294FF0010018BF002A00D17047D1
:1022400093F83800012801D10220704799620020DC
:1022500022219A85DA85D86383F83A10196883F8C1
:102260003800CA6842F48072CA604A6942F00102CA
:102270004A61CA6842F02002CA607047006843F6AB
:102280000001C4F20101884218BF704740F62800DF
:10229000C2F20000B0F90010002921D440F214521B
:1022A000C2F2000289B21378B1F5804F04D20D2B2F
:1022B0000CD141F4804212E048F2000C0022CFF62B
:1022C000FF7C0A2B08BF41EA0C0208E040F2607272
:1022D000C2F2000253544A1CC62988BF0022028061
:1022E00040F2207040F21451C2F20000C2F200012C
:1022F0000122FFF799BF00007047000080B540F64B
:102300002C00C2F2000000F019F841F60000C4F2FF
:10231000010020210022BDE88040FEF747BF0000F9
:1023200001684A68920558BF70478A68D20700D191
:1023300070476FF001028A60FFF7E0BF0168C26872
:1023400000200A6070470000FEE70000FEE7000082
:102350007047000080B540F29400C2F200004FF4D4
:102360008061FEF7C7F980BDF0B581B041F200444D
:10237000C4F201040546002704F5406605FA07F09B
:10238000C0B2C20930464FF40051FEF70FFF20469D
:1023900008210122FEF70AFF204608210022FEF74D
:1023A00005FF0137082FE9D1204608210122FEF759
:1023B000FDFE20460821002201B0BDE8F040FEF7F6
:1023C000F5BE0000F0B585B041F21800C4F202007D
:1023D0000168002741F020010160016841F20044DA
:1023E00001F02001019101990168C4F2010441F456
:1023F00080710160006801AD00F480700190019867
:102400000820019011200397029003200490204699
:102410002946FEF7CFFD4FF4005004F540660190C9
:1024200030462946FEF7C6FD204608210122FEF768
:10243000BDFE30464FF400510122FEF7B7FEAE203C
:1024400000F0B2F9D52000F0AFF9802000F0ACF92F
:10245000A82000F0A9F93F2000F0A6F9D32000F051
:10246000A3F9002000F0A0F9402000F09DF9A12080
:1024700000F09AF9C82000F097F9DA2000F094F9FA
:10248000122000F091F9812000F08EF9CF2000F0A9
:102490008BF9D92000F088F9F12000F085F9DB20D4
:1024A00000F082F9302000F07FF9A42000F07CF9E0
:1024B000A62000F079F98D2000F076F9142000F0C4
:1024C00073F9AF2000F070F940F29404C2F20004F6
:1024D00020464FF48061FEF70DF900BF47F0B000D1
:1024E000C0B200F061F9102000F05EF9002000F0A9
:1024F0005BF92046802100F0AFF90137082F04F185
:102500008004EBD105B0F0BD2DE9F04F85B040F26D
:102510009408C2F20008029003927BB3029803EB86
:10252000010E02EB000A4FF0010C0C468B4606E050
:102530000BF1010B0FFA8BF4039AA6451EDD002A5E
:10254000F6D0E4080BF0070508EBC416029C0CFA61
:1025500005F56FEA0509254604E000BF013425B200
:10256000AA45E5DD1FFA8BF73F2FF7D8A7B27F2FDB
:10257000F4D8775D07EA09077755EFE7013B03EBEE
:102580005373D81001EB5173DF1023F007030824B5
:102590000190CB1A07EBE13004EA11311944DDF860
:1025A00038C08BB2C1F108011FFA81FB08EBC014DF
:1025B0004FF00008049300900BE000BF08F1010801
:1025C000039A01995FFA88F09444814204F18004EF
:1025D0002ADB002AF2D00098DDE9025100EB08075F
:1025E00007F1010A664604E00136013905F10105EB
:1025F000E4D07F2DF8D8072F09D896F800E004988A
:1026000014F805900EFA00F040EA09006055BAF19E
:10261000070FE9D83078631993F8802020FA0BF07F
:10262000104383F88000DFE705B0BDE8F08F0000BD
:102630002DE9F04F89B0154612780491002A0590D3
:1026400000F093800DF11F06B01C43F2336A1C4664
:102650000290701CC0F6000A4FF023084FF00009EA
:102660004FF0000B0690039516E000BF02EB42010D
:1026700043F22872C0F6000202EB4101A1F1C0074B
:102680000499062208230097FFF73EFFA1441FFA92
:102690008BF02A5C002A68D050B2069B0BF1010136
:1026A000B0F1FF3F8DF81F2008DC89B26B5C002B76
:1026B0005BD08DF82030029B0BF102018B46B0F10C
:1026C000FF3F4FF00000187012DD0598062C4844BB
:1026D00000B2CBD0082CD9D143F66211C0F600016C
:1026E00001EB0211A1F50077049908221023CAE733
:1026F0009AF8000018B30025574600BF3846314607
:10270000FEF720F848B10135A8B200FB08F11AF82D
:10271000011000FB08A70029F0D1062C12D0039D60
:10272000082CB4D1059804994844033700B210220C
:1027300010230097FFF7E8FE09F11009A7E75746B5
:10274000062CECD1059843F22871C0F600014844EC
:1027500001F1BA07049900B2062208230097FFF797
:10276000D3FE039D09F1060991E709B0BDE8F08F9A
:10277000B0B540F294040025C2F2000445F0B00068
:10278000C0B200F011F8102000F00EF8002000F0A8
:102790000BF82046802100F05FF80135082D04F188
:1027A0008004EBD1B0BD0000F0B581B041F200452E
:1027B000C4F2010505F54064064620464FF4005179
:1027C0000122FEF7F3FC2846082101220827FEF724
:1027D000EDFC20464FF400510022FEF7E7FC2846AE
:1027E00008210022FEF7E2FC7820FFF7BDFD00BFC4
:1027F00020464FF400510022FEF7D8FC284608215D
:102800000122FEF7D3FC284608210022FEF7CEFC69
:10281000013FEDD1284608210122FEF7C7FC2846DA
:1028200008210022FEF7C2FC3046FFF79DFD20463E
:102830004FF400510022FEF7B9FC2846082101227E
:10284000FEF7B4FC20464FF40051012201B0BDE870
:10285000F040FEF7ABBC0000F0B581B042F20004DE
:10286000C4F201040E46074620464FF400510122EF
:10287000FEF79CFCA4F54065284608210122FEF7DE
:1028800095FC20464FF400510022FEF78FFC2846AD
:1028900008210022FEF78AFC7820FFF765FD402022
:1028A000FFF762FD36B1013F17F8010FFFF75CFD3E
:1028B000013EF9D120464FF400510022FEF776FC8C
:1028C000284608210122FEF771FC20464FF40051F2
:1028D000012201B0BDE8F040FEF768BC704700007F
:1028E000F0B583B040F20057C2F200073868406884
:1028F000C00705D000F09AFB38686FF00101416015
:102900003868416889071ED56FF0020140F2EA4538
:102910004160C2F2000528786C78A988AE78AA795F
:10292000EB79CDE900040DA00296FDF797FCAC7899
:10293000A8882B786E78A979EA79651CEDB2CDE983
:10294000006500F0FFFC38686FF00401416000BFD3
:1029500041688906FCD503B0F0BD00BF416C6172CF
:102960006D2054696D653A25642D25642D256420FC
:1029700025643A25643A25640A0000007047000087
:10298000FEF720BC7047000010B540F21854C2F2A8
:10299000000420680069C00708BF10BD41F60000B0
:1029A000C4F201002021FEF7F9FB20686FF001015D
:1029B000016110BD40F26050C2F200000068006981
:1029C0007047000040F23860C2F20000FFF7B4B96F
:1029D00010B540F2A854C2F2000420686FF0010163
:1029E000016141F60000C4F201002021FEF7D6FB90
:1029F00003A0FDF769FE2046BDE81040FFF79CB933
:102A000054494D3620696E74657272757074210D6B
:102A10000000000010B540F2F054C2F2000420683B
:102A20006FF00101016140F60040C4F20100202175
:102A3000FEF7B4FB03A0FDF747FE2046BDE81040BB
:102A4000FFF77AB954494D3720696E746572727513
:102A50007074210D000000002DE9F04381B040F2B8
:102A60001E76C2F20006307843F21045C4F201052A
:102A700078B140F21C70C2F200000021018040F2E7
:102A8000C8602960C2F200000068416201B0BDE880
:102A9000F08340F2C860C2F2000000680169C90713
:102AA0001AD06FF0010101610169890714D440F265
:102AB0001C72C2F20002B2F9007040F2E846BBB2EA
:102AC000C2F200060021002B317079D04FF6FF765C
:102AD000B34277D100237BE040F2E847C2F200071F
:102AE00039780069002946D0800748D540F2C86887
:102AF000C2F2000840460421FFF706FA40F21879B6
:102B00000130C2F20009C9F800004046002100244B
:102B1000FFF7FAF9D9F80020431C40F21471C2F211
:102B200000019A420B602FD201233370AB6940F24F
:102B30001C76C2F200061C04338004D1013202303C
:102B4000C9F8002008600020387055F8101C21F0EA
:102B5000010145F8101CD8F80010CA6822F00202E2
:102B6000CA60CA6822F00402CA60CA6822F0010280
:102B7000CA60286003E0800744BF0120387000204D
:102B8000286001B0BDE8F08300F0D0FC40F21C707A
:102B9000D8F80010C2F20000347004808C624C62DD
:102BA000C86840F00200C860C86840F00100C86012
:102BB000086840F0010008602C6000F0B9FCDEE716
:102BC000012305E04FF0FF33B7F1FF3FC8BF7B00A3
:102BD00013809AB282624162296001B0BDE8F0833D
:102BE00010B540F28064C2F2000420680069C0079A
:102BF00008BF10BD40F2FC41C2F200010868B0F508
:102C0000807F04D3A0F580724FF4807002E0E0B1C1
:102C100080B200220A6043F20041C4F2010158B1BF
:102C20000138086320460121FFF730F82068016869
:102C300041F00101016003E0086820F00100086034
:102C400020686FF00101016110BD0020E3E7000082
:102C5000406A0021C185C184FFF764B990F83A1039
:102C6000222918BF70478268B2F5805F01D10169DF
:102C700049B3816AB2F5805F07D00AB9026922B10F
:102C80000268526802F07F0201E0026852680A702E
:102C9000816A01318162C18D01390A04C18500D088
:102CA00070470168CA6822F02002CA60CA6822F42C
:102CB0008072CA604A6922F001024A61202180F8CC
:102CC0003A10FFF7DBBA0168826A49686FF35F2147
:102CD00022F8021B8262DEE780B540F22070C2F269
:102CE0000000FFF721F941F60000C4F201002021A5
:102CF000FEF754FA40F29000C2F200000168013180
:102D0000016080BDFEE7000040F62C00C2F200002A
:102D1000FFF706BB7047000010B584B041F2180001
:102D2000C4F20200016840F6004441F0080101606D
:102D30000068C4F2010400F00800009000984FF40D
:102D4000807000900120CDE90100032003906946C6
:102D50002046FEF72FF920464FF480710022FEF73F
:102D600025FA04B010BD000040F2F841C2F20001A3
:102D70000860704780B54EF2180140F2F842CEF27A
:102D80000001C2F2000251F804CC12680023504343
:102D90004FF47A7200FB02FE086800BF0A688242A4
:102DA000FCD003449B1A824228BF634473451046FB
:102DB00028BF80BDF2E7000043F60001C4F2010124
:102DC0000A685206FCD5C2B24A60704770B584B03A
:102DD00041F21800C4F20200016840F6004441F0DC
:102DE000080101600168C4F2010401F008010091CA
:102DF000009901686D4641F040010160006820269D
:102E000000F04000009000980120CDE9010003206F
:102E10000390204629460096FEF7CCF8009604F56C
:102E2000406630462946FEF7C5F82046202101229B
:102E3000FEF7BCF9304620210122FEF7B7F904B0B5
:102E400070BD000094B0FEF7CBF94FF4E01000F035
:102E500071FB4820FFF788FF4FF4E13000F098FB4A
:102E6000FFF7B4FFFFF758FFFFF7ACFA00F0DCF90B
:102E700040F2E9701390032012901E20119013204D
:102E8000109032200F9000200E9051A0FDF7E6F92F
:102E900049F6991B40F2EA454CF6CC4A40F6280820
:102EA000C1F6991BC2F2000504AEC0F6CC4AC2F2CC
:102EB00000084FF0000900BF09F101094CF6CD41AF
:102EC0005FFA89F0CCF6CC4100FB01F44FEA7400C4
:102ED000584532D8FFF73EFA00F0A8F82A786B7808
:102EE000AF7830463CA10097FDF7C4F900200021DF
:102EF00032460823FFF79CFBAA88AB79EF7930466E
:102F00003AA10097FDF7B6F90020102132460823B8
:102F1000FFF78EFB287A40F21001C2F2000151F84F
:102F20002020304636A1FDF7A5F9002020213246A9
:102F30000823FFF77DFBFFF71BFC4FEAB400504569
:102F40000DD840F60044C4F2010420462021FEF7CB
:102F500025F920464FF480710022FEF727F90A2058
:102F6000FFF708FFB8F90000B0F1FF3FA4DC11A89B
:102F7000009010A801900FA8029040F26070C2F279
:102F8000000021A113AA12AB0EAF0397FDF7D8FAE8
:102F9000DDE91003DDE90E47DDE91221CDE9000787
:102FA0001DA00294FDF75AF9BDF84C009DF8481099
:102FB0009DF844209DF840309DF83C709DF83840C5
:102FC000CDE9007400F038FA0020A8F8000073E79B
:102FD0006F70656E0000000054696D653A253032EF
:102FE000643A253032643A253032640044617465B5
:102FF0003A253034642D253032642D25303264007A
:103000005765656B3A25730025642564256425643E
:1030100025642564000000002564202564202564C3
:103020002025642025642025640A00002DE9F04352
:1030300042F61800C4F200000168406840F6400201
:1030400000EB014E44F20750CCF22E20AEFB000103
:10305000C2F2000210884FEA114940F2EA484DF2EC
:103060000B7C4845C2F20008C0F2A30C79D043F2B1
:103070008030A2F80090C0F2E11045F6294445F6F0
:1030800028428645CCF28F24C0F28F2240F2B275DE
:1030900029D34FF69266CFF6FF7640F26D174B4676
:1030A00009E000BFBB4230461ED00344B3F5B67FF3
:1030B00005F1010518D9A8B200FB04F14FEAB100EF
:1030C00090424FF000004FEA311188BF0120614566
:1030D000E8D305F00301B1FA81F149090840E1D1D3
:1030E0006FF4B670E1E74B461C2BA8F8045030D3C0
:1030F000A8B205F003016043B1FA81F14FEAB005CF
:10310000490995424FF000024FEA301088BF012272
:10311000114060454FF000004FF0000438BF01201F
:1031200040EA01023DA503E01B2B04F1010412D982
:10313000A0B2411EB1FA81F149091140012903D120
:103140001C2B08D01D3BEFE7285C834203D31B1ADE
:10315000EAE7012200E0621C581C88F8062088F883
:10316000070040F2A32009FB00F04BF2C531AEEBA3
:10317000C010C9F2A211A0FB01124FEAD2294FF4EC
:10318000616109FB110E48F68900C8F68800AEFBA4
:10319000000398F8060043F23436032838BF40F0A5
:1031A0000C0000EB400707F10307C3F23336A7FB1F
:1031B0000676B8F8047098F8075038BF013FBFB2E0
:1031C00045F6294405EB4000C0F28F243844A7FBA4
:1031D000044100EB9700A7FB0C42401A1044304416
:1031E00042F293410130C9F2492180FB0112590991
:1031F00088F801100901A1EB5311AEEB810188F8A9
:10320000021011188A0802EBD171A1EBC101084428
:1032100088F8009088F80800BDE8F0831F1C1F1E86
:103220001F1E1F1F1E1F1E1F2DE9F04184B041F2FB
:103230001C07C4F20207386842F6040840F08050C8
:1032400038603868C4F2000800F08050039003989A
:10325000386840F000603860386800F00060039023
:103260000398FEF749F840F20054C2F200042046E9
:1032700001210125FEF718FC0646A8F104004FF0D5
:10328000FF31002284E807002046FEF71DFC0028DD
:1032900053D1B0B245F25201401A10F1030F2CD8AD
:1032A000386840F080503860386800F080500390F3
:1032B0000398386840F000603860386800F00060BB
:1032C00003900398FEF718F8D8F8000040F01000BB
:1032D000C8F8000046F6A000C8F8180046F2E970E9
:1032E000C8F81400D8F8000020F01000C8F800005A
:1032F000206800BF41688906FCD52068002201686B
:10330000002541F00101016003200221FDF7B8FF13
:103310000320FDF7A3FFFFF789FE40F2EA42C2F265
:10332000000296789088137857789179D27905368B
:10333000F6B2CDE9007600F005F8284604B0BDE805
:10334000F0810000B0B582B0A1F1020C4FFA8CFE02
:10335000BEF1010FB8BF01381FFA80FE45F62940C3
:10336000C0F28F20AEFB00044DF20B70C0F2A30040
:10337000AEFB0005B8BF01F10A0C4FFA8CF040F229
:103380006F1148434AF6AB21C2F6AA2180FB010126
:10339000481000EBD170104440F26D110EFB01009B
:1033A00041F21C0200EB9E00001B284400EB400091
:1033B000C4F20202069903EBC0001368C0EB0010D0
:1033C00001EB800043F0805111601168DDF81CC0F2
:1033D00001F08051019101991168C0EB001041F09A
:1033E0000061116011684BF6807201F0006100917C
:1033F0000CEB8000C8F2B16200998418FDF77CFFE5
:1034000042F60400C4F20000016841F010010160BE
:10341000A1B20162210CC161016821F010010160BB
:1034200040F20050C2F20000006800BF4168890607
:10343000FCD5002002B0B0BDB0B582B0A1F1020C45
:103440004FFA8CFEBEF1010FB8BF01381FFA80FEA3
:1034500045F62940C0F28F20AEFB00044DF20B7000
:10346000C0F2A300AEFB0005B8BF01F10A0C4FFA91
:103470008CF040F26F1148434AF6AB21C2F6AA2104
:1034800080FB0101481000EBD170104440F26D1137
:103490000EFB010041F21C0200EB9E00001B2844C1
:1034A00000EB4000C4F20202069903EBC00013686F
:1034B000C0EB001001EB800043F0805111601168F7
:1034C000DDF81CC001F08051019101991168C0EB39
:1034D000001041F00061116011684BF6807201F03C
:1034E000006100910CEB8000C8F2B1620099841871
:1034F000FDF702FF42F60400C4F20000016841F04B
:1035000010010160A1B28161210C4161016821F0CB
:103510001001016040F20050C2F20000006800BFDC
:1035200041688906FCD5002002B0B0BD72B6704774
:1035300062B67047F0B58FB005AD04462846282125
:10354000FDF7D8F80120002605904FF480300227BF
:10355000CDE90606CDE90C7028460496CDE9026651
:10356000CDE900660E94FEF703F900B1FEE70F20E7
:10357000CDE900074FF48060CDE9030668460221DB
:103580000296FDF7C7FF00B1FEE70FB0F0BD0000E7
:1035900010B540F2207443F60001C2F20004C4F2F8
:1035A000010100220C23C4E900102046C4E90222D4
:1035B000C4E90423A261FEF779FD40F21451C2F27E
:1035C000000120460122BDE81040FEF72DBE303834
:1035D0000A2801D2012070470020704710B5002949
:1035E0000AD00878002807D005487844FDF7AAF8E3
:1035F000002801D0002010BD0248784410BD000012
:10360000D2090000CA090000040000080000000000
:103610000000000200010000100102000000000094
:103620000000000102030406070809000000000171
:10363000020304A3AC000000000000000000000032
:1036400000000000000000005838000000000000EA
:10365000000000000000A1A3000000000000000026
:1036600000000000000000000000001824241800E2
:10367000000000000000000000C4E300008060F8CB
:10368000074020180F08C80808281800010000FF8C
:1036900000100C0340807F0001061800BAC3001020
:1036A00010F01F10F000808282E2928A8680004033
:1036B0002215081661000040807F0000000000CA4B
:1036C000C000202020FE2020FF202020FF202020DE
:1036D00020000000007F40404744444447404040B1
:1036E0000000BDE700000000FE929292FE929292CE
:1036F000FE0000000008080484621E010001FE02B2
:103700000404080800000000FF0101013109090953
:1037100009897101010101FFFF808080808080960E
:1037200081808080808080FF000000000000000019
:10373000002F000000000700070000147F147F1412
:1037400000242A7F2A120023130864620036495598
:10375000225000000007000000001C224100000071
:1037600041221C000014083E08140008083E080806
:10377000000000A060000008080808080000606061
:103780000000002010080402003E5149453E0000A0
:10379000427F4000004261514946002141454B3182
:1037A000001814127F10002745454539003C4A494E
:1037B00049300001710905030036494949360006C0
:1037C0004949291E00003636000000005636000028
:1037D00000081422410000141414141400004122A3
:1037E0001408000201510906003E4955592E007C7B
:1037F0001211127C007F49494936003E4141412265
:10380000007F4141221C007F49494941007F09094D
:103810000901003E4149497A007F0808087F0000FD
:10382000417F4100002040413F01007F08142241B8
:10383000007F40404040007F020C027F007F040870
:10384000107F003E4141413E007F09090906003ECC
:103850004151215E007F09192946004649494931F5
:103860000001017F0101003F4040403F001F204018
:10387000201F003F4038403F0063140814630007D6
:103880000870080700615149454300007F4141002D
:10389000000204081020000041417F0000040201E2
:1038A00002040040404040400000010204000020AB
:1038B00054545478007F48444438003844444420E9
:1038C00000384444487F00385454541800087E0996
:1038D00001020018A4A4A47C007F0804047800005E
:1038E000447D4000004080847D00007F102844001B
:1038F0000000417F4000007C04180478007C08042C
:10390000047800384444443800FC24242418001867
:10391000242418FC007C0804040800485454542053
:1039200000043F444020003C4040207C001C2040DC
:10393000201C003C4030403C004428102844001C1F
:10394000A0A0A07C004464544C440000087F4100C7
:103950000000007F00000000417F0800000804080C
:10396000100800000000000000000000000000003F
:103970000000000000F800000000000000333000EC
:10398000000000160E00160E0000000000000000EF
:10399000000040C07840C0784000043F04043F0469
:1039A0000400007088FC08300000001820FF211E71
:1039B0000000F008F000E018000000211C031E21A8
:1039C0001E0000F00888700000001E212324192723
:1039D0002110000000160E00000000000000000092
:1039E0000000000000E0180402000000000718209A
:1039F000400000020418E00000000040201807000A
:103A00000000404080F0804040000202010F0102AF
:103A10000200000000F0000000000101011F010190
:103A20000100000000000000000000B07000000075
:103A30000000000000000000000000010101010181
:103A40000101000000000000000000303000000014
:103A500000000000000080601804006018060100EB
:103A6000000000E010080810E000000F10202010F7
:103A70000F00001010F8000000000020203F202060
:103A800000000070080808887000003028242221F7
:103A900030000030088888483000001820202011AD
:103AA0000E000000C02010F8000000070424243F8E
:103AB000240000F808888808080000192120201137
:103AC0000E0000E0108888180000000F112020115F
:103AD0000E0000380808C83808000000003F000049
:103AE00000000070880808887000001C2221212234
:103AF0001C0000E010080810E00000003122221134
:103B00000F00000000C0C0000000000000303000C6
:103B10000000000000C0C0000000000080B0700085
:103B2000000000008040201008000001020408107E
:103B3000200040404040404040000404040404048D
:103B4000040000081020408000000020100804023B
:103B50000100007048080808F0000000003036013D
:103B60000000C030C828E810E000071827242314FC
:103B70000B000000C038E0000000203C23020227B8
:103B8000382008F8888888700000203F2020201105
:103B90000E00C03008080808380007182020201040
:103BA000080008F808080810E000203F2020201036
:103BB0000F0008F88888E8081000203F2020232004
:103BC000180008F88888E8081000203F200003004B
:103BD0000000C03008080838000007182020221E06
:103BE000020008F808000008F808203F2101012120
:103BF0003F20000808F8080800000020203F20208F
:103C0000000000000808F8080800C08080807F00DD
:103C1000000008F888C028180800203F2001263836
:103C2000200008F8080000000000203F202020208D
:103C3000300008F8F800F8F80800203F003F003F87
:103C4000200008F830C00008F808203F20000718BE
:103C50003F00E01008080810E0000F10202020109E
:103C60000F0008F808080808F000203F21010101B2
:103C70000000E01008080810E0000F182424385055
:103C80004F0008F8888888887000203F2000030CC7
:103C900030200070880808083800003820212122D0
:103CA0001C00180808F8080818000000203F200031
:103CB000000008F808000008F808001F2020202055
:103CC0001F000878880000C83808000007380E0177
:103CD0000000F80800F80008F800033C0700073C63
:103CE0000300081868808068180820302C03032C13
:103CF00030200838C800C83808000000203F2000E5
:103D0000000010080808C8380800203826212020A4
:103D10001800000000FE020202000000007F404088
:103D20004000000C30C00000000000000001063818
:103D3000C00000020202FE000000004040407F0080
:103D400000000020100804081020000000000000FF
:103D50000000000000000000000080808080808063
:103D60008080000204080000000000000000000045
:103D700000000000808080800000001924222222A0
:103D80003F2008F8008080000000003F1120201133
:103D90000E000000008080800000000E1120202016
:103DA0001100000000808088F800000E1120201013
:103DB0003F200000808080800000001F22222222FD
:103DC0001300008080F0888888180020203F202081
:103DD00000000000808080808000006B94949493A9
:103DE000600008F8008080800000203F2100002053
:103DF0003F2000809898000000000020203F2020F5
:103E00000000000000809898000000C08080807F43
:103E1000000008F8000080808000203F24022D3040
:103E20002000000808F8000000000020203F2020AB
:103E300000008080808080808000203F20003F2024
:103E4000003F008080008080000000203F21002093
:103E50003F200000808080800000001F2020202064
:103E60001F00808000808000000080FFA1202011C2
:103E70000E000000008080808000000E112020A035
:103E8000FF80808080008080800020203F212000F3
:103E900001000000808080808000003324242424DE
:103EA0001900008080E0808000000000001F2020BA
:103EB00000008080000000808000001F2020201073
:103EC0003F20808080000080808000010E30080646
:103ED000010080800080008080800F300C030C3057
:103EE0000F0000808000808080000020312E0E3185
:103EF0002000808080000080808080818E70180685
:103F0000010000808080808080000021302C2221F0
:103F1000300000000000807C020200000000003F32
:103F2000404000000000FF00000000000000FF0013
:103F300000000002027C800000000040403F0000C2
:103F40000000008040408000008000000000000170
:103F5000010002030405060708090A0B0C0D0E0FE9
:103F60001010467269646179004D6F6E646179006A
:103F700053756E6461790053617465726461790090
:103F80005765646E65736461790054756573646127
:103F9000790054687572736461790000D04000083C
:103FA00000000020300000009401000800410008DB
:103FB00030000020180E0000B401000810010000BD
:103FC00043000000F8FFFFFF0040404040404040F9
:103FD00040404141414141404040404040404040DC
:103FE0004040404040404040400502020202020280
:103FF00002020202020202020220202020202020CF
:1040000020202002020202020202909090909090E2
:1040100010101010101010101010101010101010A0
:104020001010101002020202020288888888888814
:104030000808080808080808080808080808080800
:104040000808080802020202400000000000000008
:104050000000000000000000000000000000000060
:104060000000000000000000000000000000000050
:104070000000000000000000000000000000000040
:104080000000000000000000000000000000000030
:104090000000000000000000000000000000000020
:1040A0000000000000000000000000000000000010
:1040B0000000000000000000000000000000000000
:1040C00000000000000000000000000000000000F0
:1040D000010000000024F4000100000010000000B6
:1040E000703F0008693F00088A3F0008803F0008D1
:1040F000923F0008623F0008773F00080000000080
:0400000508000131BD
:00000001FF
