:020000040800F2
:1000000098150020410200086D1C0008651C0008BE
:10001000691C000871050008811E0008000000002E
:10002000000000000000000000000000751C000837
:100030007505000800000000711C0008791C00080C
:10004000851E00085B0200085B0200085B020008D6
:100050005B0200085B020008790500085B020008EB
:100060005B020008B5050008F90500085B020008FE
:100070005B0200085B0200085B0200085B020008EC
:100080005B0200085B0200085B0200085B020008DC
:100090005B0200085B0200085B0200085B020008CC
:1000A0005B0200085B0200085B0200085B020008BC
:1000B000811C0008991C00085B0200085B02000814
:1000C0005B0200085B0200085B0200085B0200089C
:1000D0005B020008751E00085B0200085B02000856
:1000E0005B0200085B0200085B0200085B0200087C
:1000F0005B0200085B0200085B0200085B0200086C
:100100005B0200085B020008A91C00085B020008F3
:100110005B0200085B020008B51C0008E51C000833
:100120005B0200085B0200085B0200085B0200083B
:1001300000F002F800F075F814A696E8000CB2443E
:10014000B344DA4501D100F06CF8BAE80F000FA60D
:1001500096E83000A5EB040504EB0607AAEB0704BC
:10016000A7F101074FEA15154FEA3414A4F1010471
:10017000AC4201D300F055F813F0010F18BFFB1A81
:1001800043F0010300F001F8DBE718478C2700007B
:10019000AC2700000A444FF0000C10F8013B13F0AC
:1001A000070408BF10F8014B1D1108BF10F8015BD0
:1001B000641E05D010F8016B641E01F8016BF9D1C3
:1001C00013F0080F1EBF10F8014BAD1C0C1B09D11A
:1001D0006D1E58BF01F801CBFAD505E014F8016B8C
:1001E00001F8016B6D1EF9D59142D6D3704700001E
:1001F000704700000023002400250026103A28BF85
:1002000078C1FBD8520728BF30C148BF0B60704788
:10021000642900F07780002070471FB51FBD10B51E
:1002200010BD00F077F91146FFF7F7FF01F044FF2A
:1002300000F095F903B4FFF7F2FF03BC01F028FECC
:100240000948804709480047FEE7FEE7FEE7FEE76A
:10025000FEE7FEE7FEE7FEE7FEE7FEE704480549A6
:10026000054A064B704700007D1C0008310100085C
:10027000980F002098150020981100209811002058
:10028000704700000FB4044910B503AA029800F0AB
:100290000FF910BC5DF814FB500C00202DE9F04163
:1002A0000E460446002020622046E168884730B3AD
:1002B000252805D0D4E901219047206A401CF2E7A7
:1002C000E168204600278847050018D0A5F14100C5
:1002D000192802D820354FF40067324629462046B7
:1002E0002760FFF795FF40B1012804D0F61D26F0E6
:1002F00007060836D8E7361DD6E72846DAE7206A2B
:10030000BDE8F0812DE9F04106460024106875290A
:10031000314616A510D0AFF30080002802DA404223
:1003200013A507E031688A0701D512A502E0490745
:1003300004D511A5012401E0AFF3008000210A22B9
:1003400006F1240709E0B0FBF2FCB0FBF2F302FB7C
:100350001C00303078541846491C0028F3D123463D
:100360002A463046BDE8F04100F049B800000000E0
:100370002D0000002B0000002000000010B50446F6
:1003800003E001F0AFFD401C09D014F8010B054952
:100390000028F6D1BDE810400A2001F0A3BD4FF0BF
:1003A000FF3010BD500C00204FF0000200B5134686
:1003B00094469646203922BFA0E80C50A0E80C5085
:1003C000B1F12001BFF4F7AF090728BFA0E80C5036
:1003D00048BF0CC05DF804EB890028BF40F8042B2F
:1003E00008BF704748BF20F8022B11F0804F18BF9C
:1003F00000F8012B704770477047704770472DE930
:10040000F0470D4699469246044600F124080168DB
:10041000880604D5E06921F01001216000E0012088
:10042000A84201DD471B00E00027A1697A1902EB11
:100430000900081AA0612078C00602D42046AFF354
:100440000080002608E0D4E901211AF80600904750
:10045000206A401C761C20624E45F4DB2078C006E2
:100460000AD52046AFF3008006E0D4E90121302010
:100470009047206A401C2062381EA7F10107F4DC77
:1004800007E0D4E9012118F805009047206A401CD4
:100490002062281EA5F10105F3DC2046AFF30080A1
:1004A0002078000602D50220BDE8F0870120FBE796
:1004B000074B70B50D467B4400F011F80446284602
:1004C00000F020F810B14FF0FF3070BD204670BD35
:1004D0002B1A000001694A1C02610878704700B5B8
:1004E0008FB0CDE901310021059105497944CDE96D
:1004F000031011466846FFF7D1FE0FB000BD0000A3
:10050000E5FFFFFF007B00F0800070470048704768
:10051000F00B00207546FFF7F9FFAE46050069466F
:10052000534620F00700854618B020B5FFF796FE29
:10053000BDE820404FF000064FF000074FF00008E4
:100540004FF0000BAC46ACE8C009ACE8C009ACE821
:10055000C009ACE8C00921F007018D46704710B50D
:100560000446AFF300802046BDE81040FFF762BEAE
:10057000FEE7000070470000B0B540F214440120CF
:10058000C4F20104012500F0EFF8142001F088FC0A
:1005900004F57B70012100F0E1F9012807D140F654
:1005A000A440C2F200000168C1F1010101602560B0
:1005B000B0BD0000B0B50820082500F0D5F840F621
:1005C000A440C2F20000006880B140F6004414204C
:1005D000C4F2010401F064FC04F54060082100F05D
:1005E000BDF918B92046202100F0BEF940F21440B0
:1005F000C4F201000560B0BDB0B51020102500F0B8
:10060000B3F840F6A440C2F200000068A0B141F681
:1006100000041420C4F2010401F042FC2046102121
:1006200000F09CF940B9A4F54060202100F09CF94D
:100630002046202100F098F940F21440C4F2010055
:100640000560B0BD90F82110022927D1026840F260
:10065000040C1368C4F2020C23F00E031360136839
:100660000CF17C018A4223F0010111601AD940F299
:100670000841C4F202018A424ED040F21C41C4F249
:1006800002018A4241D040F23041C4F202018A4262
:1006900046D14FF48073CCF8003457E004218163D5
:1006A000012070474321C4F202018A420EDD6B2112
:1006B000C4F202018A421BDC4421C4F202018A42D4
:1006C0003BD05821C4F202018A4222E00821C4F240
:1006D00002018A422FD01C21C4F202018A4232D088
:1006E0003021C4F202018A4213D14FF480722BE010
:1006F0006C21C4F202018A4222D08021C4F202019C
:100700008A4206D14FF080721EE01023CCF80034EC
:100710001CE04FF4803217E00123CCF8003415E0E0
:100720000CF588614FF480338A4208BF4FF4805340
:10073000CCF800340AE0012206E04FF4805203E0D6
:100740004FF4801200E01022CCF80020416B4FF4EF
:1007500080720029028404BF0020704780B588475A
:10076000002080BD7047000040F21441C4F2010136
:100770000A68024214BF08607047FFF7F3BF000029
:100780002DE9F04F82B00E68002E00F0E380A0F15A
:10079000804241F6004540F20043A2F58432C4F2A3
:1007A00001050624C4F201034FEAB227A84208BF9C
:1007B00005244FF0000E4FF001080F254FF0000AFE
:1007C0004FF0000B052F38BF4FEAB224009408E029
:1007D0000E680AF1010A36FA0AF20EF1040E00F070
:1007E000B98008FA0AFC16EA0C09F1D04E684FF6F7
:1007F000FF72C1F21002964210DC122E50D8DFE8D0
:1008000006F0330A48454F4F4F4F4F4F4F4F4F4F12
:100810004F4F4F414C00D1F80CB041E04FF6FF7202
:10082000C1F2210296420FDC0022C1F2110296426F
:100830001AD00022C1F21202964215D00022C1F253
:100840002102964210D02BE00022C1F222029642F1
:100850000AD00022C1F23102964205D00022C1F234
:10086000320296421CD100BF8A6842B1012A14BFED
:10087000C0F814C0C0F810C04FF0080B10E04FF0E3
:10088000040B0DE0CA6802F1040B09E04FF0000B05
:1008900006E0CA6802F1080B02E0CA6802F10C0B1C
:1008A00002467446B9F5807F24BF0432203C1668A6
:1008B00005FA04F726EA07070BFA04F63743176030
:1008C000CA79D2067FF584AF41F21807C4F2020755
:1008D0003A684FF6084542F001023A603A68CFF6AE
:1008E000FF7502F001020192019A2AF003021A44F4
:1008F0000F2457590EF00C06B440A743009C04FA8D
:1009000006F6374357514E680F25F2031A6854BF55
:1009100022EA090242EA09021A605A68B70354BF80
:1009200022EA090242EA09025A60F7029A6854BFB1
:1009300022EA090242EA0902B70240F20C479A6031
:10094000C4F201073A6854BF22EA090242EA0902E6
:100950003A603DE702B0BDE8F08F000080680840D3
:1009600018BF012070470000C26802EA01039143EA
:1009700041EA034101617047002A08BF090401618F
:100980007047000040F69070C2F2000000687047A7
:1009900040F6E03040F69071C2F20000C2F2000171
:1009A00000780A68104408607047000080B542F281
:1009B0000000C4F20200016841F01001016005204E
:1009C00000F070F80F2000F005F800F02BF8002080
:1009D00080BD0000B0B540F6E032C2F2000240F641
:1009E00088311278C2F200014FF47A730968B3FBC0
:1009F000F2F20446B1FBF2F1084600F001FB0F2CC5
:100A00004FF001050CD858B94FF0FF3021460022B5
:100A1000002500F01BF840F6E430C2F2000004604C
:100A20002846B0BD70470000002848BF704700F05E
:100A30001F01012202FA01F11C2202EAD0004EF24B
:100A40000012CEF2000281507047000010B54EF641
:100A50000C5CCEF2000CDCF80030C3F3022E8EF0FA
:100A60000704042C28BF0424BEF103034FF0FF3E0B
:100A70000EFA04F438BF0023A14399400EFA03F3A1
:100A80009A43114300F1604200F00F03090102F59F
:100A90006442043B6344002848BF03F10C02117018
:100AA00010BD00004EF60C51CEF200010A684FF660
:100AB000FF031A4060F30A2242F0806040F0FD70AC
:100AC00008607047002804BF012070472DE9F043FB
:100AD00081B042F20008C4F202080446D8F80000CF
:100AE0000D4600F0070088420CD2D8F8000020F034
:100AF00007002843C8F80000D8F8000000F00700FD
:100B0000A8426BD1206841F204098107C4F20209AE
:100B100017D5410705D5D9F8001041F4E061C9F8AF
:100B20000010010705D5D9F8001041F46051C9F84B
:100B30000010D9F80010A26821F0F0011143C9F8A3
:100B40000010C00741D1D8F8000000F00700A8420B
:100B50000CD9D8F8000020F007002843C8F800009E
:100B6000D8F8000000F00700A84237D120684107FC
:100B700007D5D9F80010E26821F4E0611143C9F803
:100B80000010000708D5D9F80000216920F4605052
:100B900040EAC100C9F80000D9F8002002F00C00BA
:100BA000082841F20020C0F27A0049D142F606132B
:100BB000C2F38341C0F60003595CD20334D440F63B
:100BC0000010C0F23D0048433AE0606859F8041C48
:100BD000022807D0012824D1890305D4012001B0BF
:100BE000BDE8F0838901F9D5D9F8001021F003019F
:100BF0000843C9F80000FFF7C5FE064641F28837F2
:100C0000D9F80000616800F00C00B0EB810F9AD0B9
:100C1000FFF7B8FE801BB842F2D9032001B0BDE84F
:100C2000F0838907DAD5DFE7D9F8002042F6EC0334
:100C3000C2F34042C0F600039A5C4843B0FBF2F0B6
:100C4000D9F8001042F6EE02C1F30311C0F600021B
:100C5000515C40F6883220FA01F140F6E430C2F2ED
:100C600000000068C2F200021160FFF7B3FE00202E
:100C700001B0BDE8F083000040F6883041F2040185
:100C8000C2F20000C4F202010068096842F6FE02E6
:100C9000C1F30221C0F60002515CC8407047000059
:100CA00040F6883041F20401C2F20000C4F20201B1
:100CB0000068096842F6FE02C1F3C221C0F60002D4
:100CC000515CC84070470000002804BF01207047F5
:100CD0002DE9F04182B00446007841F20006C007D9
:100CE000C4F2020647D0706800F00C00042808D156
:100CF000306880033FD56068E8BB012002B0BDE8E2
:100D0000F081706800F00C00082802D17068C00300
:100D1000EED4656830682DB1B5F5A02F09D0B5F5D2
:100D2000803F0AD020F480303060306820F480208A
:100D300005E040F480203060306840F4803030605E
:100D4000FFF720FE002D054612D000BF306880035B
:100D500011D4FFF717FE401B6428F7D916E100BF36
:100D6000FFF710FE401B64284FF0030000F2D8800C
:100D700030688003F4D42078800719D5706810F0AB
:100D80000C0F07D0706800F00C00082827D170689D
:100D9000C00324D43068800703D52069012840F0BF
:100DA000A6803068616920F0F80040EAC100306038
:100DB000207800074ED5A06938B30020C4F2422045
:100DC0000121C0F88014FFF7DDFD0546706A800739
:100DD0002DD4FFF7D7FD401B0228F7D9D6E02069B4
:100DE000002840F20000C4F2422000F0A880012157
:100DF0000160FFF7C7FD054630688007D1D4FFF7D3
:100E0000C1FD401B0228F7D9C0E00020C4F24220F7
:100E10000021C0F88014FFF7B5FD0546706A800711
:100E200018D5FFF7AFFD401B0228F7D9AEE040F61A
:100E30008830C2F20000006844F6D351C1F262016A
:100E4000A0FB0101480A019000BF0198411E002843
:100E50000191F9D12078400717D4E5698DB1706808
:100E600000F00C00082846D1012D40D07068216A9E
:100E700000F480328A423AD1616A00F470108842EC
:100E800035D1002002B0BDE8F081F0695FEAC0080A
:100E900008D4F06940F08050F061F06900F08050B3
:100EA0000090009847F20007C4F200073868C005B8
:100EB0000FD4386840F480703860FFF763FD054652
:100EC0003868C00505D4FFF75DFD401B6428F7D9DD
:100ED0005CE0E568306A1DB1052D41D0012D43D09D
:100EE00020F001003062306A20F004003EE0012072
:100EF00002B0BDE8F0810027C4F242270020386626
:100F0000FFF740FD022D05460ED100BF306880017D
:100F100053D5FFF737FD401B02284FF00300F5D9EA
:100F200002B0BDE8F08100BF30688001A9D5FFF7AD
:100F300029FD401B02284FF00300F5D9F0E70021FE
:100F40000160FFF71FFD0546306880077FF530AF71
:100F5000FFF718FD401B02284FF00300F4D9DFE72C
:100F600040F004003062306A40F001003062FFF768
:100F700009FD002D054641F2883712D0306A8007FE
:100F800012D4FFF7FFFC401BB842F7D9032002B090
:100F9000BDE8F081FFF7F6FC401BB8424FF00300BC
:100FA000BED8306A8007F5D4B8F1000F3FF555AFD1
:100FB000F06920F08050F0614FE7206AB0F5803F83
:100FC00005D17168A26821F4003111437160716824
:100FD000626A21F47411114308437060012038667D
:100FE000FFF7D0FC044600BF306880013FF549AFF1
:100FF000FFF7C8FC001B02284FF00300F4D98FE76D
:10100000411E0020B0EB116F1CBF012070474EF253
:101010001002CEF2000251604EF62351CEF20001D2
:10102000F0230B700721906011607047704700003B
:1010300070470000002804BF0120704710B5044627
:1010400090F83D0028B9002084F83C00204600F0CC
:101050001FF8022084F83D002068211D00F05EFE8C
:10106000012084F8460084F83E0084F83F0084F8AC
:10107000400084F8410084F8420084F8430084F87A
:10108000440084F8450084F83D00002010BD0000B5
:10109000B0B582B00446006841F20005C4F2000514
:1010A000A84214D141F21C00C4F2020001680322DC
:1010B00041F0100101600068012100F01000019072
:1010C00001983620FFF7C2FC3620FFF7ADFC206800
:1010D00005F5806188421CBF02B0B0BD41F21C0022
:1010E000C4F202000168022241F0200101600068A0
:1010F000022100F02000009000983720FFF7A6FCA6
:10110000372002B0BDE8B040FFF78EBC90F83D102C
:1011100001291CBF01207047022180F83D100068A2
:1011200040F6FF32C168C4F20002904241F0010172
:10113000C1600FDCB0F1804F1ED040F20041C4F21C
:101140000001884218D040F60001C4F20001884234
:1011500012D018E040F60041C4F2000188420BD0E2
:1011600043F20041C4F20101884205D042F6004139
:10117000C4F20101884206D1816801F00701062905
:1011800004BF00207047016841F0010101600020A8
:1011900070470000006840F60041C4F20001884238
:1011A00000D0704740F66060C2F2000090F9001075
:1011B000002948BF7047C9B2402916D240220270A8
:1011C00040F6D052C2F2000240F662611268C2F2EA
:1011D0000001002008805062106A20F00A001062AE
:1011E000106A40F002001062704710B540F6D0540B
:1011F00041F08001C2F2000401702046002100F09D
:1012000011FB40F66261C2F2000122680880106A98
:1012100020F00A001062106A106210BD10B504467A
:1012200000680169890744BFC1685FEA81713FD4E2
:1012300020680169490744BFC1685FEA417143D42E
:1012400020680169090744BFC1685FEA017148D499
:1012500020680169C90644BFC1685FEAC1614CD416
:1012600020680169C9071CBFC1685FEAC17151D11B
:1012700020680169090644BFC1685FEA016150D472
:1012800020680169490644BFC1685FEA41614FD4E3
:1012900021680869800646BFC8685FEA806010BDA3
:1012A0006FF0200220460A61BDE81040FFF7C0BE83
:1012B0006FF00201016101212177806980073ED032
:1012C0002046FFF767FF40E06FF004010161022153
:1012D0002177806910F4407F3AD02046FFF75AFF0B
:1012E0003CE06FF00801016104212177C0698007AB
:1012F00037D02046FFF74EFF39E06FF01001016153
:1013000008212177C06910F4407F33D02046FFF7D1
:1013100041FF35E06FF001010161204600F04CFA19
:10132000A6E76FF0800101612046FFF77FFEA7E787
:101330006FF040010161204600F080FAA8E72046E6
:1013400000F022F8204600F0C3F9002020776FE774
:10135000204600F019F8204600F0BAF90020207766
:101360006EE7204600F010F8204600F0B1F90020AA
:1013700020776DE7204600F007F8204600F0A8F936
:10138000002020776CE700007047000090F83C30A8
:10139000012B04BF022070474FEAB2020123032A47
:1013A00080F83C3000F216812DE9F041DFE802F0D0
:1013B00002C64690036843F200461A6AC4F2010668
:1013C00022F001021A621D6A1A465C6852F818CFB0
:1013D0008F68D1F800E025F00205B34245EA070521
:1013E00005D042F60047C4F20107BB4205D1CF68E1
:1013F00025F00C0527F004073D43B34205D042F623
:101400000046C4F20106B34205D1D1E9056724F4D0
:10141000407434433C432CF0730747EA0E075C608A
:101420009F614F6809695F631D629F6947F0080704
:101430009F619F6927F004079F61C6E0036843F23C
:1014400000461A6AC4F2010622F480721A621D6A0A
:101450001A46D3F804C052F81CEF8F68D1F8008008
:1014600025F40075B34245EA072505D042F600474A
:10147000C4F20107BB4208D1CF6840F2FF443F02EB
:1014800025F4406527EA04042543B34205D042F61B
:101490000044C4F20104A34206D1D1E905462CF46C
:1014A0004057264347EA061C2EF0730747EA080711
:1014B000C3F804C0DF614F680969DF631D62DF693B
:1014C00047F00807DF61DF6927F00407DF617CE090
:1014D000036843F200471A6AC4F2010722F48052FB
:1014E0001A621A46D3F820C05D6852F81C4FD1F832
:1014F00000E08E68BB4205D042F60047C4F2010707
:10150000BB4204D14F6925F4804545EA87152CF488
:10151000005747EA063724F4E64646EA0E265D60A1
:10152000DE614E6809691E641F62DF6947F4006767
:10153000DF61DF6927F48067DF6145E0036843F21C
:1015400000481A6AC4F2010822F010021A621D6AE9
:101550001A465C6852F818CF8F68D1F800E025F081
:101560002005434545EA071505D042F60047C4F279
:101570000107BB4207D1CF686FF0400625F0C005D8
:1015800006EA07163543434505D042F60046C4F245
:101590000106B34206D1D1E9056724F440643E4315
:1015A00044EA86042CF4E64747EA0E275C609F6114
:1015B0004F6809699F631D629F6947F400679F61D7
:1015C0009F6927F480679F610902136819431160BE
:1015D000BDE8F041002180F83C1000207047000079
:1015E000002804BF0120704710B5044690F83D0064
:1015F00028B9002084F83C00204600F01FF80220A3
:1016000084F83D002068211D00F088FB012084F84B
:10161000460084F83E0084F83F0084F8400084F8D7
:10162000410084F8420084F8430084F8440084F8C0
:10163000450084F83D00002010BD0000006840F225
:101640000041C4F20001884218BF704710B586B04F
:1016500041F21804C4F20204206802A940F0080014
:101660002060206800F0080002900298606840F056
:1016700002006060606800F0020002900298202082
:10168000029002200390012004900320059040F670
:101690000040C4F20100FFF773F820684FF2FF32F8
:1016A00040F0010020602068CFF6FF0200F001004A
:1016B000019001980420C4F201000168114041F03A
:1016C000E06141F40061016006B0BDE81040704780
:1016D000704700004122082908BF4022042908BFA2
:1016E0003F22002908BF3E22825C012A1CBF012044
:1016F0007047022241B1082909D0042914BF80F89B
:10170000412080F83F2004E080F83E2001E080F88E
:101710004020006801F01F010122036A02FA01F172
:1017200023EA01020262026A0A4340F6FF31C4F270
:1017300000018842026217DD40F60042C4F2000256
:10174000904220D043F2004CC4F2010C604505D019
:1017500042F60043C4F2010398421BD1436C884215
:1017600043F4004343641BDCB0F1804F0BD040F2E4
:101770000041C4F20001884205D040F60001C4F2E5
:101780000001884206D1816801F00701062904BFE3
:1017900000207047016841F001010160002070479E
:1017A0009042F0D06045EED042F60041C4F2010113
:1017B0008842E8D0EEE70000026840F60041C4F23B
:1017C00000018A4225D140F6606CC2F2000C9CF9FF
:1017D0000030402B1DDBDBB203F03F023F2A15D166
:1017E00040F6D052C2F200021268136A23F00A03D4
:1017F0001362136A1362FF228CF8002040F66262C3
:10180000C2F200024FF6FF73138002E05A1C8CF8FC
:101810000020006801F58061884218BF704700F021
:10182000AFBC00004FEAB101032984BF002070471C
:10183000006800EB8100406B7047000070470000BB
:1018400070470000B0B501680A68CC684B6902F0C7
:101850002F05202D04F0200504D11DB1BDE8B040B6
:1018600000F0CABA5FEA027C1EBF03F0010E04F466
:10187000907313EB0E032CD1130619D514F08003CB
:1018800016D090F83920212A11D18268B2F5805FF4
:1018900003D10269002A00F08E80026A531C0362A1
:1018A00012784A60C28C013A1304C28476D0B0BD6B
:1018B0005206FCD514F0400208BFB0BDCA6822F041
:1018C0004002CA60202180F83910BDE8B04000F025
:1018D000A1B9D10718BF14F4807102D1510706D401
:1018E0000CE0C16B41F00101C163510706D5BEF1A7
:1018F000000F03D0C16B41F00201C163910706D50F
:10190000BEF1000F03D0C16B41F00401C163BCF113
:10191000000F06D55EEA050103D0C16B41F0080156
:10192000C163C16B0029C2D0910604D51DB1044624
:1019300000F062FA204601684A69C36B02F0400277
:1019400003F00803D21823D0CA6822F49072CA6048
:101950004A6922F001024A61202280F83A204A694D
:10196000520624D54A6922F040024A61416BF1B126
:1019700041F6ED52C0F60002044608464A63FEF7FF
:1019800061FE002893D0606B416BBDE8B040084712
:101990000446FFF755FF0020E063B0BDC86820F0A3
:1019A0008000C860C86840F04000C860B0BDBDE8B5
:1019B000B040FFF745BF026A32F8023B6FF35F2386
:1019C0004B6002626EE70000002804BF01207047F0
:1019D00010B5044690F8390028B9002084F8380082
:1019E000204600F061F8242084F839002068D4E90A
:1019F0000212C36823F40053C360036923F4405305
:101A00001A430261D4E904231143C268194341F225
:101A10000C639A431143C1604169A26921F440718A
:101A2000114343F60002C4F201029042416102D028
:101A3000FFF722F901E0FFF733F9D4E90023192178
:101A400048439900B0FBF1F048F21F5CC5F2EB1C73
:101A5000A0FB0C314FF69C734909C0F6FF7301FBE4
:101A60000300322303EB0010A0FB0C03F02000EA7C
:101A7000531000EB0110C3F3431108449060106948
:101A8000202120F490401061506920F02A0050611C
:101A9000D06840F40050D0600020E06384F8391032
:101AA00084F83A1010BD0000B0B584B040F60004D0
:101AB000C4F20104006804F54051884201D004B02A
:101AC000B0BD41F21800C4F2020001686D4641F059
:101AD00004010160016801F00401009100990168AE
:101AE00041F004010160016801F0040100910099D6
:101AF000016841F4804101600068294600F480409B
:101B0000009000984FF40070009002200190012096
:101B10000290032003902046FEF732FE4FF48060CF
:101B200000900020019020462946FEF729FE25203E
:101B3000FEF77AFF252003210322FEF787FF04B07A
:101B4000B0BD0000034690F83A0020280AD10029D1
:101B50004FF0010018BF002A00D1704793F83800F9
:101B6000012801D1022070479962002022219A8524
:101B7000DA85D86383F83A10196883F83800CA68A0
:101B800042F48072CA604A6942F001024A61CA683E
:101B900042F02002CA607047006843F60001C4F2B8
:101BA0000101884218BF704740F66C70C2F2000015
:101BB000B0F90010002921D440F6AC42C2F2000274
:101BC00089B21378B1F5804F04D20D2B0CD141F4BA
:101BD000804212E048F2000C0022CFF6FF7C0A2B74
:101BE00008BF41EA0C0208E040F6A462C2F200021B
:101BF00053544A1CC62988BF0022028040F6646004
:101C000040F6AC41C2F20000C2F200010122FFF72F
:101C100099BF00007047000080B540F67070C2F2B6
:101C2000000000F019F841F60000C4F20100202184
:101C30000022BDE88040FEF79FBE000001684A68B0
:101C4000920558BF70478A68D20700D170476FF07D
:101C500001028A60FFF7E0BF0168C26800200A60E5
:101C600070470000FEE70000FEE70000704700003C
:101C70007047000070470000FEF78ABE7047000002
:101C800040F6B040C2F2000000680169C9071CBFFD
:101C90006FF001010161704740F6F840C2F20000A8
:101CA000006800697047000040F6D050C2F20000A2
:101CB000FFF7B4BA10B540F64054C2F200042068F1
:101CC0006FF00101016104A0FEF758FB2046BDE85A
:101CD0001040FFF7A3BA00BF706C61795F6E657842
:101CE000740D000010B540F68854C2F2000420685C
:101CF0006FF00101016104A0FEF740FB2046BDE842
:101D00001040FFF78BBA00BF54494D3720696E74FD
:101D1000657272757074210D0000000010B540F6F8
:101D2000FF320368C4F2000240F6004E43F2004C5A
:101D30009042C4F2000EC4F2010C20DCB0F1804FDE
:101D400027D040F20044C4F20004A04221D040F663
:101D50000004C4F20004A0421BD090421FDCB0F18A
:101D6000804F26D040F20042C4F20002904220D0C0
:101D700040F60002C4F2000290421AD01DE0704505
:101D800007D0604505D042F60044C4F20104A042E9
:101D9000E3D14C6823F0700323439042DFDD7045AC
:101DA00007D0604505D042F60042C4F201029042DD
:101DB00003D1CA6823F4407313434C6923F08002B3
:101DC000D1F800E08B68224360450260C362C0F82E
:101DD00028E005D042F60042C4F20102904201D14F
:101DE000096901630121416110BD0000406A0021C1
:101DF000C185C184FFF724BD90F83A10222918BF8D
:101E000070478268B2F5805F01D1016949B3816A88
:101E1000B2F5805F07D00AB9026922B10268526840
:101E200002F07F0201E0026852680A70816A0131A3
:101E30008162C18D01390A04C18500D070470168F3
:101E4000CA6822F02002CA60CA6822F48072CA609E
:101E50004A6922F001024A61202180F83A10FFF716
:101E60009BBE0168826A49686FF35F2122F8021BFA
:101E70008262DEE740F66460C2F20000FFF7E2BC77
:101E8000FEE7000040F67070C2F20000FFF7D6BE19
:101E90007047000040F6A841C2F200010860704798
:101EA00080B54EF2180140F6A842CEF20001C2F20F
:101EB000000251F804CC1268002350434FF47A72A8
:101EC00000FB02FE086800BF0A688242FCD003449F
:101ED0009B1A824228BF63447345104628BF80BDC9
:101EE000F2E7000043F60001C4F201010A6852065D
:101EF000FCD5C2B24A60704710B582B041F21C02F4
:101F0000C4F20202136840F6B04443F001031360C8
:101F10001268C2F2000402F001020192019A002349
:101F20004FF08042C4E902302046C4E90021FFF7A7
:101F300081F81C2001210222FEF788FD1C20FEF7FB
:101F400073FD204602B0BDE81040FFF7DFB8000087
:101F5000B0B588B040F6186504460020C2F200050E
:101F600040F200420790CDE90500CDE90300CDE93C
:101F70000100C4F20002C5E902042846C5E90021B7
:101F8000FFF72EFB60200190600802900220039072
:101F900001A928460422FFF7F9F928460421FFF792
:101FA00099FB08B0B0BD00002DE9F04184B041F2CA
:101FB0001800C4F20200016841F6000441F040013B
:101FC00001600168C4F2010401F040010091009930
:101FD00001686D4641F04001016001684FF0000862
:101FE00001F04001009100990168012741F00401CE
:101FF00001600068032600F00400009000981020A3
:10200000009020462946CDF8048002970396FEF7FB
:10201000B7FB0820CDE9000820462946CDE9027625
:10202000FEF7AEFB0220CDE90206A4F5805029465A
:10203000CDE90078FEF7A4FB04B0BDE8F081000014
:1020400070B584B041F21800C4F20200016840F695
:10205000004441F0080101600168C4F2010401F08C
:1020600008010091009901686D4641F0400101604E
:102070000068202600F04000009000980120CDE983
:10208000010003200390204629460096FEF778FBC6
:10209000009604F5406630462946FEF771FB20465F
:1020A00020210122FEF768FC304620210122FEF7A4
:1020B00063FC04B070BD0000FEF778FC4FF4E01044
:1020C00000F0BCF84820FFF7E5FE4FF4E13000F0E7
:1020D000E3F8FFF7B5FFFFF767FF40F20401C2F234
:1020E0000001E82000F016F808A0FEF747F941F6D5
:1020F0000004C4F2010400BF9920FFF7D1FE00F0F4
:102100003FF820462021FEF72FFCF5E76D61696E50
:102110000D000000B0B5044640F6847040F6E83586
:10212000C2F20000C2F20005016040F68C7128681E
:10213000C2F200010C8000F0FFF949F69A1249F64C
:102140009913C9F69912C3F6C97300F0F7F800F0B5
:10215000C3F8286004EB8400400080B241F61F41C0
:10216000FFF7CAFE252041F61F41FFF7F1FE40F6BA
:102170001860C2F20000006800218163B0BD000059
:102180002DE9F04140F61867C2F2000738680021D7
:1021900040F6847440F688758163C2F20004C2F28E
:1021A00000052068296850F8211022A0FEF76AF87F
:1021B0002E68002E48BFBDE8F081206850F8261038
:1021C00011F1140F08DC4FF0FF302860386800214F
:1021D00041628163BDE8F081D7F8008000200029CA
:1021E000C8F824001FD001F1060048BFC84340F6DC
:1021F0008C31C2F2000151F8201044F20000C4F208
:102200001C6000F0C5F9044600F084FA40F6E8319D
:10221000C8F82C00C2F200010968F860204600F0FE
:1022200099FA00F077FAC8F83800701C2860BDE809
:10223000F08100BF2564090A00000000F0B58FB0EE
:1022400005AD044628462821FEF7AEF801200026F9
:1022500005904FF480300227CDE90606CDE90C70D9
:1022600028460496CDE90266CDE900660E94FEF795
:102270002BFD00B1FEE70F20CDE900074FF4806091
:10228000CDE90306684602210296FEF71BFC00B169
:10229000FEE70FB0F0BD000010B540F6646443F6F1
:1022A0000001C2F20004C4F2010100220C23C4E9BF
:1022B00000102046C4E90222C4E90423A261FFF70A
:1022C00083FB40F6AC41C2F2000120460122BDE88A
:1022D0001040FFF737BC000021F0004201F000433E
:1022E000A2F16052B2F5801F28BFD2F17F6C0BD9EA
:1022F0005FEA001C43EAC20242EB507018BF70470D
:1023000028BF20F001007047B2F5801FBCBF1846FF
:1023100070474FEA410C1CF5001F02D2084600F03E
:10232000E0BA70B500F0B4F800000089FFF7F6BF1E
:102330004FF00040A0F580007047000070B5DFF856
:1023400048C11CEA111E1EBF1CEA13159EEA0C0FA1
:1023500095EA0C0F00F06F8081EA03044EEAD47E08
:10236000AE4421EA4C1123EA4C1341F4801143F4AA
:102370008013AEF17F7EA1FB024CA0FB03653619F2
:1023800055EB0C05A1FB034C4CF10003A0FB021C18
:1023900016EB0C06654153F10003094218BF46F0E5
:1023A000010613F4007F0BD14FEA03314FEA0530E9
:1023B00041EA155140EA165034036FF003020AE077
:1023C0004FEAC3214FEAC52041EA555140EA565031
:1023D000F4026FF0020202EB2E4201EB025585EA95
:1023E000CE710AD05FEA440C18BF24F0004450F1CB
:1023F000000041F1000120EAD47040F2FE7C624509
:1024000000D270BDA84214BF4FF080444FF040444A
:10241000002E08BF0024BEF1806FA8BFA1F1C0410B
:10242000BDE8704080F2828001F1C04101F00041BE
:102430004FF0000070470CEA13159EEA0C0F18BF0E
:1024400095EA0C0F06D081EA030E4FF000000EF063
:10245000004170BD00F01CF88900013E00F007B893
:1024600000F009B84FEA430C5FEA5C5C08D081EAEF
:10247000030100F05BB84FEA410C5FEA5C5CF6D107
:1024800002494FF0000070470000FF070000F87F8E
:102490000EF1020E2EF0030E5EF8046B364205D4E8
:1024A000012A43EB030515F5001F12D8012841EB63
:1024B000010C1CF5001F0CD80ED14FEAD17C0CEB9F
:1024C0004C0C0CF1020C15F5001F08BF4CEBD37C33
:1024D00004E04FF0080C01E04FEAD37C0CEB4C0514
:1024E00026FA05F606F00706B6F1040C06D20EEB46
:1024F000860CBDE870404CF0010C6047DFE80CF042
:10250000090B02024FF00041A1F500214FF000003D
:1025100070BD19461046012851EB010418BFD4F5CF
:10252000001484BF002001F0004170BD0808A0F530
:1025300000114FEA3101704743004FEAD30C4FEAD4
:102540003C0C43401FBF40070CF1605113F0FE4F9D
:1025500070471CF0006F03D10CF000410020704761
:102560000CF0004343EA507040EACC0010B500F094
:1025700072F900BF000000924FEA0001FFF7D6BFDA
:102580004FF00041A1F500214FF00000704700001E
:102590004FF47F0C1CEAD0121EBF1CEAD11392EA42
:1025A0000C0F93EA0C0F00F0858090EA010F48BFF2
:1025B00042F4807240F4000C41F400002CF07F41A2
:1025C00020F07F4000B5A2EB030281420FF2081C0D
:1025D000ACEB504E9EF800E0C0F100004FEA4E0E0A
:1025E00000FB0EFC38BF49004FEA2C1C0CFB0EF31D
:1025F0004FEACE1E0EEB635E4FEA112C0EFB0CFC75
:102600004FEAC1214FEA1C5300FB031102F5FA0205
:102610004FEA112C0EFB0CFC4FEA01314FEADC4C67
:1026200000FB0C1142EB2242C14228BF09184CEBBF
:1026300003335DF804EB10EB410143EBC250B2F5FC
:102640007C0F38BF704729D512F0F00F1CBF00F186
:10265000C04000F0004070470081828384858687F7
:1026600088898B8C8D8E8F919293959697999A9C51
:102670009D9FA0A2A3A5A7A8AAACAEB0B2B3B5B7C0
:10268000B9BCBEC0C2C5C7C9CCCED1D4D7D9DCDF96
:10269000E2E6E9ECF0F3F7FAFE0000004FEA400C46
:1026A0000CF1807CBCF17E4F28BF7047B0F1C04078
:1026B00000F017B90CEAD11390EA010F48BF42F4B9
:1026C0008072624538BF634507D213F47F0F16D07E
:1026D00080EA010000F00040704710B500F0BBF840
:1026E000097EFC3E00F005B880EA010000F00040E1
:1026F000704780EA010000F0004000F0F2B812F4E8
:102700007F0F04BF0248704780EA010000F0E9B87B
:102710000000C07FC10DD1F19E0206DB4FEA00230D
:1027200043F0004323FA02F07047004207D54FEA16
:102730004001B1F1FE4F02D24FF00000704710B5DA
:1027400000F089F849922480002070476FEA200049
:10275000704700004FF47F0C1CEAD0121EBF1CEA29
:10276000D11392EA0C0F93EA0C0F00F0478090EA25
:10277000010F48BF42F480724FF0004C4CEA002039
:102780004CEA012102EB0302A0FB0113A2F50002B7
:10279000002918BF43F001035B0028BF4FEA330351
:1027A00042EB22425FEA132C4CEBC2502EBFBCEB33
:1027B000436FB2F57C0F70474FEA036CBCF1004FDA
:1027C00008BF20F00100B2F57C0F38BF70470BD571
:1027D00082F0FF0212F5803FC8BF704700F1C04091
:1027E000D8BF00F00040704700F5000C5FEA4C0CC9
:1027F00048BF7047B0F1C04000F073B80CEAD11385
:1028000090EA010F48BF42F48072624538BF6345C9
:1028100004D280EA010000F00040704710B500F0DB
:102820001AF800BF8900013E00F007B800F009B8AF
:102830005FEA410C5FEA1C6C08D080EA010000F0FE
:1028400050B85FEA400C5FEA1C6CF6D14FF00040D4
:10285000A0F5800070470EF1020E2EF0030E5EF818
:10286000044B244204D44FEA4102B2F17F4F11D805
:102870004FEA4003B3F17F4F0CD80ED14FEAD07C22
:102880000CEB4C0C0CF1020CB2F17F4F08BF4CEB7F
:10289000D17C04E04FF0080C01E04FEAD17C0CEB56
:1028A0004C0324FA03F404F00704B4F1040C06D238
:1028B0000EEB840CBDE810404CF0010C6047DFE8E3
:1028C0000CF0070802024FF00040A0F5800010BD98
:1028D0000846420018BFD2F1807288BF00F0004065
:1028E00010BDFF2141EAD050C00570470102000031
:1028F00000000000000001020304060708090000B0
:1029000000000102030402030405060708090A0B7C
:102910000C0D0E0F101000003829000800000020D8
:10292000F00B000094010008602B0008F00B002061
:10293000A8090000F40100083201DA0A045A090467
:10294000DA08046918A92C5A0B04A938A90441090A
:10295000FD6009176032013202DA030429142904E8
:102960005A0404E918E90429482904092A300912FB
:10297000782904011C69245A050469F8DA07040956
:1029800022189A0648E90469A869D0E9040912B82E
:1029900029042DFBFFFFFF04E9286950E930697025
:1029A0000A1101040114691C6950E930690CE958E5
:1029B0000916C069480912500926900912D86950B1
:1029C000091E70E978092A300912782904011C6966
:1029D000245A05045A0804DA07040922189A0648FA
:1029E000E90469A869D0E9040912B829042DFBFF9C
:1029F000FFFF04E9286950E93069700A11010401F8
:102A000014691C69500912382904E9580912C0696F
:102A100044A904091650091690815A0D040A150C90
:102A200004DA0B045A0A040A1509048169C8690406
:102A3000E9C8A9D00916D469D80D1EF9FFFFFFD047
:102A40000956C869A0091E0469B06910E950DA087E
:102A500004816910DA07040A1D06040110E9205AEE
:102A600005040A1D040429AC29086930091E040163
:102A7000182948DA0208A958816914E9C8290C29DB
:102A8000F85A0804815A09100912880A1901E8291C
:102A900080E9040912E80946C0691429C42904011F
:102AA000102950DA0A0469185A0B04691829F40924
:102AB00012045A085C29082904A97C29100912303B
:102AC000A904A9302904092A30092E60091230A965
:102AD000DCE934691029E0A904DA0604E9C4E90450
:102AE000DA04045A03045A02046910E9040118695B
:102AF00020E9500916600A2D010415ECFFFFFF13B1
:102B000024F420115CCF02437BD412435CCF2443D6
:102B1000299C2E431A4404180A5C43A4F07643A46B
:102B2000D0821C1A92081EA443719DAE181AC404C8
:102B30001ADC1C13F6431814D002441FD51244A407
:102B4000D02444719D2E445CFF4344382E4448F108
:102B5000764460321045CDCCCC3E00000000000031
:0400000508000131BD
:00000001FF
