:020000040800F2
:10000000080A0020F9010008AD140008A514000832
:10001000A9140008250300083D180008000000008E
:10002000000000000000000000000000B5140008FF
:100030002903000800000000B1140008B9140008EA
:1000400041180008130200081302000813020008F8
:1000500013020008130200082D0300081302000811
:100060001302000869030008AD030008130200082A
:10007000130200081302000813020008130200080C
:1000800013020008130200081302000813020008FC
:1000900013020008130200081302000813020008EC
:1000A00013020008130200081302000813020008DC
:1000B000C1140008ED140008130200081302000820
:1000C00013020008130200081302000813020008BC
:1000D0001302000811180008130200081302000898
:1000E000130200081302000813020008130200089C
:1000F00019170008130200089115000813020008E0
:100100001302000813020008FD140008130200087F
:100110001302000813020008091500084D15000815
:10012000130200081302000813020008130200085B
:1001300000F002F800F050F814A696E8000CB24463
:10014000B344DA4501D100F047F8BAE80F000FA632
:1001500096E83000A5EB040504EB0607AAEB0704BC
:10016000A7F101074FEA15154FEA3414A4F1010471
:10017000AC4201D300F030F813F0010F18BFFB1AA6
:1001800043F0010300F001F8DBE71847E418000032
:1001900004190000103A24BF78C878C1FAD8520771
:1001A00024BF30C830C144BF04680C6070470000F1
:1001B000704700000023002400250026103A28BFC5
:1001C00078C1FBD8520728BF30C148BF0B607047C9
:1001D0001FB51FBD10B510BD00F076F81146FFF732
:1001E000F7FF01F0CBFB00F094F803B4FFF7F2FF48
:1001F00003BC01F02BFB0000094880470948004779
:10020000FEE7FEE7FEE7FEE7FEE7FEE7FEE7FEE7C6
:10021000FEE7FEE704480549054A064B7047000023
:10022000BD1400083101000808040020080A00205D
:1002300008060020080600207047000010B504469C
:1002400003E001F055FB401C09D014F8010B0549EF
:100250000028F6D1BDE810400A2001F049BB4FF05C
:10026000FF3010BD740000204FF0000200B51346AF
:1002700094469646203922BFA0E80C50A0E80C50C6
:10028000B1F12001BFF4F7AF090728BFA0E80C5077
:1002900048BF0CC05DF804EB890028BF40F8042B70
:1002A00008BF704748BF20F8022B11F0804F18BFDD
:1002B00000F8012B70477047704770477047000087
:1002C00000487047100000207546FFF7F9FFAE4662
:1002D00005006946534620F00700854618B020B552
:1002E000FFF798FFBDE820404FF000064FF00007F1
:1002F0004FF000084FF0000BAC46ACE8C009ACE88A
:10030000C009ACE8C009ACE8C00921F007018D467E
:10031000704710B50446AFF300802046BDE810409A
:10032000FFF763BFFEE7000070470000B0B540F282
:1003300014440120C4F20104012500F0EFF8142058
:1003400001F0B4FA04F57B70012100F0E1F9012815
:1003500007D140F2CC00C2F200000168C1F10101F6
:1003600001602560B0BD0000B0B50820082500F090
:10037000D5F840F2CC00C2F20000006880B140F62F
:1003800000441420C4F2010401F090FA04F5406026
:10039000082100F0BDF918B92046202100F0BEF96F
:1003A00040F21440C4F201000560B0BDB0B51020A9
:1003B000102500F0B3F840F2CC00C2F20000006853
:1003C000A0B141F600041420C4F2010401F06EFA59
:1003D0002046102100F09CF940B9A4F5406020218E
:1003E00000F09CF92046202100F098F940F21440DA
:1003F000C4F201000560B0BD90F82110022927D198
:10040000026840F2040C1368C4F2020C23F00E03DD
:10041000136013680CF17C018A4223F00101116022
:100420001AD940F20841C4F202018A424ED040F289
:100430001C41C4F202018A4241D040F23041C4F270
:1004400002018A4246D14FF48073CCF8003457E061
:1004500004218163012070474321C4F202018A42D2
:100460000EDD6B21C4F202018A421BDC4421C4F27E
:1004700002018A423BD05821C4F202018A4222E0A2
:100480000821C4F202018A422FD01C21C4F20201C9
:100490008A4232D03021C4F202018A4213D14FF491
:1004A00080722BE06C21C4F202018A4222D08021AA
:1004B000C4F202018A4206D14FF080721EE010237E
:1004C000CCF800341CE04FF4803217E00123CCF864
:1004D000003415E00CF588614FF480338A4208BF80
:1004E0004FF48053CCF800340AE0012206E04FF4C8
:1004F000805203E04FF4801200E01022CCF800207C
:10050000416B4FF480720029028404BF00207047C1
:1005100080B58847002080BD7047000040F214413C
:10052000C4F201010A68024214BF08607047FFF775
:10053000F3BF00002DE9F04F82B00E68002E00F0EE
:10054000E380A0F1804241F6004540F20043A2F56D
:100550008432C4F201050624C4F201034FEAB22733
:10056000A84208BF05244FF0000E4FF001080F25E8
:100570004FF0000A4FF0000B052F38BF4FEAB224AE
:10058000009408E00E680AF1010A36FA0AF20EF148
:10059000040E00F0B98008FA0AFC16EA0C09F1D042
:1005A0004E684FF6FF72C1F21002964210DC122E16
:1005B00050D8DFE806F0330A48454F4F4F4F4F4FB2
:1005C0004F4F4F4F4F4F4F414C00D1F80CB041E0CF
:1005D0004FF6FF72C1F2210296420FDC0022C1F2F7
:1005E000110296421AD00022C1F21202964215D090
:1005F0000022C1F22102964210D02BE00022C1F26B
:10060000220296420AD00022C1F23102964205D05F
:100610000022C1F2320296421CD100BF8A6842B168
:10062000012A14BFC0F814C0C0F810C04FF0080B66
:1006300010E04FF0040B0DE0CA6802F1040B09E072
:100640004FF0000B06E0CA6802F1080B02E0CA682E
:1006500002F10C0B02467446B9F5807F24BF0432C8
:10066000203C166805FA04F726EA07070BFA04F699
:1006700037431760CA79D2067FF584AF41F2180775
:10068000C4F202073A684FF6084542F001023A60A8
:100690003A68CFF6FF7502F001020192019A2AF042
:1006A00003021A440F2457590EF00C06B440A74316
:1006B000009C04FA06F6374357514E680F25F203A3
:1006C0001A6854BF22EA090242EA09021A605A680B
:1006D000B70354BF22EA090242EA09025A60F7024C
:1006E0009A6854BF22EA090242EA0902B70240F2BC
:1006F0000C479A60C4F201073A6854BF22EA090223
:1007000042EA09023A603DE702B0BDE8F08F00001E
:100710008068084018BF012070470000C26802EAE4
:100720000103914341EA034101617047002A08BF78
:10073000090401617047000040F20440C2F2000069
:100740000068704740F2080040F20441C2F2000025
:10075000C2F2000100780A68104408607047000087
:1007600080B542F20000C4F20200016841F01001BD
:100770000160052000F070F80F2000F005F800F08F
:100780002BF8002080BD0000B0B540F20802C2F294
:10079000000240F204011278C2F200014FF47A73B1
:1007A0000968B3FBF2F20446B1FBF2F1084600F02F
:1007B00001FB0F2C4FF001050CD858B94FF0FF305A
:1007C00021460022002500F01BF840F20C00C2F286
:1007D000000004602846B0BD70470000002848BFF4
:1007E000704700F01F01012202FA01F11C2202EA07
:1007F000D0004EF20012CEF200028150704700008D
:1008000010B54EF60C5CCEF2000CDCF80030C3F3F1
:10081000022E8EF00704042C28BF0424BEF103032B
:100820004FF0FF3E0EFA04F438BF0023A143994075
:100830000EFA03F39A43114300F1604200F00F03F4
:10084000090102F56442043B6344002848BF03F1F8
:100850000C02117010BD00004EF60C51CEF20001DA
:100860000A684FF6FF031A4060F30A2242F08060E4
:1008700040F0FD7008607047002804BF01207047F9
:100880002DE9F04381B042F20008C4F202080446A8
:10089000D8F800000D4600F0070088420CD2D8F8C6
:1008A000000020F007002843C8F80000D8F8000036
:1008B00000F00700A8426BD1206841F204098107CB
:1008C000C4F2020917D5410705D5D9F8001041F443
:1008D000E061C9F80010010705D5D9F8001041F40E
:1008E0006051C9F80010D9F80010A26821F0F00199
:1008F0001143C9F80010C00741D1D8F8000000F03A
:100900000700A8420CD9D8F8000020F007002843BF
:10091000C8F80000D8F8000000F00700A84237D15E
:100920002068410707D5D9F80010E26821F4E0619A
:100930001143C9F80010000708D5D9F80000216953
:1009400020F4605040EAC100C9F80000D9F8002046
:1009500002F00C00082841F20020C0F27A0049D1D0
:1009600041F66023C2F38341C0F60003595CD20311
:1009700034D440F60010C0F23D0048433AE06068CD
:1009800059F8041C022807D0012824D1890305D472
:10099000012001B0BDE8F0838901F9D5D9F8001034
:1009A00021F003010843C9F80000FFF7C5FE064621
:1009B00041F28837D9F80000616800F00C00B0EB14
:1009C000810F9AD0FFF7B8FE801BB842F2D90320FE
:1009D00001B0BDE8F0838907DAD5DFE7D9F8002058
:1009E00041F64623C2F34042C0F600039A5C4843F6
:1009F000B0FBF2F0D9F8001041F64822C1F3031120
:100A0000C0F60002515C40F2040220FA01F140F20B
:100A10000C00C2F200000068C2F200021160FFF791
:100A2000B3FE002001B0BDE8F083000040F20400F6
:100A300041F20401C2F20000C4F202010068096838
:100A400041F65822C1F30221C0F60002515CC840B1
:100A50007047000040F2040041F20401C2F20000BD
:100A6000C4F202010068096841F65822C1F3C221AC
:100A7000C0F60002515CC84070470000002804BF67
:100A8000012070472DE9F04182B00446007841F220
:100A90000006C007C4F2020647D0706800F00C00E0
:100AA000042808D1306880033FD56068E8BB012086
:100AB00002B0BDE8F081706800F00C00082802D197
:100AC0007068C003EED4656830682DB1B5F5A02F0D
:100AD00009D0B5F5803F0AD020F48030306030680E
:100AE00020F4802005E040F480203060306840F43D
:100AF00080303060FFF720FE002D054612D000BF89
:100B00003068800311D4FFF717FE401B6428F7D923
:100B100016E100BFFFF710FE401B64284FF00300F2
:100B200000F2D88030688003F4D42078800719D58B
:100B3000706810F00C0F07D0706800F00C000828E7
:100B400027D17068C00324D43068800703D520699A
:100B5000012840F0A6803068616920F0F80040EA82
:100B6000C1003060207800074ED5A06938B300205E
:100B7000C4F242200121C0F88014FFF7DDFD0546D4
:100B8000706A80072DD4FFF7D7FD401B0228F7D9E4
:100B9000D6E02069002840F20000C4F2422000F0B4
:100BA000A88001210160FFF7C7FD05463068800776
:100BB000D1D4FFF7C1FD401B0228F7D9C0E00020C7
:100BC000C4F242200021C0F88014FFF7B5FD0546AD
:100BD000706A800718D5FFF7AFFD401B0228F7D9D0
:100BE000AEE040F20400C2F20000006844F6D351C7
:100BF000C1F26201A0FB0101480A019000BF019807
:100C0000411E00280191F9D12078400717D4E569E9
:100C10008DB1706800F00C00082846D1012D40D03D
:100C20007068216A00F480328A423AD1616A00F425
:100C30007010884235D1002002B0BDE8F081F06923
:100C40005FEAC00808D4F06940F08050F061F069B4
:100C500000F080500090009847F20007C4F20007AF
:100C60003868C0050FD4386840F480703860FFF7EA
:100C700063FD05463868C00505D4FFF75DFD401BE0
:100C80006428F7D95CE0E568306A1DB1052D41D0D4
:100C9000012D43D020F001003062306A20F00400C2
:100CA0003EE0012002B0BDE8F0810027C4F24227F7
:100CB00000203866FFF740FD022D05460ED100BF2B
:100CC0003068800153D5FFF737FD401B02284FF0F5
:100CD0000300F5D902B0BDE8F08100BF30688001A3
:100CE000A9D5FFF729FD401B02284FF00300F5D9D5
:100CF000F0E700210160FFF71FFD0546306880071F
:100D00007FF530AFFFF718FD401B02284FF00300BE
:100D1000F4D9DFE740F004003062306A40F00100AF
:100D20003062FFF709FD002D054641F2883712D0E9
:100D3000306A800712D4FFF7FFFC401BB842F7D996
:100D4000032002B0BDE8F081FFF7F6FC401BB8427B
:100D50004FF00300BED8306A8007F5D4B8F1000F19
:100D60003FF555AFF06920F08050F0614FE7206A01
:100D7000B0F5803F05D17168A26821F400311143BC
:100D800071607168626A21F47411114308437060E4
:100D900001203866FFF7D0FC044600BF30688001B0
:100DA0003FF549AFFFF7C8FC001B02284FF00300D6
:100DB000F4D98FE7411E0020B0EB116F1CBF01205A
:100DC00070474EF21002CEF2000251604EF62351EF
:100DD000CEF20001F0230B70072190601160704784
:100DE000704700007047000090F83C20012A4FF047
:100DF000020209D080F83D200268516101210022E1
:100E000080F83D1080F83C2010467047006840F69E
:100E10000041C4F20001884200D0704740F2D42063
:100E2000C2F2000090F90010002948BF7047C9B213
:100E3000402916D24022027040F2FC12C2F2000297
:100E400040F2D6211268C2F20001002008805062F0
:100E5000106A20F00A001062106A40F0020010626E
:100E6000704710B540F2FC1441F08001C2F200045A
:100E700001702046002100F0F5F840F2D621C2F2C0
:100E8000000122680880106A20F00A001062106ACF
:100E9000106210BD10B5044600680169890744BF9F
:100EA000C1685FEA81713FD420680169490744BF86
:100EB000C1685FEA417143D420680169090744BFF2
:100EC000C1685FEA017148D420680169C90644BF5E
:100ED000C1685FEAC1614CD420680169C9071CBFC1
:100EE000C1685FEAC17151D120680169090644BF38
:100EF000C1685FEA016150D420680169490644BFB6
:100F0000C1685FEA41614FD421680869800646BF25
:100F1000C8685FEA806010BD6FF0200220460A6159
:100F2000BDE81040FFF75EBF6FF0020101610121D3
:100F30002177806980073ED02046FFF767FF40E0B9
:100F40006FF00401016102212177806910F4407F74
:100F50003AD02046FFF75AFF3CE06FF008010161EC
:100F600004212177C069800737D02046FFF74EFF64
:100F700039E06FF01001016108212177C06910F498
:100F8000407F33D02046FFF741FF35E06FF001018D
:100F90000161204600F038F8A6E76FF0800101619A
:100FA0002046FFF71DFFA7E76FF0400101612046D3
:100FB00000F064F8A8E7204600F022F8204600F090
:100FC00021F8002020776FE7204600F019F820462E
:100FD00000F018F8002020776EE7204600F010F8A7
:100FE000204600F00FF8002020776DE7204600F043
:100FF00007F8204600F006F8002020776CE7000094
:101000007047000070470000006840F60041C4F2DD
:101010000001884200D0704740F2D420C2F20000A4
:1010200090F900104029B8BF7047C9B201F03F02E3
:101030003F2A14D140F2FC11C2F2000109680A6A89
:1010400022F00A020A620A6A0A62FF21017040F273
:10105000D620C2F200004FF6FF71018070470131C7
:10106000017070474FEAB101032984BF0020704727
:10107000006800EB8100406B704700007047000083
:1010800070470000B0B501680A68CC684B6902F08F
:101090002F05202D04F0200504D11DB1BDE8B0407E
:1010A00000F078BB5FEA027C1EBF03F0010E04F47F
:1010B000907313EB0E032CD1130619D514F0800393
:1010C00016D090F83920212A11D18268B2F5805FBC
:1010D00003D10269002A00F08E80026A531C036269
:1010E00012784A60C28C013A1304C28476D0B0BD33
:1010F0005206FCD514F0400208BFB0BDCA6822F009
:101100004002CA60202180F83910BDE8B04000F0EC
:10111000A1B9D10718BF14F4807102D1510706D4C8
:101120000CE0C16B41F00101C163510706D5BEF16E
:10113000000F03D0C16B41F00201C163910706D5D6
:10114000BEF1000F03D0C16B41F00401C163BCF1DB
:10115000000F06D55EEA050103D0C16B41F008011E
:10116000C163C16B0029C2D0910604D51DB10446EC
:1011700000F010FB204601684A69C36B02F0400290
:1011800003F00803D21823D0CA6822F49072CA6010
:101190004A6922F001024A61202280F83A204A6915
:1011A000520624D54A6922F040024A61416BF1B1EE
:1011B00041F28972C0F60002044608464A63FFF70E
:1011C0001BF9002893D0606B416BBDE8B040084725
:1011D0000446FFF755FF0020E063B0BDC86820F06B
:1011E0008000C860C86840F04000C860B0BDBDE87D
:1011F000B040FFF745BF026A32F8023B6FF35F234E
:101200004B6002626EE70000002804BF01207047B7
:1012100010B5044690F8390028B9002084F8380049
:10122000204600F061F8242084F839002068D4E9D1
:101230000212C36823F40053C360036923F44053CC
:101240001A430261D4E904231143C268194341F2ED
:101250000C639A431143C1604169A26921F4407152
:10126000114343F60002C4F201029042416102D0F0
:10127000FFF7DCFB01E0FFF7EDFBD4E900231921C8
:1012800048439900B0FBF1F048F21F5CC5F2EB1C3B
:10129000A0FB0C314FF69C734909C0F6FF7301FBAC
:1012A0000300322303EB0010A0FB0C03F02000EA44
:1012B000531000EB0110C3F3431108449060106910
:1012C000202120F490401061506920F02A005061E4
:1012D000D06840F40050D0600020E06384F83910FA
:1012E00084F83A1010BD0000B0B584B040F6000498
:1012F000C4F20104006804F54051884201D004B0F2
:10130000B0BD41F21800C4F2020001686D4641F020
:1013100004010160016801F0040100910099016875
:1013200041F004010160016801F00401009100999D
:10133000016841F4804101600068294600F4804062
:10134000009000984FF4007000900220019001205E
:101350000290032003902046FFF7ECF84FF48060E2
:1013600000900020019020462946FFF7E3F8252051
:10137000FFF734FA252003210322FFF741FA04B0D6
:10138000B0BD0000034690F83A0020280AD1002999
:101390004FF0010018BF002A00D1704793F83800C1
:1013A000012801D1022070479962002022219A85EC
:1013B000DA85D86383F83A10196883F83800CA6868
:1013C00042F48072CA604A6942F001024A61CA6806
:1013D00042F02002CA607047006843F60001C4F280
:1013E0000101884218BF704740F2EC30C2F20000A1
:1013F000B0F90010002921D440F2D802C2F2000254
:1014000089B21378B1F5804F04D20D2B0CD141F481
:10141000804212E048F2000C0022CFF6FF7C0A2B3B
:1014200008BF41EA0C0208E040F22432C2F2000296
:1014300053544A1CC62988BF0022028040F2E4208F
:1014400040F2D801C2F20000C2F200010122FFF70F
:1014500099BF00007047000080B540F2F030C2F242
:10146000000000F019F841F60000C4F2010020214C
:101470000022BDE88040FFF759B9000001684A68C2
:10148000920558BF70478A68D20700D170476FF045
:1014900001028A60FFF7E0BF0168C26800200A60AD
:1014A00070470000FEE70000FEE700007047000004
:1014B0007047000070470000FFF744B97047000014
:1014C00010B540F2DC04C2F2000420680069C007D5
:1014D00008BF10BD41F60000C4F201002021FFF753
:1014E0001DF920686FF00101016110BD40F2241068
:1014F000C2F20000006800697047000040F2FC1072
:10150000C2F20000FFF7C6BC10B540F26C14C2F284
:10151000000420686FF00101016141F60000C4F28F
:1015200001002021FFF7FAF803A0FEF787FE20460E
:10153000BDE81040FFF7AEBC54494D3620696E74CB
:10154000657272757074210D0000000010B540F2D4
:10155000B414C2F2000420686FF00101016140F68A
:101560000040C4F201002021FFF7D8F803A0FEF7E5
:1015700065FE2046BDE81040FFF78CBC54494D374E
:1015800020696E74657272757074210D0000000020
:101590002DE9F04381B040F2E226C2F20006307835
:1015A00043F21045C4F2010578B140F2E020C2F2E6
:1015B00000000021018040F28C202960C2F200006E
:1015C0000068416201B0BDE8F08340F28C20C2F2B5
:1015D000000000680169C9071AD06FF001010161BC
:1015E0000169890714D440F2E022C2F20002B2F984
:1015F000007040F2C806BBB2C2F200060021002B08
:10160000317079D04FF6FF76B34277D100237BE07B
:1016100040F2C807C2F2000739780069002946D0B5
:10162000800748D540F28C28C2F2000840460421C9
:10163000FFF718FD40F2DC290130C2F20009C9F8B9
:101640000000404600210024FFF70CFDD9F80020DF
:10165000431C40F2D821C2F200019A420B602FD203
:1016600001233370AB6940F2E026C2F200061C048D
:10167000338004D101320230C9F800200860002014
:10168000387055F8101C21F0010145F8101CD8F8ED
:101690000010CA6822F00202CA60CA6822F004027E
:1016A000CA60CA6822F00102CA60286003E08007AD
:1016B00044BF012038700020286001B0BDE8F083ED
:1016C00000F070F940F2E020D8F80010C2F20000FB
:1016D000347004808C624C62C86840F00200C860BC
:1016E000C86840F00100C860086840F00100086068
:1016F0002C6000F059F9DEE7012305E04FF0FF33DD
:10170000B7F1FF3FC8BF7B0013809AB2826241628B
:10171000296001B0BDE8F08310B540F24424C2F264
:10172000000420680069C00708BF10BD40F2D40162
:10173000C2F200010868B0F5807F04D3A0F5807282
:101740004FF4807002E0E0B180B200220A6043F200
:101750000041C4F2010158B101380863204601215B
:10176000FFF742FB2068016841F00101016003E0DE
:10177000086820F00100086020686FF00101016135
:1017800010BD0020E3E70000406A0021C185C1844C
:10179000FFF776BC90F83A10222918BF704782688C
:1017A000B2F5805F01D1016949B3816AB2F5805F0A
:1017B00007D00AB9026922B10268526802F07F02BA
:1017C00001E0026852680A70816A01318162C18D4C
:1017D00001390A04C18500D070470168CA6822F047
:1017E0002002CA60CA6822F48072CA604A6922F084
:1017F00001024A61202180F83A10FFF7EDBD01682F
:10180000826A49686FF35F2122F8021B8262DEE779
:1018100080B540F2E420C2F20000FFF733FC41F64D
:101820000000C4F201002021FEF778FF40F27000B2
:10183000C2F2000001680131016080BDFEE70000D6
:1018400040F2F030C2F20000FFF718BE704700000F
:1018500010B584B041F21800C4F20200016840F6ED
:10186000004441F0080101600068C4F2010400F086
:101870000800009000984FF4807000900120CDE99E
:1018800001000320039069462046FEF753FE2046E0
:101890004FF480710022FEF749FF04B010BD000034
:1018A00040F2D001C2F200010860704780B54EF2EC
:1018B000180140F2D002CEF20001C2F2000251F84B
:1018C00004CC1268002350434FF47A7200FB02FEEE
:1018D000086800BF0A688242FCD003449B1A824217
:1018E00028BF63447345104628BF80BDF2E700005F
:1018F00043F60001C4F201010A685206FCD5C2B2E7
:101900004A60704770B584B041F21800C4F202001A
:10191000016840F6004441F0080101600168C4F22A
:10192000010401F008010091009901686D4641F041
:10193000400101600068202600F0400000900098FF
:101940000120CDE90100032003902046294600969E
:10195000FEF7F0FD009604F5406630462946FEF796
:10196000E9FD204620210122FEF7E0FE304620213D
:101970000122FEF7DBFE04B070BD0000FEF7F0FEB2
:101980004FF4E01000F012F84820FFF789FF4FF401
:10199000E13000F039F8FFF7B5FFFFF759FF00BF5E
:1019A000FEE7000072B6704762B67047F0B58FB0C0
:1019B00005AD044628462821FEF756FC01200026E6
:1019C00005904FF480300227CDE90606CDE90C7072
:1019D00028460496CDE90266CDE900660E94FFF72D
:1019E0004DF800B1FEE70F20CDE900074FF480600D
:1019F000CDE90306684602210296FEF73DFF00B1DD
:101A0000FEE70FB0F0BD000010B540F2E42443F64D
:101A10000001C2F20004C4F2010100220C23C4E957
:101A200000102046C4E90222C4E90423A261FFF7A2
:101A3000EBFB40F2D801C2F2000120460122BDE8D2
:101A40001040FFF79FBC01020000000000000000F2
:101A50000102030406070809000000000102030454
:101A600002030405060708090A0B0C0D0E0F1010DF
:101A7000901A0008000000201000000094010008E7
:101A8000A01A000810000020F8090000B4010008A6
:101A9000010000000024F40001000000100000001C
:0400000508000131BD
:00000001FF
