:020000040800F2
:1000000068090020090200083D1A0008351A000896
:10001000391A000811060008D51B0008000000006E
:10002000000000000000000000000000451A000869
:100030009908000800000000411A0008491A000849
:10004000D91B00082302000823020008230200082D
:1000500023020008230200089D080008230200086C
:1000600023020008D90800081D090008230200081F
:1000700023020008230200082302000823020008CC
:1000800023020008230200082302000823020008BC
:1000900023020008230200082302000823020008AC
:1000A000230200082302000823020008230200089C
:1000B000511A00087D1A00082302000823020008D4
:1000C000230200082302000823020008230200087C
:1000D00023020008A91B00082302000823020008CD
:1000E000230200082302000823020008230200085C
:1000F000230200082302000823020008230200084C
:1001000023020008230200088D1A000823020008B9
:100110002302000823020008991A0008DD1A0008CB
:10012000230200082302000823020008230200081B
:1001300000F002F800F058F814A696E8000CB2445B
:10014000B344DA4501D100F04FF8BAE80F000FA62A
:1001500096E83000A5EB040504EB0607AAEB0704BC
:10016000A7F101074FEA15154FEA3414A4F1010471
:10017000AC4201D300F038F813F0010F18BFFB1A9E
:1001800043F0010300F001F8DBE71847801C000092
:10019000A01C0000103A24BF78C878C1FAD85207D2
:1001A00024BF30C830C144BF04680C6070470000F1
:1001B000704700000023002400250026103A28BFC5
:1001C00078C1FBD8520728BF30C148BF0B607047C9
:1001D000642900F0A580732900F0B68100207047E3
:1001E0001FB51FBD10B510BD00F0E4F91146FFF7B3
:1001F000F7FF01F049FD00F002FA03B4FFF7F2FF48
:1002000003BC01F0EFFC00000948804709480047A3
:10021000FEE7FEE7FEE7FEE7FEE7FEE7FEE7FEE7B6
:10022000FEE7FEE704480549054A064B7047000013
:100230004D1A0008310100086803002068090020F9
:100240006805002068050020704700000FB40449CD
:1002500010B503AA029800F07BF910BC5DF814FBFE
:10026000740000202DE9F0410E4604460020206273
:100270002046E168884730B3252805D0D4E901211C
:100280009047206A401CF2E7E16820460027884733
:10029000050018D0A5F14100192802D820354FF4E7
:1002A00000673246294620462760FFF791FF40B19C
:1002B000012804D0F61D26F007060836D8E7361DBB
:1002C000D6E72846DAE7206ABDE8F08170B50C462B
:1002D0000546012A05D02878800600D5EA69002362
:1002E00002E0012305E05B1C934202D2E05C00289F
:1002F000F9D1A869E618C01AA861286A18442862CA
:100300002846AFF3008004E0D5E9012114F8010B81
:100310009047B442F8D32846AFF3008070BD000088
:100320002DE9F0410646002410687529314616A5CE
:1003300010D0AFF30080002802DA404213A507E096
:1003400031688A0701D512A502E0490704D511A535
:10035000012401E0AFF3008000210A2206F1240706
:1003600009E0B0FBF2FCB0FBF2F302FB1C00303002
:1003700078541846491C0028F3D123462A463046B3
:10038000BDE8F04100F075B8000000002D0000004D
:100390002B0000002000000010B5044603E001F02F
:1003A00069FC401C09D014F8010B05490028F6D15E
:1003B000BDE810400A2001F05DBC4FF0FF3010BDD9
:1003C0007400002040EA010310B59B070FD1042AF6
:1003D0000DD310C808C9121F9C42F8D020BA19BA10
:1003E000884201D9012010BD4FF0FF3010BD1AB175
:1003F000D30703D0521C07E0002010BD10F8013BCA
:1004000011F8014B1B1B07D110F8013B11F8014BF0
:100410001B1B01D1921EF1D1184610BD4FF00002F6
:1004200000B5134694469646203922BFA0E80C50EA
:10043000A0E80C50B1F12001BFF4F7AF090728BFC5
:10044000A0E80C5048BF0CC05DF804EB890028BF41
:1004500040F8042B08BF704748BF20F8022B11F06A
:10046000804F18BF00F8012B7047704770477047E6
:1004700070472DE9F0470D4699469246044600F133
:1004800024080168880604D5E06921F01001216084
:1004900000E00120A84201DD471B00E00027A16920
:1004A0007A1902EB0900081AA0612078C00602D46C
:1004B0002046AFF30080002608E0D4E901211AF8B5
:1004C00006009047206A401C761C20624E45F4DBF3
:1004D0002078C0060AD52046AFF3008006E0D4E9B4
:1004E000012130209047206A401C2062381EA7F16D
:1004F0000107F4DC07E0D4E9012118F80500904772
:10050000206A401C2062281EA5F10105F3DC20466C
:10051000AFF300802078000602D50220BDE8F08706
:100520000120FBE710B5436913B1AFF3008001E090
:10053000FFF7CCFE012010BD127800F124010A70F3
:1005400000224A700122EDE711684FF0FF32E9E71F
:10055000074B70B50D467B4400F011F80446284661
:1005600000F020F810B14FF0FF3070BD204670BD94
:100570001B17000001694A1C02610878704700B52A
:100580008FB0CDE901310021059105497944CDE9CC
:10059000031011466846FFF765FE0FB000BD00006E
:1005A000E5FFFFFF007B00F08000704700487047C8
:1005B000100000207546FFF7F9FFAE4605006946BA
:1005C000534620F00700854618B020B5FFF72AFEF5
:1005D000BDE820404FF000064FF000074FF0000844
:1005E0004FF0000BAC46ACE8C009ACE8C009ACE881
:1005F000C009ACE8C00921F007018D46704710B56D
:100600000446AFF300802046BDE81040FFF7F5BD7B
:10061000FEE7000010B586B00020CDE90400CDE96A
:10062000020041F21800C4F20200016840F6000422
:1006300041F0040101600068C4F2010400F004000C
:10064000019001980120CDE902000490032005905B
:1006500002A9204600F048FA20460121012200F0BC
:100660003FFB06B010BD00002DE9F04184B040F61C
:1006700000058046C4F201050220002401260390F3
:10068000694628460294CDE9006600F02DFA284616
:100690000121002200F024FB142000F0F5F9284687
:1006A0000121012200F01CFB642001F0C5FA69461B
:1006B0002846CDE90064CDE9026400F015FA284629
:1006C000012100F0FFFA002840F0E18028460121D6
:1006D00000F0F8FA0028F9D02846012100F0F2FADB
:1006E0000128F9D000268027002403E00136082ED7
:1006F0001AD000BF2846012100F0E4FA0028F9D002
:10070000362001F099FA2846012100F0DBFA012891
:10071000ECD100BF2846012100F0D4FA0128F9D01D
:1007200027FA06F00443E1E788F800400026802716
:10073000002403E00136082E1AD000BF284601210C
:1007400000F0C0FA0028F9D0362001F075FA2846EA
:10075000012100F0B7FA0128ECD100BF28460121A1
:1007600000F0B0FA0128F9D027FA06F00443E1E7D7
:1007700088F8014000268027002403E00136082E77
:100780001AD000BF2846012100F09CFA0028F9D0B9
:10079000362001F051FA2846012100F093FA012891
:1007A000ECD100BF2846012100F08CFA0128F9D0D5
:1007B00027FA06F00443E1E788F802400026802784
:1007C000002403E00136082E1AD000BF284601217C
:1007D00000F078FA0028F9D0362001F02DFA2846EA
:1007E000012100F06FFA0128ECD100BF2846012159
:1007F00000F068FA0128F9D027FA06F00443E1E78F
:1008000088F8034000268027002403E00136082EE4
:100810001AD000BF2846012100F054FA0028F9D070
:10082000362001F009FA2846012100F04BFA012890
:10083000ECD100BF2846012100F044FA0128F9D08C
:1008400027FA06F00443E1E7002002900120CDE9F9
:100850000000022003906946284688F8044000F012
:1008600043F928460121012200F03AFA98F80000E5
:1008700098F8011098F8022098F8033008441044C2
:10088000184498F80410C0B2461A18BF0126304622
:1008900004B0BDE8F081000070470000B0B540F240
:1008A00014440120C4F20104012500F011F91420C0
:1008B00001F0A0F904F57B70012100F003FA012892
:1008C00007D140F2C800C2F200000168C1F1010185
:1008D00001602560B0BD0000B0B50820082500F01B
:1008E000F7F840F2C800C2F20000006880B140F69C
:1008F00000441420C4F2010401F07CF904F54060C6
:10090000082100F0DFF918B92046202100F0E0F9B5
:1009100040F21440C4F201000560B0BDB0B5102033
:10092000102500F0D5F840F2C800C2F200000068BF
:10093000A0B141F600041420C4F2010401F05AF9F8
:100940002046102100F0BEF940B9A4F540602021F6
:1009500000F0BEF92046202100F0BAF940F2144020
:10096000C4F201000560B0BD90F82110022927D122
:10097000026840F2040C1368C4F2020C23F00E0368
:10098000136013680CF17C018A4223F001011160AD
:100990001AD940F20841C4F202018A424ED040F214
:1009A0001C41C4F202018A4241D040F23041C4F2FB
:1009B00002018A4246D14FF48073CCF8003457E0EC
:1009C00004218163012070474321C4F202018A425D
:1009D0000EDD6B21C4F202018A421BDC4421C4F209
:1009E00002018A423BD05821C4F202018A4222E02D
:1009F0000821C4F202018A422FD01C21C4F2020154
:100A00008A4232D03021C4F202018A4213D14FF41B
:100A100080722BE06C21C4F202018A4222D0802134
:100A2000C4F202018A4206D14FF080721EE0102308
:100A3000CCF800341CE04FF4803217E00123CCF8EE
:100A4000003415E00CF588614FF480338A4208BF0A
:100A50004FF48053CCF800340AE0012206E04FF452
:100A6000805203E04FF4801200E01022CCF8002006
:100A7000416B4FF480720029028404BF002070474C
:100A800080B58847002080BD80B54EF2180140F245
:100A9000CC02CEF20001C2F2000251F804CC12687E
:100AA00080B250434FF47A7200FB02FE08680023C4
:100AB0000A688242FCD003449B1A824228BF6344E6
:100AC0007345104628BF80BDF2E700007047000064
:100AD00040F21441C4F201010A68024214BF0860E6
:100AE0007047FFF7F3BF00002DE9F04F82B00E68AA
:100AF000002E00F0E380A0F1804241F6004540F274
:100B00000043A2F58432C4F201050624C4F20103B5
:100B10004FEAB227A84208BF05244FF0000E4FF05D
:100B200001080F254FF0000A4FF0000B052F38BFCA
:100B30004FEAB224009408E00E680AF1010A36FA7E
:100B40000AF20EF1040E00F0B98008FA0AFC16EA67
:100B50000C09F1D04E684FF6FF72C1F210029642B6
:100B600010DC122E50D8DFE806F0330A48454F4F0C
:100B70004F4F4F4F4F4F4F4F4F4F4F414C00D1F8BA
:100B80000CB041E04FF6FF72C1F2210296420FDC39
:100B90000022C1F2110296421AD00022C1F21202C2
:100BA000964215D00022C1F22102964210D02BE0CD
:100BB0000022C1F2220296420AD00022C1F2310282
:100BC000964205D00022C1F2320296421CD100BFEB
:100BD0008A6842B1012A14BFC0F814C0C0F810C01E
:100BE0004FF0080B10E04FF0040B0DE0CA6802F163
:100BF000040B09E04FF0000B06E0CA6802F1080B95
:100C000002E0CA6802F10C0B02467446B9F5807F17
:100C100024BF0432203C166805FA04F726EA0707C9
:100C20000BFA04F637431760CA79D2067FF584AF12
:100C300041F21807C4F202073A684FF6084542F03D
:100C400001023A603A68CFF6FF7502F001020192A4
:100C5000019A2AF003021A440F2457590EF00C0689
:100C6000B440A743009C04FA06F6374357514E6838
:100C70000F25F2031A6854BF22EA090242EA090268
:100C80001A605A68B70354BF22EA090242EA09020D
:100C90005A60F7029A6854BF22EA090242EA09023E
:100CA000B70240F20C479A60C4F201073A6854BF99
:100CB00022EA090242EA09023A603DE702B0BDE8D1
:100CC000F08F00008068084018BF012070470000C6
:100CD000C26802EA0103914341EA0341016170479E
:100CE000002A08BF090401617047000040F260302B
:100CF000C2F200000068704740F2080040F2603124
:100D0000C2F20000C2F2000100780A6810440860D4
:100D10007047000080B542F20000C4F20200016892
:100D200041F010010160052000F070F80F2000F084
:100D300005F800F02BF8002080BD0000B0B540F2AF
:100D40000802C2F2000240F204011278C2F200016D
:100D50004FF47A730968B3FBF2F20446B1FBF2F187
:100D6000084600F001FB0F2C4FF001050CD858B9D4
:100D70004FF0FF3021460022002500F01BF840F222
:100D80000C00C2F2000004602846B0BD70470000AD
:100D9000002848BF704700F01F01012202FA01F14C
:100DA0001C2202EAD0004EF20012CEF20002815064
:100DB0007047000010B54EF60C5CCEF2000CDCF86B
:100DC0000030C3F3022E8EF00704042C28BF042445
:100DD000BEF103034FF0FF3E0EFA04F438BF0023C8
:100DE000A14399400EFA03F39A43114300F1604284
:100DF00000F00F03090102F56442043B634400283C
:100E000048BF03F10C02117010BD00004EF60C51EA
:100E1000CEF200010A684FF6FF031A4060F30A227F
:100E200042F0806040F0FD7008607047002804BF09
:100E3000012070472DE9F04381B042F20008C4F26E
:100E400002080446D8F800000D4600F0070088426A
:100E50000CD2D8F8000020F007002843C8F80000A2
:100E6000D8F8000000F00700A8426BD1206841F2DA
:100E700004098107C4F2020917D5410705D5D9F83D
:100E8000001041F4E061C9F80010010705D5D9F858
:100E9000001041F46051C9F80010D9F80010A268A0
:100EA00021F0F0011143C9F80010C00741D1D8F872
:100EB000000000F00700A8420CD9D8F8000020F08C
:100EC00007002843C8F80000D8F8000000F0070029
:100ED000A84237D12068410707D5D9F80010E26849
:100EE00021F4E0611143C9F80010000708D5D9F8D2
:100EF0000000216920F4605040EAC100C9F80000F8
:100F0000D9F8002002F00C00082841F20020C0F2BD
:100F10007A0049D141F6FC53C2F38341C0F6000385
:100F2000595CD20334D440F60010C0F23D0048436F
:100F30003AE0606859F8041C022807D0012824D13F
:100F4000890305D4012001B0BDE8F0838901F9D5FA
:100F5000D9F8001021F003010843C9F80000FFF799
:100F6000C5FE064641F28837D9F80000616800F0F6
:100F70000C00B0EB810F9AD0FFF7B8FE801BB8428F
:100F8000F2D9032001B0BDE8F0838907DAD5DFE7A5
:100F9000D9F8002041F6E253C2F34042C0F6000304
:100FA0009A5C4843B0FBF2F0D9F8001041F6E452E5
:100FB000C1F30311C0F60002515C40F2040220FAB2
:100FC00001F140F20C00C2F200000068C2F200021F
:100FD0001160FFF7B3FE002001B0BDE8F083000010
:100FE00040F2040041F20401C2F20000C4F2020126
:100FF0000068096841F6F452C1F30221C0F600020C
:10100000515CC8407047000040F2040041F2040106
:10101000C2F20000C4F202010068096841F6F4520D
:10102000C1F3C221C0F60002515CC8407047000005
:10103000002804BF012070472DE9F04182B004462A
:10104000007841F20006C007C4F2020647D070687B
:1010500000F00C00042808D1306880033FD5606898
:10106000E8BB012002B0BDE8F081706800F00C0020
:10107000082802D17068C003EED4656830682DB1CD
:10108000B5F5A02F09D0B5F5803F0AD020F4803007
:101090003060306820F4802005E040F4802030602B
:1010A000306840F480303060FFF720FE002D0546A8
:1010B00012D000BF3068800311D4FFF717FE401B29
:1010C0006428F7D916E100BFFFF710FE401B642823
:1010D0004FF0030000F2D88030688003F4D4207809
:1010E000800719D5706810F00C0F07D0706800F0F9
:1010F0000C00082827D17068C00324D4306880070A
:1011000003D52069012840F0A6803068616920F08D
:10111000F80040EAC1003060207800074ED5A06991
:1011200038B30020C4F242200121C0F88014FFF738
:10113000DDFD0546706A80072DD4FFF7D7FD401B03
:101140000228F7D9D6E02069002840F20000C4F256
:10115000422000F0A88001210160FFF7C7FD05468D
:1011600030688007D1D4FFF7C1FD401B0228F7D9B2
:10117000C0E00020C4F242200021C0F88014FFF734
:10118000B5FD0546706A800718D5FFF7AFFD401B17
:101190000228F7D9AEE040F20400C2F20000006875
:1011A00044F6D351C1F26201A0FB0101480A01904B
:1011B00000BF0198411E00280191F9D12078400715
:1011C00017D4E5698DB1706800F00C00082846D18D
:1011D000012D40D07068216A00F480328A423AD1F1
:1011E000616A00F47010884235D1002002B0BDE879
:1011F000F081F0695FEAC00808D4F06940F08050DF
:10120000F061F06900F080500090009847F200070C
:10121000C4F200073868C0050FD4386840F4807005
:101220003860FFF763FD05463868C00505D4FFF751
:101230005DFD401B6428F7D95CE0E568306A1DB1AC
:10124000052D41D0012D43D020F001003062306ADD
:1012500020F004003EE0012002B0BDE8F08100274C
:10126000C4F2422700203866FFF740FD022D0546F4
:101270000ED100BF3068800153D5FFF737FD401B0A
:1012800002284FF00300F5D902B0BDE8F08100BF9D
:1012900030688001A9D5FFF729FD401B02284FF0D7
:1012A0000300F5D9F0E700210160FFF71FFD0546B7
:1012B000306880077FF530AFFFF718FD401B02282C
:1012C0004FF00300F4D9DFE740F004003062306AE9
:1012D00040F001003062FFF709FD002D054641F2A4
:1012E000883712D0306A800712D4FFF7FFFC401B0A
:1012F000B842F7D9032002B0BDE8F081FFF7F6FC51
:10130000401BB8424FF00300BED8306A8007F5D4C6
:10131000B8F1000F3FF555AFF06920F08050F06153
:101320004FE7206AB0F5803F05D17168A26821F4CB
:101330000031114371607168626A21F474111143C4
:101340000843706001203866FFF7D0FC044600BFF8
:10135000306880013FF549AFFFF7C8FC001B022849
:101360004FF00300F4D98FE7411E0020B0EB116F5E
:101370001CBF012070474EF21002CEF200025160F5
:101380004EF62351CEF20001F0230B70072190603E
:10139000116070477047000070470000006840F619
:1013A0000041C4F20001884200D0704740F23C2066
:1013B000C2F2000090F90010002948BF7047C9B27E
:1013C000402916D24022027040F2F412C2F200020A
:1013D00040F23E211268C2F20001002008805062F3
:1013E000106A20F00A001062106A40F002001062D9
:1013F000704710B540F2F41441F08001C2F20004CD
:1014000001702046002100F0F5F840F23E21C2F2C2
:10141000000122680880106A20F00A001062106A39
:10142000106210BD10B5044600680169890744BF09
:10143000C1685FEA81713FD420680169490744BFF0
:10144000C1685FEA417143D420680169090744BF5C
:10145000C1685FEA017148D420680169C90644BFC8
:10146000C1685FEAC1614CD420680169C9071CBF2B
:10147000C1685FEAC17151D120680169090644BFA2
:10148000C1685FEA016150D420680169490644BF20
:10149000C1685FEA41614FD421680869800646BF90
:1014A000C8685FEA806010BD6FF0200220460A61C4
:1014B000BDE81040FFF770BF6FF00201016101212C
:1014C0002177806980073ED02046FFF767FF40E024
:1014D0006FF00401016102212177806910F4407FDF
:1014E0003AD02046FFF75AFF3CE06FF00801016157
:1014F00004212177C069800737D02046FFF74EFFCF
:1015000039E06FF01001016108212177C06910F402
:10151000407F33D02046FFF741FF35E06FF00101F7
:101520000161204600F038F8A6E76FF08001016104
:101530002046FFF72FFFA7E76FF04001016120462B
:1015400000F064F8A8E7204600F022F8204600F0FA
:1015500021F8002020776FE7204600F019F8204698
:1015600000F018F8002020776EE7204600F010F811
:10157000204600F00FF8002020776DE7204600F0AD
:1015800007F8204600F006F8002020776CE70000FE
:101590007047000070470000006840F60041C4F248
:1015A0000001884200D0704740F23C20C2F20000A7
:1015B00090F900104029B8BF7047C9B201F03F024E
:1015C0003F2A14D140F2F411C2F2000109680A6AFC
:1015D00022F00A020A620A6A0A62FF21017040F2DE
:1015E0003E20C2F200004FF6FF71018070470131CA
:1015F000017070474FEAB101032984BF0020704792
:10160000006800EB8100406B7047000070470000ED
:1016100070470000B0B501680A68CC684B6902F0F9
:101620002F05202D04F0200504D11DB1BDE8B040E8
:1016300000F07CBA5FEA027C1EBF03F0010E04F4E6
:10164000907313EB0E032CD1130619D514F08003FD
:1016500016D090F83920212A11D18268B2F5805F26
:1016600003D10269002A00F08E80026A531C0362D3
:1016700012784A60C28C013A1304C28476D0B0BD9D
:101680005206FCD514F0400208BFB0BDCA6822F073
:101690004002CA60202180F83910BDE8B04000F057
:1016A000A1B9D10718BF14F4807102D1510706D433
:1016B0000CE0C16B41F00101C163510706D5BEF1D9
:1016C000000F03D0C16B41F00201C163910706D541
:1016D000BEF1000F03D0C16B41F00401C163BCF146
:1016E000000F06D55EEA050103D0C16B41F0080189
:1016F000C163C16B0029C2D0910604D51DB1044657
:1017000000F014FA204601684A69C36B02F04002F7
:1017100003F00803D21823D0CA6822F49072CA607A
:101720004A6922F001024A61202280F83A204A697F
:10173000520624D54A6922F040024A61416BF1B158
:1017400041F62132C0F60002044608464A63FFF71C
:101750000BF9002893D0606B416BBDE8B04008479F
:101760000446FFF755FF0020E063B0BDC86820F0D5
:101770008000C860C86840F04000C860B0BDBDE8E7
:10178000B040FFF745BF026A32F8023B6FF35F23B8
:101790004B6002626EE70000002804BF0120704722
:1017A00010B5044690F8390028B9002084F83800B4
:1017B000204600F061F8242084F839002068D4E93C
:1017C0000212C36823F40053C360036923F4405337
:1017D0001A430261D4E904231143C268194341F258
:1017E0000C639A431143C1604169A26921F44071BD
:1017F000114343F60002C4F201029042416102D05B
:10180000FFF7EEFB01E0FFF7FFFBD4E9002319210E
:1018100048439900B0FBF1F048F21F5CC5F2EB1CA5
:10182000A0FB0C314FF69C734909C0F6FF7301FB16
:101830000300322303EB0010A0FB0C03F02000EAAE
:10184000531000EB0110C3F343110844906010697A
:10185000202120F490401061506920F02A0050614E
:10186000D06840F40050D0600020E06384F8391064
:1018700084F83A1010BD0000B0B584B040F6000402
:10188000C4F20104006804F54051884201D004B05C
:10189000B0BD41F21800C4F2020001686D4641F08B
:1018A00004010160016801F00401009100990168E0
:1018B00041F004010160016801F004010091009908
:1018C000016841F4804101600068294600F48040CD
:1018D000009000984FF400700090022001900120C9
:1018E0000290032003902046FFF7FEF84FF480603B
:1018F00000900020019020462946FFF7F5F82520AA
:10190000FFF746FA252003210322FFF753FA04B01C
:10191000B0BD0000034690F83A0020280AD1002903
:101920004FF0010018BF002A00D1704793F838002B
:10193000012801D1022070479962002022219A8556
:10194000DA85D86383F83A10196883F83800CA68D2
:1019500042F48072CA604A6942F001024A61CA6870
:1019600042F02002CA607047006843F60001C4F2EA
:101970000101884218BF704740F24830C2F20000AF
:10198000B0F90010002921D440F2D002C2F20002C6
:1019900089B21378B1F5804F04D20D2B0CD141F4EC
:1019A000804212E048F2000C0022CFF6FF7C0A2BA6
:1019B00008BF41EA0C0208E040F28022C2F20002B5
:1019C00053544A1CC62988BF0022028040F240209E
:1019D00040F2D001C2F20000C2F200010122FFF782
:1019E00099BF00007047000080B540F24C30C2F251
:1019F000000000F019F841F60000C4F201002021B7
:101A00000022BDE88040FFF76BB9000001684A681A
:101A1000920558BF70478A68D20700D170476FF0AF
:101A200001028A60FFF7E0BF0168C26800200A6017
:101A300070470000FEE70000FEE70000704700006E
:101A40007047000070470000FFF756B9704700006C
:101A500010B540F2D404C2F2000420680069C00747
:101A600008BF10BD41F60000C4F201002021FFF7BD
:101A70002FF920686FF00101016110BD40F21C10C8
:101A8000C2F20000006800697047000040F2F410E4
:101A9000C2F20000FFF7C6BC10B540F26414C2F2F7
:101AA000000420686FF00101016141F60000C4F2FA
:101AB00001002021FFF70CF903A0FEF76DFC204682
:101AC000BDE81040FFF7AEBC54494D3620696E7436
:101AD000657272757074210D0000000010B540F23F
:101AE000AC14C2F2000420686FF00101016140F6FD
:101AF0000040C4F201002021FFF7EAF803A0FEF73E
:101B00004BFC2046BDE81040FFF78CBC54494D37D4
:101B100020696E74657272757074210D000000008A
:101B2000406A0021C185C184FFF772BD90F83A1068
:101B3000222918BF70478268B2F5805F01D1016920
:101B400049B3816AB2F5805F07D00AB9026922B150
:101B50000268526802F07F0201E0026852680A706F
:101B6000816A01318162C18D01390A04C18500D0C9
:101B700070470168CA6822F02002CA60CA6822F46D
:101B80008072CA604A6922F001024A61202180F80D
:101B90003A10FFF7E9BE0168826A49686FF35F2176
:101BA00022F8021B8262DEE780B540F24020C2F2DA
:101BB0000000FFF72FFD41F60000C4F201002021D4
:101BC000FFF786F840F27000C2F2000001680131B0
:101BD000016080BDFEE7000040F24C30C2F2000020
:101BE000FFF714BF7047000040F2CC01C2F20001C1
:101BF0000860704780B54EF2180140F2CC02CEF278
:101C00000001C2F2000251F804CC126800235043D4
:101C10004FF47A7200FB02FE086800BF0A68824235
:101C2000FCD003449B1A824228BF6344734510468C
:101C300028BF80BDF2E7000080B54EF2180140F2E7
:101C4000CC02CEF20001C2F2000251F804CC1268BC
:101C5000002302FB00FE08680A688242FCD00344AD
:101C60009B1A824228BF63447345104628BF80BD3B
:101C7000F2E7000043F60001C4F201010A685206CF
:101C8000FCD5C2B24A60704784B0FFF743F84FF406
:101C9000E01000F059F84820FFF7A6FF4FF4E130BC
:101CA00000F080F8FEF7B6FC40F2483740F280269C
:101CB0000DF10B040FF26C09C2F20007C2F200062C
:101CC0000FF26C0A0FF2780B4FF0000809E000BF2A
:101CD00058463146FEF7BAFAA7F80080C820FFF749
:101CE00089FF2046FEF7C0FC58B99DF80B309DF8DF
:101CF0000C509DF80D109DF80E2048460095FEF7FB
:101D0000A5FAB7F90000B0F1FF3FE7DC30465146D5
:101D10000522FEF757FB0028DAD107A0FEF73CFBAF
:101D2000D6E700BF25642E25643E25642E25640079
:101D30006265657000000000653A626565700D00BF
:101D4000726563763A257300F0B58FB005AD044631
:101D500028462821FEF762FB0120002605904FF45B
:101D600080300227CDE90606CDE90C70284604969E
:101D7000CDE90266CDE900660E94FFF759F900B18E
:101D8000FEE70F20CDE900074FF48060CDE90306A0
:101D9000684602210296FFF749F800B1FEE70FB04E
:101DA000F0BD000010B540F2402443F60001C2F23D
:101DB0000004C4F2010100220C23C4E900102046F3
:101DC000C4E90222C4E90423A261FFF7E5FC40F262
:101DD000D001C2F2000120460122BDE81040FFF709
:101DE00099BD010200000000000000000102030490
:101DF00006070809000000000102030402030405AD
:101E0000060708090A0B0C0D0E0F1010301E0008F3
:101E1000000000201000000094010008401E00088F
:101E20001000002058090000B40100080000000064
:101E3000010000000024F400010000001000000078
:0400000508000131BD
:00000001FF
