:020000040800F2
:10000000880E0020A502000851320008BD3100080A
:100010004D320008B51400080D350008000000003E
:10002000000000000000000000000000593200083D
:10003000B914000800000000553200085D320008C5
:10004000BF020008BF020008BF020008BF0200088C
:10005000BF020008BF020008251A0008BF020008FE
:10006000BF020008611A0008A51A0008BF020008B4
:10007000BF020008BF020008BF020008BF0200085C
:10008000BF020008BF020008BF020008BF0200084C
:10009000BF020008BF020008BF020008BF0200083C
:1000A000BF020008BF020008BF020008BF0200082C
:1000B0006532000891320008A1320008BF02000832
:1000C000BF020008BF020008BF020008BF0200080C
:1000D000BF0200088D3400089D340008BF020008EC
:1000E000BF020008BF020008BF020008BF020008EC
:1000F000BF020008BF020008BF020008BF020008DC
:10010000BF020008BF020008BF020008BF020008CB
:10011000BF020008BF020008AD320008F13200083B
:10012000BF020008BF020008BF020008BF020008AB
:1001300000F002F800F0A6F814A696E8000CB2440D
:10014000B344DA4501D100F09DF8BAE80F000FA6DC
:1001500096E83000A5EB040504EB0607AAEB0704BC
:10016000A7F101074FEA15154FEA3414A4F1010471
:10017000AC4201D300F086F813F0010F18BFFB1A50
:1001800043F0010300F001F8DBE7184760AB000023
:1001900080AB0000103A24BF78C878C1FAD8520763
:1001A00024BF30C830C144BF04680C6070470000F1
:1001B000704700000023002400250026103A28BFC5
:1001C00078C1FBD8520728BF30C148BF0B607047C9
:1001D0006E2900F0F582702900F05F8466290AF02C
:1001E000738465290AF0708467290AF06D84612997
:1001F0000AF06C8403681B0A28BF41F0800169295A
:1002000000F0B880642900F0B580752900F0B28054
:100210006F2900F0ED83782900F02B84E92900F0A4
:100220008783E42900F08483F52900F08183EF2996
:1002300000F0EA83F82900F02A840368DB0928BF6C
:1002400041F08001632900F0F682732900F0FB82FF
:10025000E32901F00980F32901F00E8000207047A6
:100260001FB501F067F80400002000210AF016FC19
:10027000401C6060002000210AF0FAFBE0601FBD16
:1002800010B510BD01F028F81146FFF7E9FF09F09D
:100290004BFF01F005F903B4FFF7F2FF03BC03F0D5
:1002A00037F900000948804709480047FEE7FEE7A4
:1002B000FEE7FEE7FEE7FEE7FEE7FEE7FEE7FEE716
:1002C00004480549054A064B7047000061320008A2
:1002D0003101000888080020880E0020880A0020CC
:1002E000880A0020704700000A46014900F0B0BAB1
:1002F0008C0000200FB41CB5084B06AA7B4469464D
:100300000090059800F075FA04460020694600F058
:1003100083FA20461CBC5DF814FB000019050000A0
:1003200070B50C460546012A05D02878800600D510
:10033000EA69002302E0012305E05B1C934202D23C
:10034000E05C0028F9D1A869E618C01AA861286AFB
:1003500018442862284600F0A1F904E0D5E90121FB
:1003600014F8010B9047B442F8D3284600F0ACF9DA
:1003700070BD00002DE9F041064600241068752983
:10038000314616A510D000F0B0F9002802DA40423C
:1003900013A507E031688A0701D512A502E04907D5
:1003A00004D511A5012401E000F0A8F900210A22DA
:1003B00006F1240709E0B0FBF2FCB0FBF2F302FB0C
:1003C0001C00303078541846491C0028F3D12346CD
:1003D0002A463046BDE8F04100F099B9000000001F
:1003E0002D0000002B000000200000002DE9F05F30
:1003F000894604464FF0000ADFF874B1FB44C0F8A8
:1004000020A02046E1688847002874D0252806D01F
:10041000D4E901219047206A401C2062F1E70026C0
:100420005F462046E16888472028054607DB312DD6
:1004300005D2781910F8200C08B10643F1E7B0078F
:1004400001D526F00406C4F81CA00027C4F818A0A3
:100450002A2D09D028460AF003FB38B304EB87089D
:10046000303DC8F8185019E059F8041B204604EB39
:1004700087029161E1688847012F054618D1E0693C
:10048000002820DA26F020061DE0D8F8180000EB3E
:10049000800005EB40003038C8F818002046E168BD
:1004A000884705460AF0DCFA0028EED1012F0AD071
:1004B0002E2D08D12046E16888477F1C0546022F73
:1004C00046F02006C4DBA069002803DA404246F06B
:1004D0000106A061F00701D026F010066C2D0BD0AC
:1004E000682D09D04C2D39D06A2D35D0742D35D0DA
:1004F0007A2D33D016E038E0E1682F462046884751
:10050000B842054609D16C2F26D04FF48060E168CF
:10051000064320468847054604E06C2F1AD04FF466
:10052000807006430DB3A5F14100192802D820358B
:1005300046F400664A462946204626604E46FFF7A6
:1005400047FE80B101280BD0F61D26F0070000F110
:10055000080956E74020E4E78020D8E70020D6E7E6
:1005600006F104094DE7284652E7206ABDE8F09FEE
:10057000D0A6000010B5044603E003F039F8401C93
:1005800009D014F8010B05490028F6D1BDE8104048
:100590000A2003F02DB84FF0FF3010BD8C00002072
:1005A00030B505460B462A4613F8014B12F8010BED
:1005B00008B1A042F8D01CB1002802D06D1CF1E7B0
:1005C000284630BD4FF0000200B5134694469646CB
:1005D000203922BFA0E80C50A0E80C50B1F1200156
:1005E000BFF4F7AF090728BFA0E80C5048BF0CC004
:1005F0005DF804EB890028BF40F8042B08BF704762
:1006000048BF20F8022B11F0804F18BF00F8012BD3
:10061000704700004FF0013C50F8042B51F8043BA8
:100620009A4221D1A2EB0C03934313EACC1317D1C6
:1006300050F8042B51F8043B9A4215D1A2EB0C035D
:10064000934313EACC130BD150F8042B51F8043B1D
:100650009A4209D1A2EB0C03934313EACC13DBD0EB
:100660004FF00000704700BFD01A01BAB1FA81F113
:1006700001F0180122FA01F0CB40DBB2C0B2C01A7F
:10068000C1F120012CFA01F3D11A914311EAC311EF
:10069000E6D17047704770477047704770B50446A1
:1006A00085690068C10601D5302600E02026C00714
:1006B00007D070BDD4E9012130469047206A401C24
:1006C00020626D1EF6D570BD70B504468569007850
:1006D000C00707D170BDD4E9012120209047206ACE
:1006E000401C20626D1EF6D570BD09684A0501D513
:1006F00040B27047C905FCD500B2704709684A0589
:1007000001D5C0B27047C905FCD580B270472DE94C
:10071000F0470D4699469246044600F124080168C8
:10072000880604D5E06921F01001216000E0012075
:10073000A84201DD471B00E00027A1697A1902EBFE
:100740000900081AA0612078C00602D42046FFF7ED
:10075000A5FF002608E0D4E901211AF80600904719
:10076000206A401C761C20624E45F4DB2078C006CF
:100770000AD52046FFF792FF06E0D4E90121302098
:100780009047206A401C2062381EA7F10107F4DC64
:1007900007E0D4E9012118F805009047206A401CC1
:1007A0002062281EA5F10105F3DC2046FFF78CFF2F
:1007B0002078000602D50220BDE8F0870120FBE783
:1007C00011680268006A530501D508700AE0D30574
:1007D00001D5088006E0130603D5C217C1E900025F
:1007E00000E008600120704701694A1C0261087836
:1007F000704700B58FB0CDE9013100210591054961
:100800007944CDE9031011466846FFF7EFFD0FB0BC
:1008100000BD0000E5FFFFFF0A6802F8010B0A6057
:10082000704710B5436913B1AFF3008001E0FFF7E3
:1008300077FD012010BD127800F124010A7000221A
:100840004A700122EDE711684FF0FF32E9E700003E
:10085000074B70B50D467B44FFF7CBFF0446284697
:1008600000F00EFD10B14FF0FF3070BD204670BD9E
:10087000972D00002DE9FF5F15468A460446DFF8F4
:10088000AC80F8440027D8E900103E46CDE90010BE
:1008900010E03AF816106A4602A800F0F5FC411C78
:1008A00007D02178890603D5E269391891420DD81D
:1008B0000744761C2078800602D5E069B84205DD41
:1008C000AE42E6DB3AF816000028E2D1A069C01B70
:1008D000A0612046FFF7E2FED8E90010CDE9001044
:1008E000002017E03AF818106A4602A800F0CCFC85
:1008F000B0F1FF3F81460BD000250DF1080B05E05C
:10090000D4E901211BF8050090476D1C4D45F7D334
:1009100008F10100B0428046E4DB206A38442062DE
:100920002046FFF7D1FEBDE8FF9F00005EA2000059
:100930002DE9F0418046D21D22F007020025D2E9C0
:100940000002F52915A614D0011E72F1000106DA85
:100950000023D0EB030063EB020211A608E0D8F8F5
:1009600000108B0701D50FA602E0490701D50EA69E
:1009700001251146002408F1240704E000F098F84E
:1009800030323A55641C50EA0102F7D12B46324608
:1009900021464046BDE8F041FFF7B9BE0000000027
:1009A0002D0000002B0000002000000030B40021CA
:1009B00000F1240408E002F00705D208303542EACD
:1009C0004372DB086554491C52EA0305F3D10468FD
:1009D000002310A2250708D504F020040C4304D0FE
:1009E000C46901230CA2641EC46130BCFFF78FBE32
:1009F00010B5044621461068FFF780FE02462046E7
:100A0000BDE810400023D1E7D21D22F00701D1E953
:100A10000023CBE70000000030000000F0B40D46DA
:100A20000188090502D5214C7C4402E01F4C7C441E
:100A30000E34002100F1240608E002F00F0712092D
:100A4000E75D42EA03721B097754491C52EA030727
:100A5000F3D102780023120704D5702D06D009B116
:100A6000022311342246F0BCFFF751BE012310349B
:100A7000F8E770B504460D4621461068FFF73EFEC4
:100A8000024629462046BDE870400023C6E7D21D35
:100A900022F00703D3E90023C0E70368126843F09C
:100AA000200303600823C3610023B7E7C0A0000050
:100AB00030B5B0F10A0271F100034FEA900E4EEA30
:100AC000817EB0EB0E0061EB91014FEA101E4EEA01
:100AD000017E10EB0E0041EB11114FEA102E4EEA91
:100AE000016E10EB0E0041EB11214FEA104E4EEA61
:100AF000014E10EB0E0041EB1141401841F1000195
:100B00004FEAD00040EA41704FEAD1014FEA810438
:100B100044EA907410EB800544EB01046D1944EB3A
:100B20000404521BA3414FF0000348BF0A3200D512
:100B300030BD401C41F1000130BD2DE9FF4F0C4696
:100B40001E464FF0FF378BB0D2E90001DDF8608020
:100B50000A908A46C1F30A5505B93D460021084668
:100B60004FF00000BAF1000F00F4400005DA00EB8E
:100B700080004FF4400101EA50004FEA9059B9F16A
:100B8000010F00DDB9460A9850EA4A000ED044F63B
:100B90001050A5F2FF3545432F14B8F1000F1ED0B9
:100BA0007542291E1EDDC9F100021CE0B8F1010FDB
:100BB0004FF0000001D0302103E0F24305E0215462
:100BC000401CB042FBDB30460022002121540B992F
:100BD000C1F80880C1E900200FB0BDE8F08FBD1B4F
:100BE0006D1CDEE74A4600DA694206A800F0E6FB23
:100BF00006AB93E8070003AB83E8070050460A9969
:100C000009F052FB8DE80700A0F500501F38009056
:100C10000398002D0ADD42F21F014A4608440023D2
:100C200003A90390684609F0BBFD09E0A0F5005058
:100C30004A461F38002303A90390684609F0C5FD02
:100C40008DE807000004000C03D04FF0FF3041088E
:100C500000E01046B8F1000F03D0002200921546C4
:100C60001EE0751E05D4FFF723FF303262556D1E5E
:100C7000F9D5B3460122084302D000227F1C04E0CC
:100C80002078302801D100227F1E002A099784D0C5
:100C90001DE0112D07DAFFF70BFF303262556D1C96
:100CA00050EA0102F5D1084302D00098C8B10EE025
:100CB0000021681E05E0235C625C63542254401EE0
:100CC000491C8142F7DBAB46A81B401E099000205F
:100CD00004F80B000B98099AC0F80880C0E9002BB3
:100CE0007AE711264FF0000857E72DE9F04F8846C4
:100CF0000446D21D22F0070191B0D1E90001CDE9EF
:100D00000A0109F099FE02460B98C00F01D02D2070
:100D100007E02068810701D52B2002E0202101EAAD
:100D2000C000032A099001D0072A05DB034641468B
:100D3000204600F003FB0BE12078800601D5E06936
:100D400000E00620B8F1650F814606D0B8F1660FC5
:100D500018D0B8F1670F70D131E00020B9F1110F50
:100D6000009001DB112301E009F101030AAA01A9A6
:100D70000CA8FFF7E2FEDDE90C70002609F1010581
:100D8000834647E001204B4600904FF000470AAAF7
:100D900001A90CA8FFF7D1FEDDE90DB00C995D4665
:100DA000002610B909F101000D18B9EB050003D4B4
:100DB000C0F1FF3609F10105A5EB09002BE0B9F1FF
:100DC000010F01DA4FF001090020B9F1110F009075
:100DD000484601DD112300E003460AAA01A90CA838
:100DE000FFF7ABFEDDE90C704D4600268346207808
:100DF00000070AD4AB4500DA5D4601A8012D04DDE9
:100E0000411911F8011C302907D04F4502DA17F1BA
:100E1000040F04DA012082460FE06D1EEEE7002F7A
:100E200002DCED1B3E4403E0781CA84200DD7D1C83
:100E3000B81B00F1010A4FF000472078000703D4E7
:100E4000AA4501DB4FF0FF3A0021B7F1004F0DF149
:100E500043088DF8431024D002202B23002F01DA01
:100E60007F422D230A21021EA0F1010000DC5FB1A8
:100E700097FBF1FC97FBF1F201FB1C7C17460CF190
:100E8000300C08F801CDEEE7A8F1010003702188CD
:100E9000090501D5452100E06521A0F1010800F810
:100EA000011C09980FA9A1EB0807FF1D00B1012043
:100EB000411901EBEA70A1693844081A401EA0618B
:100EC0002078C00602D42046FFF7E8FB099828B135
:100ED000D4E901219047206A401C20622078C00696
:100EE00022D52046FFF7DAFB1EE0002E04DBB345D7
:100EF00002DD01A8805D00E03020D4E901219047A7
:100F0000206A401C2062761CAAF101005FEA000AF8
:100F10000AD100F00FFAC0680168405CD4E90121F1
:100F20009047206A401C2062281EA5F10105DCDCE8
:100F300007E0D4E9012118F8010B9047206A401C12
:100F40002062381EA7F10107F3DC2046FFF7BCFB47
:100F5000032011B041E600002DE9F04F04460D4694
:100F6000D21D22F0070089B0D0E9009748463946E3
:100F700009F062FD0246F80F01D02D2307E020683A
:100F8000810701D52B2302E0202101EAC0038DF85F
:100F900020300BB1012000E00020032A824601D05E
:100FA000072A04DB2946204600F0C8F93FE12078F3
:100FB000800601D40D2500E0E569C7F30A560D2D22
:100FC00049DA00214FEA175B08464FF00000002F76
:100FD00000F4400007DA00EB80004FF4400100EB22
:100FE000D07001EA60008115012901DD4FF0FF3169
:100FF00000224FEA850CBCF1180F06D31346ACF162
:1010000018004FF08052C24003E04FF4801323FADF
:101010000CF30CF10C0CBCF1200F04D3ACF1200C40
:1010200009FA0CF001E007FA0CF000294FF0004833
:1010300001DD18B90FE00ED140450CD319EB0209C0
:101040005F4121B9404502D19F4329EA0209BBEB28
:10105000175F00D0761C2088000502D57B487844B5
:1010600002E07A487844193808AA302302F80A3096
:10107000037C0AF10101002E0AF1020A53546A4668
:1010800002DC4FF0300101E04FF031014FF0010878
:101090008DF8001002D0A6F2FF3603E059EA4701AE
:1010A00000D06B4E002D02DC2178090704D54FF0EB
:1010B00002082E218DF80110C44600210BE0C7F371
:1010C00003433F01C35C491C6D1E02F8083005292B
:1010D00008F1010801DA002DF1DC00210CE000EB41
:1010E0001973491C1B786D1E082902F808304FEA55
:1010F000091908F1010801DA002DF0DC21688B06DE
:1011000002D516E0A8F10108E04505DD02EB080371
:1011100013F8013C302BF5D0B8F1000F09DD02EBDC
:10112000080313F8013C2E2B03D1090701D4A8F1C1
:101130000108002D05DD3E2102F808106D1E08F1A2
:101140000108407C002E02F8080008F1010804DACA
:101150002D20764202F8080002E02B2002F8080059
:101160000A214FF47A70864208F101080BDB96FBE6
:10117000F0F3303302F8083096FBF0F308F1010881
:1011800000FB136601E0642E0CDB642096FBF0F399
:10119000303302F8083096FBF0F308F1010800FB49
:1011A000136601E00A2E06DB96FBF1F0303002F800
:1011B000080008F1010896FBF1F001FB10603030E7
:1011C00002F80800A16908F1010808EB050202EB2A
:1011D0000A00081AA0612078C00602D42046FFF752
:1011E0005DFA216A08AE01EB0A00206204E0D4E94E
:1011F000012116F8010B9047BAF1010AF7D22078C5
:10120000C00602D52046FFF749FA6E4609E016F8F7
:10121000010B3E280FD0D4E901219047206A401CE1
:101220002062B8F10108F2D22046FFF74DFA09B06A
:101230000320BDE8F08F206A2844206203E0D4E94F
:101240000121302090476D1EEBD3F8E7C59A0000CE
:1012500002FCFFFF10B5436913B1AFF3008001E05A
:10126000FFF708FB012010BD128800F124018284E1
:101270000022C2840122EDE711684FF0FF32E9E756
:10128000007B00F0800070472DE9F04116460C46C7
:10129000054600F047F8036893F80101012807D0DC
:1012A000FF2C12D8185D80B101202C70BDE8F081B0
:1012B000D3F807013246214603F20713C718284620
:1012C000BC46BDE8F041002360474FF0FF30EDE73A
:1012D00000487047280000207546FFF7F9FFAE462A
:1012E00005006946534620F00700854618B020B532
:1012F000FEF7E6FFBDE820404FF000064FF0000784
:101300004FF000084FF0000BAC46ACE8C009ACE869
:10131000C009ACE8C009ACE8C00921F007018D465E
:101320007047000010B500F005F8001D10BD00BFAB
:101330006D97000000487047480000202DE9F041FB
:101340001F46044603260168072A01F4006004DBF7
:1013500008B116A505E016A503E008B115A500E043
:1013600015A521F010002060A069C01EA0610FB17A
:10137000401EA0612046FFF791F94FB1D4E9012149
:1013800038469047206A401C2062C01C206206E05C
:10139000206AFAE7D4E9012115F8010B9047761E7F
:1013A000F8D22046FFF790F9BDE8F0814E414E009B
:1013B0006E616E00494E4600696E66002DE9F04789
:1013C000814616468AB0354878440DC88DE80D0030
:1013D00032487844801C03AC0DC884E80D0041F607
:1013E0009B300844372190FBF1F290FBF1F5A5F119
:1013F000800501FB12041B3C02D56442012000E081
:101400000020DFF898A080460027FA44AAF1BE0A1F
:101410000EE0E0070AD03246684607EB4701012399
:101420000AEB810109F0D1F98DE8070064107F1CF7
:10143000002CEED1194F7F44AE3F19E0E80715D0DC
:1014400007EB04100DF1180A90E80E008AE80E0070
:10145000C068F04201D1981908903246012306A9CC
:1014600003A809F0B2F903AB83E807006D10641C10
:10147000002DE3D14FF0010332466946B8F1000F69
:1014800003A802D009F08CF901E009F09EF9C9E93E
:101490000001C9F808200AB0BDE8F087EC97000009
:1014A00010B50446AFF300802046BDE81040FEF7BB
:1014B000F2BE0000FEE70000704700002DE9F04F8B
:1014C00081B040F6000BC4F2010B584640210122C6
:1014D00000F028FD4FF47A7002F04AF840F280459F
:1014E0004AF638484AF6BD474AF644464AF6A44901
:1014F0004FF0000AC2F20005C0F60008C0F600076F
:10150000C0F60006C0F60009002400BFB5F80004CC
:10151000414600F40040A5F8000401203A4608F0D6
:101520005FFE022031463A4608F05AFE4FF4FA7048
:1015300002F01EF8B5F80004B5F8001401306FF39E
:10154000DF3001F400410144A5F8001405F800A0C3
:10155000012031462A4608F043FE28464946FFF757
:101560001FF888B958464021002200F0DBFC4FF4F8
:10157000FA7001F0FDFF58464021012200F0D2FC34
:10158000092C04F10104C1D301B0BDE8F08F0000C3
:101590002DE9F04381B040F28046C2F200060446D5
:1015A000B6F800040D4600F400404AF63841914672
:1015B000A6F80004C0F60001012022469846012743
:1015C00008F00EFE4AF64441C0F600010220224611
:1015D00008F006FE55EA090037D01FFA88F001F03E
:1015E000C7FFB6F80004B6F8001401306FF3DF301F
:1015F00001F400410144A6F80014002131544AF6D8
:101600004441C0F600010120324608F0E9FD002DFA
:1016100018BFB9F1000F0ED1002D18BFA94640F236
:101620008040C2F200004946FEF7BAFF0746002894
:1016300018BF012709E040F28040C2F200002946AD
:10164000FEF7AEFF0028EAD00127384601B0BDE81A
:10165000F08300002DE9F04186B041F21806C4F293
:101660000206306840F6000440F004003060306844
:10167000C4F2010400F0040002900298202002ADA0
:1016800002904FF00108032720462946CDF80C8030
:10169000059700F04BFB3068294640F004003060AD
:1016A000306800F00400019001984020029020462C
:1016B00000F03CFB706802AD40F400307060706870
:1016C000294600F4003002900298306840F004008F
:1016D0003060306800F0040002900298042002900C
:1016E0000220CDE903082046059700F01FFB0820E3
:1016F0000290002003902046294600F017FB0220AC
:101700004FF4E13108F0B6FD40F2A824C2F2000423
:1017100040F2A42104F18000C2F20001012201F094
:1017200029FCD4F880000322C16841F01001C16097
:101730002620032100F060FC262000F04BFC06B0C0
:10174000BDE8F0812DE9F04F9FB041F6000496A16D
:101750000120C4F2010408F043FDA4F580502021CB
:10176000012200F0DFFB2046202100F0D3FB3220D5
:1017700001F0FEFEFFF7A2FE2046202100F0CAFB8A
:10178000322001F0F5FE4AF660404AF6A4414AF6DE
:10179000CD42C0F60000C0F60001C0F6000240F6DF
:1017A000C413FFF7F5FE2046202100F0B3FB3220E2
:1017B00001F0DEFE40F280454AF638444AF64448DD
:1017C0000FF2042B86A601AFC2F20005C0F600049A
:1017D000C0F600084FF0000A0FF22C294AF64941E2
:1017E0003846C0F600015A463346FEF783FDB5F889
:1017F0000004214600F40040A5F8000401203A4608
:1018000008F0EEFC022041463A4608F0E9FC41F2BD
:10181000883001F0ADFEB5F80004B5F800140130D1
:101820006FF3DF3001F400410144A5F8001405F81E
:1018300000A0012041462A4608F0D2FC4AF6A44105
:101840002846C0F60001FEF7ABFE20B9012049464C
:1018500008F0C6FCC2E741F60009C4F20109A9F587
:101860004060202100F056FB322001F081FEB5F8E7
:1018700000044AF638484AF6A74400F40040C0F68F
:101880000008C0F60004A5F80004012041462246E5
:1018900008F0A6FC4AF64446C0F60006022031468F
:1018A000224608F09DFC4FF47A7001F061FEB5F815
:1018B0000004B5F8001401306FF3DF3001F400418B
:1018C00001440027A5F800142F54012031462A4670
:1018D00008F086FC4846202100F01CFB322001F075
:1018E00047FEB5F800044AF66C4400F40040C0F628
:1018F0000004A5F8000401204146224608F070FCCF
:1019000002203146224608F06BFC4FF47A7001F059
:101910002FFEB5F80004B5F8001401306FF3DF3086
:1019200001F400410144A5F800142F540120314670
:101930002A4608F055FC4846202100F0EBFA3220F8
:1019400001F016FEB5F800044AF6904400F4004099
:10195000C0F60004A5F8000401204146224608F024
:101960003FFC02203146224608F03AFC4FF47A70E0
:1019700001F0FEFDB5F80004B5F8001401306FF376
:10198000DF3001F400410144A5F800142F54012078
:1019900031462A4608F024FC14A1012008F020FC5E
:1019A0001FB0BDE8F08F00BF0D0AE6ADA3E59CA80F
:1019B000E9858DE7BDAE2045535038323636202EAE
:1019C0002E2E2E2E2E0D0A00E69687E6ADA2E5A25B
:1019D000A82D4C4150544F50203931313100000076
:1019E0003230303530363137000000000D0AE985DD
:1019F0008DE7BDAE204553503832363620E5AE8CEB
:101A0000E6AF950D0A0000000D0AE69CAAE8BF9E0D
:101A1000E68EA5E68890E58A9F202E2E2E2E2E2E6D
:101A20000D0A0000B0B540F214440120C4F20104D4
:101A3000012500F06FF9142001F09AFD04F57B7088
:101A4000012100F061FA012807D140F2E000C2F262
:101A500000000168C1F1010101602560B0BD000016
:101A6000B0B50820082500F055F940F2E000C2F2B8
:101A70000000006880B140F600441420C4F2010464
:101A800001F076FD04F54060082100F03DFA18B938
:101A90002046202100F03EFA40F21440C4F201003A
:101AA0000560B0BD10B51020102400F033F940F2ED
:101AB000E000C2F20000006848B1142001F058FDB7
:101AC00041F60000C4F20100102100F01DFA40F2BE
:101AD0001440C4F20100046010BD0000B3F5804F53
:101AE000034619D1B0B553F822C00020CCF6F070EF
:101AF0000CEA000E91E83100D1F818C040EA0E005F
:101B000040EA0410C96840EA052040EA0C0040EAB7
:101B10000141BDE8B04001E06FF07041002043F8A2
:101B2000221070472DE9F04F83B00B68024650F841
:101B3000230001F1240B20F0010042F82300D1E939
:101B400002C0D1E900E301908869D1E9049A0290CA
:101B5000D1E90C80D1E9077600909BE8300852F873
:101B60002E008021CFF6F0710840BCF1080F08BFAD
:101B700043F040030199194341EA090141EA0A018E
:101B8000394331432143294341EA0B01029B41EA96
:101B900008011943009B1943084340EA0C01002047
:101BA00042F82E1003B0BDE8F08F0000F0B500EB56
:101BB00082025068D1E902E400F0404CD1E90030E3
:101BC000D1E9045643EA0C03002743EA0010CFF69C
:101BD000F07740EA0E20896907EB055540EA04409A
:101BE0002843FE36084340EA066100205160F0BDFC
:101BF00090F82110022927D1026840F2040C1368E2
:101C0000C4F2020C23F00E03136013680CF17C0184
:101C10008A4223F0010111601AD940F20841C4F24E
:101C200002018A424ED040F21C41C4F202018A42B3
:101C300041D040F23041C4F202018A4246D14FF411
:101C40008073CCF8003457E0042181630120704791
:101C50004321C4F202018A420EDD6B21C4F202016B
:101C60008A421BDC4421C4F202018A423BD0582143
:101C7000C4F202018A4222E00821C4F202018A422F
:101C80002FD01C21C4F202018A4232D03021C4F28A
:101C900002018A4213D14FF480722BE06C21C4F20E
:101CA00002018A4222D08021C4F202018A4206D176
:101CB0004FF080721EE01023CCF800341CE04FF48B
:101CC000803217E00123CCF8003415E00CF5886170
:101CD0004FF480338A4208BF4FF48053CCF800346D
:101CE0000AE0012206E04FF4805203E04FF4801234
:101CF00000E01022CCF80020416B4FF480720029E4
:101D0000028404BF0020704780B58847002080BD52
:101D10007047000040F21441C4F201010A68024217
:101D200014BF08607047FFF7F3BF00002DE9F04FC4
:101D300082B00E68002E00F0E380A0F1804241F6F0
:101D4000004540F20043A2F58432C4F201050624A6
:101D5000C4F201034FEAB227A84208BF05244FF09E
:101D6000000E4FF001080F254FF0000A4FF0000B56
:101D7000052F38BF4FEAB224009408E00E680AF13C
:101D8000010A36FA0AF20EF1040E00F0B98008FAE0
:101D90000AFC16EA0C09F1D04E684FF6FF72C1F248
:101DA0001002964210DC122E50D8DFE806F0330AFB
:101DB00048454F4F4F4F4F4F4F4F4F4F4F4F4F4152
:101DC0004C00D1F80CB041E04FF6FF72C1F2210295
:101DD00096420FDC0022C1F2110296421AD0002274
:101DE000C1F21202964215D00022C1F2210296429F
:101DF00010D02BE00022C1F2220296420AD000222B
:101E0000C1F23102964205D00022C1F2320296425E
:101E10001CD100BF8A6842B1012A14BFC0F814C0A7
:101E2000C0F810C04FF0080B10E04FF0040B0DE0AD
:101E3000CA6802F1040B09E04FF0000B06E0CA6823
:101E400002F1080B02E0CA6802F10C0B024674466C
:101E5000B9F5807F24BF0432203C166805FA04F7E8
:101E600026EA07070BFA04F637431760CA79D20649
:101E70007FF584AF41F21807C4F202073A684FF6C3
:101E8000084542F001023A603A68CFF6FF7502F069
:101E900001020192019A2AF003021A440F245759B1
:101EA0000EF00C06B440A743009C04FA06F6374334
:101EB00057514E680F25F2031A6854BF22EA0902EF
:101EC00042EA09021A605A68B70354BF22EA0902BB
:101ED00042EA09025A60F7029A6854BF22EA0902EC
:101EE00042EA0902B70240F20C479A60C4F20107C5
:101EF0003A6854BF22EA090242EA09023A603DE721
:101F000002B0BDE8F08F00008068084018BF0120D3
:101F100070470000C26802EA0103914341EA0341AD
:101F200001617047002A08BF090401617047000081
:101F300040F68400C2F200000068704740F22000C2
:101F400040F68401C2F20000C2F2000100780A6883
:101F5000104408607047000080B542F20000C4F2EF
:101F60000200016841F010010160052000F070F8E6
:101F70000F2000F005F800F02BF8002080BD0000D5
:101F8000B0B540F22002C2F2000240F20401127821
:101F9000C2F200014FF47A730968B3FBF2F204460F
:101FA000B1FBF2F1084600F077FB0F2C4FF0010572
:101FB0000CD858B94FF0FF3021460022002500F020
:101FC0001BF840F22400C2F2000004602846B0BDB5
:101FD00070470000002848BF704700F01F01012231
:101FE00002FA01F11C2202EAD0004EF20012CEF2F7
:101FF000000281507047000010B54EF60C5CCEF226
:10200000000CDCF80030C3F3022E8EF00704042C21
:1020100028BF0424BEF103034FF0FF3E0EFA04F480
:1020200038BF0023A14399400EFA03F39A431143AA
:1020300000F1604200F00F03090102F56442043B25
:102040006344002848BF03F10C02117010BD00006A
:102050004EF60C51CEF200010A684FF6FF031A400B
:1020600060F30A2242F0806040F0FD700860704723
:10207000002804BF012070472DE9F04381B042F2EF
:102080000008C4F202080446D8F800000D4600F02B
:10209000070088420CD2D8F8000020F0070028433F
:1020A000C8F80000D8F8000000F00700A8426BD183
:1020B000206841F204098107C4F2020917D54107DB
:1020C00005D5D9F8001041F4E061C9F80010010706
:1020D00005D5D9F8001041F46051C9F80010D9F8BD
:1020E0000010A26821F0F0011143C9F80010C007E8
:1020F00041D1D8F8000000F00700A8420CD9D8F868
:10210000000020F007002843C8F80000D8F80000BD
:1021100000F00700A84237D12068410707D5D9F859
:102120000010E26821F4E0611143C9F800100007D3
:1021300008D5D9F80000216920F4605040EAC100B8
:10214000C9F80000D9F8002002F00C00082841F27C
:102150000020C0F27A0049D14AF6F833C2F3834135
:10216000C0F60003595CD20334D440F60010C0F22C
:102170003D0048433AE0606859F8041C022807D043
:10218000012824D1890305D4012001B0BDE8F083E2
:102190008901F9D5D9F8001021F003010843C9F8E5
:1021A0000000FFF7C5FE064641F28837D9F8000067
:1021B000616800F00C00B0EB810F9AD0FFF7B8FE19
:1021C000801BB842F2D9032001B0BDE8F083890733
:1021D000DAD5DFE7D9F800204AF6D033C2F340421F
:1021E000C0F600039A5C4843B0FBF2F0D9F8001047
:1021F0004AF6E032C1F30311C0F60002515C40F22E
:10220000040220FA01F140F22400C2F2000000684A
:10221000C2F200021160FFF7B3FE002001B0BDE87A
:10222000F083000040F2040041F20401C2F2000019
:10223000C4F20201006809684AF6F032C1F30221D3
:10224000C0F60002515CC8407047000040F2040034
:1022500041F20401C2F20000C4F202010068096800
:102260004AF6F032C1F3C221C0F60002515CC84008
:1022700070470000002804BF012070472DE9F0419D
:1022800082B00446007841F20006C007C4F202069C
:1022900047D0706800F00C00042808D13068800333
:1022A0003FD56068E8BB012002B0BDE8F0817068EE
:1022B00000F00C00082802D17068C003EED46568F5
:1022C00030682DB1B5F5A02F09D0B5F5803F0AD003
:1022D00020F480303060306820F4802005E040F445
:1022E00080203060306840F480303060FFF720FE9E
:1022F000002D054612D000BF3068800311D4FFF7CF
:1023000017FE401B6428F7D916E100BFFFF710FE47
:10231000401B64284FF0030000F2D880306880032F
:10232000F4D42078800719D5706810F00C0F07D00E
:10233000706800F00C00082827D17068C00324D40E
:102340003068800703D52069012840F0A6803068F6
:10235000616920F0F80040EAC10030602078000791
:102360004ED5A06938B30020C4F242200121C0F844
:102370008014FFF7DDFD0546706A80072DD4FFF756
:10238000D7FD401B0228F7D9D6E02069002840F28B
:102390000000C4F2422000F0A88001210160FFF794
:1023A000C7FD054630688007D1D4FFF7C1FD401B4B
:1023B0000228F7D9C0E00020C4F242200021C0F872
:1023C0008014FFF7B5FD0546706A800718D5FFF742
:1023D000AFFD401B0228F7D9AEE040F20400C2F284
:1023E0000000006844F6D351C1F26201A0FB010174
:1023F000480A019000BF0198411E00280191F9D1BF
:102400002078400717D4E5698DB1706800F00C00A2
:10241000082846D1012D40D07068216A00F480322E
:102420008A423AD1616A00F47010884235D10020A6
:1024300002B0BDE8F081F0695FEAC00808D4F06935
:1024400040F08050F061F06900F0805000900098FA
:1024500047F20007C4F200073868C0050FD4386897
:1024600040F480703860FFF763FD05463868C005AA
:1024700005D4FFF75DFD401B6428F7D95CE0E568F3
:10248000306A1DB1052D41D0012D43D020F001004F
:102490003062306A20F004003EE0012002B0BDE866
:1024A000F0810027C4F2422700203866FFF740FD84
:1024B000022D05460ED100BF3068800153D5FFF7CD
:1024C00037FD401B02284FF00300F5D902B0BDE8EC
:1024D000F08100BF30688001A9D5FFF729FD401BBE
:1024E00002284FF00300F5D9F0E700210160FFF763
:1024F0001FFD0546306880077FF530AFFFF718FDF8
:10250000401B02284FF00300F4D9DFE740F004003D
:102510003062306A40F001003062FFF709FD002DA3
:10252000054641F2883712D0306A800712D4FFF78F
:10253000FFFC401BB842F7D9032002B0BDE8F08190
:10254000FFF7F6FC401BB8424FF00300BED8306ADC
:102550008007F5D4B8F1000F3FF555AFF06920F0D2
:102560008050F0614FE7206AB0F5803F05D1716877
:10257000A26821F40031114371607168626A21F42C
:10258000741111430843706001203866FFF7D0FCD6
:10259000044600BF306880013FF549AFFFF7C8FC33
:1025A000001B02284FF00300F4D98FE718B18369AC
:1025B000B3F5807F01D101207047F0B581B00D46A1
:1025C00090F84110144600F1080631B9002180F856
:1025D0004010074600F020F83846016807460846D4
:1025E0003146FFF79FFA3868BA682946FFF7DEFAE6
:1025F000D7E901023B6B2146FFF770FA3868B968EA
:1026000050F8212042F0010240F82120012087F8F3
:102610004100002001B0F0BDB0B584B041F2180017
:10262000C4F2020050F8041C41F2004441F48071ED
:1026300040F8041C50F8041CC4F2010401F4807139
:102640000091009901686D4641F020010160016828
:1026500001F0200100910099016841F04001016002
:102660000068294600F04000009000984CF203708A
:102670000090022001900120029003200390204648
:10268000FFF754FB4FF68070009004F580602946F8
:10269000FFF74CFB04B0B0BD411E0020B0EB116F42
:1026A0001CBF012070474EF21002CEF200025160B2
:1026B0004EF62351CEF20001F0230B7007219060FB
:1026C000116070477047000070470000016840F6D5
:1026D0000000C4F20000814218BF704710B500F539
:1026E00088302021FFF716FC40F2A020C2F2000043
:1026F00090F9001000292FD4C9B2402915D24022E8
:10270000027040F25822C2F2000240F2A221126886
:10271000C2F20001002008805062106A20F00A0016
:102720001062106A40F0020015E040F2582441F0B7
:102730008001C2F2000401702046002100F07EFA00
:1027400040F2A221C2F2000122680880106A20F043
:102750000A001062106A1062BDE810407047000065
:1027600090F83C30012B04BF02207047F0B50123E4
:1027700080F83C300368D1E900C4D1F80CE01D6A50
:10278000082A38D0042A1ED0002A4CD125F0010294
:102790001A621A4640F6FF3752F8186F1D6AC4F2E3
:1027A0000007BB425DDCB3F1804F6CD040F20047C4
:1027B000C4F20007BB4266D040F60007C4F200072F
:1027C000BB4260D078E025F010021A621A4652F837
:1027D000185F24024FF2FF071E6ABC4325F47345BD
:1027E0006EF30F3444EA050726F0A0060CF00A0544
:1027F00046EA05162CE025F480721A621A4652F851
:102800001C5F1E6A25F0F3056EF3071444EA050702
:102810004FEA5C0565F3492617601E62136823F0D2
:102820000C0313603FE025F480521A621A4652F8F6
:102830001C5F24024FF2FF07BC431E6A25F4734558
:102840006EF30F3444EA05074FEA5C0565F34D3635
:1028500017601E62136823F44063136089680902DD
:1028600022E040F60047C4F20007BB420BD043F21F
:102870000047C4F20107BB4205D042F60047C4F24C
:102880000107BB4218D126F00306344325F00A079E
:102890000CF00A066EF3071437449C611F629F69AF
:1028A00027F00C079F6189681368194311600021A4
:1028B00080F83C100020F0BD46F00104E6E700007F
:1028C000002804BF0120704710B5044690F83D0071
:1028D00028B9002084F83C00204600F01FF80220B0
:1028E00084F83D002068211D00F024FD012084F8BB
:1028F000460084F83E0084F83F0084F8400084F8E5
:10290000410084F8420084F8430084F8440084F8CD
:10291000450084F83D00002010BD0000016840F62D
:102920000000C4F20000814218BF704780B584B037
:1029300041F21801C4F202014A6800F5823042F007
:1029400004024A604A6802F004020092009A0A688F
:1029500042F020020A60096801F02001009100990C
:10296000402100910221CDE9011103210391694623
:10297000FFF7DCF91E2001210322FFF73DFB1E209B
:10298000FFF728FB04B0BDE880407047022249B140
:10299000082913D0042914BF80F8412080F83F2073
:1029A00019B90FE080F83E2061B108290DD0042943
:1029B00014BF80F8452080F8432008E080F84020CC
:1029C0000029F2D180F8422001E080F844204FEA4B
:1029D000B102032A0AD84AF6084C0368C0F6000C74
:1029E0005CF822C0DA6842EA0C02DA60006801F0A2
:1029F0001F010122036A02FA01F123EA01020262C5
:102A0000026A114340F6FF32C4F2000290420162B2
:102A10000FDCB0F1804F1ED040F20041C4F2000143
:102A2000884218D040F60001C4F20001884212D05A
:102A300016E040F60041C4F2000188420BD043F298
:102A40000041C4F20101884205D042F60041C4F2BF
:102A50000101884204D1816801F00701062903D0F1
:102A6000016841F0010101600020704710B5044683
:102A700000680169890744BFC1685FEA81713FD47A
:102A800020680169490744BFC1685FEA417143D4C6
:102A900020680169090744BFC1685FEA017148D431
:102AA00020680169C90644BFC1685FEAC1614CD4AE
:102AB00020680169C9071CBFC1685FEAC17151D1B3
:102AC00020680169090644BFC1685FEA016150D40A
:102AD00020680169490644BFC1685FEA41614FD47B
:102AE00021680869800646BFC8685FEA806010BD3B
:102AF0006FF0200220460A61BDE81040FFF7E4BDF8
:102B00006FF00201016101212177806980073ED0C9
:102B10002046FFF7DBFD40E06FF004010161022178
:102B20002177806910F4407F3AD02046FFF7CEFD30
:102B30003CE06FF00801016104212177C069800742
:102B400037D02046FFF7C2FD39E06FF01001016178
:102B500008212177C06910F4407F33D02046FFF769
:102B6000B5FD35E06FF001010161204600F038F855
:102B7000A6E76FF0800101612046FFF7A3FDA7E7FC
:102B80006FF040010161204600F064F8A8E720469C
:102B900000F022F8204600F021F8002020776FE7AF
:102BA000204600F019F8204600F018F800202077A1
:102BB0006EE7204600F010F8204600F00FF80020E5
:102BC00020776DE7204600F007F8204600F006F871
:102BD000002020776CE7000070470000704700007D
:102BE000006840F60001C4F20001884200D070473E
:102BF00040F2A020C2F2000090F900104029B8BFB6
:102C00007047C9B201F03F023F2A14D140F2582167
:102C1000C2F2000109680A6A22F00A020A620A6A1C
:102C20000A62FF21017040F2A220C2F200004FF6BA
:102C3000FF71018070470131017070474FEAB101A7
:102C4000032984BF00207047006800EB8100406BBF
:102C5000704700007047000070470000B0B5016881
:102C60000A68CC684B6902F02F05202D04F020057E
:102C700004D11DB1BDE8B04000F0CABB5FEA027CE0
:102C80001EBF03F0010E04F4907313EB0E032CD15E
:102C9000130619D514F0800316D090F83920212A94
:102CA00011D18268B2F5805F03D10269002A00F079
:102CB0008E80026A531C036212784A60C28C013A09
:102CC0001304C28476D0B0BD5206FCD514F0400285
:102CD00008BFB0BDCA6822F04002CA60202180F857
:102CE0003910BDE8B04000F067BAD10718BF14F43E
:102CF000807102D1510706D40CE0C16B41F0010193
:102D0000C163510706D5BEF1000F03D0C16B41F07E
:102D10000201C163910706D5BEF1000F03D0C16B5C
:102D200041F00401C163BCF1000F06D55EEA050164
:102D300003D0C16B41F00801C163C16B0029C2D04F
:102D4000910604D51DB1044600F062FB20460168DF
:102D50004A69C36B02F0400203F00803D21823D083
:102D6000CA6822F49072CA604A6922F001024A617C
:102D7000202280F83A204A69520624D54A6922F076
:102D800040024A61416BF1B143F20542C0F60002D4
:102D9000044608464A63FEF72BFF002893D0606B79
:102DA000416BBDE8B04008470446FFF755FF0020DF
:102DB000E063B0BDC86820F08000C860C86840F01B
:102DC0004000C860B0BDBDE8B040FFF745BF026A33
:102DD00032F8023B6FF35F234B6002626EE7000044
:102DE000002804BF0120704710B5044690F8390050
:102DF00028B9002084F83800204600F061F824202B
:102E000084F839002068D4E90212C36823F400531F
:102E1000C360036923F440531A430261D4E90423D5
:102E20001143C268194341F20C639A431143C160D4
:102E30004169A26921F44071114343F60002C4F2D2
:102E400001029042416102D0FFF7ECF901E0FFF787
:102E5000FDF9D4E90023192148439900B0FBF1F0B2
:102E600048F21F5CC5F2EB1CA0FB0C314FF69C73C3
:102E70004909C0F6FF7301FB0300322303EB001086
:102E8000A0FB0C03F02000EA531000EB0110C3F389
:102E90004311084490601069202120F49040106193
:102EA000506920F02A005061D06840F40050D06092
:102EB0000020E06384F8391084F83A1010BD000057
:102EC000B0B584B040F60004C4F20104006804F513
:102ED0004051884201D004B0B0BD41F21800C4F2A4
:102EE000020001686D4641F004010160016801F0D3
:102EF000040100910099016841F00401016001683A
:102F000001F0040100910099016841F480410160E1
:102F10000068294600F48040009000984FF400704B
:102F2000009002200190012002900320039020468F
:102F3000FEF7FCFE4FF480600090002001902046D8
:102F40002946FEF7F3FE40F2A820C2F2000040F24C
:102F5000EC014030C2F20001012200F00BF8252004
:102F6000FFF738F8252003210322FFF745F804B0C6
:102F7000B0BD0000034690F83A0020280AD100298D
:102F80004FF0010018BF002A00D1704793F83800B5
:102F9000012801D1022070479962002022219A85E0
:102FA000DA85D86383F83A10196883F83800CA685C
:102FB00042F48072CA604A6942F001024A61CA68FA
:102FC00042F02002CA607047B0B544F200450446A2
:102FD000C4F20005006805F57441884235D140F21D
:102FE0007040C2F20000B0F90010002921D440F274
:102FF000EC02C2F2000289B21378B1F5804F04D21C
:103000000D2B0CD141F4804212E048F2000C00225A
:10301000CFF6FF7C0A2B08BF41EA0C0208E040F221
:10302000A832C2F2000253544A1CC62988BF0022AB
:10303000028040F2A820C2F2000040F2EC014030D1
:10304000C2F200010122FFF795FF2068A84218BFD5
:10305000B0BD40F2A82540F2A424C2F20005C2F29D
:10306000000405F14000214601224FF0FF3300F03B
:1030700009F805F1800021460122BDE8B040FFF7C4
:1030800079BF00002DE9F04381B0044690F8390083
:1030900020280DD10E4600294FF0010018BF002A4C
:1030A00002D101B0BDE8F08394F83800012803D1C3
:1030B000022001B0BDE8F083012084F83800002030
:1030C000E0632120994684F839001546FEF730FF69
:1030D000A584E584A1688046B1F5805F02D12069AE
:1030E00000283DD037460026002084F83800E08CC8
:1030F00058B309F1010509E097B117F8010B2168F0
:103100004860E08C0138E084E08CF0B12068006811
:103110000006F1D4BDB1B9F1000F0ED122E000BF1D
:1031200036F8020B21686FF35F2048600027E8E75C
:1031300001680906E0D4002DFAD0FEF7F9FEA0EBF5
:10314000080048450ED82068F2E72068006840066D
:103150002AD4B9F1000F05D019F1010517D01CE0F0
:103160000027C1E72068C16821F4D071C1604169BE
:1031700021F001014161202084F8390084F83A00EF
:10318000002084F83800032001B0BDE8F0832068F7
:103190000168490608D4002DFAD0FEF7C9FEA0EB5D
:1031A00008004845F3D9DDE7202084F839000020E5
:1031B00001B0BDE8F083000070470000FEE70000AA
:1031C000F0B585B041F21800C4F20200016841F088
:1031D00020010160016801F020010191019901685D
:1031E00041F0080101600068472100F008000190EB
:1031F00001984FF6FF7000F007FA4FF4006040F6B8
:103200000044002701900120C4F2010403970290BA
:10321000032004F5006501AE049028463146FEF710
:1032200085FD4020CDE9010720463146FEF77EFDB1
:1032300028464FF400610122FEF774FE204640212B
:103240000122FEF76FFE05B0F0BD0000FEE70000B2
:10325000704700007047000070470000FEF76EBE28
:103260007047000010B540F23814C2F20004206824
:103270000069C00708BF10BD41F60000C4F201009C
:103280002021FEF747FE20686FF00101016110BDAB
:1032900040F28010C2F20000006800697047000030
:1032A00040F25820C2F20000FFF7E0BB10B540F238
:1032B000C814C2F2000420686FF00101016141F6F8
:1032C0000000C4F201002021FEF724FE03A0FDF758
:1032D00051F92046BDE81040FFF7C8BB54494D36B0
:1032E00020696E74657272757074210D00000000A3
:1032F00010B540F21024C2F2000420686FF0010102
:10330000016140F60040C4F201002021FEF702FEF8
:1033100003A0FDF72FF92046BDE81040FFF7A6BB3C
:1033200054494D3720696E74657272757074210D41
:103330000000000010B540F6FF320368C4F200023E
:1033400040F6004E43F2004C9042C4F2000EC4F22C
:10335000010C20DCB0F1804F27D040F20044C4F2D1
:103360000004A04221D040F60004C4F20004A042B0
:103370001BD090421FDCB0F1804F26D040F20042BB
:10338000C4F20002904220D040F60002C4F20002D3
:1033900090421AD01DE0704507D0604505D042F636
:1033A0000044C4F20104A042E3D14C6823F070034E
:1033B00023439042DFDD704507D0604505D042F6DB
:1033C0000042C4F20102904203D1CA6823F4407360
:1033D00013434C6923F08002D1F800E08B6822434C
:1033E00060450260C362C0F828E005D042F60042A2
:1033F000C4F20102904201D10969016301214161D6
:1034000010BD0000406A0021C185C184FFF724BCC3
:1034100090F83A10222918BF70478268B2F5805F91
:1034200001D1016949B3816AB2F5805F07D00AB959
:10343000026922B10268526802F07F0201E002686C
:1034400052680A70816A01318162C18D01390A04B2
:10345000C18500D070470168CA6822F02002CA60A6
:10346000CA6822F48072CA604A6922F001024A6185
:10347000202180F83A10FFF7A7BD0168826A4968E9
:103480006FF35F2122F8021B8262DEE740F2A82080
:10349000C2F200004030FFF7E1BB0000B0B540F2DF
:1034A000A824C2F2000404F18000FFF7D7FBD4F88F
:1034B000800040F2A425C168C2F2000589061DD52E
:1034C00040F28042C2F20002B2F8003440F2FE3410
:1034D0006FF3DF33A34211D895F800C0B2F800446F
:1034E000B2F800E4631C6FF3DF330EF400416FF3B6
:1034F000DF341944A2F8001402F804C040692878A7
:1035000040F28801C2F200010870B0BDFEE7000081
:103510007047000010B584B041F21800C4F20200F8
:10352000016840F6004441F0080101600068C4F2FF
:10353000010400F00800009000984FF480700090A3
:103540000120CDE901000320039069462046FEF7E3
:10355000EDFB20464FF480710022FEF7E3FC04B03F
:1035600010BD000040F2E801C2F20001086070479F
:1035700080B54EF2180140F2E802CEF20001C2F22C
:10358000000251F804CC1268002350434FF47A72C1
:1035900000FB02FE086800BF0A688242FCD00344B8
:1035A0009B1A824228BF63447345104628BF80BDE2
:1035B000F2E7000080B54EF2180140F2E802CEF2C8
:1035C0000001C2F2000251F804CC1268002302FB91
:1035D00000FE08680A688242FCD003449B1A8242BB
:1035E00028BF63447345104628BF80BDF2E7000042
:1035F00040F21C01C2F20001096800BF0A685206CD
:10360000FCD5C2B24A607047B0B584B040F25824CD
:103610000025C2F2000440F60002C4F20002C4E930
:1036200002502046CDE90255CDE90055C4E90021FC
:10363000FFF746F90120CDE9010569462046002241
:1036400000950395FFF78CF82068C16841F00101EF
:10365000C16020460021FFF799F904B0B0BD000019
:103660002DE9F04184B041F21800C4F20200016873
:1036700041F6000441F0400101600168C4F2010418
:1036800001F040010091009901686D4641F0400150
:10369000016001684FF0000801F0400100910099BD
:1036A0000168012741F0040101600068032600F071
:1036B0000400009000981020009020462946CDF884
:1036C000048002970396FEF731FB0820CDE900083D
:1036D00020462946CDE90276FEF728FB0220CDE9F7
:1036E0000206A4F580502946CDE90078FEF71EFBBE
:1036F00004B0BDE8F0810000F0B581B040F272473F
:10370000C2F2000704463888798840F2FE7501FB52
:1037100000F600200021C6F6004506F085FB38893A
:10372000288016B1013E6C80FCD101B0F0BD0000D4
:10373000F0B581B0CF20ADF80200BDF8020040F630
:103740000004ADF80200BDF80200C6F6004424F8FB
:10375000020C0020ADF80200BDF80210C122ADF845
:103760000210BDF802104FF0100C2180ADF80220BD
:10377000BDF802104FF0010EADF80210BDF80210B6
:103780002A2721803021ADF80210BDF80230ADF8B3
:103790000230BDF802302380ED23ADF80230BDF8D1
:1037A0000230ADF80230BDF8023024F8023C642348
:1037B000ADF80230BDF80230ADF80230BDF802308D
:1037C00023800323ADF80230BDF80230ADF802309B
:1037D000BDF8023023801223ADF80230BDF802306C
:1037E000ADF80230BDF8023023808123ADF80230FD
:1037F000BDF80230ADF80230BDF802302380E82376
:10380000ADF80230BDF80230ADF80230BDF802303C
:1038100024F8023C8523ADF80230BDF80230ADF843
:103820000230BDF802302380ADF802C0BDF802308E
:10383000ADF80230BDF8023023807A23ADF80230B3
:10384000BDF80230ADF80230BDF802302380CB2342
:10385000ADF80230BDF80230ADF80230BDF80230EC
:1038600024F8023C3923ADF80230BDF80230ADF83F
:103870000230BDF8023023802C23ADF80230BDF8B1
:103880000230ADF80230BDF802302380ADF80200FE
:10389000BDF80230ADF80230BDF802302380342389
:1038A000ADF80230BDF80230ADF80230BDF802309C
:1038B00023800223ADF80230BDF80230ADF80230AB
:1038C000BDF802302380F723ADF80230BDF8023096
:1038D000ADF80230BDF8023024F8023C2023ADF8E8
:1038E0000230BDF80230ADF80230BDF8023023805E
:1038F000EA23ADF80230BDF80230ADF80230BDF871
:10390000023024F8023CADF80200BDF80230ADF8F8
:103910000230BDF802302380ADF80200BDF802305D
:10392000ADF80230BDF802302380C023ADF802307C
:10393000BDF80230ADF80230BDF8023024F8023C88
:103940001B23ADF80230BDF80230ADF80230BDF8EF
:1039500002302380ADF80220BDF80220ADF802202D
:10396000BDF8022024F8022CADF802E0BDF80220D8
:10397000ADF80220BDF802202280C522ADF8022059
:10398000BDF80220ADF80220BDF8022024F8022C78
:10399000ADF80210BDF80220ADF80220BDF80220FB
:1039A0002280ADF80210BDF802100A22ADF8021014
:1039B000BDF802102180C721ADF80210BDF8021039
:1039C000ADF80210BDF8021024F8021CB721ADF8C2
:1039D0000210BDF80210ADF80210BDF802102180EF
:1039E0003621ADF80210BDF80210ADF80210BDF896
:1039F000021024F8021C4821ADF80210BDF8021094
:103A0000ADF80210BDF8021021803A21ADF8021085
:103A1000BDF80210ADF80210BDF8021024F8021C27
:103A20005521ADF80210BDF80210ADF80210BDF836
:103A300002102180B121ADF80210BDF80210ADF8DE
:103A40000210BDF8021024F8021CADF80200BDF807
:103A50000210ADF80210BDF8021021801A21ADF855
:103A60000210BDF80210ADF80210BDF8021021805E
:103A7000B621ADF80210BDF80210ADF80210BDF885
:103A8000021024F8021CADF80220BDF80210ADF8B7
:103A90000210BDF802102180A221ADF80210BDF87D
:103AA0000210ADF80210BDF802102180F221ADF82D
:103AB0000210BDF80210ADF80210BDF8021024F893
:103AC000021CADF80200BDF80210ADF80210BDF8FE
:103AD000021021802621ADF80210BDF80210ADF8C9
:103AE0000210BDF8021024F8021CADF802E0BDF887
:103AF0000210ADF80210BDF802102180E021ADF8EF
:103B00000210BDF80210ADF80210BDF8021024F842
:103B1000021C0F21ADF80210BDF80230ADF80230E2
:103B2000BDF802302380ADF80270BDF80230ADF868
:103B30000230BDF8023023802823ADF80230BDF8F2
:103B40000230ADF80230BDF8023023800823ADF812
:103B50000230BDF80250ADF80250BDF80250258089
:103B60000E25ADF80250BDF80250ADF80250BDF878
:103B700002502580ADF80230BDF802302B25ADF89B
:103B80000230BDF8023023805423ADF80230BDF876
:103B90000230ADF80230BDF802302380A923ADF821
:103BA0000230BDF80230ADF80230BDF8023023809B
:103BB0004323ADF80230BDF80230ADF80230BDF855
:103BC00002302380ADF80220BDF80220ADF80220BB
:103BD000BDF802202280ADF80210BDF80220ADF839
:103BE0000220BDF802202280ADF80200BDF80220BC
:103BF000ADF80220BDF802202280ADF80200BDF829
:103C00000220ADF80220BDF802202280ADF80200AB
:103C1000BDF80220ADF80220BDF802202280ADF8E8
:103C20000200BDF80220ADF80220BDF8022022807B
:103C3000E122ADF80220BDF80220ADF80220BDF867
:103C4000022024F8022CADF80200BDF80220ADF8E5
:103C50000220BDF8022022801522ADF80220BDF816
:103C60000220ADF80220BDF8022022801722ADF814
:103C70000220BDF80220ADF80220BDF8022022800B
:103C80000722ADF80220BDF80220ADF80220BDF8F1
:103C9000022022801122ADF80220BDF80230ADF8DA
:103CA0000230BDF8023023800623ADF80230BDF8A3
:103CB0000230ADF80230BDF802302380ADF802507A
:103CC000BDF80230ADF80230BDF802302380562333
:103CD000ADF80230BDF80230ADF80230BDF8023068
:103CE00023803C23ADF80230BDF80230ADF802303D
:103CF000BDF8023023800523ADF80230BDF8023054
:103D0000ADF80230BDF802302380ADF802C0BDF836
:103D10000230ADF80230BDF802302380ADF8021059
:103D2000BDF80230ADF80230BDF8023023803F23E9
:103D3000ADF80230BDF80260ADF80260BDF8026077
:103D40002680ADF80230BDF80260ADF80260BDF823
:103D500002602680ADF80210BDF80210ADF8021026
:103D6000BDF802102180ADF80250BDF80210ADF888
:103D70000210BDF8021024F8021CADF80200BDF8D4
:103D80000210ADF80210BDF802102180ADF802005B
:103D9000BDF80210ADF80210BDF802102180ADF898
:103DA00002E0BDF80210ADF80210BDF8021021804B
:103DB000ADF80230BDF80210ADF80210BDF80210E7
:103DC0002180ADF80270BDF80210ADF80210BDF808
:103DD000021024F8021CADF80200BDF80210ADF884
:103DE0000210BDF802102180ADF80200BDF80210EB
:103DF000ADF80210BDF802102180ADF80200BDF848
:103E00000200ADF80200BDF802002080EF20ADF8FE
:103E10000200BDF80200ADF80200BDF802002080EB
:103E2000ADF80220BDF80200ADF80200BDF80200B6
:103E300024F8020C7820FFF79BFB2920ADF8020044
:103E4000BDF80200ADF80200BDF8020024F8020C33
:103E500001B0F0BD2DE9F04F81B0FF23ADF8023085
:103E6000BDF8020040F60004ADF80200BDF8020003
:103E7000C6F6004424F8020CADF80230BDF802008A
:103E80004FF0060EADF80200BDF802004FF00F0B28
:103E900020809820ADF80200BDF802004FF00B0A18
:103EA000ADF80200BDF802004FF010092080ADF817
:103EB00002E0BDF802004025ADF80200BDF80200A6
:103EC0004FF00A0C2080BC20ADF80200BDF80200C3
:103ED000ADF80200BDF8020024F8020C0120ADF894
:103EE0000200BDF80210ADF80210BDF802102180EA
:103EF000ADF802B0BDF80210ADF80210BDF8021026
:103F000021806121ADF80210BDF80210ADF8021059
:103F1000BDF802102180ADF80230BDF80210ADF8F6
:103F20000210BDF802102180ADF80200BDF80210A9
:103F3000ADF80210BDF802102180ADF80200BDF806
:103F40000210ADF80210BDF802102180ADF802A0F9
:103F5000BDF80210ADF80210BDF802102180ADF8D6
:103F60000290BDF80210ADF80210BDF802102180D9
:103F70003721ADF80210BDF80210ADF80210BDF8FF
:103F8000021021806321ADF80210BDF80210ADF8D7
:103F90000210BDF802102180ADF80230BDF8021009
:103FA000ADF80210BDF802102180ADF80230BDF866
:103FB0000210ADF80210BDF802102180ADF8020029
:103FC000BDF80210ADF80210BDF802102180ADF866
:103FD0000200BDF80210ADF80210BDF802102180F9
:103FE0000021ADF80210BDF80220ADF80220BDF8A6
:103FF00002202280ADF80210BDF80220ADF80220A8
:10400000BDF802202280ADF80230BDF80220ADF8E4
:104010000220BDF8022022805222ADF80220BDF815
:104020000220ADF80220BDF802202280ADF8020087
:10403000BDF80220ADF80220BDF802202280ADF8C4
:104040000210BDF80220ADF80220BDF80220228047
:10405000ADF80250BDF80220ADF80220BDF80220F4
:104060002280BD22ADF80220BDF80220ADF802206A
:10407000BDF8022024F8022CADF80200BDF80220A1
:10408000ADF80220BDF8022022802322ADF80220E4
:10409000BDF80230ADF80230BDF802302380452370
:1040A000ADF80230BDF80260ADF80260BDF8026004
:1040B00026806726ADF80260BDF80270ADF8027088
:1040C000BDF802702780ADF80200BDF80270ADF8AF
:1040D0000270BDF802702780ADF80220BDF8022002
:1040E000ADF80220BDF802202280ADF80230BDF804
:1040F0000220ADF80220BDF802202280ADF8026057
:10410000BDF802201326ADF80220BDF8022022805F
:10411000BE22ADF80220BDF80220ADF80220BDF8A5
:10412000022024F8022CADF80210BDF80220ADF8F0
:104130000220BDF802202280ADF80200BDF8022066
:10414000ADF80220BDF802202280AB22ADF802209B
:10415000BDF80220ADF80220BDF8022022806022C6
:10416000ADF80220BDF80220ADF80220BDF8022013
:1041700022802222ADF80220BDF80230ADF80230D4
:10418000BDF802302380ADF80220BDF80230ADF852
:104190000230BDF802302380ADF80220BDF80230B5
:1041A000ADF80230BDF802302380ADF80220BDF832
:1041B0000230ADF80230BDF802302380ADF80220A5
:1041C000BDF802202023ADF80220BDF80220228095
:1041D000C722ADF80220BDF80220ADF80220BDF8DC
:1041E000022024F8022C3622ADF80220BDF802206D
:1041F000ADF80220BDF802202280ED22ADF80220A9
:10420000BDF80220ADF80220BDF8022024F8022CEF
:104210007F22ADF80220BDF80220ADF80220BDF8E3
:1042200002202280ADF802B0BDF80220ADF80220D5
:10423000BDF802202280C022ADF80220BDF8022085
:10424000ADF80220BDF8022024F8022CADF802B02F
:10425000BDF80220ADF80220BDF802202280ADF8A2
:1042600002A0BDF80220ADF80220BDF80220228095
:10427000ADF802C0BDF80220ADF80220BDF8022062
:104280002280FC22ADF80220BDF80220ADF8022009
:10429000BDF8022024F8022C0822ADF80220BDF857
:1042A0000220ADF80220BDF802202280DF22ADF806
:1042B0000220BDF80220ADF80220BDF8022024F84B
:1042C000022CADF80210BDF80220ADF80220BDF8B6
:1042D00002202280ADF80210BDF80220ADF80220C5
:1042E000BDF802202280ADF80210BDF80220ADF822
:1042F0000220BDF802202280ADF80210BDF8022095
:10430000ADF80220BDF802202280ADF80210BDF801
:104310000220ADF80220BDF802202280ADF8023064
:10432000BDF80220ADF80220BDF802202280F32261
:10433000ADF80220BDF80220ADF80220BDF8022041
:1043400024F8022C7422ADF80220BDF80220ADF84A
:104350000220BDF802202280B422ADF80220BDF870
:104360000220ADF80220BDF8022024F8022CADF89E
:104370000210BDF80220ADF80220BDF80220228014
:10438000ADF80210BDF80220ADF80220BDF8022001
:104390002280ADF80210BDF80220ADF80220BDF871
:1043A00002202280F722ADF80220BDF80220ADF8ED
:1043B0000220BDF8022024F8022C8222ADF802204F
:1043C000BDF80220ADF80220BDF802202280B12203
:1043D000ADF80220BDF80220ADF80220BDF80220A1
:1043E00024F8022CADF80210BDF80220ADF802202E
:1043F000BDF802202280ADF80260BDF80220ADF8C1
:104400000220BDF802202280ADF80260BDF8022033
:10441000ADF80220BDF802202280F222ADF8022081
:10442000BDF80220ADF80220BDF8022024F8022CCD
:104430008022ADF80220BDF80220ADF80220BDF8C0
:10444000022022800422ADF80220BDF80220ADF83F
:104450000220BDF802202280ADF80250BDF80220F3
:10446000ADF80220BDF8022022802822ADF80220FB
:10447000BDF80220ADF80220BDF802202280C12242
:10448000ADF80220BDF80220ADF80220BDF80220F0
:1044900024F8022C1722ADF80220BDF80220ADF856
:1044A0000220BDF8022022808822ADF80220BDF84B
:1044B0000250ADF80250BDF802502580ADF8022040
:1044C000BDF802200E25ADF80220BDF802202280A2
:1044D000ADF80230BDF80220ADF80220BDF8022090
:1044E0002280E022ADF80220BDF80220ADF80220C3
:1044F000BDF8022024F8022CADF80210BDF802200D
:10450000ADF80220BDF802202280ADF802C0BDF84F
:104510000220ADF80220BDF8022022801222ADF860
:104520000220BDF80220ADF80220BDF80220228052
:10453000ADF80290BDF80220ADF80220BDF80220CF
:104540002280ADF80250BDF80220ADF80220BDF87F
:1045500002202280ADF80230BDF80220ADF8022022
:10456000BDF802202280CC22ADF80220BDF8022046
:10457000ADF80220BDF8022022800722ADF802200B
:10458000BDF80220ADF80220BDF802202280ADF86F
:1045900002E0BDF80220ADF80220BDF80220228022
:1045A000ADF802A0BDF80220ADF80220BDF802204F
:1045B0002280ADF80250BDF80220ADF80220BDF80F
:1045C00002202280ADF802B0BDF80220ADF8022032
:1045D000BDF8022022800D22ADF80220BDF8023085
:1045E000ADF80230BDF8023023801523ADF802305B
:1045F000BDF80280ADF80280BDF802702780ADF8EA
:104600000290BDF80270ADF80270BDF8027027800C
:10461000ADF80210BDF80270ADF80270BDF802707E
:104620002780E127ADF80270BDF80270ADF8027086
:10463000BDF8027024F8027CADF80210BDF80270DB
:10464000ADF80270BDF802702780ADF802A0BDF889
:104650000270ADF80270BDF802702780ADF80260FC
:10466000BDF80260ADF80260BDF802602680ADF8CA
:104670000220BDF80220ADF80220BDF80220228001
:10468000ADF80250BDF80220ADF80220BDF80220BE
:1046900022801B22ADF80220BDF80220ADF80220D6
:1046A000BDF8022022807122ADF80220BDF8022060
:1046B000ADF80220BDF802202280ADF802E0BDF87E
:1046C0000220ADF80220BDF802202280ADF802E001
:1046D000BDF80220ADF80220BDF802202280ADF81E
:1046E00002C0BDF80220ADF80220BDF802202280F1
:1046F000ADF802B0BDF80220ADF80220BDF80220EE
:104700002280ADF80250BDF80220ADF80220BDF8BD
:1047100002202280ADF802B0BDF80220ADF80220E0
:10472000BDF802202280ADF80230BDF80220ADF8BD
:104730000220BDF8022022800C22ADF80220BDF834
:104740000220ADF80220BDF802202280ADF8021050
:10475000BDF80220ADF80220BDF8022022802A22F6
:10476000ADF80220BDF80220ADF80220BDF802200D
:1047700024F8022CADF80210BDF80220ADF802209A
:10478000BDF802202280ADF80210BDF80220ADF87D
:104790000220BDF802202280ADF80200BDF8020020
:1047A000ADF80200BDF802002080DF20ADF8020065
:1047B000BDF80200ADF80200BDF8020020802B20F9
:1047C000ADF80200BDF80200ADF80200BDF802002D
:1047D00024F8020CADF80210BDF80200ADF802009A
:1047E000BDF802002080ADF80210BDF80200ADF85F
:1047F0000200BDF8020020800320ADF80200BDF8E1
:104800000200ADF80200BDF8020020801F20ADF8C4
:104810000200BDF80200ADF80200BDF802002080E1
:104820003A20ADF80200BDF80200ADF80200BDF874
:10483000020024F8020C5520ADF80200BDF8020079
:10484000ADF80200BDF8020020803620ADF802006D
:10485000BDF80200ADF80200BDF8020024F8020C19
:10486000ADF80210BDF80200ADF80200BDF802007C
:1048700020801120ADF80200BDF80200ADF8020062
:10488000BDF8020024F8020C7820FEF771FE292002
:10489000ADF80200BDF80200ADF80200BDF802005C
:1048A00024F8020C1420FEF763FE2C20ADF8020061
:1048B000BDF80200ADF80200BDF8020024F8020CB9
:1048C00001B0BDE8F08F00002DE9F04F81B0ED2080
:1048D000ADF80200BDF8020040F60004ADF8020099
:1048E000BDF80200C6F6004424F8020C0120ADF821
:1048F0000200BDF802004FF02109ADF80200BDF83A
:10490000020001222080FE20ADF80200BDF8020066
:104910000025ADF80200BDF802008B262080EE20B5
:10492000ADF80200BDF802000223ADF80200BDF8A8
:1049300002004FF0200A24F8020CDE20ADF802003D
:10494000BDF802004FF03C08ADF80200BDF80200CF
:104950004FF0360E2080ADF80290BDF80210C42052
:10496000ADF80210BDF802104FF0320B2180F1219A
:10497000ADF80210BDF802104FF02C0CADF802108B
:10498000BDF8021024F8021CADF80220BDF8021098
:10499000ADF80210BDF802102180DF21ADF8021041
:1049A000BDF80210ADF80210BDF8021024F8021C88
:1049B0001021ADF80210BDF80210ADF80210BDF8DC
:1049C00002102180ADF80200BDF80210C620ADF83B
:1049D0000210BDF8021024F8021C8F21ADF802105D
:1049E000BDF80210ADF80210BDF802102180ADF83C
:1049F0000200BDF80210E220ADF80210BDF802106E
:104A000024F8021CADF80250BDF80210ADF80210F7
:104A1000BDF802102180ADF80200BDF80210ADF81B
:104A20000210BDF802102180ADF80200BDF802109E
:104A3000ADF80210BDF802102180ADF80200BDF8FB
:104A400002105D20ADF80210BDF802102180BF21D8
:104A5000ADF80210BDF80210ADF80210BDF802105A
:104A600024F8021CAA21ADF80210BDF80210ADF81E
:104A70000210BDF802102180B021ADF80210BDF87F
:104A80000210ADF80210BDF8021024F8021C0D212E
:104A9000ADF80210BDF80220ADF80220BDF80220EA
:104AA0002280ADF80250BDF80220ADF80220BDF81A
:104AB00002202280ADF80210BDF80210ADF80210FD
:104AC000BDF802102180ADF80250BDF80210ADF81B
:104AD0000210BDF8021021801121ADF80210BDF8BE
:104AE0000210ADF80210BDF802102180ADF802509E
:104AF000BDF80210ADF80210BDF802102180192196
:104B0000ADF80210BDF80210ADF80210BDF80210A9
:104B10002180ADF80250BDF80210ADF80210BDF8CA
:104B200002102180ADF80290BDF80210ADF802101D
:104B3000BDF802102180ADF80250BDF80210ADF8AA
:104B40000210BDF8021021802D21ADF80210BDF831
:104B50000210ADF80210BDF802102180ADF802502D
:104B6000BDF80210ADF80210BDF8021021803D2101
:104B7000ADF80210BDF80210ADF80210BDF8021039
:104B80002180ADF80250BDF80210ADF80210BDF85A
:104B900002102180ADF80200BDF80210ADF802103D
:104BA000BDF802102180ADF80250BDF80210ADF83A
:104BB0000210BDF802102180ADF80200BDF802100D
:104BC0008B20ADF80210BDF802102180ADF8025024
:104BD000BDF80210ADF80210BDF802102180B1211D
:104BE000ADF80210BDF80210ADF80210BDF80210C9
:104BF00024F8021C8021ADF80210BDF80210ADF8B7
:104C00000210BDF802102180ADF80250BDF802106C
:104C1000ADF80210BDF802102180ADF80200BDF819
:104C200002100220ADF80210BDF802102180ADF88C
:104C30000250BDF80210ADF80210BDF8021021803C
:104C40009621ADF80210BDF80220ADF80220BDF8A3
:104C500002202280ADF80250BDF80220ADF80220FB
:104C6000BDF802202280B222ADF80220BDF8022059
:104C7000ADF80220BDF8022024F8022CADF8025055
:104C8000BDF80220ADF80220BDF802202280ADF868
:104C90000250BDF80220ADF80220BDF802202280AB
:104CA000ADF80200BDF80220B320ADF80220BDF837
:104CB00002202280ADF80250BDF80220ADF802209B
:104CC000BDF8022022800322ADF80220BDF8027058
:104CD000ADF80270BDF802702780ADF80250BDF843
:104CE0000270ADF80270BDF802702780ADF80200C6
:104CF000BDF80270B720ADF80270BDF8027024F85C
:104D0000027CADF80250BDF80270ADF80270BDF83B
:104D100002702780ADF80250BDF80270ADF8027045
:104D2000BDF802702780ADF80250BDF80270ADF8F2
:104D30000270BDF802702780ADF80250BDF8027015
:104D4000ADF80270BDF802702780ADF80250BDF8D2
:104D50000270ADF80270BDF802702780ADF8025005
:104D6000BDF80270ADF80270BDF802702780ADF892
:104D70000250BDF80270ADF80270BDF802702780D5
:104D8000ADF80250BDF80270ADF80270BDF80270C7
:104D90002780ADF80250BDF80270ADF80270BDF882
:104DA00002702780ADF80250BDF80270ADF80270B5
:104DB000BDF802702780ADF80250BDF80270ADF862
:104DC0000270BDF802702780ADF80250BDF8027085
:104DD000ADF80270BDF802702780ADF80250BDF842
:104DE0000270ADF80270BDF802702780ADF8025075
:104DF000BDF80270ADF80270BDF802702780ADF802
:104E00000250BDF80270ADF80270BDF80270278044
:104E1000ADF80250BDF80270ADF80270BDF8027036
:104E20002780ADF80250BDF80270ADF80270BDF8F1
:104E300002702780ADF80250BDF80270ADF8027024
:104E4000BDF802702780ADF80250BDF80270ADF8D1
:104E50000270BDF802702780ADF80250BDF80270F4
:104E6000ADF80270BDF802702780ADF80250BDF8B1
:104E70000270ADF80270BDF802702780ADF80250E4
:104E8000BDF80270ADF80270BDF802702780ADF871
:104E90000250BDF80270ADF80270BDF802702780B4
:104EA000ADF80250BDF80270ADF80270BDF80270A6
:104EB0002780B427ADF80270BDF80270ADF802701B
:104EC000BDF8027024F8027CADF80260BDF80270F3
:104ED000ADF80270BDF802702780ADF80250BDF841
:104EE0000270ADF80270BDF802702780ADF80210B4
:104EF000BDF802100427ADF80210BDF802102180A1
:104F0000ADF80250BDF80210ADF80210BDF8021065
:104F10002180A121ADF80210BDF80210ADF80210F9
:104F2000BDF802102180ADF80250BDF80210ADF8B6
:104F30000210BDF802102180B521ADF80210BDF8B5
:104F40000210ADF80210BDF8021024F8021CADF8F2
:104F50000230BDF80210FF23ADF80210BDF80210B8
:104F60002180ADF80250BDF80210ADF80210BDF876
:104F700002102180ADF80220BDF80210ADF8021039
:104F8000BDF802102180ADF80250BDF80210ADF856
:104F90000210BDF802102180ADF80270BDF80210B9
:104FA000ADF80210BDF802102180ADF80250BDF836
:104FB0000210ADF80210BDF802102180B621ADF844
:104FC0000210BDF80210ADF80210BDF8021024F86E
:104FD000021CADF80250BDF80210ADF80210BDF889
:104FE00002102180ADF80250BDF80210ADF8021099
:104FF000BDF802102180ADF80200BDF80210642057
:10500000ADF80210BDF8021024F8021CADF80250F1
:10501000BDF80210ADF80210BDF802102180ADF805
:105020000250BDF80210ADF80210BDF80210218048
:105030003F21ADF80210BDF80210ADF80210BDF826
:1050400002102180ADF80250BDF80210ADF8021038
:10505000BDF8021021805E21ADF80210BDF80210EB
:10506000ADF80210BDF802102180ADF80250BDF875
:105070000210ADF80210BDF802102180ADF8020058
:10508000BDF80210DC20ADF80210BDF8021021803E
:10509000ADF80250BDF80210ADF80210BDF80210D4
:1050A00021808C21ADF80210BDF80210ADF802107D
:1050B000BDF802102180ADF80250BDF80210ADF825
:1050C0000210BDF802102180AC21ADF80210BDF82D
:1050D0000210ADF80210BDF802102180ADF80250A8
:1050E000BDF80210ADF80210BDF802102180ADF835
:1050F0000200BDF80210ADF80210BDF802102180C8
:10510000ADF80250BDF80210ADF80210BDF8021063
:1051100021807021ADF80210BDF80210ADF8021028
:10512000BDF802102180ADF80250BDF80210ADF8B4
:105130000210BDF8021021809021ADF80210BDF8D8
:105140000210ADF80210BDF802102180ADF8025037
:10515000BDF80210ADF80210BDF802102180EB215D
:10516000ADF80210BDF80210ADF80210BDF8021043
:105170002180ADF80250BDF80210ADF80210BDF864
:1051800002102180ADF80200BDF80210C220ADF877
:105190000210BDF802102180ADF80250BDF80210D7
:1051A000ADF80210BDF802102180B821ADF8021050
:1051B000BDF80210ADF80210BDF8021024F8021C70
:1051C000ADF80250BDF80210ADF80210BDF80210A3
:1051D0002180ADF80250BDF80210ADF80210BDF804
:1051E00002102180ADF80250BDF80210ADF8021097
:1051F000BDF802102180ADF80250BDF80210ADF8E4
:105200000210BDF802102180ADF80250BDF8021066
:10521000ADF80210BDF802102180ADF80250BDF8C3
:105220000210ADF80210BDF802102180ADF8025056
:10523000BDF80210ADF80210BDF802102180ADF8E3
:105240000250BDF80210ADF80210BDF80210218026
:10525000BA21ADF80210BDF80210ADF80210BDF889
:10526000021024F8021C2421ADF80210BDF802201F
:10527000ADF80220BDF802202280ADF80250BDF842
:105280000220ADF80220BDF802202280ADF80250C5
:10529000BDF80220ADF80220BDF802202280ADF852
:1052A0000250BDF80220ADF80220BDF80220228095
:1052B000C122ADF80220BDF80220ADF80220BDF8F1
:1052C000022024F8022CADF802A0BDF802602322CF
:1052D000ADF80260BDF802602680ADF80250BDF85E
:1052E0000260ADF80260BDF8026026805426ADF879
:1052F0000260BDF80260ADF80260BDF80260268071
:10530000ADF80250BDF80260ADF80260BDF8026071
:105310002680ADF80230BDF802603A23ADF8026095
:10532000BDF802602680ADF80250BDF80260ADF80D
:105330000260BDF802602680ADF80200BDF8026090
:105340000A20ADF80260BDF8026024F8026CADF8E6
:105350000200BDF802603C20ADF80260BDF80260BA
:105360002680ADF80250BDF80260ADF80260BDF8CD
:1053700002602680ADF80270BDF80270ADF80270D0
:10538000BDF802702780ADF80250BDF80270ADF88C
:105390000270BDF802702780C327ADF80270BDF817
:1053A0000270ADF80270BDF8027024F8027CADF80E
:1053B0000200BDF80270ADF80270BDF802702780DF
:1053C000ADF80250BDF80270ADF80270BDF8027081
:1053D0002780ADF80230BDF802702C23ADF80270C2
:1053E000BDF802702780ADF80250BDF80270ADF82C
:1053F0000270BDF8027027803927ADF80270BDF841
:105400000270ADF80270BDF802702780ADF802504E
:10541000BDF80270ADF80270BDF802702780372722
:10542000ADF80270BDF80270ADF80270BDF8027000
:105430002780ADF80250BDF80270ADF80270BDF8DB
:1054400002702780ADF80200BDF802703620ADF87A
:105450000270BDF802702780ADF80250BDF80270EE
:10546000ADF80270BDF802702780ADF80200BDF8FB
:1054700002703220ADF80270BDF802702780ADF8DE
:105480000250BDF80270ADF80270BDF802702780BE
:10549000ADF80200BDF802702920ADF80270BDF829
:1054A00002702780ADF80250BDF80270ADF80270AE
:1054B000BDF8027027802F27ADF80270BDF802609A
:1054C000ADF80260BDF802602680ADF80250BDF86C
:1054D0000260ADF80260BDF802602680ADF80230CF
:1054E000BDF802602923ADF80260BDF80260268095
:1054F000ADF80250BDF80260ADF80260BDF8026080
:105500002680ADF80230BDF80260ADF80260BDF84B
:1055100002602680ADF80250BDF80260ADF802606E
:10552000BDF8026026802626ADF80260BDF8023084
:10553000ADF80230BDF802302380ADF80250BDF85E
:105540000230ADF80230BDF802302380ADF8021011
:10555000BDF80230ADF80230BDF802302380ADF85E
:105560000250BDF80230ADF80230BDF802302380A1
:10557000ADF80210BDF80230ADF80230BDF80230CF
:105580002380ADF80250BDF80230ADF80230BDF80E
:10559000023023802323ADF80230BDF80230ADF88D
:1055A0000230BDF802302380ADF80250BDF8023061
:1055B000ADF80230BDF802302380ADF80280BDF8AE
:1055C00002304FF07A08ADF80230BDF80230238087
:1055D000ADF80250BDF80230ADF80230BDF802302F
:1055E0002380ADF802E0BDF802304FF08B0EADF82D
:1055F0000230BDF802302380ADF80250BDF8023011
:10560000ADF80230BDF802302380ADF802B0BDF82D
:105610000230ADF80230BDF802302380ADF8025000
:10562000BDF80230ADF80230BDF802302380ADF88D
:105630000270BDF80230ADF80230BDF802302380B0
:10564000ADF80250BDF80230ADF80230BDF80230BE
:105650002380ADF802C0BDF802304FF0C40CADF8A5
:105660000230BDF802302380ADF80250BDF80230A0
:10567000ADF80230BDF802302380ADF80200BDF86D
:105680000230C420ADF80230BDF802302380ADF8FE
:105690000250BDF80230ADF80230BDF80230238070
:1056A000ADF80260BDF802301626ADF80230BDF844
:1056B00002302380ADF80250BDF80230ADF8023060
:1056C000BDF802302380ADF80210BDF80230ADF80D
:1056D0000230BDF802302380ADF80250BDF8023030
:1056E000ADF80230BDF802302380ADF80210BDF8ED
:1056F0000210ADF80210BDF802102180ADF8025082
:10570000BDF80210ADF80210BDF802102180ADF80E
:105710000220BDF80210ADF80210BDF80210218081
:10572000ADF80250BDF80210ADF80210BDF802103D
:105730002180ADF80200BDF802106220ADF8021021
:10574000BDF8021024F8021CADF80200BDF80210EA
:105750000520ADF80210BDF802102180ADF802500E
:10576000BDF80210ADF80210BDF802102180ADF8AE
:105770000200BDF802108420ADF80210BDF802103E
:105780002180ADF80250BDF80210ADF80210BDF84E
:1057900002102180ADF80200BDF80210F020ADF833
:1057A0000210BDF802102180ADF80250BDF80210C1
:1057B000ADF80210BDF802102180ADF80200BDF86E
:1057C00002105020ADF80210BDF802102180ADF893
:1057D0000250BDF80210ADF80210BDF80210218091
:1057E0001821ADF80210BDF80230ADF80230BDF856
:1057F00002302380ADF80250BDF80230ADF802301F
:10580000BDF802302380A423ADF80230BDF8023089
:10581000ADF80230BDF802302380ADF80250BDF87B
:105820000230ADF80230BDF802302380ADF802102E
:10583000BDF80210ADF80210BDF802102180ADF8DD
:105840000250BDF80210ADF80210BDF80210218020
:10585000ADF80200BDF80210F320ADF80210BDF85B
:1058600002102180ADF80250BDF80210ADF8021010
:10587000BDF8021021800C21ADF80210BDF8021015
:10588000ADF80210BDF802102180ADF80250BDF84D
:105890000210ADF80210BDF8021021801721ADF8FA
:1058A0000210BDF80230ADF80230BDF8023023809E
:1058B000ADF80250BDF80230ADF80230BDF802304C
:1058C00023809523ADF80230BDF80230ADF80230E8
:1058D000BDF802302380ADF80250BDF80230ADF8BB
:1058E0000230BDF802302380ADF80200BDF802306E
:1058F000E620ADF80230BDF802302380ADF802504A
:10590000BDF80230ADF80230BDF802302380ADF8AA
:105910000200BDF802304420ADF80230BDF802307C
:105920002380ADF80250BDF80230ADF80230BDF86A
:1059300002302380C523ADF80230BDF80230ADF847
:105940000230BDF8023024F8023CADF802B0BDF8D8
:1059500002304FF0520BADF80230BDF80230238018
:10596000ADF80250BDF80230ADF80230BDF802309B
:105970002380ADF80200BDF802307620ADF8023089
:10598000BDF802302380ADF80250BDF80230ADF80A
:105990000230BDF8023023806523ADF80230BDF837
:1059A0000230ADF80230BDF802302380ADF802506D
:1059B000BDF80230ADF80230BDF802302380ADF8FA
:1059C0000200BDF802308820ADF80230BDF8023088
:1059D0002380ADF80250BDF80230ADF80230BDF8BA
:1059E00002302380ADF80200BDF80230C620ADF8C9
:1059F0000230BDF802302380ADF80250BDF802300D
:105A0000ADF80230BDF802302380ADF80200BDF8D9
:105A100002300120ADF80230BDF8023024F8023C1B
:105A2000ADF802A0BDF80220A823ADF80220BDF811
:105A300002202280ADF80250BDF80220ADF802200D
:105A4000BDF802202280ADF80210BDF80210B92284
:105A5000ADF80210BDF802102180ADF80250BDF87B
:105A60000210ADF80210BDF802102180ADF802005E
:105A7000BDF80210C720ADF80210BDF80210218059
:105A8000ADF80250BDF80210ADF80210BDF80210DA
:105A90002180ADF80200BDF80210E020ADF8021040
:105AA000BDF8021024F8021CADF80250BDF8021037
:105AB000ADF80210BDF802102180ADF80250BDF81B
:105AC0000210ADF80210BDF802102180ADF80250AE
:105AD000BDF80210ADF80210BDF802102180ADF83B
