:020000040800F2
:10000000480B0020F901000851290008492900087F
:100010004D29000869040008B92E000800000000FE
:10002000000000000000000000000000BD290008E2
:10003000B50400080000000055290008C129000887
:10004000BD2E0008130200081302000859290008F9
:100050001302000813020008B90400081302000884
:1000600013020008F5040008390500086D040008B3
:100070001302000813020008950400081302000888
:1000800013020008130200081302000813020008FC
:1000900013020008130200081302000813020008EC
:1000A00013020008130200081302000813020008DC
:1000B000792A0008A52A0008130200081302000884
:1000C00013020008130200081302000813020008BC
:1000D00013020008992E00081302000813020008FA
:1000E000130200081302000813020008130200089C
:1000F000D12C000813020008492B00081302000845
:100100001302000813020008B52A000813020008B1
:100110001302000813020008C12A0008052B00087A
:10012000130200081302000813020008130200085B
:1001300000F002F800F050F814A696E8000CB24463
:10014000B344DA4501D100F047F8BAE80F000FA632
:1001500096E83000A5EB040504EB0607AAEB0704BC
:10016000A7F101074FEA15154FEA3414A4F1010471
:10017000AC4201D300F030F813F0010F18BFFB1AA6
:1001800043F0010300F001F8DBE718474C5E010083
:100190006C5E0100103A24BF78C878C1FAD85207C3
:1001A00024BF30C830C144BF04680C6070470000F1
:1001B000704700000023002400250026103A28BFC5
:1001C00078C1FBD8520728BF30C148BF0B607047C9
:1001D0001FB51FBD10B510BD00F0B6F81146FFF7F2
:1001E000F7FF09F027FE00F0D4F803B4FFF7F2FFA1
:1001F00003BC02F069FE0000094880470948004737
:10020000FEE7FEE7FEE7FEE7FEE7FEE7FEE7FEE7C6
:10021000FEE7FEE704480549054A064B7047000023
:10022000C52900083101000848050020480B0020BE
:1002300048070020480700207047000010B504461A
:1002400003E002F05FFF401C09D014F8010B0549E0
:100250000028F6D1BDE810400A2002F053BF4FF04D
:10026000FF3010BD7C0000204FF0000200B51346A7
:1002700094469646203922BFA0E80C50A0E80C50C6
:10028000B1F12001BFF4F7AF090728BFA0E80C5077
:1002900048BF0CC05DF804EB890028BF40F8042B70
:1002A00008BF704748BF20F8022B11F0804F18BFDD
:1002B00000F8012B704700004FF0013C50F8042B70
:1002C00051F8043B9A4221D1A2EB0C03934313EA69
:1002D000CC1317D150F8042B51F8043B9A4215D196
:1002E000A2EB0C03934313EACC130BD150F8042B6D
:1002F00051F8043B9A4209D1A2EB0C03934313EA51
:10030000CC13DBD04FF00000704700BFD01A01BA09
:10031000B1FA81F101F0180122FA01F0CB40DBB211
:10032000C0B2C01AC1F120012CFA01F3D11A9143D5
:1003300011EAC311E6D170477047704770477047A4
:1003400000487047180000207546FFF7F9FFAE46D9
:1003500005006946534620F00700854618B020B5D1
:10036000FFF758FFBDE820404FF000064FF00007B0
:100370004FF000084FF0000BAC46ACE8C009ACE809
:10038000C009ACE8C009ACE8C00921F007018D46FE
:10039000704710B50446AFF300802046BDE810401A
:1003A000FFF723BFB0B5044600688168C90701D1D3
:1003B0000020B0BD816821F00101816000F08AFF5A
:1003C000054600BF20688068C007F1D000F082FFBA
:1003D000401B0328F6D3A06A40F01000A062E06A38
:1003E00040F00100E0620120B0BD0000B0B582B075
:1003F00004460020019021688A68D2072FD18868BE
:1004000040F00100886040F20400C2F20000006881
:100410004DF68361C4F21B31A0FB0101880C00BFC3
:100420000190019810B101980138F9E700F052FFEE
:10043000054600BF20688068C00712D100F04AFF5F
:10044000401B0328F6D3A06A40F01000A062E06AC7
:1004500040F00100E062002084F82400012002B096
:10046000B0BD002002B0B0BDFEE700000420C4F221
:10047000020050F8041C890758BF704740F2E001A1
:10048000C2F2000101220A70016841F0020101601C
:100490007047000080B540F21810C2F2000000F072
:1004A000CDFC02A0BDE88040FFF7C8BE0D0A49524E
:1004B00051480D0070470000B0B540F214440120CF
:1004C000C4F20104012500F0F7FD142002F07CFDC8
:1004D00004F57B70012100F0E9FE012807D140F20C
:1004E000DC00C2F200000168C1F101010160256079
:1004F000B0BD0000B0B50820082500F0DDFD40F2D9
:10050000DC00C2F20000006880B140F60044142014
:10051000C4F2010402F058FD04F54060082100F027
:10052000C5FE18B92046202100F0C6FE40F2144056
:10053000C4F201000560B0BDB0B51020102500F078
:10054000BBFD40F2DC00C2F200000068A0B141F641
:1005500000041420C4F2010402F036FD20461021EC
:1005600000F0A4FE40B9A4F54060202100F0A4FEF4
:100570002046202100F0A0FE40F21440C4F2010009
:100580000560B0BDB3F5804F034619D1B0B553F83F
:1005900022C00020CCF6F0700CEA000E91E8310089
:1005A000D1F818C040EA0E0040EA0410C96840EAD9
:1005B000052040EA0C0040EA0141BDE8B04001E0FE
:1005C0006FF07041002043F8221070472DE9F04F82
:1005D00083B00B68024650F8230001F1240B20F091
:1005E000010042F82300D1E902C0D1E900E3019003
:1005F0008869D1E9049A0290D1E90C80D1E90776A3
:1006000000909BE8300852F82E008021CFF6F07160
:100610000840BCF1080F08BF43F04003019919439B
:1006200041EA090141EA0A0139433143214329439F
:1006300041EA0B01029B41EA08011943009B19435F
:10064000084340EA0C01002042F82E1003B0BDE838
:10065000F08F0000F0B500EB82025068D1E902E4AF
:1006600000F0404CD1E90030D1E9045643EA0C03D4
:10067000002743EA0010CFF6F07740EA0E208969A0
:1006800007EB055540EA04402843FE36084340EA9C
:10069000066100205160F0BD70B582B004460020B4
:1006A000019094F82400012802D1022002B070BD0C
:1006B000012084F824002046FFF774FE00284BD167
:1006C0000646A06A41F2021188430230A06240F25D
:1006D0000400C2F200000568022000F0A1FEB5FB94
:1006E000F0F040000190019810B101980138F9E74D
:1006F0002046FFF77BFE2068816841F00801816099
:1007000000F0E8FD054600BF20688168090705D5AF
:1007100000F0E0FD401B0A28F6D910E0816841F0A6
:100720000401816000F0D6FD054600BF20688068A6
:10073000400709D500F0CEFD401B0B28F6D3012061
:1007400010216FF0120203E001216FF00302304626
:10075000A36A1A401143A162002184F8241002B058
:1007600070BD0000B0B581B00022009290F8242046
:10077000012A01D1022179E04A680123062A02EB0D
:10078000820C80F8243005D8026802F1340E6FF034
:1007900004020AE003680C2A87BF03F12C0E6FF0F5
:1007A000400203F1300E6FF022026244DEF800C016
:1007B0001F230C6893402CEA030304FA02F21A4345
:1007C000CEF80020D1F800E002680EEB4E041023B2
:1007D000BEF1090F88BF1E3C88BF0C2352F803C02E
:1007E00007258968A5402CEA0505A1402943D15079
:1007F0002EF001014FF0000C10294FF0000133D111
:10080000016842F20042C4F20102914205D0816ABD
:1008100041F020018162012126E09268120222D477
:100820008A68BEF1100F42F400028A601BD140F2C8
:100830000401C2F2000109684DF68362C4F21B3262
:10084000A1FB0212910C01EB81014900009100997A
:1008500049B100BF009901390091009900294FF07A
:100860000001F7D100E0002180F824C0084601B063
:10087000B0BD00000068C06C70470000002804BFD5
:1008800001207047B0B50446806A30B90020E062AC
:1008900084F82400204600F0A1F820688168C90788
:1008A00002D1002001211AE0816821F0010181605C
:1008B00000F010FD054600BF20688068C007F0D03A
:1008C00000F008FD401B0328F6D3A06A002140F089
:1008D0001000A062E06A40F00100E0620120A36A1B
:1008E000A26A89B313F010012ED141F2021122EA5B
:1008F00001010231A16294E80250E26981F0804373
:1009000083F49E3382F440252B4308BF4FF400222A
:100910004CEA020CAEF10102B2FA82F253097246BD
:10092000BEF5807F18BF1A02257D237B012D4CEA7E
:10093000430C13D16BB1A36A43F02003A362E36AB3
:1009400043F00103E36209E042F01000A0620120DD
:10095000B0BDA36902EB4332A2F5C0524B68BEF5AD
:10096000807F23F4694342EA03024A608A684FF2B7
:10097000FD73CFF6E17302EA030242EA0C028A60D9
:1009800002D0BEF1010F06D122690023CFF6F07329
:1009900003EB025200E00022CB6A23F470031A43F7
:1009A000CA62896840F6FE62CFF61F721140614547
:1009B00007D10021E162A16A012262F30101A16273
:1009C000B0BDA06A40F0100020F00200A062E06A12
:1009D00040F00100E0620120B0BD0000B0B58AB077
:1009E00040F60004C4F20104006804F5E0518842B6
:1009F00001D00AB0B0BD0020CDE90400CDE902006D
:100A0000CDE9000041F21800C4F20200016802259D
:100A100041F400710160016801F4007106910699CA
:100A2000016841F004010160006800F004000690D4
:100A300006984FF4004002906846009500F078FD5B
:100A40000320079006A92046069500F041FB0AB056
:100A5000B0BD00002DE9F04182B000260D460446ED
:100A6000019600F037FC21688A68D2053CD48046A4
:100A70004868C00503D4C86A10F4700F3ED040F235
:100A80000400C2F20000066842F292470220C1F25E
:100A9000492700F0C5FC216844F624130A69B6FB17
:100AA000F0F0C2F292431A4206D1CA6844F6241307
:100AB000C0F292031A4229D00A693A4206D1CA68A2
:100AC00042F29243C0F249031A422DD00A6949F218
:100AD0004923C0F224031A424FF0FC0225D1C96811
:100AE000194208BF542220E0A06A40F02000A06212
:100AF00084F82460012002B0BDE8F081206800681D
:100B0000800742D43DB36F1C18D01EE00A693A42F8
:100B10004FF0290209D1C96842F29243C0F2490359
:100B2000194208BF142200E05422019902FB00F789
:100B3000B9422AD27DB16E1C18D01FE0206800BFD8
:100B40000168890721D4002FFAD000F0C3FBA0EB85
:100B50000800A842F2D9A06A40F00400A062002078
:100B600084F82400032002B0BDE8F0810198013030
:100B700001900198B84208D2002EF7D000F0AAFBED
:100B8000A0EB0800A842F1D9E5E720686FF0120158
:100B90000160A16A41F40071A162806800F46020E4
:100BA000B0F5602F0CD1207B50B9A06A20F4807082
:100BB000A062A06AC00403D4A06A40F00100A06251
:100BC000002002B0BDE8F081B0B582B0044690F8D4
:100BD0002400012802D1022002B0B0BD0121002072
:100BE00084F82410019022689368DB072FD1906865
:100BF0004DF6836140F00100906040F20400C2F2C3
:100C000000000068C4F21B31A0FB0101880C00BF8A
:100C10000190019810B101980138F9E700F05AFBF2
:100C2000054600BF20688068C00748D100F052FB2D
:100C3000401B0328F6D3A06A002140F01000A062F8
:100C4000E06A40F00100E062012084F82410D1B392
:100C500042F2044C2168A26AC4F2010C40F2013352
:100C60009A430CF57F7302F580729942A2622FD0ED
:100C7000A26A22F48012A2624A68520504D5A26ACE
:100C8000012565F30D32A262A26A0025D2044FF05D
:100C9000000244BFE26A22F00602E2626FF0020242
:100CA00084F824500A608A6802F46022B2F5602F4A
:100CB0002DD1994226D08A6842F4A0022AE0002071
:100CC00001210029C4D1002184F8241002B0B0BD54
:100CD000DCF8002012F4702FCAD0A26A42F6000598
:100CE000C4F2010542F48012A942A26205D042F288
:100CF0000042C4F201029142C6D1DCF80020520544
:100D0000BDD4C1E7DCF8002012F4702FD3D08A687C
:100D100042F480128A6002B0B0BD000090F8211049
:100D2000022927D1026840F2040C1368C4F2020CB5
:100D300023F00E03136013680CF17C018A4223F048
:100D4000010111601AD940F20841C4F202018A423D
:100D50004ED040F21C41C4F202018A4241D040F21E
:100D60003041C4F202018A4246D14FF48073CCF87C
:100D7000003457E004218163012070474321C4F20D
:100D800002018A420EDD6B21C4F202018A421BDCA1
:100D90004421C4F202018A423BD05821C4F202012C
:100DA0008A4222E00821C4F202018A422FD01C218B
:100DB000C4F202018A4232D03021C4F202018A42D6
:100DC00013D14FF480722BE06C21C4F202018A42ED
:100DD00022D08021C4F202018A4206D14FF08072F3
:100DE0001EE01023CCF800341CE04FF4803217E0F2
:100DF0000123CCF8003415E00CF588614FF4803302
:100E00008A4208BF4FF48053CCF800340AE0012234
:100E100006E04FF4805203E04FF4801200E010220D
:100E2000CCF80020416B4FF480720029028404BF8B
:100E30000020704780B58847002080BD10B5D0E9FC
:100E40000FE3D0F800C0DEF80020DCF80010DA4034
:100E500054072DD511F004042AD0DCF800108906BF
:100E600005D4DCF8001021F00401CCF800100422B5
:100E7000C4F2020202F17C018C4567D940F20841BC
:100E8000C4F202018C4500F0B08040F21C41C4F273
:100E900002018C4500F0A28040F23041C4F2020110
:100EA0008C4540F0A6804FF48061C2F80014EAE05F
:100EB000940730D511F002042DD0DCF8001089061B
:100EC00008D4DCF8001021F00A01CCF80010012150
:100ED00080F821100422C4F2020202F17C018C4548
:100EE00048D940F20841C4F202018C4500F0B480B8
:100EF00040F21C41C4F202018C4500F0A48040F293
:100F00003041C4F202018C4540F0B0804FF40071D2
:100F1000C2F80014C6E0120740F1CA8011F00801BF
:100F200008BF10BDDCF8001021F00E01CCF8001055
:100F3000012101FA03F2CEF804208163016B4FF422
:100F400080720029028440F0A080B1E04321C4F205
:100F500002018C4523DD6B21C4F202018C4530DC9B
:100F60004421C4F202018C457AD05821C4F2020116
:100F70008C4537E04321C4F202018C4544DD6B21EE
:100F8000C4F202018C4551DC4421C4F202018C45BB
:100F900000F080805821C4F202018C4559E00821FC
:100FA000C4F202018C4552D01C21C4F202018C45CE
:100FB00067D03021C4F202018C4513D14FF4806117
:100FC00060E06C21C4F202018C454CD08021C4F257
:100FD00002018C4506D14FF0806153E04021C2F8F8
:100FE000001450E04FF480214CE00421C2F80014BA
:100FF00049E002F588634FF480219C4508BF4FF417
:101000008041C2F800143EE00821C4F202018C4580
:101010003ED01C21C4F202018C4541D03021C4F2E3
:1010200002018C4515D14FF400713AE06C21C4F2F5
:1010300002018C4531D08021C4F202018C4508D1D7
:101040004FF000712DE02021C2F800142AE00421A5
:1010500018E04FF4003124E00221C2F8001421E02E
:101060004FF480410EE04FF480010BE002F58863FD
:101070004FF400319C4508BF4FF40051C2F80014F2
:1010800010E040211160C16A91B1BDE810400847ED
:10109000022106E04FF4005103E04FF4001100E09C
:1010A00020211160816A0022002980F82020ECD1E3
:1010B00010BD00007047000040F21441C4F201016D
:1010C0000A68024214BF08607047FFF7F3BF0000D0
:1010D0002DE9F04F82B00E68002E00F0E380A0F101
:1010E000804241F6004540F20043A2F58432C4F24A
:1010F00001050624C4F201034FEAB227A84208BF43
:1011000005244FF0000E4FF001080F254FF0000AA4
:101110004FF0000B052F38BF4FEAB224009408E0CF
:101120000E680AF1010A36FA0AF20EF1040E00F016
:10113000B98008FA0AFC16EA0C09F1D04E684FF69D
:10114000FF72C1F21002964210DC122E50D8DFE876
:1011500006F0330A48454F4F4F4F4F4F4F4F4F4FB9
:101160004F4F4F414C00D1F80CB041E04FF6FF72A9
:10117000C1F2210296420FDC0022C1F21102964216
:101180001AD00022C1F21202964215D00022C1F2FA
:101190002102964210D02BE00022C1F22202964298
:1011A0000AD00022C1F23102964205D00022C1F2DB
:1011B000320296421CD100BF8A6842B1012A14BF94
:1011C000C0F814C0C0F810C04FF0080B10E04FF08A
:1011D000040B0DE0CA6802F1040B09E04FF0000BAC
:1011E00006E0CA6802F1080B02E0CA6802F10C0BC3
:1011F00002467446B9F5807F24BF0432203C16684D
:1012000005FA04F726EA07070BFA04F637431760D6
:10121000CA79D2067FF584AF41F21807C4F20207FB
:101220003A684FF6084542F001023A603A68CFF654
:10123000FF7502F001020192019A2AF003021A449A
:101240000F2457590EF00C06B440A743009C04FA33
:1012500006F6374357514E680F25F2031A6854BFFC
:1012600022EA090242EA09021A605A68B70354BF27
:1012700022EA090242EA09025A60F7029A6854BF58
:1012800022EA090242EA0902B70240F20C479A60D8
:10129000C4F201073A6854BF22EA090242EA09028D
:1012A0003A603DE702B0BDE8F08F0000806808407A
:1012B00018BF012070470000C26802EA0103914391
:1012C00041EA034101617047002A08BF0904016136
:1012D0007047000040F24450C2F2000000687047BE
:1012E00040F20C0040F24451C2F20000C2F2000190
:1012F00000780A68104408607047000080B542F228
:101300000000C4F20200016841F0100101600520F4
:1013100000F070F80F2000F005F800F02BF8002026
:1013200080BD0000B0B540F20C02C2F2000240F2F3
:1013300004011278C2F200014FF47A730968B3FB1A
:10134000F2F20446B1FBF2F1084600F089FD0F2CE1
:101350004FF001050CD858B94FF0FF30214600225C
:10136000002500F01BF840F21000C2F200000460FB
:101370002846B0BD70470000002848BF704700F005
:101380001F01012202FA01F11C2202EAD0004EF2F2
:101390000012CEF2000281507047000010B54EF6E8
:1013A0000C5CCEF2000CDCF80030C3F3022E8EF0A1
:1013B0000704042C28BF0424BEF103034FF0FF3EB2
:1013C0000EFA04F438BF0023A14399400EFA03F348
:1013D0009A43114300F1604200F00F03090102F546
:1013E0006442043B6344002848BF03F10C021170BF
:1013F00010BD00004EF60C51CEF200010A684FF607
:10140000FF031A4060F30A2242F0806040F0FD7052
:10141000086070472020C4F20E200121016070474F
:10142000411E0F294FF0000047D8DFE801F00A35D0
:10143000460846464608464646464646464700F063
:10144000F9B941F20400C4F20200C16940F202326B
:101450000A40B2F5817F04BF4FF40040704701F4A9
:101460004071B1F5407F0FD0B1F5007F1CBF002067
:101470007047026A920744BF49F640407047B1F591
:10148000407F1CBF0020704750F8040C4FF22441ED
:10149000800301EAE070704780B500F0B7F941F2CF
:1014A0000401C4F2020109680222C1F3813102EB96
:1014B0004101B0FBF1F0BDE88040704741F204010A
:1014C000C4F202010A6851F8040CC0015CBF00209C
:1014D0007047C2F3834011A3185CD20305D440F6D1
:1014E0000012C0F23D0250430BE00A680FA3C2F3A2
:1014F00040429A5C41F20023C0F27A03B3FBF2F25D
:1015000050430968490248BF70474AF6AB21400082
:10151000CAF6AA21A0FB010148087047020304058E
:10152000060708090A0B0C0D0E0F1010010200002F
:101530002DE9F04182B00446007841F21C06C00754
:10154000C4F202064AD030685FEAC00808D43068A6
:1015500040F080503060306800F080500190019879
:1015600047F20007C4F200073868C00512D4386893
:1015700040F480703860FFF7ADFE05463868C0055E
:1015800008D4FFF7A7FE401B6428F7D9032002B058
:10159000BDE8F081706810F4407012D0616801F409
:1015A000407188420DD0706840F24042C4F242223D
:1015B000012320F4407113600023C00713607160A1
:1015C00025D17068616820F440700843B8F1000FBD
:1015D000706003D4306820F080503060206881074C
:1015E00007D556F8181CA26821F44041114346F86B
:1015F000181CC00607D556F8180C616920F4800045
:10160000084346F8180C002002B0BDE8F081FFF74F
:1016100061FE054641F2883770688007D1D4FFF734
:1016200059FE401BB8424FF00300F5D9ECE700002B
:10163000002804BF012070472DE9F04381B042F239
:101640000008C4F202080446D8F800000D4600F075
:10165000070088420CD2D8F8000020F00700284389
:10166000C8F80000D8F8000000F00700A8426BD1CD
:10167000206841F204098107C4F2020917D5410725
:1016800005D5D9F8001041F4E061C9F80010010750
:1016900005D5D9F8001041F46051C9F80010D9F807
:1016A0000010A26821F0F0011143C9F80010C00732
:1016B00041D1D8F8000000F00700A8420CD9D8F8B2
:1016C000000020F007002843C8F80000D8F8000008
:1016D00000F00700A84237D12068410707D5D9F8A4
:1016E0000010E26821F4E0611143C9F8001000071E
:1016F00008D5D9F80000216920F4605040EAC10003
:10170000C9F80000D9F8002002F00C00082841F2C6
:101710000020C0F27A0049D145F6C673C2F3834176
:10172000C0F60103595CD20334D440F60010C0F275
:101730003D0048433AE0606859F8041C022807D08D
:10174000012824D1890305D4012001B0BDE8F0832C
:101750008901F9D5D9F8001021F003010843C9F82F
:101760000000FFF7B7FD064641F28837D9F80000C0
:10177000616800F00C00B0EB810F9AD0FFF7AAFD72
:10178000801BB842F2D9032001B0BDE8F08389077D
:10179000DAD5DFE7D9F800204AF6D653C2F3404243
:1017A000C0F600039A5C4843B0FBF2F0D9F8001091
:1017B0004AF6E652C1F30311C0F60002515C40F252
:1017C000040220FA01F140F21000C2F200000068A9
:1017D000C2F200021160FFF7A5FD002001B0BDE8D4
:1017E000F083000040F2040041F20401C2F2000064
:1017F000C4F20201006809684AF6F652C1F30221F8
:10180000C0F60002515CC8407047000040F204007E
:1018100041F20401C2F20000C4F20201006809684A
:101820004AF6F652C1F3C221C0F60002515CC8402C
:101830007047000041F2040CC4F2020CDCF80030E6
:1018400003F00C00082841F20020C0F27A0018BF13
:10185000704745F6C671C3F38342C0F601018A5C46
:10186000D90305D440F60010C0F23D005043704744
:10187000DCF800104AF6D653C1F34041C0F600032D
:10188000595C5043B0FBF1F070470000002804BFE2
:10189000012070472DE9F04182B00446007841F202
:1018A0000006C007C4F2020647D0706800F00C00C2
:1018B000042808D1306880033FD56068E8BB012068
:1018C00002B0BDE8F081706800F00C00082802D179
:1018D0007068C003EED4656830682DB1B5F5A02FEF
:1018E00009D0B5F5803F0AD020F4803030603068F0
:1018F00020F4802005E040F480203060306840F41F
:1019000080303060FFF7E6FC002D054612D000BFA6
:101910003068800311D4FFF7DDFC401B6428F7D941
:1019200016E100BFFFF7D6FC401B64284FF0030010
:1019300000F2D88030688003F4D42078800719D56D
:10194000706810F00C0F07D0706800F00C000828C9
:1019500027D17068C00324D43068800703D520697C
:10196000012840F0A6803068616920F0F80040EA64
:10197000C1003060207800074ED5A06938B3002040
:10198000C4F242200121C0F88014FFF7A3FC0546F1
:10199000706A80072DD4FFF79DFC401B0228F7D901
:1019A000D6E02069002840F20000C4F2422000F096
:1019B000A88001210160FFF78DFC05463068800793
:1019C000D1D4FFF787FC401B0228F7D9C0E00020E4
:1019D000C4F242200021C0F88014FFF77BFC0546CA
:1019E000706A800718D5FFF775FC401B0228F7D9ED
:1019F000AEE040F20400C2F20000006844F6D351A9
:101A0000C1F26201A0FB0101480A019000BF0198E8
:101A1000411E00280191F9D12078400717D4E569CB
:101A20008DB1706800F00C00082846D1012D40D01F
:101A30007068216A00F480328A423AD1616A00F407
:101A40007010884235D1002002B0BDE8F081F06905
:101A50005FEAC00808D4F06940F08050F061F06996
:101A600000F080500090009847F20007C4F2000791
:101A70003868C0050FD4386840F480703860FFF7CC
:101A800029FC05463868C00505D4FFF723FC401B38
:101A90006428F7D95CE0E568306A1DB1052D41D0B6
:101AA000012D43D020F001003062306A20F00400A4
:101AB0003EE0012002B0BDE8F0810027C4F24227D9
:101AC00000203866FFF706FC022D05460ED100BF48
:101AD0003068800153D5FFF7FDFB401B02284FF013
:101AE0000300F5D902B0BDE8F08100BF3068800185
:101AF000A9D5FFF7EFFB401B02284FF00300F5D9F3
:101B0000F0E700210160FFF7E5FB0546306880073C
:101B10007FF530AFFFF7DEFB401B02284FF00300DC
:101B2000F4D9DFE740F004003062306A40F0010091
:101B30003062FFF7CFFB002D054641F2883712D007
:101B4000306A800712D4FFF7C5FB401BB842F7D9B3
:101B5000032002B0BDE8F081FFF7BCFB401BB84298
:101B60004FF00300BED8306A8007F5D4B8F1000FFB
:101B70003FF555AFF06920F08050F0614FE7206AE3
:101B8000B0F5803F05D17168A26821F4003111439E
:101B900071607168626A21F47411114308437060C6
:101BA00001203866FFF796FB044600BF30688001CD
:101BB0003FF549AFFFF78EFB001B02284FF00300F3
:101BC000F4D98FE746F60040C4F2000050F8210037
:101BD00080B2704790B246F60042C4F2000242F86A
:101BE00021007047002804BF0120704770B50446EB
:101BF000407C20B900202074204600F07BF80220B1
:101C000060742068416821F008014160FFF762FBC1
:101C1000054600BF20684068060707D4FFF75AFB57
:101C2000401BB0F57A7FF5D9002E51D5FFF752FB56
:101C3000054600BF206841688E0608D4FFF74AFBBE
:101C4000401BB0F57A7FF5D9002E06D440E04168FC
:101C500041F010014160002E3AD52268A068536817
:101C600046F62C41C4F2000123F00703536018B17B
:101C70004A6822F001024A600A6822F46072104346
:101C800008606068411C04D10120FFF7C9FB60B304
:101C9000013821688A6822F00F0242EA10428A6005
:101CA000CA6860F30F02CA60486820F010004860FC
:101CB000FFF710FB054600BF2068406886060BD47E
:101CC000FFF708FB401BB0F57A7FF5D9002E03D44F
:101CD00001200421617470BD40F201110020A4F8BC
:101CE0000D100121E073617470BD04210120617445
:101CF00070BD000070B590B040F23C4041F220044D
:101D0000C4F242200121C4F2020401602068C82507
:101D100040F00100206000BF206880070CD405203F
:101D2000013D01F051F92804F6D10820069045F252
:101D300051044FF4007505E0042045F250044FF4BF
:101D400080750690002001260D9006A80996FFF7E1
:101D50009DFD6846CDE90065FFF7EAFBFFF75AFBFA
:101D600040F26410C2F2000001212246FFF732FF68
:101D700010B070BD18B18369B3F5807F01D1012027
:101D80007047F0B581B00D4690F84110144600F14F
:101D9000080631B9002180F84010074600F020F80D
:101DA00038460168074608463146FEF70FFC38689A
:101DB000BA682946FEF74EFCD7E901023B6B214683
:101DC000FEF7E0FB3868B96850F8212042F00102C4
:101DD00040F82120012087F84100002001B0F0BD2B
:101DE000B0B584B041F21800C4F2020050F8041CEF
:101DF00041F2004441F4807140F8041C50F8041C86
:101E0000C4F2010401F480710091009901686D46EB
:101E100041F020010160016801F02001009100996A
:101E2000016841F0400101600068294600F040006F
:101E3000009000984CF20370009002200190012065
:101E40000290032003902046FFF742F94FF680707E
:101E5000009004F580602946FFF73AF904B0B0BD60
:101E6000411E0020B0EB116F1CBF012070474EF2E5
:101E70001002CEF2000251604EF62351CEF2000164
:101E8000F0230B70072190601160704770470000CD
:101E90007047000090F83C20012A4FF0020209D060
:101EA00080F83D20026851610121002280F83D1038
:101EB00080F83C2010467047006840F60041C4F2AC
:101EC0000001884200D0704740F20440C2F2000096
:101ED00090F90010002948BF7047C9B2402916D2B6
:101EE0004022027040F2E422C2F2000240F20641B7
:101EF0001268C2F20001002008805062106A20F0CF
:101F00000A001062106A40F002001062704710B5BB
:101F100040F2E42441F08001C2F200040170204646
:101F2000002100F0F1FA40F20641C2F200012268FD
:101F30000880106A20F00A001062106A106210BD5A
:101F400010B5044600680169890744BFC1685FEAAB
:101F500081713FD420680169490744BFC1685FEAC5
:101F6000417143D420680169090744BFC1685FEA31
:101F7000017148D420680169C90644BFC1685FEA9D
:101F8000C1614CD420680169C9071CBFC1685FEA00
:101F9000C17151D120680169090644BFC1685FEA77
:101FA000016150D420680169490644BFC1685FEAF5
:101FB00041614FD421680869800646BFC8685FEA5E
:101FC000806010BD6FF0200220460A61BDE810401D
:101FD000FFF75EBF6FF00201016101212177806987
:101FE00080073ED02046FFF767FF40E06FF0040116
:101FF000016102212177806910F4407F3AD02046A8
:10200000FFF75AFF3CE06FF00801016104212177DE
:10201000C069800737D02046FFF74EFF39E06FF0E8
:102020001001016108212177C06910F4407F33D08D
:102030002046FFF741FF35E06FF0010101612046C6
:1020400000F034FAA6E76FF0800101612046FFF747
:102050001DFFA7E76FF040010161204600F060FA24
:10206000A8E7204600F022F8204600F0ABF9002057
:1020700020776FE7204600F019F8204600F0A2F91B
:10208000002020776EE7204600F010F8204600F090
:1020900099F9002020776DE7204600F007F82046E8
:1020A00000F090F9002020776CE7000070470000F6
:1020B00090F83C30012B04BF022070474FEAB20277
:1020C0000123032A80F83C3000F216812DE9F0410B
:1020D000DFE802F002C64690036843F200461A6A3F
:1020E000C4F2010622F001021A621D6A1A465C68F7
:1020F00052F818CF8F68D1F800E025F00205B342FE
:1021000045EA070505D042F60047C4F20107BB4285
:1021100005D1CF6825F00C0527F004073D43B342F5
:1021200005D042F60046C4F20106B34205D1D1E91A
:10213000056724F4407434433C432CF0730747EAAA
:102140000E075C609F614F6809695F631D629F694C
:1021500047F008079F619F6927F004079F61C6E069
:10216000036843F200461A6AC4F2010622F4807240
:102170001A621D6A1A46D3F804C052F81CEF8F6821
:10218000D1F8008025F40075B34245EA072505D053
:1021900042F60047C4F20107BB4208D1CF6840F2C3
:1021A000FF443F0225F4406527EA04042543B34277
:1021B00005D042F60044C4F20104A34206D1D1E99D
:1021C00005462CF44057264347EA061C2EF07307B9
:1021D00047EA0807C3F804C0DF614F680969DF6395
:1021E0001D62DF6947F00807DF61DF6927F0040738
:1021F000DF617CE0036843F200471A6AC4F201071A
:1022000022F480521A621A46D3F820C05D6852F850
:102210001C4FD1F800E08E68BB4205D042F6004763
:10222000C4F20107BB4204D14F6925F4804545EA59
:1022300087152CF4005747EA063724F4E64646EAA9
:102240000E265D60DE614E6809691E641F62DF69EB
:1022500047F40067DF61DF6927F48067DF6145E0ED
:10226000036843F200481A6AC4F2010822F010021F
:102270001A621D6A1A465C6852F818CF8F68D1F846
:1022800000E025F02005434545EA071505D042F654
:102290000047C4F20107BB4207D1CF686FF0400688
:1022A00025F0C00506EA07163543434505D042F63A
:1022B0000046C4F20106B34206D1D1E9056724F411
:1022C00040643E4344EA86042CF4E64747EA0E277E
:1022D0005C609F614F6809699F631D629F6947F455
:1022E00000679F619F6927F480679F6109021368F7
:1022F00019431160BDE8F041002180F83C10002036
:1023000070470000002804BF0120704710B5044644
:1023100090F83D0028B9002084F83C00204600F0E9
:102320001FF8022084F83D002068211D00F008FD00
:10233000012084F8460084F83E0084F83F0084F8C9
:10234000400084F8410084F8420084F8430084F897
:10235000440084F8450084F83D00002010BD0000D2
:10236000016840F20040C4F20000814218BF70478B
:1023700080B584B041F21801C4F202010A6800F588
:10238000823042F004020A600A6802F004020092FD
:10239000009A4A6842F002024A60496801F002016C
:1023A00000910099402100910221019101210291A7
:1023B000032103916946FEF78BFE04B0BDE880401F
:1023C00070470000704700004122082908BF4022E2
:1023D000042908BF3F22002908BF3E22825C012A4F
:1023E0001CBF01207047022241B1082909D00429ED
:1023F00014BF80F8412080F83F2004E080F83E20A0
:1024000001E080F84020006801F01F010122036A0A
:1024100002FA01F123EA01020262026A0A4340F66B
:10242000FF31C4F200018842026217DD40F600422B
:10243000C4F20002904220D043F2004CC4F2010CDE
:10244000604505D042F60043C4F2010398421BD117
:10245000436C884243F4004343641BDCB0F1804F7B
:102460000BD040F20041C4F20001884205D040F692
:102470000001C4F20001884206D1816801F0070121
:10248000062904BF00207047016841F00101016086
:10249000002070479042F0D06045EED042F60041F7
:1024A000C4F201018842E8D0EEE70000006840F67F
:1024B0000041C4F20001884200D0704740F204405D
:1024C000C2F2000090F900104029B8BF7047C9B2AD
:1024D00001F03F023F2A14D140F2E421C2F2000190
:1024E00009680A6A22F00A020A620A6A0A62FF217D
:1024F000017040F20640C2F200004FF6FF71018009
:1025000070470131017070474FEAB101032984BF60
:1025100000207047006800EB8100406B70470000AE
:102520007047000070470000B0B501680A68CC68C9
:102530004B6902F02F05202D04F0200504D11DB1B8
:10254000BDE8B04000F06ABC5FEA027C1EBF03F049
:10255000010E04F4907313EB0E032CD1130619D55E
:1025600014F0800316D090F83920212A11D1826806
:10257000B2F5805F03D10269002A00F08E80026A02
:10258000531C036212784A60C28C013A1304C2845D
:1025900076D0B0BD5206FCD514F0400208BFB0BDE5
:1025A000CA6822F04002CA60202180F83910BDE8D4
:1025B000B04000F0A1B9D10718BF14F4807102D166
:1025C000510706D40CE0C16B41F00101C163510712
:1025D00006D5BEF1000F03D0C16B41F00201C1630B
:1025E000910706D5BEF1000F03D0C16B41F0040185
:1025F000C163BCF1000F06D55EEA050103D0C16BD3
:1026000041F00801C163C16B0029C2D0910604D515
:102610001DB1044600F002FC204601684A69C36B04
:1026200002F0400203F00803D21823D0CA6822F453
:102630009072CA604A6922F001024A61202280F841
:102640003A204A69520624D54A6922F040024A617A
:10265000416BF1B142F61162C0F600020446084631
:102660004A63FEF75BFB002893D0606B416BBDE8CB
:10267000B04008470446FFF755FF0020E063B0BDB7
:10268000C86820F08000C860C86840F04000C8609A
:10269000B0BDBDE8B040FFF745BF026A32F8023B6B
:1026A0006FF35F234B6002626EE70000002804BFF7
:1026B0000120704710B5044690F8390028B9002071
:1026C00084F83800204600F061F8242084F83900AE
:1026D0002068D4E90212C36823F40053C36003697D
:1026E00023F440531A430261D4E904231143C2681E
:1026F000194341F20C639A431143C1604169A269D5
:1027000021F44071114343F60002C4F201029042E9
:10271000416102D0FFF766F801E0FFF777F8D4E9EE
:102720000023192148439900B0FBF1F048F21F5CE7
:10273000C5F2EB1CA0FB0C314FF69C734909C0F6A7
:10274000FF7301FB0300322303EB0010A0FB0C031B
:10275000F02000EA531000EB0110C3F343110844CA
:1027600090601069202120F490401061506920F0A1
:102770002A005061D06840F40050D0600020E0632F
:1027800084F8391084F83A1010BD0000B0B584B058
:1027900040F60004C4F20104006804F54051884288
:1027A00001D004B0B0BD41F21800C4F202000168CB
:1027B0006D4641F004010160016801F004010091DF
:1027C0000099016841F004010160016801F0040111
:1027D00000910099016841F4804101600068294638
:1027E00000F48040009000984FF4007000900220A8
:1027F000019001200290032003902046FEF768FC20
:102800004FF4806000900020019020462946FEF79A
:102810005FFC2520FEF7B0FD252003210322FEF7F3
:10282000BDFD04B0B0BD0000034690F83A0020287A
:102830000AD100294FF0010018BF002A00D17047CB
:1028400093F83800012801D10220704799620020D6
:1028500022219A85DA85D86383F83A10196883F8BB
:102860003800CA6842F48072CA604A6942F00102C4
:102870004A61CA6842F02002CA607047006843F6A5
:102880000001C4F20101884218BF704740F21C5099
:10289000C2F20000B0F90010002921D440F27812F1
:1028A000C2F2000289B21378B1F5804F04D20D2B29
:1028B0000CD141F4804212E048F2000C0022CFF625
:1028C000FF7C0A2B08BF41EA0C0208E040F25442A8
:1028D000C2F2000253544A1CC62988BF002202805B
:1028E00040F2144040F27811C2F20000C2F200013E
:1028F0000122FFF799BF00007047000080B540F249
:102900002050C2F2000000F019F841F60000C4F2B5
:10291000010020210022BDE88040FEF7D5BC000068
:1029200001684A68920558BF70478A68D20700D18B
:1029300070476FF001028A60FFF7E0BF0168C2686C
:1029400000200A6070470000FEE70000FEE700007C
:102950007047000070470000B0B582B040F26415C7
:10296000C2F2000528684068C00705D007F09CFC4B
:1029700028686FF00101416028684168890713D514
:102980006FF0020140F2D2024160C2F2000294787C
:102990009088137892F801C09179D2790134E4B229
:1029A000CDE900C407F00CFE28686FF00401416017
:1029B00041688906FCD502B0B0BD00007047000038
:1029C000FEF78EBC7047000040F27431C2F2000185
:1029D000096848637047000070B584B040F6FE7027
:1029E000472100F099FB41F21800C4F2020001688F
:1029F00041F6000441F0400101600168C4F20104A5
:102A000001F040010091009901686D4641F0080114
:102A100001600168202601F0080100910099016819
:102A200041F0400101600068294600F0400000903C
:102A300000980120CDE90100032003902046009674
:102A4000FEF746FB0096A4F5406630462946FEF7A1
:102A50003FFB4020009020462946FEF739FB2046E8
:102A600020210022FEF730FC304620210022FEF714
:102A70002BFC04B070BD000010B540F2C414C2F2CB
:102A8000000420680069C00708BF10BD41F60000BF
:102A9000C4F201002021FEF70FFC20686FF0010155
:102AA000016110BD40F20C20C2F200000068006914
:102AB0007047000040F2E420C2F20000FFF740BA85
:102AC00010B540F25424C2F2000420686FF00101F6
:102AD000016141F60000C4F201002021FEF7ECFB89
:102AE00003A0FDF7ABFB2046BDE81040FFF728BA76
:102AF00054494D3620696E74657272757074210D7B
:102B00000000000010B540F29C24C2F200042068CE
:102B10006FF00101016140F60040C4F20100202184
:102B2000FEF7CAFB03A0FDF789FB2046BDE8104075
:102B3000FFF706BA54494D3720696E746572727595
:102B40007074210D000000002DE9F04381B040F2C7
:102B50001246C2F20006307843F21045C4F2010575
:102B600078B140F21040C2F200000021018040F232
:102B7000BC302960C2F200000068416201B0BDE8CB
:102B8000F08340F2BC30C2F2000000680169C9075E
:102B90001AD06FF0010101610169890714D440F274
:102BA0001042C2F20002B2F9007040F2D006BBB28D
:102BB000C2F200060021002B317079D04FF6FF766B
:102BC000B34277D100237BE040F2D007C2F2000786
:102BD00039780069002946D0800748D540F2BC38D2
:102BE000C2F2000840460421FFF78EFC40F20C4977
:102BF0000130C2F20009C9F800004046002100245B
:102C0000FFF782FCD9F80020431C40F20841C2F2D1
:102C100000019A420B602FD201233370AB6940F25E
:102C20001046C2F200061C04338004D10132023087
:102C3000C9F8002008600020387055F8101C21F0F9
:102C4000010145F8101CD8F80010CA6822F00202F1
:102C5000CA60CA6822F00402CA60CA6822F001028F
:102C6000CA60286003E0800744BF0120387000205C
:102C7000286001B0BDE8F08307F01CFD40F2104071
:102C8000D8F80010C2F20000347004808C624C62EC
:102C9000C86840F00200C860C86840F00100C86021
:102CA000086840F0010008602C6007F005FDDEE7D1
:102CB000012305E04FF0FF33B7F1FF3FC8BF7B00B2
:102CC00013809AB282624162296001B0BDE8F0834C
:102CD00010B540F22C34C2F2000420680069C0072D
:102CE00008BF10BD40F26011C2F200010868B0F5E3
:102CF000807F04D3A0F580724FF4807002E0E0B1D1
:102D000080B200220A6043F20041C4F2010158B1CE
:102D10000138086320460121FFF7BCF820680168EC
:102D200041F00101016003E0086820F00100086043
:102D300020686FF00101016110BD0020E3E7000091
:102D400010B540F6FF320368C4F2000240F6004EB0
:102D500043F2004C9042C4F2000EC4F2010C20DC9D
:102D6000B0F1804F27D040F20044C4F20004A042EA
:102D700021D040F60004C4F20004A0421BD09042CF
:102D80001FDCB0F1804F26D040F20042C4F20002B6
:102D9000904220D040F60002C4F2000290421AD0C5
:102DA0001DE0704507D0604505D042F60044C4F2EE
:102DB0000104A042E3D14C6823F070032343904206
:102DC000DFDD704507D0604505D042F60042C4F211
:102DD0000102904203D1CA6823F4407313434C6943
:102DE00023F08002D1F800E08B6822436045026046
:102DF000C362C0F828E005D042F60042C4F20102E6
:102E0000904201D1096901630121416110BD0000B7
:102E1000406A0021C185C184FFF784BB90F83A1055
:102E2000222918BF70478268B2F5805F01D101691D
:102E300049B3816AB2F5805F07D00AB9026922B14D
:102E40000268526802F07F0201E0026852680A706C
:102E5000816A01318162C18D01390A04C18500D0C6
:102E600070470168CA6822F02002CA60CA6822F46A
:102E70008072CA604A6922F001024A61202180F80A
:102E80003A10FFF7FBBC0168826A49686FF35F2163
:102E900022F8021B8262DEE780B540F21440C2F2E3
:102EA0000000FFF741FB40F27800C2F20000016829
:102EB0000131016080BD0000FEE7000040F22050BB
:102EC000C2F20000FFF72CBD704700002DE9F04F63
:102ED00083B08B4629B340F2E406054600274FF045
:102EE00001094FF0070AC2F20006E846002400BFBD
:102EF000304641468DE82006FDF734FC3046FDF7AC
:102F000063FE30460A21FDF7A5FD3046FDF7B2FC11
:102F100080B20444052000F057F801375F45E7D33D
:102F200000E00024B4FBFBF003B0BDE8F08F00002C
:102F300010B540F2E40442F20040C2F20004C4F2D0
:102F400001000021C4E90001012020614FF460204C
:102F5000C4E906102046A16021732175FDF78EFC9F
:102F60002046BDE81040FDF797BB000010B584B0C7
:102F700041F21800C4F20200016840F6004441F03A
:102F8000080101600068C4F2010400F0080000902C
:102F900000984FF4807000900120CDE901000320DB
:102FA000039069462046FEF793F820464FF480715F
:102FB0000022FEF789F904B010BD000040F25C1158
:102FC000C2F200010860704780B54EF2180140F26D
:102FD0005C12CEF20001C2F2000251F804CC126879
:102FE000002350434FF47A7200FB02FE086800BFD2
:102FF0000A688242FCD003449B1A824228BF634481
:103000007345104628BF80BDF2E7000080B54EF240
:10301000180140F25C12CEF20001C2F2000251F837
:1030200004CC1268002302FB00FE08680A68824292
:10303000FCD003449B1A824228BF63447345104668
:1030400028BF80BDF2E70000F0B585B041F218005E
:10305000C4F20200016841F6000441F04001016041
:103060000168002601F04001019101990168C4F254
:10307000010441F040010160016801AD01F040012F
:10308000019101990168C1F2210641F0040101603A
:103090000068012700F004000190019810200190C1
:1030A0002046294602960397FEF712F8082001A948
:1030B000C1C120462946FEF70BF8A6F58010029004
:1030C00002200390A4F5805029460197FEF700F8EE
:1030D0000A2000210222FEF761F90A20FEF74CF9CE
:1030E000092001210222FEF759F90920FEF744F9CF
:1030F000062002210222FEF751F90620FEF73CF9D4
:1031000005B0F0BD43F60001C4F201010A685206A1
:10311000FCD5C2B24A60704770B588B0044640F230
:10312000743540F20040C2F20005C4F200000026EF
:1031300085E8430028460796CDE90566CDE9036694
:10314000CDE90166EC60FFF7DDF8602001906008D2
:10315000CDE9020601A928460022FEF7A9FF28466C
:103160000021FFF731F908B070BD00002DE9F041F2
:1031700084B041F21800C4F20200016841F6000474
:1031800041F0400101600168C4F2010401F0400116
:103190000091009901686D4641F0400101600168AD
:1031A0004FF0000801F040010091009901680127EB
:1031B00041F0040101600068032600F00400009063
:1031C00000981020009020462946CDF804800297F0
:1031D0000396FDF77DFF0820CDE90008204629462B
:1031E000CDE90276FDF774FF0220CDE90206A4F5D1
:1031F00080502946CDE90078FDF76AFF04B0BDE8AC
:10320000F0810000F0B581B040F23457C2F20007FF
:1032100004463888798840F2FE7501FB00F60020EC
:103220000021C6F6004506F087FB3889288016B1D4
:10323000013E6C80FCD101B0F0BD0000F0B581B062
:10324000CF20ADF80200BDF8020040F60004ADF852
:103250000200BDF80200C6F6004424F8020C00206B
:10326000ADF80200BDF80210C122ADF80210BDF8A1
:1032700002104FF0100C2180ADF80220BDF80210B2
:103280004FF0010EADF80210BDF802102A27218080
:103290003021ADF80210BDF80230ADF80230BDF8B3
:1032A00002302380ED23ADF80230BDF80230ADF8D6
:1032B0000230BDF8023024F8023C6423ADF802303D
:1032C000BDF80230ADF80230BDF802302380032390
:1032D000ADF80230BDF80230ADF80230BDF8023072
:1032E00023801223ADF80230BDF80230ADF8023071
:1032F000BDF8023023808123ADF80230BDF80230E2
:10330000ADF80230BDF802302380E823ADF802307A
:10331000BDF80230ADF80230BDF8023024F8023CAE
:103320008523ADF80230BDF80230ADF80230BDF8AB
:1033300002302380ADF802C0BDF80230ADF8023093
:10334000BDF8023023807A23ADF80230BDF8023098
:10335000ADF80230BDF802302380CB23ADF8023047
:10336000BDF80230ADF80230BDF8023024F8023C5E
:103370003923ADF80230BDF80230ADF80230BDF8A7
:10338000023023802C23ADF80230BDF80230ADF8B6
:103390000230BDF802302380ADF80200BDF80230E3
:1033A000ADF80230BDF8023023803423ADF802308E
:1033B000BDF80230ADF80230BDF8023023800223A0
:1033C000ADF80230BDF80230ADF80230BDF8023081
:1033D0002380F723ADF80230BDF80230ADF802309B
:1033E000BDF8023024F8023C2023ADF80230BDF8CD
:1033F0000230ADF80230BDF802302380EA23ADF888
:103400000230BDF80230ADF80230BDF8023024F8C9
:10341000023CADF80200BDF80230ADF80230BDF854
:1034200002302380ADF80200BDF80230ADF8023062
:10343000BDF802302380C023ADF80230BDF8023061
:10344000ADF80230BDF8023024F8023C1B23ADF881
:103450000230BDF80230ADF80230BDF802302380F2
:10346000ADF80220BDF80220ADF80220BDF8022020
:1034700024F8022CADF802E0BDF80220ADF80220DD
:10348000BDF802202280C522ADF80220BDF802203E
:10349000ADF80220BDF8022024F8022CADF802108D
:1034A000BDF80220ADF80220BDF802202280ADF860
:1034B0000210BDF802100A22ADF80210BDF8021089
:1034C0002180C721ADF80210BDF80210ADF802103E
:1034D000BDF8021024F8021CB721ADF80210BDF8A7
:1034E0000210ADF80210BDF8021021803621ADF8AF
:1034F0000210BDF80210ADF80210BDF8021024F859
:10350000021C4821ADF80210BDF80210ADF80210FF
:10351000BDF8021021803A21ADF80210BDF802106A
:10352000ADF80210BDF8021024F8021C5521ADF8C8
:103530000210BDF80210ADF80210BDF80210218093
:10354000B121ADF80210BDF80210ADF80210BDF8BF
:10355000021024F8021CADF80200BDF80210ADF80C
:103560000210BDF8021021801A21ADF80210BDF83A
:103570000210ADF80210BDF802102180B621ADF89E
:103580000210BDF80210ADF80210BDF8021024F8C8
:10359000021CADF80220BDF80210ADF80210BDF813
:1035A00002102180A221ADF80210BDF80210ADF882
:1035B0000210BDF802102180F221ADF80210BDF812
:1035C0000210ADF80210BDF8021024F8021CADF88C
:1035D0000200BDF80210ADF80210BDF80210218003
:1035E0002621ADF80210BDF80210ADF80210BDF8AA
:1035F000021024F8021CADF802E0BDF80210ADF88C
:103600000210BDF802102180E021ADF80210BDF8D3
:103610000210ADF80210BDF8021024F8021C0F21B0
:10362000ADF80210BDF80230ADF80230BDF802303E
:103630002380ADF80270BDF80230ADF80230BDF85D
:10364000023023802823ADF80230BDF80230ADF8F7
:103650000230BDF8023023800823ADF80230BDF8F7
:103660000250ADF80250BDF8025025800E25ADF88D
:103670000250BDF80250ADF80250BDF8025025804E
:10368000ADF80230BDF802302B25ADF80230BDF8A0
:10369000023023805423ADF80230BDF80230ADF87B
:1036A0000230BDF802302380A923ADF80230BDF806
:1036B0000230ADF80230BDF8023023804323ADF86C
:1036C0000230BDF80230ADF80230BDF80230238080
:1036D000ADF80220BDF80220ADF80220BDF80220AE
:1036E0002280ADF80210BDF80220ADF80220BDF82E
:1036F00002202280ADF80200BDF80220ADF80220C1
:10370000BDF802202280ADF80200BDF80220ADF81D
:103710000220BDF802202280ADF80200BDF8022090
:10372000ADF80220BDF802202280ADF80200BDF8FD
:103730000220ADF80220BDF802202280E122ADF87F
:103740000220BDF80220ADF80220BDF8022024F8C6
:10375000022CADF80200BDF80220ADF80220BDF841
:10376000022022801522ADF80220BDF80220ADF81B
:103770000220BDF8022022801722ADF80220BDF8F9
:103780000220ADF80220BDF8022022800722ADF809
:103790000220BDF80220ADF80220BDF802202280F0
:1037A0001122ADF80220BDF80230ADF80230BDF8AC
:1037B000023023800623ADF80230BDF80230ADF8A8
:1037C0000230BDF802302380ADF80250BDF802305F
:1037D000ADF80230BDF8023023805623ADF8023038
:1037E000BDF80230ADF80230BDF8023023803C2332
:1037F000ADF80230BDF80230ADF80230BDF802304D
:1038000023800523ADF80230BDF80230ADF8023058
:10381000BDF802302380ADF802C0BDF80230ADF82B
:103820000230BDF802302380ADF80210BDF802303E
:10383000ADF80230BDF8023023803F23ADF80230EE
:10384000BDF80260ADF80260BDF802602680ADF8F8
:103850000230BDF80260ADF80260BDF8026026805B
:10386000ADF80210BDF80210ADF80210BDF802105C
:103870002180ADF80250BDF80210ADF80210BDF87D
:10388000021024F8021CADF80200BDF80210ADF8D9
:103890000210BDF802102180ADF80200BDF8021040
:1038A000ADF80210BDF802102180ADF802E0BDF8BD
:1038B0000210ADF80210BDF802102180ADF8023000
:1038C000BDF80210ADF80210BDF802102180ADF86D
:1038D0000270BDF80210ADF80210BDF8021024F815
:1038E000021CADF80200BDF80210ADF80210BDF8E0
:1038F00002102180ADF80200BDF80210ADF80210F0
:10390000BDF802102180ADF80200BDF80200ADF84C
:103910000200BDF802002080EF20ADF80200BDF8E3
:103920000200ADF80200BDF802002080ADF80220D0
:10393000BDF80200ADF80200BDF8020024F8020C48
:103940007820FFF741FB2920ADF80200BDF8020006
:10395000ADF80200BDF8020024F8020C01B0F0BD81
:103960002DE9F04F81B0FF23ADF80230BDF8020021
:1039700040F60004ADF80200BDF80200C6F60044AF
:1039800024F8020CADF80230BDF802004FF0060E2C
:10399000ADF80200BDF802004FF00F0B2080982018
:1039A000ADF80200BDF802004FF00B0AADF80200BE
:1039B000BDF802004FF010092080ADF802E0BDF81C
:1039C00002004025ADF80200BDF802004FF00A0CDD
:1039D0002080BC20ADF80200BDF80200ADF8020066
:1039E000BDF8020024F8020C0120ADF80200BDF879
:1039F0000210ADF80210BDF802102180ADF802B03F
:103A0000BDF80210ADF80210BDF80210218061214E
:103A1000ADF80210BDF80210ADF80210BDF80210AA
:103A20002180ADF80230BDF80210ADF80210BDF8EB
:103A300002102180ADF80200BDF80210ADF80210AE
:103A4000BDF802102180ADF80200BDF80210ADF8FB
:103A50000210BDF802102180ADF802A0BDF80210DE
:103A6000ADF80210BDF802102180ADF80290BDF84B
:103A70000210ADF80210BDF8021021803721ADF818
:103A80000210BDF80210ADF80210BDF8021021803E
:103A90006321ADF80210BDF80210ADF80210BDF8B8
:103AA00002102180ADF80230BDF80210ADF802100E
:103AB000BDF802102180ADF80230BDF80210ADF85B
:103AC0000210BDF802102180ADF80200BDF802100E
:103AD000ADF80210BDF802102180ADF80200BDF86B
:103AE0000210ADF80210BDF8021021800021ADF8DF
:103AF0000210BDF80220ADF80220BDF8022022809D
:103B0000ADF80210BDF80220ADF80220BDF8022089
:103B10002280ADF80230BDF80220ADF80220BDF8D9
:103B2000022022805222ADF80220BDF80220ADF81A
:103B30000220BDF802202280ADF80200BDF802206C
:103B4000ADF80220BDF802202280ADF80210BDF8C9
:103B50000220ADF80220BDF802202280ADF802500C
:103B6000BDF80220ADF80220BDF802202280BD225F
:103B7000ADF80220BDF80220ADF80220BDF8022009
:103B800024F8022CADF80200BDF80220ADF80220A6
:103B9000BDF8022022802322ADF80220BDF80230B9
:103BA000ADF80230BDF8023023804523ADF8023075
:103BB000BDF80260ADF80260BDF80260268067269D
:103BC000ADF80260BDF80270ADF80270BDF8027089
:103BD0002780ADF80200BDF80270ADF80270BDF8A4
:103BE00002702780ADF80220BDF80220ADF8022057
:103BF000BDF802202280ADF80230BDF80220ADF8F9
:103C00000220BDF802202280ADF80260BDF802203B
:103C10001326ADF80220BDF802202280BE22ADF8A6
:103C20000220BDF80220ADF80220BDF8022024F8E1
:103C3000022CADF80210BDF80220ADF80220BDF84C
:103C400002202280ADF80200BDF80220ADF802206B
:103C5000BDF802202280AB22ADF80220BDF8022080
:103C6000ADF80220BDF8022022806022ADF80220CB
:103C7000BDF80220ADF80220BDF8022022802222E9
:103C8000ADF80220BDF80230ADF80230BDF80230C8
:103C90002380ADF80220BDF80230ADF80230BDF847
:103CA00002302380ADF80220BDF80230ADF80230BA
:103CB000BDF802302380ADF80220BDF80230ADF827
:103CC0000230BDF802302380ADF80220BDF802209A
:103CD0002023ADF80220BDF802202280C722ADF8D3
:103CE0000220BDF80220ADF80220BDF8022024F821
:103CF000022C3622ADF80220BDF80220ADF80220D9
:103D0000BDF802202280ED22ADF80220BDF802208D
:103D1000ADF80220BDF8022024F8022C7F22ADF875
:103D20000220BDF80220ADF80220BDF8022022805A
:103D3000ADF802B0BDF80220ADF80220BDF80220B7
:103D40002280C022ADF80220BDF80220ADF802208A
:103D5000BDF8022024F8022CADF802B0BDF8022014
:103D6000ADF80220BDF802202280ADF802A0BDF817
:103D70000220ADF80220BDF802202280ADF802C07A
:103D8000BDF80220ADF80220BDF802202280FC22FE
:103D9000ADF80220BDF80220ADF80220BDF80220E7
:103DA00024F8022C0822ADF80220BDF80220ADF85C
:103DB0000220BDF802202280DF22ADF80220BDF8EB
:103DC0000220ADF80220BDF8022024F8022CADF844
:103DD0000210BDF80220ADF80220BDF802202280BA
:103DE000ADF80210BDF80220ADF80220BDF80220A7
:103DF0002280ADF80210BDF80220ADF80220BDF817
:103E000002202280ADF80210BDF80220ADF8022099
:103E1000BDF802202280ADF80210BDF80220ADF8F6
:103E20000220BDF802202280ADF80230BDF8022049
:103E3000ADF80220BDF802202280F322ADF8022066
:103E4000BDF80220ADF80220BDF8022024F8022CB3
:103E50007422ADF80220BDF80220ADF80220BDF8B2
:103E600002202280B422ADF80220BDF80220ADF875
:103E70000220BDF8022024F8022CADF80210BDF893
:103E80000220ADF80220BDF802202280ADF8021019
:103E9000BDF80220ADF80220BDF802202280ADF866
:103EA0000210BDF80220ADF80220BDF802202280E9
:103EB000F722ADF80220BDF80220ADF80220BDF8CF
:103EC000022024F8022C8222ADF80220BDF8022044
:103ED000ADF80220BDF802202280B122ADF8022008
:103EE000BDF80220ADF80220BDF8022024F8022C13
:103EF000ADF80210BDF80220ADF80220BDF8022096
:103F00002280ADF80260BDF80220ADF80220BDF8B5
:103F100002202280ADF80260BDF80220ADF8022038
:103F2000BDF802202280F222ADF80220BDF8022066
:103F3000ADF80220BDF8022024F8022C8022ADF852
:103F40000220BDF80220ADF80220BDF80220228038
:103F50000422ADF80220BDF80220ADF80220BDF821
:103F600002202280ADF80250BDF80220ADF80220F8
:103F7000BDF8022022802822ADF80220BDF80220E0
:103F8000ADF80220BDF802202280C122ADF8022047
:103F9000BDF80220ADF80220BDF8022024F8022C62
:103FA0001722ADF80220BDF80220ADF80220BDF8BE
:103FB000022022808822ADF80220BDF80250ADF820
:103FC0000250BDF802502580ADF80220BDF8022055
:103FD0000E25ADF80220BDF802202280ADF8023097
:103FE000BDF80220ADF80220BDF802202280E022B8
:103FF000ADF80220BDF80220ADF80220BDF8022085
:1040000024F8022CADF80210BDF80220ADF8022011
:10401000BDF802202280ADF802C0BDF80220ADF844
:104020000220BDF8022022801222ADF80220BDF845
:104030000220ADF80220BDF802202280ADF80290E7
:10404000BDF80220ADF80220BDF802202280ADF8B4
:104050000250BDF80220ADF80220BDF802202280F7
:10406000ADF80230BDF80220ADF80220BDF8022004
:104070002280CC22ADF80220BDF80220ADF802204B
:10408000BDF8022022800722ADF80220BDF80220F0
:10409000ADF80220BDF802202280ADF802E0BDF8A4
:1040A0000220ADF80220BDF802202280ADF802A067
:1040B000BDF80220ADF80220BDF802202280ADF844
:1040C0000250BDF80220ADF80220BDF80220228087
:1040D000ADF802B0BDF80220ADF80220BDF8022014
:1040E00022800D22ADF80220BDF80230ADF802307A
:1040F000BDF8023023801523ADF80230BDF80280F0
:10410000ADF80280BDF802702780ADF80290BDF8CE
:104110000270ADF80270BDF802702780ADF8021091
:10412000BDF80270ADF80270BDF802702780E1277B
:10413000ADF80270BDF80270ADF80270BDF8027003
:1041400024F8027CADF80210BDF80270ADF80270E0
:10415000BDF802702780ADF802A0BDF80270ADF87E
:104160000270BDF802702780ADF80260BDF80260F1
:10417000ADF80260BDF802602680ADF80220BDF8FF
:104180000220ADF80220BDF802202280ADF80250D6
:10419000BDF80220ADF80220BDF8022022801B22CB
:1041A000ADF80220BDF80220ADF80220BDF80220D3
:1041B00022807122ADF80220BDF80220ADF8022065
:1041C000BDF802202280ADF802E0BDF80220ADF873
:1041D0000220BDF802202280ADF802E0BDF80220E6
:1041E000ADF80220BDF802202280ADF802C0BDF873
:1041F0000220ADF80220BDF802202280ADF802B006
:10420000BDF80220ADF80220BDF802202280ADF8F2
:104210000250BDF80220ADF80220BDF80220228035
:10422000ADF802B0BDF80220ADF80220BDF80220C2
:104230002280ADF80230BDF80220ADF80220BDF8B2
:10424000022022800C22ADF80220BDF80220ADF839
:104250000220BDF802202280ADF80210BDF8022035
:10426000ADF80220BDF8022022802A22ADF80220FB
:10427000BDF80220ADF80220BDF8022024F8022C7F
:10428000ADF80210BDF80220ADF80220BDF8022002
:104290002280ADF80210BDF80220ADF80220BDF872
:1042A00002202280ADF80200BDF80200ADF8020045
:1042B000BDF802002080DF20ADF80200BDF802004A
:1042C000ADF80200BDF8020020802B20ADF80200FE
:1042D000BDF80200ADF80200BDF8020024F8020C9F
:1042E000ADF80210BDF80200ADF80200BDF8020002
:1042F0002080ADF80210BDF80200ADF80200BDF854
:10430000020020800320ADF80200BDF80200ADF8E5
:104310000200BDF8020020801F20ADF80200BDF8A9
:104320000200ADF80200BDF8020020803A20ADF88E
:104330000200BDF80200ADF80200BDF8020024F84A
:10434000020C5520ADF80200BDF80200ADF80200E5
:10435000BDF8020020803620ADF80200BDF8020052
:10436000ADF80200BDF8020024F8020CADF802100E
:10437000BDF80200ADF80200BDF802002080112057
:10438000ADF80200BDF80200ADF80200BDF8020071
:1043900024F8020C7820FEF717FE2920ADF8020061
:1043A000BDF80200ADF80200BDF8020024F8020CCE
:1043B0001420FEF709FE2C20ADF80200BDF8020023
:1043C000ADF80200BDF8020024F8020C01B0BDE80F
:1043D000F08F00002DE9F04F81B0ED20ADF8020024
:1043E000BDF8020040F60004ADF80200BDF802007E
:1043F000C6F6004424F8020C0120ADF80200BDF816
:1044000002004FF02109ADF80200BDF802000122C0
:104410002080FE20ADF80200BDF802000025ADF8B6
:104420000200BDF802008B262080EE20ADF80200CD
:10443000BDF802000223ADF80200BDF802004FF003
:10444000200A24F8020CDE20ADF80200BDF80200BC
:104450004FF03C08ADF80200BDF802004FF0360EF8
:104460002080ADF80290BDF80210C420ADF8021013
:10447000BDF802104FF0320B2180F121ADF802108F
:10448000BDF802104FF02C0CADF80210BDF8021070
:1044900024F8021CADF80220BDF80210ADF802109D
:1044A000BDF802102180DF21ADF80210BDF8021026
:1044B000ADF80210BDF8021024F8021C1021ADF86E
:1044C0000210BDF80210ADF80210BDF802102180F4
:1044D000ADF80200BDF80210C620ADF80210BDF81C
:1044E000021024F8021C8F21ADF80210BDF8021052
:1044F000ADF80210BDF802102180ADF80200BDF841
:104500000210E220ADF80210BDF8021024F8021CDF
:10451000ADF80250BDF80210ADF80210BDF802105F
:104520002180ADF80200BDF80210ADF80210BDF810
:1045300002102180ADF80200BDF80210ADF80210A3
:10454000BDF802102180ADF80200BDF802105D2018
:10455000ADF80210BDF802102180BF21ADF80210A5
:10456000BDF80210ADF80210BDF8021024F8021CCC
:10457000AA21ADF80210BDF80210ADF80210BDF886
:1045800002102180B021ADF80210BDF80210ADF884
:104590000210BDF8021024F8021C0D21ADF8021023
:1045A000BDF80220ADF80220BDF802202280ADF84F
:1045B0000250BDF80220ADF80220BDF80220228092
:1045C000ADF80210BDF80210ADF80210BDF80210EF
:1045D0002180ADF80250BDF80210ADF80210BDF810
:1045E000021021801121ADF80210BDF80210ADF8C3
:1045F0000210BDF802102180ADF80250BDF8021083
:10460000ADF80210BDF8021021801921ADF802109A
:10461000BDF80210ADF80210BDF802102180ADF80F
:104620000250BDF80210ADF80210BDF80210218052
:10463000ADF80290BDF80210ADF80210BDF80210FE
:104640002180ADF80250BDF80210ADF80210BDF89F
:10465000021021802D21ADF80210BDF80210ADF836
:104660000210BDF802102180ADF80250BDF8021012
:10467000ADF80210BDF8021021803D21ADF8021006
:10468000BDF80210ADF80210BDF802102180ADF89F
:104690000250BDF80210ADF80210BDF802102180E2
:1046A000ADF80200BDF80210ADF80210BDF802101E
:1046B0002180ADF80250BDF80210ADF80210BDF82F
:1046C00002102180ADF80200BDF802108B20ADF879
:1046D0000210BDF802102180ADF80250BDF80210A2
:1046E000ADF80210BDF802102180B121ADF8021022
:1046F000BDF80210ADF80210BDF8021024F8021C3B
:104700008021ADF80210BDF80210ADF80210BDF81E
:1047100002102180ADF80250BDF80210ADF8021071
:10472000BDF802102180ADF80200BDF80210022091
:10473000ADF80210BDF802102180ADF80250BDF8AE
:104740000210ADF80210BDF8021021809621ADF8DC
:104750000210BDF80220ADF80220BDF80220228030
:10476000ADF80250BDF80220ADF80220BDF80220DD
:104770002280B222ADF80220BDF80220ADF802205E
:10478000BDF8022024F8022CADF80250BDF802203A
:10479000ADF80220BDF802202280ADF80250BDF82D
:1047A0000220ADF80220BDF802202280ADF8020000
:1047B000BDF80220B320ADF80220BDF8022022800F
:1047C000ADF80250BDF80220ADF80220BDF802207D
:1047D00022800322ADF80220BDF80270ADF802700D
:1047E000BDF802702780ADF80250BDF80270ADF838
:1047F0000270BDF802702780ADF80200BDF80270AB
:10480000B720ADF80270BDF8027024F8027CADF854
:104810000250BDF80270ADF80270BDF8027027803A
:10482000ADF80250BDF80270ADF80270BDF802702C
:104830002780ADF80250BDF80270ADF80270BDF8E7
:1048400002702780ADF80250BDF80270ADF802701A
:10485000BDF802702780ADF80250BDF80270ADF8C7
:104860000270BDF802702780ADF80250BDF80270EA
:10487000ADF80270BDF802702780ADF80250BDF8A7
:104880000270ADF80270BDF802702780ADF80250DA
:10489000BDF80270ADF80270BDF802702780ADF867
:1048A0000250BDF80270ADF80270BDF802702780AA
:1048B000ADF80250BDF80270ADF80270BDF802709C
:1048C0002780ADF80250BDF80270ADF80270BDF857
:1048D00002702780ADF80250BDF80270ADF802708A
:1048E000BDF802702780ADF80250BDF80270ADF837
:1048F0000270BDF802702780ADF80250BDF802705A
:10490000ADF80270BDF802702780ADF80250BDF816
:104910000270ADF80270BDF802702780ADF8025049
:10492000BDF80270ADF80270BDF802702780ADF8D6
:104930000250BDF80270ADF80270BDF80270278019
:10494000ADF80250BDF80270ADF80270BDF802700B
:104950002780ADF80250BDF80270ADF80270BDF8C6
:1049600002702780ADF80250BDF80270ADF80270F9
:10497000BDF802702780ADF80250BDF80270ADF8A6
:104980000270BDF802702780ADF80250BDF80270C9
:10499000ADF80270BDF802702780ADF80250BDF886
:1049A0000270ADF80270BDF802702780ADF80250B9
:1049B000BDF80270ADF80270BDF802702780B42710
:1049C000ADF80270BDF80270ADF80270BDF802706B
:1049D00024F8027CADF80260BDF80270ADF80270F8
:1049E000BDF802702780ADF80250BDF80270ADF836
:1049F0000270BDF802702780ADF80210BDF80210F9
:104A00000427ADF80210BDF802102180ADF8025065
:104A1000BDF80210ADF80210BDF802102180A121EE
:104A2000ADF80210BDF80210ADF80210BDF802108A
:104A30002180ADF80250BDF80210ADF80210BDF8AB
:104A400002102180B521ADF80210BDF80210ADF8BA
:104A50000210BDF8021024F8021CADF80230BDF8B7
:104A60000210FF23ADF80210BDF802102180ADF84E
:104A70000250BDF80210ADF80210BDF802102180FE
:104A8000ADF80220BDF80210ADF80210BDF802101A
:104A90002180ADF80250BDF80210ADF80210BDF84B
:104AA00002102180ADF80270BDF80210ADF80210BE
:104AB000BDF802102180ADF80250BDF80210ADF82B
:104AC0000210BDF802102180B621ADF80210BDF829
:104AD0000210ADF80210BDF8021024F8021CADF867
:104AE0000250BDF80210ADF80210BDF8021021808E
:104AF000ADF80250BDF80210ADF80210BDF802107A
:104B00002180ADF80200BDF802106420ADF802105B
:104B1000BDF8021024F8021CADF80250BDF80210D6
:104B2000ADF80210BDF802102180ADF80250BDF8BA
:104B30000210ADF80210BDF8021021803F21ADF83F
:104B40000210BDF80210ADF80210BDF8021021806D
:104B5000ADF80250BDF80210ADF80210BDF8021019
:104B600021805E21ADF80210BDF80210ADF80210F0
:104B7000BDF802102180ADF80250BDF80210ADF86A
:104B80000210BDF802102180ADF80200BDF802103D
:104B9000DC20ADF80210BDF802102180ADF8025003
:104BA000BDF80210ADF80210BDF8021021808C2172
:104BB000ADF80210BDF80210ADF80210BDF80210F9
:104BC0002180ADF80250BDF80210ADF80210BDF81A
:104BD00002102180AC21ADF80210BDF80210ADF832
:104BE0000210BDF802102180ADF80250BDF802108D
:104BF000ADF80210BDF802102180ADF80200BDF83A
:104C00000210ADF80210BDF802102180ADF802507C
:104C1000BDF80210ADF80210BDF80210218070211D
:104C2000ADF80210BDF80210ADF80210BDF8021088
:104C30002180ADF80250BDF80210ADF80210BDF8A9
:104C4000021021809021ADF80210BDF80210ADF8DD
:104C50000210BDF802102180ADF80250BDF802101C
:104C6000ADF80210BDF802102180EB21ADF8021062
:104C7000BDF80210ADF80210BDF802102180ADF8A9
:104C80000250BDF80210ADF80210BDF802102180EC
:104C9000ADF80200BDF80210C220ADF80210BDF858
:104CA00002102180ADF80250BDF80210ADF80210DC
:104CB000BDF802102180B821ADF80210BDF8021035
:104CC000ADF80210BDF8021024F8021CADF8025035
:104CD000BDF80210ADF80210BDF802102180ADF849
:104CE0000250BDF80210ADF80210BDF8021021808C
:104CF000ADF80250BDF80210ADF80210BDF8021078
:104D00002180ADF80250BDF80210ADF80210BDF8D8
:104D100002102180ADF80250BDF80210ADF802106B
:104D2000BDF802102180ADF80250BDF80210ADF8B8
:104D30000210BDF802102180ADF80250BDF802103B
:104D4000ADF80210BDF802102180ADF80250BDF898
:104D50000210ADF80210BDF802102180BA21ADF8A2
:104D60000210BDF80210ADF80210BDF8021024F8D0
:104D7000021C2421ADF80210BDF80220ADF802207B
:104D8000BDF802202280ADF80250BDF80220ADF837
:104D90000220BDF802202280ADF80250BDF80220AA
:104DA000ADF80220BDF802202280ADF80250BDF817
:104DB0000220ADF80220BDF802202280C122ADF809
:104DC0000220BDF80220ADF80220BDF8022024F830
:104DD000022CADF802A0BDF802602322ADF80260FB
:104DE000BDF802602680ADF80250BDF80260ADF853
:104DF0000260BDF8026026805426ADF80260BDF85E
:104E00000260ADF80260BDF802602680ADF8025085
:104E1000BDF80260ADF80260BDF802602680ADF812
:104E20000230BDF802603A23ADF80260BDF80260BE
:104E30002680ADF80250BDF80260ADF80260BDF802
:104E400002602680ADF80200BDF802600A20ADF8CD
:104E50000260BDF8026024F8026CADF80200BDF8F3
:104E600002603C20ADF80260BDF802602680ADF81B
:104E70000250BDF80260ADF80260BDF80260268005
:104E8000ADF80270BDF80270ADF80270BDF80270A6
:104E90002780ADF80250BDF80270ADF80270BDF881
:104EA00002702780C327ADF80270BDF80270ADF81C
:104EB0000270BDF8027024F8027CADF80200BDF863
:104EC0000270ADF80270BDF802702780ADF8025094
:104ED000BDF80270ADF80270BDF802702780ADF821
:104EE0000230BDF802702C23ADF80270BDF80270DC
:104EF0002780ADF80250BDF80270ADF80270BDF821
:104F0000027027803927ADF80270BDF80270ADF845
:104F10000270BDF802702780ADF80250BDF8027033
:104F2000ADF80270BDF8027027803727ADF8027027
:104F3000BDF80270ADF80270BDF802702780ADF8C0
:104F40000250BDF80270ADF80270BDF80270278003
:104F5000ADF80200BDF802703620ADF80270BDF861
:104F600002702780ADF80250BDF80270ADF80270F3
:104F7000BDF802702780ADF80200BDF80270322043
:104F8000ADF80270BDF802702780ADF80250BDF890
:104F90000270ADF80270BDF802702780ADF8020013
:104FA000BDF802702920ADF80270BDF802702780AC
:104FB000ADF80250BDF80270ADF80270BDF8027095
:104FC00027802F27ADF80270BDF80260ADF80260AF
:104FD000BDF802602680ADF80250BDF80260ADF861
:104FE0000260BDF802602680ADF80230BDF80260B4
:104FF0002923ADF80260BDF802602680ADF80250AA
:10500000BDF80260ADF80260BDF802602680ADF820
:105010000230BDF80260ADF80260BDF80260268083
:10502000ADF80250BDF80260ADF80260BDF8026054
:1050300026802626ADF80260BDF80230ADF80230B9
:10504000BDF802302380ADF80250BDF80230ADF853
:105050000230BDF802302380ADF80210BDF80230F6
:10506000ADF80230BDF802302380ADF80250BDF833
:105070000230ADF80230BDF802302380ADF80210E6
:10508000BDF80230ADF80230BDF802302380ADF833
:105090000250BDF80230ADF80230BDF80230238076
:1050A0002323ADF80230BDF80230ADF80230BDF870
:1050B00002302380ADF80250BDF80230ADF8023066
:1050C000BDF802302380ADF80280BDF802304FF009
:1050D0007A08ADF80230BDF802302380ADF80250F6
:1050E000BDF80230ADF80230BDF802302380ADF8D3
:1050F00002E0BDF802304FF08B0EADF80230BDF883
:1051000002302380ADF80250BDF80230ADF8023015
:10511000BDF802302380ADF802B0BDF80230ADF822
:105120000230BDF802302380ADF80250BDF80230E5
:10513000ADF80230BDF802302380ADF80270BDF842
:105140000230ADF80230BDF802302380ADF80250D5
:10515000BDF80230ADF80230BDF802302380ADF862
:1051600002C0BDF802304FF0C40CADF80230BDF8FB
:1051700002302380ADF80250BDF80230ADF80230A5
:10518000BDF802302380ADF80200BDF80230C42023
:10519000ADF80230BDF802302380ADF80250BDF802
:1051A0000230ADF80230BDF802302380ADF8026065
:1051B000BDF802301626ADF80230BDF8023023806B
:1051C000ADF80250BDF80230ADF80230BDF8023043
:1051D0002380ADF80210BDF80230ADF80230BDF802
:1051E00002302380ADF80250BDF80230ADF8023035
:1051F000BDF802302380ADF80210BDF80210ADF802
:105200000210BDF802102180ADF80250BDF8021066
:10521000ADF80210BDF802102180ADF80220BDF8F3
:105220000210ADF80210BDF802102180ADF8025056
:10523000BDF80210ADF80210BDF802102180ADF8E3
:105240000200BDF802106220ADF80210BDF8021095
:1052500024F8021CADF80200BDF802100520ADF8DC
:105260000210BDF802102180ADF80250BDF8021006
:10527000ADF80210BDF802102180ADF80200BDF8B3
:1052800002108420ADF80210BDF802102180ADF8A4
:105290000250BDF80210ADF80210BDF802102180D6
:1052A000ADF80200BDF80210F020ADF80210BDF814
:1052B00002102180ADF80250BDF80210ADF80210C6
:1052C000BDF802102180ADF80200BDF80210502098
:1052D000ADF80210BDF802102180ADF80250BDF803
:1052E0000210ADF80210BDF8021021801821ADF8AF
:1052F0000210BDF80230ADF80230BDF80230238054
:10530000ADF80250BDF80230ADF80230BDF8023001
:105310002380A423ADF80230BDF80230ADF802308E
:10532000BDF802302380ADF80250BDF80230ADF870
:105330000230BDF802302380ADF80210BDF8021033
:10534000ADF80210BDF802102180ADF80250BDF892
:105350000210ADF80210BDF802102180ADF8020075
:10536000BDF80210F320ADF80210BDF80210218044
:10537000ADF80250BDF80210ADF80210BDF80210F1
:1053800021800C21ADF80210BDF80210ADF802101A
:10539000BDF802102180ADF80250BDF80210ADF842
:1053A0000210BDF8021021801721ADF80210BDF8DF
:1053B0000230ADF80230BDF802302380ADF8025063
:1053C000BDF80230ADF80230BDF8023023809523DD
:1053D000ADF80230BDF80230ADF80230BDF8023051
:1053E0002380ADF80250BDF80230ADF80230BDF8B0
:1053F00002302380ADF80200BDF80230E620ADF89F
:105400000230BDF802302380ADF80250BDF8023002
:10541000ADF80230BDF802302380ADF80200BDF8CF
:1054200002304420ADF80230BDF802302380ADF8E0
:105430000250BDF80230ADF80230BDF802302380D2
:10544000C523ADF80230BDF80230ADF80230BDF82A
:10545000023024F8023CADF802B0BDF802304FF043
:10546000520BADF80230BDF802302380ADF8025087
:10547000BDF80230ADF80230BDF802302380ADF83F
:105480000200BDF802307620ADF80230BDF80230DF
:105490002380ADF80250BDF80230ADF80230BDF8FF
:1054A000023023806523ADF80230BDF80230ADF83C
:1054B0000230BDF802302380ADF80250BDF8023052
:1054C000ADF80230BDF802302380ADF80200BDF81F
:1054D00002308820ADF80230BDF802302380ADF8EC
:1054E0000250BDF80230ADF80230BDF80230238022
:1054F000ADF80200BDF80230C620ADF80230BDF8AC
:1055000002302380ADF80250BDF80230ADF8023011
:10551000BDF802302380ADF80200BDF80230012052
:10552000ADF80230BDF8023024F8023CADF802A01C
:10553000BDF80220A823ADF80220BDF80220228089
:10554000ADF80250BDF80220ADF80220BDF80220EF
:105550002280ADF80210BDF80210B922ADF8021099
:10556000BDF802102180ADF80250BDF80210ADF870
:105570000210BDF802102180ADF80200BDF8021043
:10558000C720ADF80210BDF802102180ADF802501E
:10559000BDF80210ADF80210BDF802102180ADF880
:1055A0000200BDF80210E020ADF80210BDF80210B4
:1055B00024F8021CADF80250BDF80210ADF802103C
:1055C000BDF802102180ADF80250BDF80210ADF810
:1055D0000210BDF802102180ADF80250BDF8021093
:1055E000ADF80210BDF802102180ADF80250BDF8F0
:1055F0000210ADF80210BDF802102180C821ADF8EC
:105600000210BDF80210ADF80210BDF8021024F827
:10561000021CADF80250BDF80210ADF80210BDF842
:1056200002102180ADF80250BDF80210ADF8021052
:10563000BDF802102180ADF80250BDF80210ADF89F
:105640000210BDF802102180ADF80250BDF8021022
:10565000ADF80210BDF802102180C921ADF802108A
:10566000BDF80210ADF80210BDF8021024F8021CBB
:10567000ADF80250BDF80210ADF80210BDF80210EE
:105680002180ADF80250BDF80210ADF80210BDF84F
:1056900002102180ADF80250BDF80210ADF80210E2
:1056A000BDF802102180ADF80250BDF80210ADF82F
:1056B0000210BDF802102180ADF80250BDF80210B2
:1056C000ADF80210BDF802102180ADF80250BDF80F
:1056D0000210ADF80210BDF802102180ADF80250A2
:1056E000BDF80210ADF80210BDF802102180ADF82F
:1056F0000250BDF80210ADF80210BDF80210218072
:10570000ADF80250BDF80210ADF80210BDF802105D
:105710002180ADF80250BDF80210ADF80210BDF8BE
:1057200002102180ADF80250BDF80210ADF8021051
:10573000BDF802102180ADF80250BDF80210ADF89E
:105740000210BDF802102180ADF80250BDF8021021
:10575000ADF80210BDF802102180ADF80250BDF87E
:105760000210ADF80210BDF802102180ADF8025011
:10577000BDF80210ADF80210BDF802102180ADF89E
:105780000250BDF80210ADF80210BDF802102180E1
:10579000ADF80200BDF802101C20ADF80210BDF8F3
:1057A000021024F8021CADF80260BDF80210ADF83A
:1057B0000210BDF802102180ADF80250BDF80210B1
:1057C000ADF80210BDF802102180ADF80200BDF85E
:1057D0000210ADF80210BDF802102180ADF80250A1
:1057E000BDF80210ADF80210BDF802102180ADF82E
:1057F0000290BDF802004FF06409ADF80200BDF858
:105800000200CA212080ADF80250BDF80200ADF8B8
:105810000200BDF8020020803620ADF80200BDF87D
:105820000200ADF80200BDF802002080ADF8025081
:10583000BDF80200ADF80200BDF80200208046204D
:10584000ADF80200BDF80200ADF80200BDF802009C
:105850002080ADF80250BDF80200ADF80200BDF89E
:1058600002002080ADF802B0BDF80200ADF80200E1
:10587000BDF802002080ADF80250BDF80200ADF87E
:105880000200BDF802002080ADF80290BDF80200D1
:10589000ADF80200BDF802002080ADF80250BDF85E
:1058A0000200ADF80200BDF802002080ADF80280D1
:1058B000BDF80200ADF80200BDF802002080ADF88E
:1058C0000250BDF80200ADF80200BDF802002080D1
:1058D000ADF802E0BDF80200ADF80200BDF802002C
:1058E0002080ADF80250BDF80200ADF80200BDF80E
:1058F000020020809920ADF80200BDF80200ADF84A
:105900000200BDF802002080ADF80250BDF8020090
:10591000ADF80200BDF802002080ADF80230BDF8FD
:105920000200ADF80200BDF802002080ADF8025080
:10593000BDF80200ADF80200BDF802002080ADF80D
:105940000220BDF80200ADF80200BDF80200208080
:10595000ADF80250BDF80200ADF80200BDF802003B
:105960002080ADF802C0BDF80200ADF80200BDF81D
:1059700002002080ADF80250BDF80200ADF8020030
:10598000BDF802002080ADF80210BDF80200ADF8AD
:105990000200BDF802002080ADF80250BDF8020000
:1059A000ADF80200BDF802002080D220ADF8020060
:1059B000BDF802A0ADF802A0BDF802704FF0F30AE6
:1059C0002780ADF80250BDF80270ADF80270BDF846
:1059D00002702780D927ADF80270BDF80270ADF8CB
:1059E0000270BDF802702780ADF80250BDF8027059
:1059F000ADF80270BDF802702780E027ADF80270A4
:105A0000BDF80270ADF80270BDF802702780ADF8E5
:105A10000250BDF80270ADF80270BDF80270278028
:105A2000ADF802A0BDF80270ADF80270BDF80270CA
:105A30002780ADF80250BDF80270ADF80270BDF8D5
:105A400002702780E127ADF80270BDF80270ADF852
:105A50000270BDF8027024F8027CADF80260BDF857
:105A60000260ADF80260BDF802602680ADF8025019
:105A7000BDF80260ADF80260BDF8026026801C2609
:105A8000ADF80260BDF80260ADF80260BDF80260DA
:105A90002680ADF80250BDF80260ADF80260BDF896
:105AA000026026802226ADF80260BDF80260ADF8E3
:105AB0000260BDF802602680ADF80250BDF80260B9
:105AC000ADF80260BDF8026026803626ADF80260AF
:105AD000BDF80260ADF80260BDF802602680ADF846
