:020000040800F2
:10000000C00F0020A502000891400008F13E000842
:10001000A93F0008D5160008714C00080000000038
:100020000000000000000000000000005D47000824
:100030002117000800000000594700086147000828
:10004000BF020008BF020008BF020008BF0200088C
:10005000BF020008BF02000825170008BF02000801
:10006000BF02000861170008A9170008D916000888
:10007000BF020008BF02000801170008BF02000805
:10008000BF020008BF02000885140008BF02000874
:10009000BF020008BF020008BF020008BF0200083C
:1000A000BF02000869470008BF020008BF0200083D
:1000B000D9480008F148000809490008BF020008B3
:1000C000BF020008BF020008BF020008BF0200080C
:1000D000BF020008614C0008BF020008BF02000810
:1000E000BF020008BF020008BF020008BF020008EC
:1000F000BF020008BF02000815490008BF0200083F
:10010000BF020008BF020008BF020008BF020008CB
:10011000BF020008BF020008BF020008BF020008BB
:10012000BF020008BF020008BF020008BF020008AB
:1001300000F002F800F0A6F814A696E8000CB2440D
:10014000B344DA4501D100F09DF8BAE80F000FA6DC
:1001500096E83000A5EB040504EB0607AAEB0704BC
:10016000A7F101074FEA15154FEA3414A4F1010471
:10017000AC4201D300F086F813F0010F18BFFB1A50
:1001800043F0010300F001F8DBE71847C86D0000F9
:10019000E86D0000103A24BF78C878C1FAD8520739
:1001A00024BF30C830C144BF04680C6070470000F1
:1001B000704700000023002400250026103A28BFC5
:1001C00078C1FBD8520728BF30C148BF0B607047C9
:1001D0006E2900F0C181702900F01583662906F0B0
:1001E0008A81652906F08781672906F08481612963
:1001F00006F0838103681B0A28BF41F0800169294A
:1002000000F06E81642900F06B81752900F068812F
:100210006F2900F0A382782900F0E182E92900F03B
:100220003D82E42900F03A82F52900F03782EF2977
:1002300000F0A082F82900F0E0820368DB0928BF03
:1002400041F08001632900F0E187732900F0E6871F
:10025000E32900F0F187F32900F0F68700207047CA
:100260001FB501F04FF804000020002105F0A4FBA9
:10027000401C60600020002105F088FBE0601FBD8D
:1002800010B510BD01F010F81146FFF7E9FF04F0BA
:10029000C9FD01F0EDF803B4FFF7F2FF03BC04F071
:1002A000E9FC00000948804709480047FEE7FEE7EF
:1002B000FEE7FEE7FEE7FEE7FEE7FEE7FEE7FEE716
:1002C00004480549054A064B704700006547000889
:1002D00031010008C0090020C00F0020C00B002021
:1002E000C00B0020704700000A46014900F066B9C3
:1002F000240500201CB50C46064B7B446946009043
:10030000204600F042F904460020694600F050F90A
:1003100020461CBDB302000010B5044603E004F003
:10032000D3FC401C09D014F8010B05490028F6D174
:10033000BDE810400A2004F0C7BC4FF0FF3010BDEC
:10034000240500204FF0000200B51346944696465F
:10035000203922BFA0E80C50A0E80C50B1F12001D8
:10036000BFF4F7AF090728BFA0E80C5048BF0CC086
:100370005DF804EB890028BF40F8042B08BF7047E4
:1003800048BF20F8022B11F0804F18BF00F8012B56
:10039000704700004FF0013C50F8042B51F8043B2B
:1003A0009A4221D1A2EB0C03934313EACC1317D149
:1003B00050F8042B51F8043B9A4215D1A2EB0C03E0
:1003C000934313EACC130BD150F8042B51F8043BA0
:1003D0009A4209D1A2EB0C03934313EACC13DBD06E
:1003E0004FF00000704700BFD01A01BAB1FA81F196
:1003F00001F0180122FA01F0CB40DBB2C0B2C01A02
:10040000C1F120012CFA01F3D11A914311EAC31171
:10041000E6D17047704770477047704770B5044623
:1004200085690068C10601D5302600E02026C00796
:1004300007D070BDD4E9012130469047206A401CA6
:1004400020626D1EF6D570BD70B5044685690078D2
:10045000C00707D170BDD4E9012120209047206A50
:10046000401C20626D1EF6D570BD09684A0501D595
:1004700040B27047C905FCD500B2704709684A050B
:1004800001D5C0B27047C905FCD580B2704770B5C0
:100490000C460546012A05D02878800600D5EA6971
:1004A000002302E0012305E05B1C934202D2E05CE2
:1004B0000028F9D1A869E618C01AA861286A18446A
:1004C00028622846FFF7AAFF04E0D5E9012114F8C5
:1004D000010B9047B442F8D32846FFF7B5FF70BD33
:1004E0002DE9F0410646002410687529314616A50D
:1004F00010D0FFF7BAFF002802DA404213A507E048
:1005000031688A0701D512A502E0490704D511A573
:10051000012401E0FFF7B2FF00210A2206F12407BF
:1005200009E0B0FBF2FCB0FBF2F302FB1C00303040
:1005300078541846491C0028F3D123462A463046F1
:10054000BDE8F04100F073BA000000002D0000008B
:100550002B0000002000000011680268006A5305AB
:1005600001D508700AE0D30501D5088006E013061E
:1005700003D5C217C1E9000200E0086001207047FE
:1005800001694A1C02610878704700B58FB0CDE957
:1005900001310021059105497944CDE90310114647
:1005A000684600F03BF90FB000BD0000E5FFFFFF1B
:1005B0000A6802F8010B0A6070470000074B70B52B
:1005C0000D467B44FFF7E1FF0446284600F040FE5D
:1005D00010B14FF0FF3070BD204670BD03470000E2
:1005E0002DE9FF5F15468A460446DFF8AC80F844E3
:1005F0000027D8E900103E46CDE9001010E03AF897
:1006000016106A4602A800F027FE411C07D0217888
:10061000890603D5E269391891420DD80744761C42
:100620002078800602D5E069B84205DDAE42E6DBFF
:100630003AF816000028E2D1A069C01BA06120464C
:10064000FFF7ECFED8E90010CDE90010002017E01C
:100650003AF818106A4602A800F0FEFDB0F1FF3F1C
:1006600081460BD000250DF1080B05E0D4E90121EE
:100670001BF8050090476D1C4D45F7D308F10100AC
:10068000B0428046E4DB206A384420622046FFF70F
:10069000DBFEBDE8FF9F00000E5F00002DE9F0418A
:1006A0008046D21D22F007020025D2E90002F5297A
:1006B00015A614D0011E72F1000106DA0023D0EB5A
:1006C000030063EB020211A608E0D8F800108B07C4
:1006D00001D50FA602E0490701D50EA60125114656
:1006E000002408F1240704E000F05CF930323A55A8
:1006F000641C50EA0102F7D12B463246214640469F
:10070000BDE8F04100F093B9000000002D000000AA
:100710002B0000002000000030B4002100F1240470
:1007200008E002F00705D208303542EA4372DB08E0
:100730006554491C52EA0305F3D10468002310A252
:10074000250708D504F020040C4304D0C469012314
:100750000CA2641EC46130BC00F069B910B5044637
:1007600021461068FFF78AFE02462046BDE8104089
:100770000023D1E7D21D22F00701D1E90023CBE706
:100780000000000030000000F0B40D4601880905AB
:1007900002D5214C7C4402E01F4C7C440E340021E5
:1007A00000F1240608E002F00F071209E75D42EAB3
:1007B00003721B097754491C52EA0307F3D10278EC
:1007C0000023120704D5702D06D009B1022311347D
:1007D0002246F0BC00F02BB901231034F8E770B5C5
:1007E00004460D4621461068FFF748FE024629469A
:1007F0002046BDE870400023C6E7D21D22F0070363
:10080000D3E90023C0E70368126843F020030360C4
:100810000823C3610023B7E7705D00002DE9F05F96
:10082000894604464FF0000ADFF874B1FB44C0F873
:1008300020A02046E1688847002874D0252806D0EB
:10084000D4E901219047206A401C2062F1E700268C
:100850005F462046E16888472028054607DB312DA2
:1008600005D2781910F8200C08B10643F1E7B0075B
:1008700001D526F00406C4F81CA00027C4F818A06F
:100880002A2D09D0284605F079F838B304EB8708FB
:10089000303DC8F8185019E059F8041B204604EB05
:1008A00087029161E1688847012F054618D1E06908
:1008B000002820DA26F020061DE0D8F8180000EB0A
:1008C000800005EB40003038C8F818002046E16889
:1008D0008847054605F052F80028EED1012F0AD0CE
:1008E0002E2D08D12046E16888477F1C0546022F3F
:1008F00046F02006C4DBA069002803DA404246F037
:100900000106A061F00701D026F010066C2D0BD077
:10091000682D09D04C2D39D06A2D35D0742D35D0A5
:100920007A2D33D016E038E0E1682F46204688471C
:10093000B842054609D16C2F26D04FF48060E1689B
:10094000064320468847054604E06C2F1AD04FF432
:10095000807006430DB3A5F14100192802D8203557
:1009600046F400664A462946204626604E46FFF772
:100970002FFC80B101280BD0F61D26F0070000F1F6
:10098000080956E74020E4E78020D8E70020D6E7B2
:1009900006F104094DE7284652E7206ABDE8F09FBA
:1009A000005D000030B5B0F10A0271F100034FEABA
:1009B000900E4EEA817EB0EB0E0061EB91014FEAA2
:1009C000101E4EEA017E10EB0E0041EB11114FEAB2
:1009D000102E4EEA016E10EB0E0041EB11214FEA92
:1009E000104E4EEA014E10EB0E0041EB1141401843
:1009F00041F100014FEAD00040EA41704FEAD101D5
:100A00004FEA810444EA907410EB800544EB010442
:100A10006D1944EB0404521BA3414FF0000348BF7F
:100A20000A3200D530BD401C41F1000130BD2DE936
:100A3000F0470D4699469246044600F124080168A5
:100A4000880604D5E06921F01001216000E0012052
:100A5000A84201DD471B00E00027A1697A1902EBDB
:100A60000900081AA0612078C00602D42046FFF7CA
:100A7000D5FC002608E0D4E901211AF806009047C9
:100A8000206A401C761C20624E45F4DB2078C006AC
:100A90000AD52046FFF7C2FC06E0D4E90121302048
:100AA0009047206A401C2062381EA7F10107F4DC41
:100AB00007E0D4E9012118F805009047206A401C9E
:100AC0002062281EA5F10105F3DC2046FFF7BCFCDF
:100AD0002078000602D50220BDE8F0870120FBE760
:100AE0002DE9FF4F0C461E464FF0FF378BB0D2E981
:100AF0000001DDF860800A908A46C1F30A5505B905
:100B00003D46002108464FF00000BAF1000F00F406
:100B1000400005DA00EB80004FF4400101EA50008C
:100B20004FEA9059B9F1010F00DDB9460A9850EA31
:100B30004A000ED044F61050A5F2FF3545432F145D
:100B4000B8F1000F1ED07542291E1EDDC9F100024A
:100B50001CE0B8F1010F4FF0000001D0302103E09C
:100B6000F24305E02154401CB042FBDB304600223A
:100B7000002121540B99C1F80880C1E900200FB071
:100B8000BDE8F08FBD1B6D1CDEE74A4600DA694206
:100B900006A800F0FBFB06AB93E8070003AB83E875
:100BA000070050460A9904F00DFB8DE80700A0F5F8
:100BB00000501F3800900398002D0ADD42F21F01FB
:100BC0004A460844002303A90390684604F076FDD2
:100BD00009E0A0F500504A461F38002303A90390FE
:100BE000684604F080FD8DE807000004000C03D087
:100BF0004FF0FF30410800E01046B8F1000F03D07D
:100C00000022009215461EE0751E05D4FFF7CAFEAD
:100C1000303262556D1EF9D5B3460122084302D029
:100C200000227F1C04E02078302801D100227F1EA2
:100C3000002A099784D01DE0112D07DAFFF7B2FED4
:100C4000303262556D1C50EA0102F5D1084302D0E2
:100C50000098C8B10EE00021681E05E0235C625CCC
:100C600063542254401E491C8142F7DBAB46A81B4B
:100C7000401E0990002004F80B000B98099AC0F858
:100C80000880C0E9002B7AE711264FF0000857E7EB
:100C90002DE9F04F88460446D21D22F0070191B09D
:100CA000D1E90001CDE90A0104F054FE02460B9897
:100CB000C00F01D02D2007E02068810701D52B202F
:100CC00002E0202101EAC000032A099001D0072A8E
:100CD00005DB03464146204600F018FB0BE1207877
:100CE000800601D5E06900E00620B8F1650F814675
:100CF00006D0B8F1660F18D0B8F1670F70D131E0A7
:100D00000020B9F1110F009001DB112301E009F17E
:100D100001030AAA01A90CA8FFF7E2FEDDE90C70A5
:100D2000002609F10105834647E001204B4600906B
:100D30004FF000470AAA01A90CA8FFF7D1FEDDE990
:100D40000DB00C995D46002610B909F101000D188F
:100D5000B9EB050003D4C0F1FF3609F10105A5EB9D
:100D600009002BE0B9F1010F01DA4FF00109002071
:100D7000B9F1110F0090484601DD112300E0034650
:100D80000AAA01A90CA8FFF7ABFEDDE90C704D46DD
:100D900000268346207800070AD4AB4500DA5D467A
:100DA00001A8012D04DD411911F8011C302907D0DB
:100DB0004F4502DA17F1040F04DA012082460FE0F2
:100DC0006D1EEEE7002F02DCED1B3E4403E0781CB5
:100DD000A84200DD7D1CB81B00F1010A4FF000475E
:100DE0002078000703D4AA4501DB4FF0FF3A002129
:100DF000B7F1004F0DF143088DF8431024D00220C5
:100E00002B23002F01DA7F422D230A21021EA0F19D
:100E1000010000DC5FB197FBF1FC97FBF1F201FBF5
:100E20001C7C17460CF1300C08F801CDEEE7A8F158
:100E3000010003702188090501D5452100E06521E5
:100E4000A0F1010800F8011C09980FA9A1EB0807FF
:100E5000FF1D00B10120411901EBEA70A16938447E
:100E6000081A401EA0612078C00602D42046FFF771
:100E7000D5FA099828B1D4E901219047206A401C8D
:100E800020622078C00622D52046FFF7C7FA1EE070
:100E9000002E04DBB34502DD01A8805D00E03020B8
:100EA000D4E901219047206A401C2062761CAAF1F7
:100EB00001005FEA000A0AD100F024FAC068016864
:100EC000405CD4E901219047206A401C2062281E22
:100ED000A5F10105DCDC07E0D4E9012118F8010BDC
:100EE0009047206A401C2062381EA7F10107F3DCFE
:100EF0002046FFF7A9FA032011B041E62DE9F04F93
:100F000004460D46D21D22F0070089B0D0E90097B3
:100F10004846394604F01EFD0246F80F01D02D2345
:100F200007E02068810701D52B2302E0202101EA98
:100F3000C0038DF820300BB1012000E00020032A0F
:100F4000824601D0072A04DB2946204600F0DEF95C
:100F50003FE12078800601D40D2500E0E569C7F364
:100F60000A560D2D49DA00214FEA175B08464FF06B
:100F70000000002F00F4400007DA00EB80004FF47F
:100F8000400100EBD07001EA60008115012901DD0C
:100F90004FF0FF3100224FEA850CBCF1180F06D349
:100FA0001346ACF118004FF08052C24003E04FF4FA
:100FB000801323FA0CF30CF10C0CBCF1200F04D3BA
:100FC000ACF1200C09FA0CF001E007FA0CF0002952
:100FD0004FF0004801DD18B90FE00ED140450CD3A9
:100FE00019EB02095F4121B9404502D19F4329EA2B
:100FF0000209BBEB175F00D0761C2088000502D5E4
:101000007B48784402E07A487844193808AA3023AB
:1010100002F80A30037C0AF10101002E0AF1020AEB
:1010200053546A4602DC4FF0300101E04FF03101C9
:101030004FF001088DF8001002D0A6F2FF3603E051
:1010400059EA470100D06B4E002D02DC21780907D8
:1010500004D54FF002082E218DF80110C44600215E
:101060000BE0C7F303433F01C35C491C6D1E02F84C
:101070000830052908F1010801DA002DF1DC002112
:101080000CE000EB1973491C1B786D1E082902F84F
:1010900008304FEA091908F1010801DA002DF0DCE7
:1010A00021688B0602D516E0A8F10108E04505DDB0
:1010B00002EB080313F8013C302BF5D0B8F1000F18
:1010C00009DD02EB080313F8013C2E2B03D10907BD
:1010D00001D4A8F10108002D05DD3E2102F8081019
:1010E0006D1E08F10108407C002E02F8080008F18E
:1010F000010804DA2D20764202F8080002E02B20D5
:1011000002F808000A214FF47A70864208F10108BB
:101110000BDB96FBF0F3303302F8083096FBF0F36C
:1011200008F1010800FB136601E0642E0CDB64206B
:1011300096FBF0F3303302F8083096FBF0F308F139
:10114000010800FB136601E00A2E06DB96FBF1F0B6
:10115000303002F8080008F1010896FBF1F001FBBD
:101160001060303002F80800A16908F1010808EBAE
:10117000050202EB0A00081AA0612078C00602D41A
:101180002046FFF74BF9216A08AE01EB0A00206206
:1011900004E0D4E9012116F8010B9047BAF1010AE5
:1011A000F7D22078C00602D52046FFF737F96E4601
:1011B00009E016F8010B3E280FD0D4E90121904731
:1011C000206A401C2062B8F10108F2D22046FFF7E5
:1011D0003BF909B00320BDE8F08F206A2844206263
:1011E00003E0D4E90121302090476D1EEBD3F8E7EE
:1011F0004E55000002FCFFFF10B5436913B1AFF379
:10120000008001E0FFF743F9012010BD127800F1E2
:1012100024010A7000224A700122EDE711684FF0A4
:10122000FF32E9E710B5436913B1AFF3008001E085
:10123000FFF7D6F9012010BD128800F12401828445
:101240000022C2840122EDE711684FF0FF32E9E786
:10125000007B00F0800070472DE9F04116460C46F7
:10126000054600F047F8036893F80101012807D00C
:10127000FF2C12D8185D80B101202C70BDE8F081E0
:10128000D3F807013246214603F20713C718284650
:10129000BC46BDE8F041002360474FF0FF30EDE76A
:1012A00000487047380000207546FFF7F9FFAE464A
:1012B00005006946534620F00700854618B020B562
:1012C000FEF7FEFFBDE820404FF000064FF000079C
:1012D0004FF000084FF0000BAC46ACE8C009ACE89A
:1012E000C009ACE8C009ACE8C00921F007018D468F
:1012F0007047000010B500F005F8001D10BD00BFDC
:10130000B946000000487047580000202DE9F04120
:101310001F46044603260168072A01F4006004DB27
:1013200008B116A505E016A503E008B115A500E073
:1013300015A521F010002060A069C01EA0610FB1AA
:10134000401EA0612046FFF769F84FB1D4E90121A2
:1013500038469047206A401C2062C01C206206E08C
:10136000206AFAE7D4E9012115F8010B9047761EAF
:10137000F8D22046FFF768F8BDE8F0814E414E00F4
:101380006E616E00494E4600696E66002DE9F047B9
:10139000814616468AB0354878440DC88DE80D0060
:1013A00032487844801C03AC0DC884E80D0041F637
:1013B0009B300844372190FBF1F290FBF1F5A5F149
:1013C000800501FB12041B3C02D56442012000E0B1
:1013D0000020DFF898A080460027FA44AAF1BE0A50
:1013E0000EE0E0070AD03246684607EB47010123CA
:1013F0000AEB810104F077F98DE8070064107F1C87
:10140000002CEED1194F7F44AE3F19E0E80715D00C
:1014100007EB04100DF1180A90E80E008AE80E00A0
:10142000C068F04201D1981908903246012306A9FC
:1014300003A804F058F903AB83E807006D10641C9F
:10144000002DE3D14FF0010332466946B8F1000F99
:1014500003A802D004F032F901E004F044F9C9E92C
:101460000001C9F808200AB0BDE8F0874852000022
:1014700010B50446AFF300802046BDE81040FEF7EB
:101480000ABF000080B540F2AC50C2F20000006814
:101490000068800705D540F2AC50C2F2000000F0B1
:1014A00013FB40F27C50C2F2000000680068800725
:1014B00058BF80BD40F27C50C2F20000BDE88040C1
:1014C00000F002BB2DE9F0438DB0002541F2180079
:1014D0000895CDE90655CDE90455CDE90255CDE98C
:1014E0000055C4F2020001684FF0020841F4806127
:1014F0000160016801F4806109910999016841F076
:1015000004010160016801F004010991099950F892
:10151000041C41F0010140F8041C50F8040C00F0D8
:101520000100099009984FF40040059003A8CDF8F8
:101530000C8001F04BFA40F600043F20C4F2010495
:1015400009904FF0030909A92046CDF8289001F031
:1015500013F804F5005040F2AC54C2F20004C4E9A0
:1015600000054FF4602001270426C4E906502046F8
:10157000A56027732661257500F024FB204600F046
:10158000ADF907206D46029020462946CDE9008737
:1015900000F00CFA20462946CDE9009800F006FA42
:1015A00020462946CDE9006900F000FA0520CDE982
:1015B00000062046294600F0F9F9204600F054FDC7
:1015C00012200021002201F03DF9122001F028F93B
:1015D0000DB0BDE8F083000010B584B0019001208B
:1015E00040F2AC5402900720C2F20004039001A91B
:1015F000204600F0DBF9204600F08CFC20460A2152
:1016000000F0CEFB204600F05BFA80B204B010BDC3
:10161000B0B5044600688168C90701D10020B0BD9B
:10162000816821F00101816001F0A8F8054600BF42
:1016300020688068C007F1D001F0A0F8401B0328A3
:10164000F6D3A06A40F01000A062E06A40F001000A
:10165000E0620120B0BD0000B0B582B004460020B9
:10166000019021688A68D2072FD1886840F0010074
:10167000886040F21000C2F2000000684DF68361FD
:10168000C4F21B31A0FB0101880C00BF019001983E
:1016900010B101980138F9E701F070F8054600BF74
:1016A00020688068C00712D101F068F8401B032849
:1016B000F6D3A06A40F01000A062E06A40F001009A
:1016C000E062002084F82400012002B0B0BD0020B8
:1016D00002B0B0BDFEE700000420C4F2020050F8E2
:1016E000041C890758BF704740F2DC51C2F2000168
:1016F00001220A70016841F0020101607047000098
:1017000080B540F2E050C2F2000000F0EBFD02A014
:10171000BDE88040FEF700BE0D0A495251480D0059
:1017200070470000B0B540F214440120C4F2010437
:10173000012500F015FF142003F0A4FA04F57B70D6
:101740004FF4006101F006F8012807D140F22800AB
:10175000C2F200000168C1F1010101602560B0BD65
:10176000B0B50820082500F0FBFE40F22800C2F2C8
:101770000000006890B140F600441420C4F2010457
:1017800003F080FA20464FF4006100F0E3FF28B92F
:1017900004F580604FF4005100F0E2FF40F2144085
:1017A000C4F201000560B0BD10B51020102400F097
:1017B000D7FE40F22800C2F20000006850B11420A9
:1017C00003F060FA40F60040C4F201004FF480617B
:1017D00000F0C0FF40F21440C4F20100046010BDEC
:1017E00040F2D840C2F20000016847F6FF72486A32
:1017F0004A62801A00B270472DE9F04385B041F289
:101800001807C4F20207386840F6000440F00800E8
:1018100038603868C4F2010400F0080001900198B3
:10182000402001AD019000264FF001094FF0030860
:10183000204629460296CDF80C90CDF8108000F095
:101840009BFE802001902046294600F095FE786896
:101850004FF6FF7140F002007860786800F00200F7
:1018600000900098A4F5823040F2D844C2F20004FF
:10187000C4E9026140F29C01C4E90006C2F2000121
:101880000220C1E9046020462661A661C1E9008604
:10189000C1E90296C1E906960E6201F06FFC20686C
:1018A00047F6FF7141626FF001010161C1680122D9
:1018B00041F00101C160016841F0040101601D2097
:1018C000052100F0BFFF1D2000F0AAFF20463C21AB
:1018D00001F0B0FC05B0BDE8F083000070B582B047
:1018E00004460020019094F82400012802D102202F
:1018F00002B070BD012084F824002046FFF788FE66
:1019000000284BD10646A06A41F2021188430230FA
:10191000A06240F21000C2F200000568022000F050
:10192000CDFFB5FBF0F040000190019810B1019897
:101930000138F9E72046FFF78FFE2068816841F003
:101940000801816000F01AFF054600BF2068816829
:10195000090705D500F012FF401B0A28F6D910E050
:10196000816841F00401816000F008FF054600BF76
:1019700020688068400709D500F000FF401B0B2855
:10198000F6D3012010216FF0120203E001216FF065
:1019900003023046A36A1A401143A162002184F871
:1019A000241002B070BD000070470000B0B581B0D7
:1019B0000022009290F82420012A01D1022179E02E
:1019C0004A680123062A02EB820C80F8243005D8ED
:1019D000026802F1340E6FF004020AE003680C2A78
:1019E00087BF03F12C0E6FF0400203F1300E6FF051
:1019F00022026244DEF800C01F230C6893402CEAE8
:101A0000030304FA02F21A43CEF80020D1F800E0F2
:101A100002680EEB4E041023BEF1090F88BF1E3C76
:101A200088BF0C2352F803C007258968A5402CEA1B
:101A30000505A1402943D1502EF001014FF0000CC3
:101A400010294FF0000133D1016842F20042C4F284
:101A50000102914205D0816A41F020018162012199
:101A600026E09268120222D48A68BEF1100F42F476
:101A700000028A601BD140F21001C2F20001096825
:101A80004DF68362C4F21B32A1FB0212910C01EBF2
:101A9000810149000091009949B100BF00990139C5
:101AA0000091009900294FF00001F7D100E00021DA
:101AB00080F824C0084601B0B0BD000070470000A7
:101AC0000068C06C7047000010B5044600684168AB
:101AD000890644BF01685FEA81711BD420684168B0
:101AE000090644BF01685FEA417139D42068416842
:101AF00049060ED50068C00708BF10BDA06A40F4B3
:101B00008030A062204600F00DF920686FF00101DE
:101B1000016010BDA16AC90603D4A16A41F4007135
:101B2000A162816801F46021B1F5602F10D1217BA1
:101B300071B9416821F020014160A06A20F48070F1
:101B4000A062A06AC00403D4A06A40F00100A062B1
:101B50002046FFF7B3FF20686FF012010160BDE778
:101B6000A16AC90603D4A16A41F40051A162816847
:101B700001F4E041B1F5E04F0FD1416821F080015F
:101B80004160A06A20F48050A062A06AC00510D411
:101B9000A06A40F00100A0620BE04168490508D44A
:101BA000816801F46021B1F5602F02D1217B002909
:101BB000E3D02046FFF7F8FE20686FF00C010160CB
:101BC00094E70000002804BF01207047B0B5044628
:101BD000806A30B90020E06284F82400204600F0DA
:101BE000A3F820688168C90702D1002001211AE00A
:101BF000816821F00101816000F0C0FD054600BF51
:101C000020688068C007F0D000F0B8FD401B0328B2
:101C1000F6D3A06A002140F01000A062E06A40F014
:101C20000100E0620120A36AA26A89B313F01001E7
:101C30002ED141F2021122EA01010231A16294E89F
:101C40000250E26981F0804383F49E3382F44025A0
:101C50002B4308BF4FF400224CEA020CAEF1010204
:101C6000B2FA82F253097246BEF5807F18BF1A029B
:101C7000257D237B012D4CEA430C13D16BB1A36A64
:101C800043F02003A362E36A43F00103E36209E047
:101C900042F01000A0620120B0BDA36902EB433204
:101CA000A2F5C0524B68BEF5807F23F4694342EA37
:101CB00003024A608A684FF2FD73CFF6E17302EACD
:101CC000030242EA0C028A6002D0BEF1010F06D183
:101CD00022690023CFF6F07303EB025200E00022EA
:101CE000CB6A23F470031A43CA62896840F6FE6225
:101CF000CFF61F721140614507D10021E162A16A50
:101D0000012262F30101A162B0BDA06A40F010009F
:101D100020F00200A062E06A40F00100E0620120D1
:101D2000B0BD000070470000B0B58AB040F60004B6
:101D3000C4F20104006804F5E051884201D00AB001
:101D4000B0BD0020CDE90400CDE90200CDE90000DE
:101D500041F21800C4F202000168022541F400714A
:101D60000160016801F4007106910699016841F073
:101D700004010160006800F00400069006984FF42A
:101D8000004002906846009500F020FE0320079076
:101D900006A92046069500F0EFFB0AB0B0BD000092
:101DA0002DE9F04182B000260D460446019600F070
:101DB000E5FC21688A68D2053CD480464868C005A5
:101DC00003D4C86A10F4700F3ED040F21000C2F283
:101DD0000000066842F292470220C1F2492700F053
:101DE0006DFD216844F624130A69B6FBF0F0C2F2D7
:101DF00092431A4206D1CA6844F62413C0F29203F1
:101E00001A4229D00A693A4206D1CA6842F292437C
:101E1000C0F249031A422DD00A6949F24923C0F29F
:101E200024031A424FF0FC0225D1C968194208BFA9
:101E3000542220E0A06A40F02000A06284F82460D0
:101E4000012002B0BDE8F08120680068800742D41C
:101E50003DB36F1C18D01EE00A693A424FF02902C8
:101E600009D1C96842F29243C0F24903194208BF3E
:101E7000142200E05422019902FB00F7B9422AD251
:101E80007DB16E1C18D01FE0206800BF0168890773
:101E900021D4002FFAD000F071FCA0EB0800A8427A
:101EA000F2D9A06A40F00400A062002084F8240067
:101EB000032002B0BDE8F081019801300190019843
:101EC000B84208D2002EF7D000F058FCA0EB080072
:101ED000A842F1D9E5E720686FF012010160A16A1C
:101EE00041F40071A162806800F46020B0F5602FB9
:101EF0000CD1207B50B9A06A20F48070A062A06A47
:101F0000C00403D4A06A40F00100A062002002B027
:101F1000BDE8F081B0B582B0044690F824000128F5
:101F200002D1022002B0B0BD0121002084F82410AB
:101F3000019022689368DB072FD190684DF683618A
:101F400040F00100906040F21000C2F20000006812
:101F5000C4F21B31A0FB0101880C00BF0190019865
:101F600010B101980138F9E700F008FC054600BF00
:101F700020688068C00748D100F000FC401B03289F
:101F8000F6D3A06A002140F01000A062E06A40F0A1
:101F90000100E062012084F82410D1B342F2044C25
:101FA0002168A26AC4F2010C40F201339A430CF595
:101FB0007F7302F580729942A2622FD0A26A22F446
:101FC0008012A2624A68520504D5A26A012565F30F
:101FD0000D32A262A26A0025D2044FF0000244BF73
:101FE000E26A22F00602E2626FF0020284F82450F4
:101FF0000A608A6802F46022B2F5602F2DD19942FE
:1020000026D08A6842F4A0022AE00020012100299B
:10201000C4D1002184F8241002B0B0BDDCF8002047
:1020200012F4702FCAD0A26A42F60005C4F201056C
:1020300042F48012A942A26205D042F20042C4F2E8
:1020400001029142C6D1DCF800205205BDD4C1E79F
:10205000DCF8002012F4702FD3D08A6842F480128A
:102060008A6002B0B0BD0000B0B582B0044690F8FE
:102070002400012802D1022002B0B0BD01210020BD
:1020800084F82410019022689368DB072FD19068B0
:102090004DF6836140F00100906040F21000C2F202
:1020A00000000068C4F21B31A0FB0101880C00BFD6
:1020B0000190019810B101980138F9E700F05EFB3A
:1020C000054600BF20688068C0074DD100F056FB70
:1020D000401B0328F6D3A06A002140F01000A06244
:1020E000E06A40F00100E062012084F82410002939
:1020F0003ED042F2044C2168A26AC4F2010C40F6C0
:1021000001739A430CF57F7302F580729942A262C3
:1021100033D0A26A22F48012A2624A68520504D522
:10212000A26A012565F30D32A262A26A0025D204DB
:102130004FF0000244BFE26A22F00602E2626FF052
:10214000020284F824500A604A6842F020024A6081
:102150008A6802F46022B2F5602F2DD1994226D010
:102160008A6842F4A0022AE0002001210029C0D19F
:10217000002184F8241002B0B0BDDCF8002012F475
:10218000702FC6D0A26A42F60005C4F2010542F4DF
:102190008012A942A26205D042F20042C4F20102BA
:1021A0009142C2D1DCF800205205B9D4BDE7DCF879
:1021B000002012F4702FD3D08A6842F480128A6013
:1021C00002B0B0BD90F82110022927D1026840F278
:1021D000040C1368C4F2020C23F00E03136013689E
:1021E0000CF17C018A4223F0010111601AD940F2FE
:1021F0000841C4F202018A424ED040F21C41C4F2AE
:1022000002018A4241D040F23041C4F202018A42C6
:1022100046D14FF48073CCF8003457E00421816339
:10222000012070474321C4F202018A420EDD6B2176
:10223000C4F202018A421BDC4421C4F202018A4238
:102240003BD05821C4F202018A4222E00821C4F2A4
:1022500002018A422FD01C21C4F202018A4232D0EC
:102260003021C4F202018A4213D14FF480722BE074
:102270006C21C4F202018A4222D08021C4F2020100
:102280008A4206D14FF080721EE01023CCF8003451
:102290001CE04FF4803217E00123CCF8003415E045
:1022A0000CF588614FF480338A4208BF4FF48053A5
:1022B000CCF800340AE0012206E04FF4805203E03B
:1022C0004FF4801200E01022CCF80020416B4FF454
:1022D00080720029028404BF0020704780B58847BF
:1022E000002080BD10B5D0E90FE3D0F800C0DEF8C3
:1022F0000020DCF80010DA4054072DD511F004045A
:102300002AD0DCF80010890605D4DCF8001021F092
:102310000401CCF800100422C4F2020202F17C0194
:102320008C4567D940F20841C4F202018C4500F0A7
:10233000B08040F21C41C4F202018C4500F0A28042
:1023400040F23041C4F202018C4540F0A6804FF4C7
:102350008061C2F80014EAE0940730D511F002045D
:102360002DD0DCF80010890608D4DCF8001021F02C
:102370000A01CCF80010012180F821100422C4F2D7
:10238000020202F17C018C4548D940F20841C4F2B6
:1023900002018C4500F0B48040F21C41C4F20201FD
:1023A0008C4500F0A48040F23041C4F202018C451B
:1023B00040F0B0804FF40071C2F80014C6E012077C
:1023C00040F1CA8011F0080108BF10BDDCF8001010
:1023D00021F00E01CCF80010012101FA03F2CEF831
:1023E00004208163016B4FF480720029028440F065
:1023F000A080B1E04321C4F202018C4523DD6B21B2
:10240000C4F202018C4530DC4421C4F202018C4547
:102410007AD05821C4F202018C4537E04321C4F23E
:1024200002018C4544DD6B21C4F202018C4551DC74
:102430004421C4F202018C4500F080805821C4F28E
:1024400002018C4559E00821C4F202018C4552D0AA
:102450001C21C4F202018C4567D03021C4F2020174
:102460008C4513D14FF4806160E06C21C4F202010D
:102470008C454CD08021C4F202018C4506D14FF02E
:10248000806153E04021C2F8001450E04FF48021F5
:102490004CE00421C2F8001449E002F588634FF4CF
:1024A00080219C4508BF4FF48041C2F800143EE0F3
:1024B0000821C4F202018C453ED01C21C4F2020165
:1024C0008C4541D03021C4F202018C4515D14FF426
:1024D00000713AE06C21C4F202018C4531D08021B8
:1024E000C4F202018C4508D14FF000712DE020218B
:1024F000C2F800142AE0042118E04FF4003124E06F
:102500000221C2F8001421E04FF480410EE04FF4A4
:1025100080010BE002F588634FF400319C4508BF51
:102520004FF40051C2F8001410E040211160C16A5C
:1025300091B1BDE810400847022106E04FF4005178
:1025400003E04FF4001100E020211160816A0022B5
:10255000002980F82020ECD110BD00007047000059
:1025600040F21441C4F201010A68024214BF08603B
:102570007047FFF7F3BF00002DE9F04F82B00E68FF
:10258000002E00F0E380A0F1804241F6004540F2C9
:102590000043A2F58432C4F201050624C4F201030B
:1025A0004FEAB227A84208BF05244FF0000E4FF0B3
:1025B00001080F254FF0000A4FF0000B052F38BF20
:1025C0004FEAB224009408E00E680AF1010A36FAD4
:1025D0000AF20EF1040E00F0B98008FA0AFC16EABD
:1025E0000C09F1D04E684FF6FF72C1F2100296420C
:1025F00010DC122E50D8DFE806F0330A48454F4F62
:102600004F4F4F4F4F4F4F4F4F4F4F414C00D1F80F
:102610000CB041E04FF6FF72C1F2210296420FDC8E
:102620000022C1F2110296421AD00022C1F2120217
:10263000964215D00022C1F22102964210D02BE022
:102640000022C1F2220296420AD00022C1F23102D7
:10265000964205D00022C1F2320296421CD100BF40
:102660008A6842B1012A14BFC0F814C0C0F810C073
:102670004FF0080B10E04FF0040B0DE0CA6802F1B8
:10268000040B09E04FF0000B06E0CA6802F1080BEA
:1026900002E0CA6802F10C0B02467446B9F5807F6D
:1026A00024BF0432203C166805FA04F726EA07071F
:1026B0000BFA04F637431760CA79D2067FF584AF68
:1026C00041F21807C4F202073A684FF6084542F093
:1026D00001023A603A68CFF6FF7502F001020192FA
:1026E000019A2AF003021A440F2457590EF00C06DF
:1026F000B440A743009C04FA06F6374357514E688E
:102700000F25F2031A6854BF22EA090242EA0902BD
:102710001A605A68B70354BF22EA090242EA090262
:102720005A60F7029A6854BF22EA090242EA090293
:10273000B70240F20C479A60C4F201073A6854BFEE
:1027400022EA090242EA09023A603DE702B0BDE826
:10275000F08F00008068084018BF0120704700001B
:10276000C26802EA0103914341EA034101617047F3
:10277000002A08BF090401617047000040F6BC1040
:10278000C2F200000068704740F2300040F6BC1111
:10279000C2F20000C2F2000100780A68104408602A
:1027A0007047000080B542F20000C4F202000168E8
:1027B00041F010010160052000F070F80F2000F0DA
:1027C00005F800F02BF8002080BD0000B0B540F205
:1027D0003002C2F2000240F210011278C2F200018F
:1027E0004FF47A730968B3FBF2F20446B1FBF2F1DD
:1027F000084600F035FC0F2C4FF001050CD858B9F5
:102800004FF0FF3021460022002500F01BF840F277
:102810003400C2F2000004602846B0BD70470000DA
:10282000002848BF704700F01F01012202FA01F1A1
:102830001C2202EAD0004EF20012CEF200028150B9
:102840007047000010B54EF60C5CCEF2000CDCF8C0
:102850000030C3F3022E8EF00704042C28BF04249A
:10286000BEF103034FF0FF3E0EFA04F438BF00231D
:10287000A14399400EFA03F39A43114300F16042D9
:1028800000F00F03090102F56442043B6344002891
:1028900048BF03F10C02117010BD00004EF60C5140
:1028A000CEF200010A684FF6FF031A4060F30A22D5
:1028B00042F0806040F0FD7008607047411E0F29B3
:1028C0004FF0000047D8DFE801F00A3546084646D9
:1028D0004608464646464646464700F0F9B941F2A4
:1028E0000400C4F20200C16940F202320A40B2F5AB
:1028F000817F04BF4FF40040704701F44071B1F58F
:10290000407F0FD0B1F5007F1CBF00207047026AE6
:10291000920744BF49F640407047B1F5407F1CBF65
:102920000020704750F8040C4FF22441800301EA64
:10293000E070704780B500F0B7F941F20401C4F2CD
:10294000020109680222C1F3813102EB4101B0FBAF
:10295000F1F0BDE88040704741F20401C4F2020189
:102960000A6851F8040CC0015CBF00207047C2F334
:10297000834011A3185CD20305D440F60012C0F2C4
:102980003D0250430BE00A680FA3C2F340429A5C39
:1029900041F20023C0F27A03B3FBF2F2504309681C
:1029A000490248BF70474AF6AB214000CAF6AA2147
:1029B000A0FB010148087047020304050607080947
:1029C0000A0B0C0D0E0F1010010200002DE9F04152
:1029D00082B00446007841F21C06C007C4F2020629
:1029E0004AD030685FEAC00808D4306840F08050B0
:1029F0003060306800F080500190019847F2000785
:102A0000C4F200073868C00512D4386840F48070FA
:102A10003860FFF7B3FE05463868C00508D4FFF7F5
:102A2000ADFE401B6428F7D9032002B0BDE8F08159
:102A3000706810F4407012D0616801F440718842EF
:102A40000DD0706840F24042C4F24222012320F4CB
:102A5000407113600023C0071360716025D1706856
:102A6000616820F440700843B8F1000F706003D42F
:102A7000306820F0805030602068810707D556F814
:102A8000181CA26821F44041114346F8181CC006E6
:102A900007D556F8180C616920F48000084346F801
:102AA000180C002002B0BDE8F081FFF767FE054674
:102AB00041F2883770688007D1D4FFF75FFE401B72
:102AC000B8424FF00300F5D9ECE70000002804BF3E
:102AD000012070472DE9F04381B042F20008C4F2B2
:102AE00002080446D8F800000D4600F007008842AE
:102AF0000CD2D8F8000020F007002843C8F80000E6
:102B0000D8F8000000F00700A8426BD1206841F21D
:102B100004098107C4F2020917D5410705D5D9F880
:102B2000001041F4E061C9F80010010705D5D9F89B
:102B3000001041F46051C9F80010D9F80010A268E3
:102B400021F0F0011143C9F80010C00741D1D8F8B5
:102B5000000000F00700A8420CD9D8F8000020F0CF
:102B600007002843C8F80000D8F8000000F007006C
:102B7000A84237D12068410707D5D9F80010E2688C
:102B800021F4E0611143C9F80010000708D5D9F815
:102B90000000216920F4605040EAC100C9F800003B
:102BA000D9F8002002F00C00082841F20020C0F201
:102BB0007A0049D146F64373C2F38341C0F600035D
:102BC000595CD20334D440F60010C0F23D004843B3
:102BD0003AE0606859F8041C022807D0012824D183
:102BE000890305D4012001B0BDE8F0838901F9D53E
:102BF000D9F8001021F003010843C9F80000FFF7DD
:102C0000BDFD064641F28837D9F80000616800F042
:102C10000C00B0EB810F9AD0FFF7B0FD801BB842DB
:102C2000F2D9032001B0BDE8F0838907DAD5DFE7E8
:102C3000D9F8002046F2FC53C2F34042C0F600032C
:102C40009A5C4843B0FBF2F0D9F8001046F2FE520D
:102C5000C1F30311C0F60002515C40F2100220FAE9
:102C600001F140F23400C2F200000068C2F200023A
:102C70001160FFF7ABFD002001B0BDE8F08300005C
:102C800040F2100041F20401C2F20000C4F202015D
:102C90000068096846F20E62C1F30221C0F6000224
:102CA000515CC8407047000040F2100041F204013E
:102CB000C2F20000C4F202010068096846F20E6226
:102CC000C1F3C221C0F60002515CC8407047000049
:102CD00041F2040CC4F2020CDCF8003003F00C00EA
:102CE000082841F20020C0F27A0018BF704746F66B
:102CF0004371C3F38342C0F600018A5CD90305D453
:102D000040F60010C0F23D0050437047DCF8001060
:102D100046F2FC53C1F34041C0F60003595C5043F6
:102D2000B0FBF1F070470000002804BF012070479D
:102D30002DE9F04182B00446007841F20006C00758
:102D4000C4F2020647D0706800F00C00042808D1D5
:102D5000306880033FD56068E8BB012002B0BDE861
:102D6000F081706800F00C00082802D17068C00380
:102D7000EED4656830682DB1B5F5A02F09D0B5F552
:102D8000803F0AD020F480303060306820F480200A
:102D900005E040F480203060306840F480303060DE
:102DA000FFF7ECFC002D054612D000BF3068800311
:102DB00011D4FFF7E3FC401B6428F7D916E100BFEC
:102DC000FFF7DCFC401B64284FF0030000F2D880C2
:102DD00030688003F4D42078800719D5706810F02B
:102DE0000C0F07D0706800F00C00082827D170681D
:102DF000C00324D43068800703D52069012840F03F
:102E0000A6803068616920F0F80040EAC1003060B7
:102E1000207800074ED5A06938B30020C4F24220C4
:102E20000121C0F88014FFF7A9FC0546706A8007ED
:102E30002DD4FFF7A3FC401B0228F7D9D6E0206968
:102E4000002840F20000C4F2422000F0A8800121D6
:102E50000160FFF793FC054630688007D1D4FFF787
:102E60008DFC401B0228F7D9C0E00020C4F24220AC
:102E70000021C0F88014FFF781FC0546706A8007C6
:102E800018D5FFF77BFC401B0228F7D9AEE040F2D3
:102E90001000C2F20000006844F6D351C1F2620192
:102EA000A0FB0101480A019000BF0198411E0028C3
:102EB0000191F9D12078400717D4E5698DB1706888
:102EC00000F00C00082846D1012D40D07068216A1E
:102ED00000F480328A423AD1616A00F4701088426C
:102EE00035D1002002B0BDE8F081F0695FEAC0088A
:102EF00008D4F06940F08050F061F06900F0805033
:102F00000090009847F20007C4F200073868C00537
:102F10000FD4386840F480703860FFF72FFC054606
:102F20003868C00505D4FFF729FC401B6428F7D991
:102F30005CE0E568306A1DB1052D41D0012D43D01C
:102F400020F001003062306A20F004003EE00120F1
:102F500002B0BDE8F0810027C4F2422700203866A5
:102F6000FFF70CFC022D05460ED100BF3068800132
:102F700053D5FFF703FC401B02284FF00300F5D99F
:102F800002B0BDE8F08100BF30688001A9D5FFF72D
:102F9000F5FB401B02284FF00300F5D9F0E70021B4
:102FA0000160FFF7EBFB0546306880077FF530AF27
:102FB000FFF7E4FB401B02284FF00300F4D9DFE7E2
:102FC00040F004003062306A40F001003062FFF7E8
:102FD000D5FB002D054641F2883712D0306A8007B4
:102FE00012D4FFF7CBFB401BB842F7D9032002B045
:102FF000BDE8F081FFF7C2FB401BB8424FF0030071
:10300000BED8306A8007F5D4B8F1000F3FF555AF50
:10301000F06920F08050F0614FE7206AB0F5803F02
:1030200005D17168A26821F40031114371607168A3
:10303000626A21F4741111430843706001203866FC
:10304000FFF79CFB044600BF306880013FF549AFA5
:10305000FFF794FB001B02284FF00300F4D98FE721
:10306000411E0020B0EB116F1CBF012070474EF2D3
:103070001002CEF2000251604EF62351CEF2000152
:10308000F0230B70072190601160704770470000BB
:1030900070470000002804BF0120704710B50446A7
:1030A00090F83D0028B9002084F83C00204600F04C
:1030B0001FF8022084F83D002068211D01F0EEFC7D
:1030C000012084F8460084F83E0084F83F0084F82C
:1030D000400084F8410084F8420084F8430084F8FA
:1030E000440084F8450084F83D00002010BD000035
:1030F0007047000090F83D1001291CBF0120704767
:10310000022180F83D10006840F6FF32C168C4F229
:103110000002904241F00101C1600FDCB0F1804F2C
:103120001ED040F20041C4F20001884218D040F69F
:103130000001C4F20001884212D018E040F60041BC
:10314000C4F2000188420BD043F20041C4F20101F5
:10315000884205D042F60041C4F20101884206D1FE
:10316000816801F00701062904BF0020704701684B
:1031700041F001010160002070470000002804BFF9
:10318000012070472DE9F047044690F83D000D46B8
:1031900028B9002084F83C00204600F049F80220BD
:1031A00084F83D00206844F2070281689143816001
:1031B000211D01F073FC20684FF6FF788168826959
:1031C000D0F820C0D5E9003ED5E9026A43EA0109FA
:1031D000AB6922EA080246EA03234FF6FC46B343F2
:1031E000D5E9076742EA0A0229691A4342EA062238
:1031F00042EA01112CF022026B6942EA0E0241EA16
:10320000073142EA0312C0F808908161026201208E
:1032100084F8460084F83E0084F83F0084F84200B9
:1032200084F8430084F83D000020BDE8F0870000EA
:103230007047000080B590F83E2090F83F3090F83D
:1032400042E090F843C0042909D099B9012A4FF00F
:10325000010208BFBEF1010F22D0104680BD012B34
:103260004FF0010208BFBCF1010FF6D1022280F835
:103270003F2012E0012A4FF0010208BF012BECD1E0
:10328000BEF1010FE9D1BCF1010FE6D1022280F8B5
:103290003E2080F83F2080F8422080F8432004E060
:1032A000022280F83E2080F8422002680429136A36
:1032B00004D031B923F0010101230DE023F0100106
:1032C00009E023F001011162116A41F0010111626C
:1032D000116A21F0100110231162116A1943116261
:1032E00000680022016841F001010160104680BDC4
:1032F000016840F60000C4F20000814218BF704728
:1033000010B500F588302021FFF72AFA40F2DC7072
:10331000C2F2000090F9001000292FD4C9B2402950
:1033200015D24022027040F20472C2F2000240F252
:10333000DE711268C2F20001002008805062106A3B
:1033400020F00A001062106A40F0020015E040F21E
:10335000047441F08001C2F2000401702046002193
:1033600000F006FB40F2DE71C2F200012268088024
:10337000106A20F00A001062106A1062BDE8104066
:103380007047000010B5044600680169890744BF12
:10339000C1685FEA81713FD420680169490744BF71
:1033A000C1685FEA417143D420680169090744BFDD
:1033B000C1685FEA017148D420680169C90644BF49
:1033C000C1685FEAC1614CD420680169C9071CBFAC
:1033D000C1685FEAC17151D120680169090644BF23
:1033E000C1685FEA016150D420680169490644BFA1
:1033F000C1685FEA41614FD421680869800646BF11
:10340000C8685FEA806010BD6FF0200220460A6144
:10341000BDE81040FFF73CBE6FF0020101610121E1
:103420002177806980073ED02046FFF761FF40E0AA
:103430006FF00401016102212177806910F4407F5F
:103440003AD02046FFF754FF3CE06FF008010161DD
:1034500004212177C069800737D02046FFF748FF55
:1034600039E06FF01001016108212177C06910F483
:10347000407F33D02046FFF73BFF35E06FF001017E
:103480000161204600F046FAA6E76FF08001016175
:103490002046FFF7FBFDA7E76FF0400101612046E2
:1034A00000F072FAA8E7204600F022F8204600F06B
:1034B000BDF9002020776FE7204600F019F820467C
:1034C00000F0B4F9002020776EE7204600F010F8F5
:1034D000204600F0ABF9002020776DE7204600F091
:1034E00007F8204600F0A2F9002020776CE70000E2
:1034F0007047000090F83C30012B04BF0220704759
:103500004FEAB2020123032A80F83C3000F2168110
:103510002DE9F041DFE802F002C64690036843F26D
:1035200000461A6AC4F2010622F001021A621D6AFC
:103530001A465C6852F818CF8F68D1F800E025F081
:103540000205B34245EA070505D042F60047C4F23A
:103550000107BB4205D1CF6825F00C0527F0040711
:103560003D43B34205D042F60046C4F20106B342E1
:1035700005D1D1E9056724F4407434433C432CF071
:10358000730747EA0E075C609F614F6809695F63D4
:103590001D629F6947F008079F619F6927F0040734
:1035A0009F61C6E0036843F200461A6AC4F201064E
:1035B00022F480721A621D6A1A46D3F804C052F8C7
:1035C0001CEF8F68D1F8008025F40075B34245EAFE
:1035D000072505D042F60047C4F20107BB4208D1D7
:1035E000CF6840F2FF443F0225F4406527EA040417
:1035F0002543B34205D042F60044C4F20104A3427D
:1036000006D1D1E905462CF44057264347EA061C6B
:103610002EF0730747EA0807C3F804C0DF614F685C
:103620000969DF631D62DF6947F00807DF61DF6951
:1036300027F00407DF617CE0036843F200471A6A61
:10364000C4F2010722F480521A621A46D3F820C04D
:103650005D6852F81C4FD1F800E08E68BB4205D07F
:1036600042F60047C4F20107BB4204D14F6925F47A
:10367000804545EA87152CF4005747EA063724F4BD
:10368000E64646EA0E265D60DE614E6809691E6404
:103690001F62DF6947F40067DF61DF6927F4806735
:1036A000DF6145E0036843F200481A6AC4F201088A
:1036B00022F010021A621D6A1A465C6852F818CF8E
:1036C0008F68D1F800E025F02005434545EA07154D
:1036D00005D042F60047C4F20107BB4207D1CF68CC
:1036E0006FF0400625F0C00506EA0716354343454E
:1036F00005D042F60046C4F20106B34206D1D1E934
:10370000056724F440643E4344EA86042CF4E6470B
:1037100047EA0E275C609F614F6809699F631D62DD
:103720009F6947F400679F619F6927F480679F61E5
:103730000902136819431160BDE8F041002180F8C7
:103740003C10002070470000002804BF0120704793
:1037500010B5044690F83D0028B9002084F83C00DC
:10376000204600F01FF8022084F83D002068211D4B
:1037700001F094F9012084F8460084F83E0084F8B2
:103780003F0084F8400084F8410084F8420084F847
:10379000430084F8440084F8450084F83D0000208C
:1037A00010BD00000068B0F1804F18BF704710B521
:1037B00086B041F21804C4F202042068022140F0ED
:1037C00004002060206800F0040002900298606805
:1037D00040F001006060606800F001000290029813
:1037E00001200290CDE903100320059040F600006F
:1037F000C4F2010002A9FEF7BFFE20684FF6FF42A7
:1038000040F0010020602068CFF6FF0200F00100C8
:10381000019001980420C4F201000168114001F1F7
:10382000E061016006B0BDE81040704770470000DD
:103830004122082908BF4022042908BF3F2200294D
:1038400008BF3E22825C012A1CBF01207047022271
:1038500041B1082909D0042914BF80F8412080F81B
:103860003F2004E080F83E2001E080F8402000681E
:1038700001F01F010122036A02FA01F123EA0102A9
:103880000262026A0A4340F6FF31C4F20001884234
:10389000026217DD40F60042C4F20002904220D0DE
:1038A00043F2004CC4F2010C604505D042F60043DF
:1038B000C4F2010398421BD1436C884243F4004395
:1038C00043641BDCB0F1804F0BD040F20041C4F2E6
:1038D0000001884205D040F60001C4F20001884290
:1038E00006D1816801F00701062904BF0020704756
:1038F000016841F001010160002070479042F0D062
:103900006045EED042F60041C4F201018842E8D0A1
:10391000EEE70000006840F60001C4F200018842B2
:1039200000D0704740F2DC70C2F2000090F9001045
:103930004029B8BF7047C9B201F03F023F2A14D1F5
:1039400040F20471C2F2000109680A6A22F00A0218
:103950000A620A6A0A62FF21017040F2DE70C2F256
:1039600000004FF6FF710180704701310170704710
:103970004FEAB101032984BF00207047006800EBC3
:103980008100406B704700007047000070470000E6
:10399000B0B501680A68CC684B6902F02F05202D8C
:1039A00004F0200504D11DB1BDE8B04001F01AB902
:1039B0005FEA027C1EBF03F0010E04F4907313EB68
:1039C0000E032CD1130619D514F0800316D090F8ED
:1039D0003920212A11D18268B2F5805F03D10269B2
:1039E000002A00F08E80026A531C036212784A603B
:1039F000C28C013A1304C28476D0B0BD5206FCD505
:103A000014F0400208BFB0BDCA6822F04002CA608C
:103A1000202180F83910BDE8B04000F067BAD10726
:103A200018BF14F4807102D1510706D40CE0C16BA9
:103A300041F00101C163510706D5BEF1000F03D06B
:103A4000C16B41F00201C163910706D5BEF1000FC1
:103A500003D0C16B41F00401C163BCF1000F06D576
:103A60005EEA050103D0C16B41F00801C163C16B7F
:103A70000029C2D0910604D51DB1044601F0B2F868
:103A8000204601684A69C36B02F0400203F0080354
:103A9000D21823D0CA6822F49072CA604A6922F010
:103AA00001024A61202280F83A204A69520624D550
:103AB0004A6922F040024A61416BF1B144F6D932C1
:103AC000C0F60002044608464A63FEF77BFB002866
:103AD00093D0606B416BBDE8B04008470446FFF7E8
:103AE00055FF0020E063B0BDC86820F08000C860CA
:103AF000C86840F04000C860B0BDBDE8B040FFF706
:103B000045BF026A32F8023B6FF35F234B600262EB
:103B10006EE70000002804BF0120704710B504467E
:103B200090F8390028B9002084F83800204600F0C9
:103B300061F8242084F839002068D4E90212C368AF
:103B400023F40053C360036923F440531A43026112
:103B5000D4E904231143C268194341F20C639A4328
:103B60001143C1604169A26921F44071114343F6D8
:103B70000002C4F201029042416102D0FFF780F8D6
:103B800001E0FFF791F8D4E9002319214843990097
:103B9000B0FBF1F048F21F5CC5F2EB1CA0FB0C314E
:103BA0004FF69C734909C0F6FF7301FB03003223F3
:103BB00003EB0010A0FB0C03F02000EA531000EB15
:103BC0000110C3F34311084490601069202120F4D0
:103BD00090401061506920F02A005061D06840F494
:103BE0000050D0600020E06384F8391084F83A1067
:103BF00010BD0000B0B584B040F60004C4F201046A
:103C0000006804F54051884201D004B0B0BD41F2D3
:103C10001800C4F2020001686D4641F00401016021
:103C2000016801F0040100910099016841F004016C
:103C30000160016801F0040100910099016841F4FC
:103C4000804101600068294600F48040009000989F
:103C50004FF4007000900220019001200290032098
:103C600003902046FEF788FC4FF48060009000200F
:103C7000019020462946FEF77FFC40F2EC70C2F22C
:103C8000000040F228614030C2F20001012200F041
:103C90000BF82520FEF7C4FD252003210322FEF7A3
:103CA000D1FD04B0B0BD0000034690F83A002028D2
:103CB0000AD100294FF0010018BF002A00D1704737
:103CC00093F83800012801D1022070479962002042
:103CD00022219A85DA85D86383F83A10196883F827
:103CE0003800CA6842F48072CA604A6942F0010230
:103CF0004A61CA6842F02002CA607047B0B544F217
:103D000000450446C4F20005006805F57441884288
:103D100035D140F6B410C2F20000B0F9001000290D
:103D200021D440F22862C2F2000289B21378B1F5C0
:103D3000804F04D20D2B0CD141F4804212E048F2A6
:103D4000000C0022CFF6FF7C0A2B08BF41EA0C02D0
:103D500008E040F6EC02C2F2000253544A1CC629A5
:103D600088BF0022028040F2EC70C2F2000040F2F4
:103D700028614030C2F200010122FFF795FF206860
:103D8000A84218BFB0BD40F2EC7540F2EB74C2F22D
:103D90000005C2F2000405F14000214601224FF067
:103DA000FF3300F009F805F1800021460122BDE84B
:103DB000B040FFF779BF00002DE9F04381B0044621
:103DC00090F8390020280DD10E4600294FF001004F
:103DD00018BF002A02D101B0BDE8F08394F8380082
:103DE000012803D1022001B0BDE8F083012084F84E
:103DF00038000020E0632120994684F839001546F8
:103E0000FEF7BCFCA584E584A1688046B1F5805F1F
:103E100002D1206900283DD037460026002084F8D2
:103E20003800E08C58B309F1010509E097B117F8A3
:103E3000010B21684860E08C0138E084E08CF0B12F
:103E4000206800680006F1D4BDB1B9F1000F0ED1B1
:103E500022E000BF36F8020B21686FF35F20486054
:103E60000027E8E701680906E0D4002DFAD0FEF744
:103E700085FCA0EB080048450ED82068F2E72068D2
:103E8000006840062AD4B9F1000F05D019F10105E8
:103E900017D01CE00027C1E72068C16821F4D07169
:103EA000C160416921F001014161202084F839009D
:103EB00084F83A00002084F83800032001B0BDE8FF
:103EC000F08320680168490608D4002DFAD0FEF777
:103ED00055FCA0EB08004845F3D9DDE7202084F825
:103EE0003900002001B0BDE8F083000070470000F9
:103EF000FEE7000040F2CC01C2F200010A78002087
:103F0000002A1CBF087010467047000040F2CD0028
:103F1000C2F2000001780131CAB2142A017038BF20
:103F20007047F0B581B040F2CE0740F600040021A2
:103F3000C2F20007C4F201040170387840F2CF06E3
:103F4000C2F2000604F58065307028464FF48061A7
:103F5000FEF700FCA8B128464FF40061FEF7FAFB1B
:103F600088B120464FF40061FEF7F4FB68B12046AB
:103F70004FF48051FEF7EEFBB0FA80F0400980006C
:103F800004E0012002E0022000E00320387038B98C
:103F9000307800281EBF40F2CC01C2F20001087048
:103FA00001B0BDE8F0407047FEE70000B0B584B056
:103FB00041F21800C4F20200016840F6004441F0EA
:103FC000080101600068C4F2010400F008000090DC
:103FD00000984FF4005000900120CDE9010003202B
:103FE0006D46039020462946FEF7C6FA4FF48050EE
:103FF000009020462946FEF7BFFA40F2E730232121
:1040000000F06EFE20464FF480510122FEF7B0FB17
:1040100020464FF400510022FEF7AAFB04B0B0BDC9
:10402000B0B540F600440028C4F2010412D485B2B1
:1040300020464FF480510022B5F57A7F28BF4FF417
:104040007A75FEF795FB20464FF400510122FEF7EA
:104050008FFB14E04FF61845CFF6FF7510F57A7F09
:10406000C8BF054620464FF480510122FEF780FB71
:1040700020464FF400510022FEF77AFB6D4240F2D9
:104080004C70C2F200000068A9B24163B0BD0000EC
:104090007047000080B540F2D000C2F200004FF43B
:1040A0008061FCF74FF980BDB0B584B041F21800D3
:1040B000C4F20200016840F6004441F020010160B2
:1040C0000168C4F2010401F0200100910099016827
:1040D000012241F480710160016801F48071009156
:1040E0000099016841F008010160016801F00801D0
:1040F00000910099016841F00401016000684FF4EB
:10410000006100F00400009000982046FEF730FBAC
:10411000002002904FF48070009011200190032045
:104120006D46039020462946FEF726FA4FF40070AC
:10413000009020462946FEF71FFA20464FF4807172
:104140000122FEF715FB20464FF400710122FEF715
:104150000FFB04B0B0BD000070B540F6004405464A
:10416000C4F20104002600BF05FA06F0C0B2C2097D
:1041700020464FF40071FEF7FBFA20464FF48071A1
:104180000122FEF7F5FA20464FF480710022FEF777
:10419000EFFA0136082EE7D120464FF48071012254
:1041A000FEF7E6FA20464FF480710022BDE8704029
:1041B000FEF7DEBAB0B5FFF777FFAE2000F030FAB9
:1041C000D52000F02DFA802000F02AFAA82000F077
:1041D00027FA3F2000F024FAD32000F021FA002033
:1041E000002500F01DFA402000F01AFAA12000F08E
:1041F00017FAC82000F014FADA2000F011FA1220A1
:1042000000F00EFA812000F00BFACF2000F008FA3F
:10421000D92000F005FAF12000F002FADB2000F0CE
:10422000FFF9302000F0FCF9A42000F0F9F9A620F5
:1042300000F0F6F98D2000F0F3F9142000F0F0F909
:10424000AF2000F0EDF940F2D004C2F200042046A5
:104250004FF48061FCF776F845F0B000C0B200F092
:10426000DFF9102000F0DCF9002000F0D9F9204639
:10427000802100F02FFA0135082D04F18004EBD1E4
:10428000B0BD0000F0B5C1B001AF14460D46064602
:1042900046AA384619460092FCF72CF830462946C3
:1042A0003A46234600F0B0F841B0F0BD40F2D001EC
:1042B0004FF0000CC2F200014FF0FF328B1858781B
:1042C0000132C0437F2A5870F8D10CF1010CBCF1C7
:1042D000080F01F1800108BF7047EDE72DE9F04FAD
:1042E00084B0CDE9020293B3DDE9022003EB0109BA
:1042F00000EB020B4FF0010808460F4604E000BF38
:10430000013738B2814522DD039A002AF8D007F040
:10431000070440F2D002029E08FA04F4C008C2F278
:1043200000026FEA040A02EBC014304604E000BF4A
:10433000013630B28345E3DDBDB23F2DF8D8B5B2CA
:104340007F2DF5D8255C05EA0A052554F0E7581EAF
:1043500000EB5070C010019001EB5170C31020F0C1
:10436000070003EBE1320823081A03EA113108447D
:10437000009282B2C0F108001FFA80FB00204FF0CB
:10438000000806E008F1010801995FFA88F081420F
:1043900036DB03990029F5D0039D0D9B5FFA88F168
:1043A000009E05FB013740F2D0033144C2F2000306
:1043B00006EB000A029803EBC1130AF1010904E0BD
:1043C0000137013D00F10100DCD07F28F8D8BAF1B7
:1043D000070F08D897F800C013F800E00CFA02F6AF
:1043E00046EA0E061E54B9F1070FE9D83E781918AF
:1043F00091F8804026FA0BF6264381F88060DFE7CB
:1044000004B0BDE8F08F00002DE9F04F89B01546EB
:1044100012780690002A00F0E3800DF11F000E468E
:10442000011D0191C11C46F2166B1C460291811CB4
:104430000130C0F6000B4FF0250A4FF000084FF096
:10444000000903910490059650B2002813D502F09C
:10445000E001C02909F1010113D002F0F003E02BC3
:104460001CD002F0F803F02B2ED088B22A5C8946CB
:10447000002AE9D1B4E0049909F101098DF81F205F
:104480003EE089B2695C8DF81F20002900F0A88009
:104490008DF82010039909F1020931E089B2695CB5
:1044A0008DF81F20002900F09B8009F102039BB2C8
:1044B000EB5C8DF82010002B00F09280029909F13E
:1044C00003098DF821301BE089B2695C8DF81F204B
:1044D000002900F0858009F102039BB2EB5C8DF8A6
:1044E0002010002B7CD009F1030189B2695C8DF8A2
:1044F0002130002974D08DF82210019909F10409A6
:10450000B0F1FF3F4FF00000087012DD0698062C56
:10451000404400B225D0082C33D146F65311C0F6E2
:10452000000101EB0211A1F50077314608221023AA
:1045300024E09BF80000264658B300245F4600BFE5
:1045400038460DF11F01FBF725FF18B30134A0B267
:1045500000FB0AF11BF8011000FB0AB70029EFD19C
:1045600018E002EB420146F21972C0F6000202EBBB
:104570004101A1F1C0073146062208230097FFF749
:10458000ADFEA0441FFA89F02A5C002A7FF45CAFDC
:1045900026E05F463446062E0FD0059E082CF1D14A
:1045A00006980537404400B2314610221023009788
:1045B000FFF794FE08F11008E4E7069846F2197137
:1045C000059E4044C0F6000101F1BA0700B2314631
:1045D000062208230097FFF781FE08F10608D1E7BD
:1045E00009B0BDE8F08F0000B0B540F2D00400255E
:1045F000C2F2000445F0B000C0B200F011F8102083
:1046000000F00EF8002000F00BF82046802100F0AA
:1046100061F80135082D04F18004EBD1B0BD000034
:1046200070B540F60044C4F20104054620464FF43C
:1046300000710122FEF79CF820464FF480710122A0
:10464000FEF796F820464FF400710022FEF790F82E
:1046500020464FF480710022FEF78AF87820FFF799
:104660007BFD082620464FF400710022FEF780F8FB
:1046700020464FF480710122FEF77AF820464FF46D
:1046800080710022FEF774F8013EEBD120464FF412
:1046900080710122FEF76CF820464FF480710022F1
:1046A000FEF766F82846FFF757FD20464FF40071E5
:1046B0000022FEF75DF820464FF480710122FEF7DC
:1046C00057F820464FF400710122BDE87040FEF714
:1046D0004FB8000070B540F60044C4F201040D4626
:1046E000064620464FF400710122FEF741F82046AD
:1046F0004FF480710122FEF73BF820464FF4007121
:104700000022FEF735F820464FF480710022FEF7B4
:104710002FF87820FFF720FD4020FFF71DFD3DB169
:10472000013E00BF16F8010FFFF716FD013DF9D15C
:1047300020464FF400710022FEF71AF820464FF48D
:1047400080710122FEF714F820464FF40071012217
:10475000BDE87040FEF70CB87047000070470000DD
:10476000FEF712B8704700002DE9F04381B040F227
:104770002C68C2F20008D8F800000069C00700F0F9
:10478000A880FFF7C3FB40F2D440C2F200000178DA
:1047900001314AB2152A0170C0F2968000210170E1
:1047A000FFF722FFFDF71CF840F6B612C2F2000236
:1047B00040F6B8111388C2F2000108801844108036
:1047C00000B201F0C3FC014640F29800C2F20000C2
:1047D000016040F2C00640F22050C2F20006C2F270
:1047E00000003468006840F2C402C2F200021460A3
:1047F00001F00CFE40F2C809C2F20009D9F800101D
:104800000546306001F0BAFB0021064625F0004065
:10481000C4F2201101F022FC002840F20C00C2F288
:10482000000018BF0026076840F22400C2F2000012
:104830000078C9F8006001F0A1FC40F20801C2F262
:104840000001096802460846114601F013FD0146C1
:10485000304601F00FFD06463846294601F00AFDB4
:10486000314601F08BFB40F20401C2F200010E68F8
:1048700007462846214601F0C9FD0146304601F0B1
:10488000F9FC394601F07AFB0021C4F27A41044672
:1048900001F0E4FB002100281CBF0024C4F27A448C
:1048A000CCF27A41204601F0EEFB002840F2D040E5
:1048B000C2F200001CBF0024CCF27A4404602046FF
:1048C00001F028FCFFF7ACFBD8F800006FF0010105
:1048D000016101B0BDE8F08340F27460C2F20000F3
:1048E00000680169C9071CBF6FF0010101617047D1
:1048F00040F2BC60C2F2000000680169C9071CBF39
:104900006FF001010161704740F20470C2F20000D3
:10491000FEF738BD2DE9F04381B040F2EA76C2F2ED
:104920000006307843F21045C4F2010578B140F238
:10493000E870C2F200000021018040F2947029600A
:10494000C2F200000068416201B0BDE8F08340F2AD
:104950009470C2F2000000680169C9071AD06FF0B4
:10496000010101610169890714D440F2E872C2F2C1
:104970000002B2F9007040F27856BBB2C2F20006F3
:104980000021002B317079D04FF6FF76B34277D1FA
:1049900000237BE040F27857C2F2000739780069C3
:1049A000002946D0800748D540F29478C2F200082A
:1049B00040460421FEF7DCFF40F2E4790130C2F208
:1049C0000009C9F80000404600210024FEF7D0FF8E
:1049D000D9F80020431C40F2E071C2F200019A4273
:1049E0000B602FD201233370AB6940F2E876C2F23C
:1049F00000061C04338004D101320230C9F80020C3
:104A000008600020387055F8101C21F0010145F8AD
:104A1000101CD8F80010CA6822F00202CA60CA68E6
:104A200022F00402CA60CA6822F00102CA6028604B
:104A300003E0800744BF012038700020286001B0E7
:104A4000BDE8F08300F072FB40F2E870D8F8001087
:104A5000C2F20000347004808C624C62C86840F07E
:104A60000200C860C86840F00100C860086840F0F3
:104A7000010008602C6000F05BFBDEE7012305E02D
:104A80004FF0FF33B7F1FF3FC8BF7B0013809AB2EE
:104A900082624162296001B0BDE8F08310B540F642
:104AA000FF320368C4F2000240F6004E43F2004CAD
:104AB0009042C4F2000EC4F2010C20DCB0F1804F31
:104AC00027D040F20044C4F20004A04221D040F6B6
:104AD0000004C4F20004A0421BD090421FDCB0F1DD
:104AE000804F26D040F20042C4F20002904220D013
:104AF00040F60002C4F2000290421AD01DE0704558
:104B000007D0604505D042F60044C4F20104A0423B
:104B1000E3D14C6823F0700323439042DFDD7045FE
:104B200007D0604505D042F60042C4F2010290422F
:104B300003D1CA6823F4407313434C6923F0800205
:104B4000D1F800E08B68224360450260C362C0F880
:104B500028E005D042F60042C4F20102904201D1A1
:104B6000096901630121416110BD000010B582B0E7
:104B700041F20004C4F2010420464FF40051012226
:104B8000FDF7F6FD41F21800C4F2020001680022B0
:104B900041F4006101600068472100F40060019069
:104BA000019804F5E05040F22C64C2F2000440F297
:104BB000E73384E80F002046FEF76CFA1920012144
:104BC0000222FDF73FFE1920FDF72AFE204602B023
:104BD000BDE81040FEF78EBA406A0021C185C1844D
:104BE000FEF7D4BE90F83A10222918BF70478268A9
:104BF000B2F5805F01D1016949B3816AB2F5805F86
:104C000007D00AB9026922B10268526802F07F0235
:104C100001E0026852680A70816A01318162C18DC7
:104C200001390A04C18500D070470168CA6822F0C2
:104C30002002CA60CA6822F48072CA604A6922F0FF
:104C400001024A61202180F83A10FFF757B8016845
:104C5000826A49686FF35F2122F8021B8262DEE7F5
:104C600040F2EC70C2F200004030FEF791BE00004E
:104C7000FEE700007047000040F22461C2F200012C
:104C80000860704780B54EF2180140F22462CEF2FF
:104C90000001C2F2000251F804CC12680023504314
:104CA0004FF47A7200FB02FE086800BF0A68824275
:104CB000FCD003449B1A824228BF634473451046CC
:104CC00028BF80BDF2E7000040F22C01C2F20001D3
:104CD000096800BF0A685206FCD5C2B24A60704734
:104CE00070B588B040F24C750446C2F200054FF032
:104CF0008040002685E8430028460796CDE90566F2
:104D0000CDE90366CDE90166EC60FEF71DFD60208C
:104D100001906008CDE9020601A928460022FEF7AD
:104D2000E9FB28460021FEF783FD08B070BD0000B6
:104D3000F0B585B041F21800C4F20200016840F6F7
:104D4000000441F0080101600168C4F2010401F0AF
:104D5000080101910199016804F5806541F008019D
:104D60000160016801AE01F008010191019901683B
:104D700041F0040101600068314600F00400019038
:104D800001984FF480600190002002900120039070
:104D9000032004902846FDF7EFFB4FF400672846F8
:104DA00031460197FDF7E8FB204631460197FDF7B4
:104DB000E3FB4FF48050019020463146FDF7DCFBC9
:104DC00005B0F0BD10B584B041F21800C4F2020085
:104DD000016841F2000441F0100101600168C4F271
:104DE000010401F0100100910099016841F04001B7
:104DF00001600068694600F04000009000984FF4A0
:104E0000005000900120CDE90100032003902046CE
:104E1000FDF7B2FB20464FF400510122FDF7A8FC3C
:104E200004B010BD86B0FDF7BDFC4FF4E01000F0FB
:104E300081F94820FFF720FF01204FF4E13100F015
:104E4000A7F9FFF7BFFFFFF773FFFFF7B3F941F2D1
:104E50000000C4F201004FF400510022002305932A
:104E6000FDF786FCFFF782FEFCF72CFBFFF79EF8B0
:104E7000FCF7C2FC0020FFF7D3F840F2205B40F2C1
:104E80009804C2F2000BC2F20004DCE00220FCF73E
:104E9000A3FB00F035FF4FF60065C4F2AF0500221A
:104EA0002B4600F0D1FD0027C4F2340700223B4618
:104EB00000F03AFF00F096FD40F20C09C2F2000942
:104EC000C9F800000320FCF787FB00F019FF00225F
:104ED0002B4600F0B9FD00223B4600F025FF00F014
:104EE00081FD40F2080AC2F2000ACAF8000004205C
:104EF000FCF772FB00F004FF00222B4600F0A4FD3B
:104F000000223B4600F010FF00F06CFD40F204066A
:104F1000C2F2000630604046CDF8148001F016F968
:104F2000CBF800000220FCF757FB074600200021C9
:104F3000062253A30097FFF7A5F9DBF8000000F065
:104F4000F1FF07460D460020082106224FA3CDE9B8
:104F50000075FFF797F9206800F0E4FF07460D465B
:104F60000020102106224CA3CDE90075FFF78AF935
:104F700040F2D048C2F20008D8F8000000F0D2FF9A
:104F800007460D4600201821062246A3CDE90075EC
:104F9000FFF778F940F2C800C2F20000006800F0A4
:104FA000C1FF07460D4600202021062240A3CDE97F
:104FB0000075FFF767F9D9F8000000F0B3FF074666
:104FC0000D463C20002106223DA3CDE90075FFF7E8
:104FD00059F9DAF8000000F0A5FF07460D463C201D
:104FE0000821062239A3CDE90075FFF74BF9306897
:104FF00000F098FF07460D463C201021062236A3FC
:10500000CDE90075FFF73EF9DBF8000000F08AFFFC
:10501000054620680F4600F085FF8146D8F800005D
:105020008A4600F07FFF0E46029001202DA12A46FD
:105030003B46CDE9009A039600F05CF8FFF736F99D
:105040001420FFF71FFEFFF725F8FEF753FF013886
:10505000032811D8DDF81480DFE800F0050B020802
:105060004FF0000812E708F1CC080FE7C8F100087C
:105070000CE7A8F1CC0809E7DDF8148006E700BFCB
:105080004144433A252D3464000000005441523A13
:10509000252B30342E3066004143543A252B3034D2
:1050A0002E3066004F55543A252B30342E30660092
:1050B00045494E543A252B30342E3066000000000E
:1050C000503A2530322E316600000000493A253032
:1050D000322E316600000000443A2530322E31660F
:1050E00000000000252E30662C252E30662C252E43
:1050F00030660A0082B080B582B08C4640F214015E
:10510000C2F2000151F8200040F22C01C2F200016D
:10511000086004A96046CDE904230191FBF7E4F897
:1051200002B0BDE8804002B07047000072B6704720
:1051300062B67047F0B58FB005AD04462846282109
:10514000FBF700F90120002605904FF4803002277C
:10515000CDE90606CDE90C7028460496CDE9026635
:10516000CDE900660E94FDF7DFFD00B1FEE70F20EC
:10517000CDE900074FF48060CDE9030668460221BF
:105180000296FDF7A3FC00B1FEE70FB0F0BD0000F2
:1051900040F21402C2F2000240F2EC7C52F82030DD
:1051A000C2F2000C0CEB801280014CF800300C2095
:1051B000002350611046C2E90113C2E90333936131
:1051C000FEF7A8BC5FEA400C08BF91F0000F4FEA61
:1051D0008C234FEAC12243EA51514FEA1C5018BFB9
:1051E00000F5F0404FEA300018BF41F000415FEA9F
:1051F0006C5C00F02980BCF1FF3F08BF40F08040AC
:105200007047130C06BF12044FF0100C4FF0000C47
:10521000130E04BF12020CF1080C130F04BF12018D
:105220000CF1040C930F04BF92000CF1020CD30F8D
:1052300004BF52000CF1010C11464FF00002A0F126
:105240001F00A0EB0C00704711F0004F08BF704723
:1052500031F000413FF4D5AF0B0C06BF09044FF00D
:10526000100C4FF0000C0B0E04BF09020CF1080CDF
:105270000B0F04BF09010CF1040C8B0F04BF890054
:105280000CF1020CCB0F04BF49000CF1010CCCF166
:10529000200322FA03F341EA030102FA0CF2A0EB25
:1052A0000C0000F10100704723F07F4720F07F4C95
:1052B00080EA030000F00040ACEB070303F57C53E9
:1052C00003F1FF032DE9804909B44FEA144324EAAE
:1052D00003484FEA154B25EA0B4E0FF2042606EB66
:1052E00013273E7803FB0667C7F5000707FB06F6A2
:1052F0004FEAD64606F102064FEA543707FB066C22
:10530000CCF1005C4FEA1C472CEA074C0CFB06F57D
:1053100007FB06F404EB15464FEA961649085FEAC8
:10532000320234BF00204FF000404FEAD13706FB75
:1053300007FC4FEA1C4C0CFB0BF7D21B03FB0CF7D2
:1053400061EB07010CFB0EF7B0EB074072EB174265
:105350000CFB08F734BFA2EB0742B2EB074261EB4C
:1053600017414FEA0C444FEA910706FB07FC4FEA4E
:105370001C4C0CFB0BF7B0EBC74072EB573203FB36
:105380000CF734BFA2EBC742B2EBC74261EB573117
:105390000CFB0EF7B0EBC70072EB57720CFB08F773
:1053A00034BFA2EBC702B2EBC70261EB57714FEA01
:1053B000816141EA92114FEA826242EA90124FEA19
:1053C000806004EBCC04039F4FEAD13706FB07FC57
:1053D0004FEA1C4C0CFB0BF7D21B03FB0CF761EBE9
:1053E00007010CFB0EF7B0EB074072EB17420CFB0A
:1053F00008F734BFA2EB0742B2EB074261EB17415B
:105400004FEA8C5504EB9C244FEA910706FB07FCFE
:105410004FEA1C4C0CFB0BF7B0EBC74072EB57325A
:1054200003FB0CF734BFA2EBC742B2EBC74261EB00
:1054300057310CFB0EF7B0EBC70072EB57720CFB49
:1054400008F734BFA2EBC702B2EBC70261EB57719A
:105450004FEA816141EA92114FEA826242EA901278
:105460004FEA806015EB4C2544F100044FEAD13738
:1054700006FB07FC4FEA1C4C0CFB0BF7D21B03FB93
:105480000CF761EB07010CFB0EF7B0EB074072EB7A
:1054900017420CFB08F734BFA2EB0742B2EB0742FE
:1054A00061EB17414FEA813141EA92414FEA823282
:1054B00042EA90424FEA80304FEA0C7615EB1C1519
:1054C00044F1000448EA03434EEA0B484FF0000E53
:1054D000B2EB080C71EB030724BF624639464EEB72
:1054E0000E0E4FF0000B0018524149414BEB0B0BD5
:1054F000B2EB080C71EB03077BF1000B24BF624693
:1055000039464EEB0E0E4FF0000B00185241494148
:105510004BEB0B0BB2EB080C71EB03077BF1000BB1
:1055200024BF624639464EEB0E0E51EA020718BF01
:1055300046F0010616EB0E7655F1000254F100011B
:1055400003D5BDE88901BDE80088BDE88901BDE853
:105550000048B619524141EB0101A3F10103704724
:1055600080807F7E7D7C7B7A7978777676757473A0
:10557000727171706F6E6E6D6C6C6B6A6A6968685F
:10558000676666656464636362616160605F5F5EF5
:105590005E5D5D5C5C5B5B5A5A595958585757566B
:1055A00056555555545453535252525151505050D0
:1055B0004F4F4F4E4E4D4D4D4C4C4C4B4B4B4A4A22
:1055C0004A49494948484847474747464646454566
:1055D000454444444443434343424242424141419F
:1055E0009C46002B30D477002BD04FEA37071CB5F0
:1055F00003B44FF010004FF01001BAF1000F06D0C5
:10560000BCF1000FDCBF40F0080040F008014FF093
:1056100000000FBCBDE810400BF1010BBBF1010F06
:1056200008BF5FEA170722BF12F1010211F1010161
:105630004FF0004143F1000300F0004043EA000056
:105640007047F9D35708D0E746EA06464FEA1646B0
:1056500013F1400F1FDD13F1200FDFBF16430A4681
:10566000002120335B42BED0C3F1200746EA064644
:105670004FEA164602FA07F746EA070622FA03F24D
:10568000C3F1200701FA07F742EA070221FA03F102
:105690004FF00003A7E746EA020646EA06464FEA4D
:1056A000164646EA0106BCBF46EA0646360C4FF0EF
:1056B00000034FF000024FF0000194E72DE9804C09
:1056C00070B49A46934691E8380007C831EA400C16
:1056D00048BF34EA430C03D5FFF7E6FDFFF780FF30
:1056E000F0BCBDE8008C2DE9804C70B49A4693461E
:1056F00091E8380007C810F0804F08BF13F0804FC2
:1057000003D100F005F8FFF76BFFF0BCBDE8008C9B
:1057100020F07F4723F07F4C80EA030000F0004038
:1057200007EB0C03A3F57C53A3F1FE0392F0000FEB
:1057300000F0B38095F0000F00F077802DE901496B
:105740004FEA114021EA00484FEA144624EA06478E
:1057500000FB06FC08FB06F607FB08F818EB0648FA
:105760004CEB164C00FB07F718EB07484CEB1740C7
:105770004FEA124B22EA0B4E4FEA154625EA06473E
:105780000BFB06FC0EFB06F607FB0EFE1EEB064EA1
:105790004CEB164C0BFB07F71EEB074E4CEB174B75
:1057A00018EB0B0840F1000018EB0E0B58EB00084B
:1057B00040F100008F1A4FF000014FF000063CBF8F
:1057C000C943661B14BFB5EB040C00213CBFC943A1
:1057D000F61B4FEA174427EA04454FEA1C472CEA18
:1057E000074C04FB076205FB07F70CFB05F616EBFD
:1057F000074642EB174204FB0CFC16EB0C4642EB4F
:105800001C421BEB060658EB020241414EEA8E0E8B
:1058100046EA9E0601D5BDE80189B619524141EB21
:105820000101A3F10103BDE801894FEA144524EA0F
:1058300005464FEA114721EA074C05FB07F406FB32
:1058400007F70CFB06F111EB074144EB174405FB8E
:105850000CFC11EB0C4144EB1C444FEA124722EACA
:10586000074C05FB07F206FB07F70CFB06F616EBE9
:10587000074642EB174205FB0CFC16EB0C4642EBCD
:105880001C456A1854F1000148BF7047B6195241CF
:1058900041EB0101A3F10103704795F0000F37D0F0
:1058A0004FEA114221EA02464FEA144724EA074C24
:1058B00002FB07F106FB07F70CFB06F414EB0744A9
:1058C00041EB174102FB0CFC14EB0C4441EB1C4177
:1058D0004FEA154725EA074C02FB07F506FB07F7D9
:1058E0000CFB06F616EB074645EB174502FB0CFCD6
:1058F00016EB0C4645EB1C42121951F1000148BF52
:105900007047B619524141EB0101A3F10103704701
:105910004FEA144524EA05464FEA114721EA074CAD
:1059200005FB07F106FB07F70CFB06F212EB07423B
:1059300041EB174105FB0CFC12EB0C4251EB1C41F7
:105940004FF0000648BF7047921841EB0101A3F1E8
:1059500001037047490050EAC12018BF04204A0DD6
:1059600018BF40F0010040F2FF72B2EB515F08BF78
:1059700040F00200012808BF0520704730380A288F
:1059800001D20120704700207047000010B50029A7
:105990000AD00878002807D005487844FAF7FAFCBE
:1059A000002801D0002010BD0248784410BD00003E
:1059B000DA150000D215000010B500290AD00878C9
:1059C000002807D005487844FAF7E4FC002801D005
:1059D000002010BD0248784410BD0000CA15000028
:1059E000C215000021F0004201F00043A2F1605214
:1059F000B2F5801F28BFD2F17F6C0BD95FEA001C83
:105A000043EAC20242EB507018BF704728BF20F033
:105A100001007047B2F5801FBCBF184670474FEABF
:105A2000410C1CF5001F02D2084600F0EABC70B51C
:105A300000F024FA00000089FFF7F6BF4FF00040A5
:105A4000A0F58000704700002DE9C04130B4DFF8B8
:105A5000A8C23CEA111418BF3CEA131400F0F0800D
:105A60001CEA111481EA030544EAD57418BF1CEA44
:105A7000131500F0CB80A4EB050404F17F7404F54A
:105A800000344FF0004545EAC12145EAC32341EA0D
:105A9000505143EA52534FEAC0204FEAC222994282
:105AA00008BF904200F0A0804FEA13650FF248163D
:105AB000765D4FEA134506FB05F7C7F1807706FBD5
:105AC00007F74FEAD737A7FB03687642A7FB06CE56
:105AD000C8F5803838BFA8F1010807FB08E6A6FB27
