:020000040800F2
:10000000102B002031020008B527000869210008E4
:1000100029250008BD040008DD2B000800000000B1
:10002000000000000000000000000000BD270008E4
:10003000E904000800000000B9270008C1270008F3
:100040004B0200084B0200084B0200084B0200085C
:100050004B0200084B020008ED0400084B020008A8
:100060004B020008290500087D050008C1040008AE
:100070004B0200084B0200084B0200084B0200082C
:100080004B0200084B0200084B0200084B0200081C
:100090004B0200084B0200084B0200084B0200080C
:1000A0004B0200084B0200084B0200084B020008FC
:1000B0004B0200084B0200084B0200084B020008EC
:1000C0004B0200084B0200084B0200084B020008DC
:1000D0004B020008BD2B00084B0200084B02000831
:1000E0004B0200084B0200084B0200084B020008BC
:1000F0004B0200084B0200084B0200084B020008AC
:100100004B0200084B0200084B0200084B0200089B
:100110004B0200084B020008C927000849290008C3
:100120004B0200084B0200084B0200084B0200087B
:1001300000F002F800F052F814A696E8000CB24461
:10014000B344DA4501D100F049F8BAE80F000FA630
:1001500096E83000A5EB040504EB0607AAEB0704BC
:10016000A7F101074FEA15154FEA3414A4F1010471
:10017000AC4201D300F032F813F0010F18BFFB1AA4
:1001800043F0010300F001F8DBE71847C8EE000078
:10019000E8EE0000103A24BF78C878C1FAD85207B8
:1001A00024BF30C830C144BF04680C6070470000F1
:1001B000704700000023002400250026103A28BFC5
:1001C00078C1FBD8520728BF30C148BF0B607047C9
:1001D0001FB500F064F81FBD10B510BD00F0A6F803
:1001E0001146FFF7F5FF0AF0BFF800F0C4F803B4BA
:1001F000FFF7F2FF03BC02F0F3FC00000B49D1F85B
:1002000000C04A685CF8043B1068184442F8040BCC
:100210008C4528BFA1F1DC0C8A4228BFA1F1DC0289
:10022000C1F800C04A6020F000407047F400002090
:100230000948804709480047FEE7FEE7FEE7FEE77A
:10024000FEE7FEE7FEE7FEE7FEE7FEE704480549B6
:10025000054A064B70470000C52700083101000819
:1002600010250020102B0020102700201027002030
:10027000704700000B4910B5A1F17C020A4CC2E99D
:100280003712372106E000EB104342F82130074BCC
:1002900000FB03400B1EA1F10101F4DC10BD0120A5
:1002A000E8E7000094000020E119D666CD0D0100BA
:1002B0004FF0000200B5134694469646203922BFFF
:1002C000A0E80C50A0E80C50B1F12001BFF4F7AF4A
:1002D000090728BFA0E80C5048BF0CC05DF804EB2C
:1002E000890028BF40F8042B08BF704748BF20F89A
:1002F000022B11F0804F18BF00F8012B7047704798
:1003000070477047704710B500F008F8006810BDDE
:1003100010B5044600F002F8046010BD00487047B4
:10032000FC00002000487047FC0000207546FFF7E5
:10033000F9FFAE4605006946534620F007008546A2
:1003400018B020B5FFF782FFBDE820404FF000064F
:100350004FF000074FF000084FF0000BAC46ACE840
:10036000C009ACE8C009ACE8C009ACE8C00921F09C
:1003700007018D46704710B50446AFF30080204654
:10038000BDE81040FFF733BFB0B504460068816890
:10039000C90701D10020B0BD816821F00101816051
:1003A00000F084FE054600BF20688068C007F1D0D9
:1003B00000F07CFE401B0328F6D3A06A40F010003A
:1003C000A062E06A40F00100E0620120B0BD0000E0
:1003D0000146406A826A12F0500F03D0006A026B35
:1003E000084610470168826A42F400728262896896
:1003F00001F46021B1F5602F01D1017B09B100F05A
:1004000051BA816A21F480718162816AC90448BF4E
:1004100000F048BA816A41F00101816200F042BAFD
:10042000406A816A41F040018162C16A41F0040181
:10043000C16200F03BBA0000406A00F035BA00002B
:10044000B0B582B004460020019021688A68D207C6
:100450002FD1886840F00100886040F20400C2F2A9
:10046000000000684DF68361C4F21B31A0FB01015E
:10047000880C00BF0190019810B101980138F9E78C
:1004800000F014FE054600BF20688068C00712D146
:1004900000F00CFE401B0328F6D3A06A40F01000C9
:1004A000A062E06A40F00100E062002084F82400CD
:1004B000012002B0B0BD002002B0B0BDFEE70000D8
:1004C0000420C4F2020050F8041C890758BF70478A
:1004D00042F26421C2F2000101220A70016841F077
:1004E000020101607047000070470000B0B540F2A3
:1004F00014440120C4F20104012500F0C9FC1420B9
:1005000002F0B2FC04F57B70012100F0BBFD012874
:1005100007D142F29810C2F200000168C1F1010156
:1005200001602560B0BD0000B0B50820082500F0CE
:10053000AFFC42F29810C2F200000068B8B141F678
:1005400000041420C4F2010402F08EFC20460821AD
:1005500000F098FD58B92046202100F099FD42F2A4
:100560000850C2F200000168C1F10101016040F2CF
:100570001440C4F201000560B0BD000010B51020A9
:10058000102400F085FC42F29810C2F200000068CE
:1005900048B1142002F068FC41F60000C4F20100EA
:1005A000102100F06FFD40F21440C4F2010004601D
:1005B00010BD0000B3F5804F034619D1B0B553F814
:1005C00022C00020CCF6F0700CEA000E91E8310059
:1005D000D1F818C040EA0E0040EA0410C96840EAA9
:1005E000052040EA0C0040EA0141BDE8B04001E0CE
:1005F0006FF07041002043F8221070472DE9F04F52
:1006000083B00B68024650F8230001F1240B20F060
:10061000010042F82300D1E902C0D1E900E30190D2
:100620008869D1E9049A0290D1E90C80D1E9077672
:1006300000909BE8300852F82E008021CFF6F07130
:100640000840BCF1080F08BF43F04003019919436B
:1006500041EA090141EA0A0139433143214329436F
:1006600041EA0B01029B41EA08011943009B19432F
:10067000084340EA0C01002042F82E1003B0BDE808
:10068000F08F0000F0B500EB82025068D1E902E47F
:1006900000F0404CD1E90030D1E9045643EA0C03A4
:1006A000002743EA0010CFF6F07740EA0E20896970
:1006B00007EB055540EA04402843FE36084340EA6C
:1006C000066100205160F0BD70B582B00446002084
:1006D000019094F82400012802D1022002B070BDDC
:1006E000012084F824002046FFF74EFE00284BD15D
:1006F0000646A06A41F2021188430230A06240F22D
:100700000400C2F200000568022000F06FFDB5FB96
:10071000F0F040000190019810B101980138F9E71C
:100720002046FFF78DFE2068816841F00801816056
:1007300000F0BCFC054600BF20688168090705D5AC
:1007400000F0B4FC401B0A28F6D910E0816841F0A3
:100750000401816000F0AAFC054600BF20688068A3
:10076000400709D500F0A2FC401B0B28F6D301205E
:1007700010216FF0120203E001216FF003023046F6
:10078000A36A1A401143A162002184F8241002B028
:1007900070BD0000B0B581B00022009290F8242016
:1007A000012A01D1022179E04A680123062A02EBDD
:1007B000820C80F8243005D8026802F1340E6FF004
:1007C00004020AE003680C2A87BF03F12C0E6FF0C5
:1007D000400203F1300E6FF022026244DEF800C0E6
:1007E0001F230C6893402CEA030304FA02F21A4315
:1007F000CEF80020D1F800E002680EEB4E04102382
:10080000BEF1090F88BF1E3C88BF0C2352F803C0FD
:1008100007258968A5402CEA0505A1402943D15048
:100820002EF001014FF0000C10294FF0000133D1E0
:10083000016842F20042C4F20102914205D0816A8D
:1008400041F020018162012126E09268120222D447
:100850008A68BEF1100F42F400028A601BD140F298
:100860000401C2F2000109684DF68362C4F21B3232
:10087000A1FB0212910C01EB81014900009100994A
:1008800049B100BF009901390091009900294FF04A
:100890000001F7D100E0002180F824C0084601B033
:1008A000B0BD0000704700007047000070470000B6
:1008B000002804BF01207047B0B50446806A30B9F3
:1008C0000020E06284F82400204600F0A1F82068AF
:1008D0008168C90702D1002001211AE0816821F056
:1008E0000101816000F0E2FB054600BF20688068DE
:1008F000C007F0D000F0DAFB401B0328F6D3A06A53
:10090000002140F01000A062E06A40F00100E062C7
:100910000120A36AA26A89B313F010012ED141F21B
:10092000021122EA01010231A16294E80250E26957
:1009300081F0804383F49E3382F440252B4308BF2B
:100940004FF400224CEA020CAEF10102B2FA82F23C
:1009500053097246BEF5807F18BF1A02257D237B9E
:10096000012D4CEA430C13D16BB1A36A43F0200371
:10097000A362E36A43F00103E36209E042F010007E
:10098000A0620120B0BDA36902EB4332A2F5C052C0
:100990004B68BEF5807F23F4694342EA03024A6054
:1009A0008A684FF2FD73CFF6E17302EA030242EA6E
:1009B0000C028A6002D0BEF1010F06D12269002329
:1009C000CFF6F07303EB025200E00022CB6A23F46F
:1009D00070031A43CA62896840F6FE62CFF61F723E
:1009E0001140614507D10021E162A16A012262F351
:1009F0000101A162B0BDA06A40F0100020F0020029
:100A0000A062E06A40F00100E0620120B0BD000099
:100A1000B0B58AB040F60004C4F20104006804F5E1
:100A2000E051884201D00AB0B0BD0020CDE90400F9
:100A3000CDE90200CDE9000041F21800C4F2020045
:100A40000168022541F400710160016801F4007140
:100A500006910699016841F004010160006800F008
:100A60000400069006984FF40040029068460095F6
:100A700000F044FC0320079006A92046069500F0EC
:100A800013FA0AB0B0BD00002DE9F04182B003684E
:100A900042F60006C4F201060446B34205D042F213
:100AA0000040C4F2010083420BD142F20440C4F280
:100AB0000100006810F4702F03D0012002B0BDE8DF
:100AC000F08194F82400012803D1022002B0BDE88F
:100AD000F0810125002084F8245001909F68FF07D1
:100AE00036D19868884640F00100986040F20400D2
:100AF000C2F2000000684DF68361C4F21B31A0FB16
:100B000001011746880C00BF0190019810B10198AF
:100B10000138F9E700F0CAFA054600BF206880688E
:100B2000C00711D100F0C2FA401B0328F6D3A06A17
:100B3000002540F01000A062E06A40F00100E06291
:100B4000012084F8245001E0002001253A46414666
:100B5000002D5AD042F2044C2568A76AC4F2010C59
:100B600040F6017327EA03030CF57F7703F58073E2
:100B7000BD42A3624FD0A36A23F48013A3626B68C3
:100B80005B0504D5A36A012767F30D33A3628C4686
:100B9000A16A0646C9044FF000014FF0000044BFAF
:100BA000E16A21F00601E16284F82400206A40F243
:100BB000D1311346C0F6000140F2394240F22147DC
:100BC00000F1280EC0F60002C0F600078EE886008D
:100BD0006FF002012960A968624641F48071A96042
:100BE00005F14C0100F004F92068816801F46022ED
:100BF0008168B2F5602F0CBF41F4A00141F480116F
:100C00008160304602B0BDE8F081002184F82410F4
:100C100002B0BDE8F081DCF8003013F4702FAAD0E8
:100C2000A36AB54243F48013A36205D042F20043A5
:100C3000C4F201039D42AAD1DCF800305B05A1D4C7
:100C4000A5E7000090F82110022927D1026840F2A0
:100C5000040C1368C4F2020C23F00E031360136833
:100C60000CF17C018A4223F0010111601AD940F293
:100C70000841C4F202018A424ED040F21C41C4F243
:100C800002018A4241D040F23041C4F202018A425C
:100C900046D14FF48073CCF8003457E004218163CF
:100CA000012070474321C4F202018A420EDD6B210C
:100CB000C4F202018A421BDC4421C4F202018A42CE
:100CC0003BD05821C4F202018A4222E00821C4F23A
:100CD00002018A422FD01C21C4F202018A4232D082
:100CE0003021C4F202018A4213D14FF480722BE00A
:100CF0006C21C4F202018A4222D08021C4F2020196
:100D00008A4206D14FF080721EE01023CCF80034E6
:100D10001CE04FF4803217E00123CCF8003415E0DA
:100D20000CF588614FF480338A4208BF4FF480533A
:100D3000CCF800340AE0012206E04FF4805203E0D0
:100D40004FF4801200E01022CCF80020416B4FF4E9
:100D500080720029028404BF0020704780B5884754
:100D6000002080BD002804BF012070472DE9F0411C
:100D700040F2000CC4F2020C01684FF6F8320CF598
:100D80008163CBF6FD72994238BF02F580624CF662
:100D9000CD430A44CCF6CC43A2FB03236FF00304FB
:100DA0000CF5806204EA9303D0E9017ED0F80C8050
:100DB0003CBF0022C4F20202C0E90F230A6843F6D6
:100DC000F0739A4300F110063A4378CE42EA0E02DD
:100DD00042EA08021A4322432A4332430A600021AE
:100DE0004FF4807281630284BDE8F0410846704789
:100DF00090F820C0BCF1010F04BF02207047F0B58D
:100E000090F821C04FF0010EBCF1010F80F820E0F6
:100E100023D14FF0020C80F821C04FF0000CC0F835
:100E200038C0D0E900C4C56AC66BDCF80070102C6D
:100E300027F00107CCF80070006C0EFA00F070602B
:100E40000846CCF8043004BF10460A46CCF8080027
:100E5000CCF80C2035B10E200BE0002180F82010DA
:100E60000220F0BDDCF8000020F00400CCF8000007
:100E70000A20DCF800100843CCF80000DCF8000081
:100E800040F00100CCF800000020F0BD70470000E9
:100E900040F21441C4F201010A68024214BF086022
:100EA0007047FFF7F3BF00002DE9F04F82B00E68E6
:100EB000002E00F0E380A0F1804241F6004540F2B0
:100EC0000043A2F58432C4F201050624C4F20103F2
:100ED0004FEAB227A84208BF05244FF0000E4FF09A
:100EE00001080F254FF0000A4FF0000B052F38BF07
:100EF0004FEAB224009408E00E680AF1010A36FABB
:100F00000AF20EF1040E00F0B98008FA0AFC16EAA3
:100F10000C09F1D04E684FF6FF72C1F210029642F2
:100F200010DC122E50D8DFE806F0330A48454F4F48
:100F30004F4F4F4F4F4F4F4F4F4F4F414C00D1F8F6
:100F40000CB041E04FF6FF72C1F2210296420FDC75
:100F50000022C1F2110296421AD00022C1F21202FE
:100F6000964215D00022C1F22102964210D02BE009
:100F70000022C1F2220296420AD00022C1F23102BE
:100F8000964205D00022C1F2320296421CD100BF27
:100F90008A6842B1012A14BFC0F814C0C0F810C05A
:100FA0004FF0080B10E04FF0040B0DE0CA6802F19F
:100FB000040B09E04FF0000B06E0CA6802F1080BD1
:100FC00002E0CA6802F10C0B02467446B9F5807F54
:100FD00024BF0432203C166805FA04F726EA070706
:100FE0000BFA04F637431760CA79D2067FF584AF4F
:100FF00041F21807C4F202073A684FF6084542F07A
:1010000001023A603A68CFF6FF7502F001020192E0
:10101000019A2AF003021A440F2457590EF00C06C5
:10102000B440A743009C04FA06F6374357514E6874
:101030000F25F2031A6854BF22EA090242EA0902A4
:101040001A605A68B70354BF22EA090242EA090249
:101050005A60F7029A6854BF22EA090242EA09027A
:10106000B70240F20C479A60C4F201073A6854BFD5
:1010700022EA090242EA09023A603DE702B0BDE80D
:10108000F08F00008068084018BF01207047000002
:10109000C26802EA0103914341EA034101617047DA
:1010A000002A08BF090401617047000042F20C5099
:1010B000C2F200000068704740F2100042F20C518A
:1010C000C2F20000C2F2000100780A681044086011
:1010D0007047000080B542F20000C4F202000168CF
:1010E00041F010010160052000F070F80F2000F0C1
:1010F00005F800F02BF8002080BD0000B0B540F2EC
:101100001002C2F2000240F204011278C2F20001A1
:101110004FF47A730968B3FBF2F20446B1FBF2F1C3
:10112000084600F0ABFC0F2C4FF001050CD858B965
:101130004FF0FF3021460022002500F01BF840F25E
:101140001400C2F2000004602846B0BD70470000E1
:10115000002848BF704700F01F01012202FA01F188
:101160001C2202EAD0004EF20012CEF200028150A0
:101170007047000010B54EF60C5CCEF2000CDCF8A7
:101180000030C3F3022E8EF00704042C28BF042481
:10119000BEF103034FF0FF3E0EFA04F438BF002304
:1011A000A14399400EFA03F39A43114300F16042C0
:1011B00000F00F03090102F56442043B6344002878
:1011C00048BF03F10C02117010BD00004EF60C5127
:1011D000CEF200010A684FF6FF031A4060F30A22BC
:1011E00042F0806040F0FD7008607047411E0F299A
:1011F0004FF0000047D8DFE801F00A3546084646C0
:101200004608464646464646464700F0F9B941F28A
:101210000400C4F20200C16940F202320A40B2F591
:10122000817F04BF4FF40040704701F44071B1F575
:10123000407F0FD0B1F5007F1CBF00207047026ACD
:10124000920744BF49F640407047B1F5407F1CBF4C
:101250000020704750F8040C4FF22441800301EA4B
:10126000E070704780B500F0B7F941F20401C4F2B4
:10127000020109680222C1F3813102EB4101B0FB96
:10128000F1F0BDE88040704741F20401C4F2020170
:101290000A6851F8040CC0015CBF00207047C2F31B
:1012A000834011A3185CD20305D440F60012C0F2AB
:1012B0003D0250430BE00A680FA3C2F340429A5C20
:1012C00041F20023C0F27A03B3FBF2F25043096803
:1012D000490248BF70474AF6AB214000CAF6AA212E
:1012E000A0FB01014808704702030405060708092E
:1012F0000A0B0C0D0E0F1010010200002DE9F04139
:1013000082B00446007841F21C06C007C4F202060F
:101310004AD030685FEAC00808D4306840F0805096
:101320003060306800F080500190019847F200076B
:10133000C4F200073868C00512D4386840F48070E1
:101340003860FFF7B3FE05463868C00508D4FFF7DC
:10135000ADFE401B6428F7D9032002B0BDE8F08140
:10136000706810F4407012D0616801F440718842D6
:101370000DD0706840F24042C4F24222012320F4B2
:10138000407113600023C0071360716025D170683D
:10139000616820F440700843B8F1000F706003D416
:1013A000306820F0805030602068810707D556F8FB
:1013B000181CA26821F44041114346F8181CC006CD
:1013C00007D556F8180C616920F48000084346F8E8
:1013D000180C002002B0BDE8F081FFF767FE05465B
:1013E00041F2883770688007D1D4FFF75FFE401B59
:1013F000B8424FF00300F5D9ECE70000002804BF25
:10140000012070472DE9F04381B042F20008C4F298
:1014100002080446D8F800000D4600F00700884294
:101420000CD2D8F8000020F007002843C8F80000CC
:10143000D8F8000000F00700A8426BD1206841F204
:1014400004098107C4F2020917D5410705D5D9F867
:10145000001041F4E061C9F80010010705D5D9F882
:10146000001041F46051C9F80010D9F80010A268CA
:1014700021F0F0011143C9F80010C00741D1D8F89C
:10148000000000F00700A8420CD9D8F8000020F0B6
:1014900007002843C8F80000D8F8000000F0070053
:1014A000A84237D12068410707D5D9F80010E26873
:1014B00021F4E0611143C9F80010000708D5D9F8FC
:1014C0000000216920F4605040EAC100C9F8000022
:1014D000D9F8002002F00C00082841F20020C0F2E8
:1014E0007A0049D14FF24203C2F38341C0F60003B0
:1014F000595CD20334D440F60010C0F23D0048439A
:101500003AE0606859F8041C022807D0012824D169
:10151000890305D4012001B0BDE8F0838901F9D524
:10152000D9F8001021F003010843C9F80000FFF7C3
:10153000BDFD064641F28837D9F80000616800F029
:101540000C00B0EB810F9AD0FFF7B0FD801BB842C2
:10155000F2D9032001B0BDE8F0838907DAD5DFE7CF
:10156000D9F800204BF62A73C2F34042C0F60003BC
:101570009A5C4843B0FBF2F0D9F800104BF63A728F
:10158000C1F30311C0F60002515C40F2040220FADC
:1015900001F140F21400C2F200000068C2F2000241
:1015A0001160FFF7ABFD002001B0BDE8F083000043
:1015B00040F2040041F20401C2F20000C4F2020150
:1015C000006809684BF64A72C1F30221C0F60002B6
:1015D000515CC8407047000040F2040041F2040131
:1015E000C2F20000C4F20201006809684BF64A72B8
:1015F000C1F3C221C0F60002515CC8407047000030
:1016000041F2040CC4F2020CDCF8003003F00C00D0
:10161000082841F20020C0F27A0018BF70474FF24C
:101620004201C3F38342C0F600018A5CD90305D4AA
:1016300040F60010C0F23D0050437047DCF8001047
:101640004BF62A73C1F34041C0F60003595C504386
:10165000B0FBF1F070470000002804BF0120704784
:101660002DE9F04182B00446007841F20006C0073F
:10167000C4F2020647D0706800F00C00042808D1BC
:10168000306880033FD56068E8BB012002B0BDE848
:10169000F081706800F00C00082802D17068C00367
:1016A000EED4656830682DB1B5F5A02F09D0B5F539
:1016B000803F0AD020F480303060306820F48020F1
:1016C00005E040F480203060306840F480303060C5
:1016D000FFF7ECFC002D054612D000BF30688003F8
:1016E00011D4FFF7E3FC401B6428F7D916E100BFD3
:1016F000FFF7DCFC401B64284FF0030000F2D880A9
:1017000030688003F4D42078800719D5706810F011
:101710000C0F07D0706800F00C00082827D1706803
:10172000C00324D43068800703D52069012840F025
:10173000A6803068616920F0F80040EAC10030609E
:10174000207800074ED5A06938B30020C4F24220AB
:101750000121C0F88014FFF7A9FC0546706A8007D4
:101760002DD4FFF7A3FC401B0228F7D9D6E020694F
:10177000002840F20000C4F2422000F0A8800121BD
:101780000160FFF793FC054630688007D1D4FFF76E
:101790008DFC401B0228F7D9C0E00020C4F2422093
:1017A0000021C0F88014FFF781FC0546706A8007AD
:1017B00018D5FFF77BFC401B0228F7D9AEE040F2BA
:1017C0000400C2F20000006844F6D351C1F2620185
:1017D000A0FB0101480A019000BF0198411E0028AA
:1017E0000191F9D12078400717D4E5698DB170686F
:1017F00000F00C00082846D1012D40D07068216A05
:1018000000F480328A423AD1616A00F47010884252
:1018100035D1002002B0BDE8F081F0695FEAC00870
:1018200008D4F06940F08050F061F06900F0805019
:101830000090009847F20007C4F200073868C0051E
:101840000FD4386840F480703860FFF72FFC0546ED
:101850003868C00505D4FFF729FC401B6428F7D978
:101860005CE0E568306A1DB1052D41D0012D43D003
:1018700020F001003062306A20F004003EE00120D8
:1018800002B0BDE8F0810027C4F24227002038668C
:10189000FFF70CFC022D05460ED100BF3068800119
:1018A00053D5FFF703FC401B02284FF00300F5D986
:1018B00002B0BDE8F08100BF30688001A9D5FFF714
:1018C000F5FB401B02284FF00300F5D9F0E700219B
:1018D0000160FFF7EBFB0546306880077FF530AF0E
:1018E000FFF7E4FB401B02284FF00300F4D9DFE7C9
:1018F00040F004003062306A40F001003062FFF7CF
:10190000D5FB002D054641F2883712D0306A80079A
:1019100012D4FFF7CBFB401BB842F7D9032002B02B
:10192000BDE8F081FFF7C2FB401BB8424FF0030057
:10193000BED8306A8007F5D4B8F1000F3FF555AF37
:10194000F06920F08050F0614FE7206AB0F5803FE9
:1019500005D17168A26821F400311143716071688A
:10196000626A21F4741111430843706001203866E3
:10197000FFF79CFB044600BF306880013FF549AF8C
:10198000FFF794FB001B02284FF00300F4D98FE708
:1019900018B18369B3F5807F01D101207047F0B59C
:1019A00081B00D4690F84110144600F1080631B997
:1019B000002180F84010074600F020F83846016802
:1019C000074608463146FEF719FE3868BA682946C8
:1019D000FEF758FED7E901023B6B2146FEF7EAFD10
:1019E0003868B96850F8212042F0010240F82120FF
:1019F000012087F84100002001B0F0BDB0B584B0EF
:101A000041F21800C4F2020050F8041C41F20044F4
:101A100041F4807140F8041C50F8041CC4F2010425
:101A200001F480710091009901686D4641F0200138
:101A30000160016801F0200100910099016841F006
:101A4000400101600068294600F0400000900098C5
:101A50004CF20370009002200190012002900320BC
:101A600003902046FFF720FA4FF68070009004F5AF
:101A700080602946FFF718FA04B0B0BD411E00206F
:101A8000B0EB116F1CBF012070474EF21002CEF276
:101A9000000251604EF62351CEF20001F0230B708C
:101AA0000721906011607047704700007047000088
:101AB000002804BF0120704710B5044690F83D008F
:101AC00028B9002084F83C00204600F01FF80220CE
:101AD00084F83D002068211D00F0C4FF012084F837
:101AE000460084F83E0084F83F0084F8400084F803
:101AF000410084F8420084F8430084F8440084F8EC
:101B0000450084F83D00002010BD0000B0B582B053
:101B10000446006841F20005C4F20005A84214D151
:101B200041F21C00C4F202000168032241F01001DE
:101B300001600068012100F010000190019836203A
:101B4000FFF718FB3620FFF703FB206805F58061DF
:101B500088421CBF02B0B0BD41F21C00C4F20200BA
:101B60000168022241F0200101600068022100F0BA
:101B70002000009000983720FFF7FCFA372002B0D1
:101B8000BDE8B040FFF7E4BA90F83D1001291CBF52
:101B900001207047022180F83D10006840F6FF32B6
:101BA000C168C4F20002904241F00101C1600FDC43
:101BB000B0F1804F1ED040F20041C4F200018842D3
:101BC00018D040F60001C4F20001884212D018E09B
:101BD00040F60041C4F2000188420BD043F20041BC
:101BE000C4F20101884205D042F60041C4F201016D
:101BF000884206D1816801F00701062904BF002050
:101C00007047016841F00101016000207047000049
:101C10007047000010B5044600680169890744BF99
:101C2000C1685FEA81713FD420680169490744BFF8
:101C3000C1685FEA417143D420680169090744BF64
:101C4000C1685FEA017148D420680169C90644BFD0
:101C5000C1685FEAC1614CD420680169C9071CBF33
:101C6000C1685FEAC17151D120680169090644BFAA
:101C7000C1685FEA016150D420680169490644BF28
:101C8000C1685FEA41614FD421680869800646BF98
:101C9000C8685FEA806010BD6FF0200220460A61CC
:101CA000BDE81040FFF702BF6FF0020101610121A2
:101CB0002177806980073ED02046FFF7A9FF40E0EA
:101CC0006FF00401016102212177806910F4407FE7
:101CD0003AD02046FFF79CFF3CE06FF0080101611D
:101CE00004212177C069800737D02046FFF790FF95
:101CF00039E06FF01001016108212177C06910F40B
:101D0000407F33D02046FFF783FF35E06FF00101BD
:101D10000161204600F038F8A6E76FF0800101610C
:101D20002046FFF7C1FEA7E76FF0400101612046A2
:101D300000F02CF8A8E7204600F022F8204600F03A
:101D400021F8002020776FE7204600F019F82046A0
:101D500000F018F8002020776EE7204600F010F819
:101D6000204600F00FF8002020776DE7204600F0B5
:101D700007F8204600F006F8002020776CE7000006
:101D80007047000070470000704700007047000077
:101D900070470000B0B501680A68CC684B6902F072
:101DA0002F05202D04F0200504D11DB1BDE8B04061
:101DB00000F0C6BE5FEA027C1EBF03F0010E04F411
:101DC000907313EB0E032CD1130619D514F0800376
:101DD00016D090F83920212A11D18268B2F5805F9F
:101DE00003D10269002A00F08E80026A531C03624C
:101DF00012784A60C28C013A1304C28476D0B0BD16
:101E00005206FCD514F0400208BFB0BDCA6822F0EB
:101E10004002CA60202180F83910BDE8B04000F0CF
:101E2000A1B9D10718BF14F4807102D1510706D4AB
:101E30000CE0C16B41F00101C163510706D5BEF151
:101E4000000F03D0C16B41F00201C163910706D5B9
:101E5000BEF1000F03D0C16B41F00401C163BCF1BE
:101E6000000F06D55EEA050103D0C16B41F0080101
:101E7000C163C16B0029C2D0910604D51DB10446CF
:101E800000F05EFE204601684A69C36B02F0400222
:101E900003F00803D21823D0CA6822F49072CA60F3
:101EA0004A6922F001024A61202280F83A204A69F8
:101EB000520624D54A6922F040024A61416BF1B1D1
:101EC00042F63532C0F60002044608464A63FEF781
:101ED000B9FE002893D0606B416BBDE8B040084765
:101EE0000446FFF755FF0020E063B0BDC86820F04E
:101EF0008000C860C86840F04000C860B0BDBDE860
:101F0000B040FFF745BF026A32F8023B6FF35F2330
:101F10004B6002626EE70000002804BF012070479A
:101F200010B5044690F8390028B9002084F838002C
:101F3000204600F061F8242084F839002068D4E9B4
:101F40000212C36823F40053C360036923F44053AF
:101F50001A430261D4E904231143C268194341F2D0
:101F60000C639A431143C1604169A26921F4407135
:101F7000114343F60002C4F201029042416102D0D3
:101F8000FFF716FB01E0FFF727FBD4E90023192137
:101F900048439900B0FBF1F048F21F5CC5F2EB1C1E
:101FA000A0FB0C314FF69C734909C0F6FF7301FB8F
:101FB0000300322303EB0010A0FB0C03F02000EA27
:101FC000531000EB0110C3F34311084490601069F3
:101FD000202120F490401061506920F02A005061C7
:101FE000D06840F40050D0600020E06384F83910DD
:101FF00084F83A1010BD0000B0B584B040F600047B
:10200000C4F20104006804F54051884201D004B0D4
:10201000B0BD41F21800C4F2020001686D4641F003
:1020200004010160016801F0040100910099016858
:1020300041F004010160016801F004010091009980
:10204000016841F4804101600068294600F4804045
:10205000009000984FF40070009002200190012041
:102060000290032003902046FEF71EFF4FF480608D
:1020700000900020019020462946FEF715FF2520FC
:10208000FFF766F8252003210322FFF773F804B059
:10209000B0BD0000034690F83A0020280AD100297C
:1020A0004FF0010018BF002A00D1704793F83800A4
:1020B000012801D1022070479962002022219A85CF
:1020C000DA85D86383F83A10196883F83800CA684B
:1020D00042F48072CA604A6942F001024A61CA68E9
:1020E00042F02002CA607047006843F60001C4F263
:1020F0000101884218BF704742F2F840C2F2000066
:10210000B0F90010002921D442F21432C2F20002C8
:1021100089B21378B1F5804F04D20D2B0CD141F464
:10212000804212E048F2000C0022CFF6FF7C0A2B1E
:1021300008BF41EA0C0208E042F23042C2F200025B
:1021400053544A1CC62988BF0022028042F2F03054
:1021500042F21431C2F20000C2F200010122FFF784
:1021600099BF000070470000FEE700002DE9F04F26
:1021700081B0DDE90ABA984691460E46074600F05E
:10218000CBFAD02000F09EFA00F010FA3B2000F0CD
:1021900099FA00F00BFA00F0BFFAD12000F092FAA1
:1021A00000F004FA00F02EFA0446012000F064FA70
:1021B00000F0DEFA00F0B0FAD02000F083FA00F070
:1021C000F5F93C2000F07EFA00F0F0F900F0A4FAF6
:1021D000D12000F077FA00F0E9F900F013FA054693
:1021E000012000F049FA00F0C3FA45EA04203880E3
:1021F00000F092FAD02000F065FA00F0D7F93D2007
:1022000000F060FA00F0D2F900F086FAD12000F078
:1022100059FA00F0CBF900F0F5F90446012000F07E
:102220002BFA00F0A5FA00F077FAD02000F04AFA75
:1022300000F0BCF93E2000F045FA00F0B7F900F0DC
:102240006BFAD12000F03EFA00F0B0F900F0DAF9B4
:102250000546012000F010FA00F08AFA45EA042051
:10226000308000F059FAD02000F02CFA00F09EF9EE
:102270003F2000F027FA00F099F900F04DFAD12044
:1022800000F020FA00F092F900F0BCF904460120B9
:1022900000F0F2F900F06CFA00F03EFAD02000F005
:1022A00011FA00F083F9402000F00CFA00F07EF9FA
:1022B00000F032FAD12000F005FA00F077F900F0D2
:1022C000A1F90546012000F0D7F900F051FA45EADE
:1022D0000420A9F8000000F01FFAD02000F0F2F965
:1022E00000F064F9432000F0EDF900F05FF900F030
:1022F00013FAD12000F0E6F900F058F900F082F965
:102300000446012000F0B8F900F032FA00F004FAB7
:10231000D02000F0D7F900F049F9442000F0D2F9BC
:1023200000F044F900F0F8F9D12000F0CBF900F00A
:102330003DF900F067F90546012000F09DF900F035
:1023400017FA45EA0420A8F8000000F0E5F9D020CB
:1023500000F0B8F900F02AF9452000F0B3F900F0D8
:1023600025F900F0D9F9D12000F0ACF900F01EF900
:1023700000F048F90446012000F07EF900F0F8F979
:1023800000F0CAF9D02000F09DF900F00FF94620C6
:1023900000F098F900F00AF900F0BEF9D12000F041
:1023A00091F900F003F900F02DF90546012000F045
:1023B00063F900F0DDF945EA0420ABF8000000F015
:1023C000ABF9D02000F07EF900F0F0F8472000F0E3
:1023D00079F900F0EBF800F09FF9D12000F072F9E4
:1023E00000F0E4F800F00EF90446012000F044F992
:1023F00000F0BEF900F090F9D02000F063F900F091
:10240000D5F8482000F05EF900F0D0F800F084F92B
:10241000D12000F057F900F0C9F800F0F3F80546B4
:10242000012000F029F900F0A3F945EA0420AAF8F8
:10243000000001B0BDE8F08F80B500F077F800F043
:102440006BF9D02000F03EF900F0B0F86B2000F0FE
:1024500039F900F0ABF8012000F034F900F0A6F8EB
:1024600000F086F900F058F9D02000F02BF900F0C8
:102470009DF86C2000F026F900F098F8002000F09C
:1024800021F900F093F800F073F900F045F9D0203D
:1024900000F018F900F08AF8192000F013F900F0A4
:1024A00085F8092000F00EF900F080F800F060F9DE
:1024B00000F032F9D02000F005F900F077F81A208A
:1024C00000F000F900F072F8062000F0FBF800F0D0
:1024D0006DF800F04DF900F01FF9D02000F0F2F88F
:1024E00000F064F81B2000F0EDF800F05FF8182011
:1024F00000F0E8F800F05AF800F03AF900F00CF9B2
:10250000D02000F0DFF800F051F81C2000F0DAF8DD
:1025100000F04CF8182000F0D5F800F047F8BDE8BE
:10252000804000F025B90000FEE70000B0B584B09F
:1025300041F21800C4F20200016840F6004441F084
:10254000040101600168C4F2010401F0040100917A
:10255000009901686D4641F0080101600068294654
:1025600000F0080000900098002002904FF40060F6
:10257000009011200190032003902046FEF794FC68
:102580004FF48060009020462946FEF78DFC2046DF
:102590004FF400610122FEF783FD20464FF4806175
:1025A0000122FEF77DFD04B0B0BD0000B0B540F6DD
:1025B0000044C4F2010420464FF480610122FEF77A
:1025C0006FFD0A2000F072FC20464FF400610122EA
:1025D000FEF766FD0A2000F069FC20464FF480619A
:1025E000FEF750FD05460A2000F060FC20464FF43F
:1025F00000610022FEF754FD0A2000F057FC284637
:10260000B0BD00002DE9F04140F60044C4F20104E1
:1026100020464FF480610122FEF742FD0A2000F0BF
:1026200045FC00264FF08008002700BF20464FF4ED
:1026300000610122FEF734FD0A2000F037FC20463D
:102640004FF48061FEF71EFD05460A2000F02EFCC7
:1026500028FA06F0002D18BF074320464FF400610A
:102660000022FEF71DFD0A2000F020FC0136082E96
:10267000DCD1F8B2BDE8F08110B540F60044C4F2F8
:1026800001040246002820464FF4806118BF012251
:10269000FEF706FD0A2000F009FC20464FF4006119
:1026A0000122FEF7FDFC0A2000F000FC20464FF45A
:1026B00000610022FEF7F4FC0A20BDE8104000F0A3
:1026C000F5BB000070B540F600450446C4F20105B4
:1026D000002600BF04FA06F0C0B2C20928464FF433
:1026E0008061FEF7DDFC0A2000F0E0FB28464FF495
:1026F00000610122FEF7D4FC0A2000F0D7FB284637
:102700004FF400610022FEF7CBFC0A2000F0CEFB64
:102710000136082EDED170BD10B540F60044C4F27B
:10272000010420464FF480610122FEF7B9FC0A2023
:1027300000F0BCFB20464FF400610122FEF7B0FC24
:102740000A2000F0B3FB20464FF480610022FEF720
:10275000A7FC0A2000F0AAFB20464FF400610022EB
:10276000FEF79EFC0A20BDE8104000F09FBB000071
:1027700010B540F60044C4F2010420464FF48061D5
:102780000022FEF78DFC0A2000F090FB20464FF45B
:1027900000610122FEF784FC0A2000F087FB20463E
:1027A0004FF480610122FEF77BFC0A20BDE8104057
:1027B00000F07CBB704700007047000070470000CD
:1027C000FEF77ABC70470000F0B581B042F260308D
:1027D000C2F2000000686FF00101016142F208508E
:1027E000C2F20000006800286BD042F26420C2F2FE
:1027F0000000017840F264170129C2F2000723D1DA
:1028000042F29C1148F21F530022C2F20001C5F2AD
:10281000EB1300BF00266FF0030500BF4C19A4881E
:102820000435C42D2644F9D1A6FB03652E0927F8EB
:102830001260002A02F1010201F10201EAD0002136
:102840000170642000F0CEF9388808F04FFC0024B5
:10285000C3F630740022234608F0D4FC0026CBF6E1
:10286000E0760022334608F0AFF908F07BF9054620
:1028700040F260117888C2F200010D6008F036FC69
:102880000022234608F0BEFC0022334608F09CF9E3
:1028900008F068F9064640F268100027C2F200000E
:1028A000C4F2202706602846394609F0FDF909F0F0
:1028B0005FF904463046394609F0F6F909F058F94F
:1028C00018E042F28012C2F2000292E86300002394
:1028D000C4F23403002208F095FC08F0C1FB002389
:1028E0000446CCF2340328463146002208F08AFC24
:1028F00008F0B6FB05460027AA204FF4C371E62274
:102900004FF4E173009706F00FFD4FF6FF77B42008
:102910004FF4C871DC224FF4DC73009700F038FDEF
:1029200004F1C80005F5D27180B289B205224FF6D4
:10293000FF7306F02BFD42F26030C2F2000001B0DE
:10294000BDE8F040FFF766B970B582B042F2A8303A
:10295000C2F2000000686FF00101016107F074FD30
:1029600040F26C10C2F20000406809F01DF900212D
:10297000C4F2523109F006F8044600260720072168
:1029800017224FF4AE73009606F0CEFC204608F0F6
:102990000BFF49F69A1249F69913C9F69912C3F634
:1029A000E97305460E4608F09BFF10B14FF6FF7520
:1029B00039E049F69A1249F69913C9F69912C3F605
:1029C000E9732846314608F092FF40B920464FF09F
:1029D0007C5108F0AFFF10B14FF4FC6523E02046B6
:1029E0004FF07C5108F0ADFF70B949F69A1249F6E4
:1029F0009913C9F69912C3F6C9732846314608F0EF
:102A00006FFF08B11F250EE049F69A1249F6991397
:102A1000C9F69912C3F6C9732846314608F067FF14
:102A200080B94FF478450021C4F2AE31204609F058
:102A30003BF909F09DF8034607200721172200956E
:102A400006F072FC40F60040C4F201002021FEF7BF
:102A50001FFB42F2A830C2F2000002B0BDE8704095
:102A6000FFF7D8B810B540F6FF320368C4F2000291
:102A700040F6004E43F2004C9042C4F2000EC4F205
:102A8000010C20DCB0F1804F27D040F20044C4F2AA
:102A90000004A04221D040F60004C4F20004A04289
:102AA0001BD090421FDCB0F1804F26D040F2004294
:102AB000C4F20002904220D040F60002C4F20002AC
:102AC00090421AD01DE0704507D0604505D042F60F
:102AD0000044C4F20104A042E3D14C6823F0700327
:102AE00023439042DFDD704507D0604505D042F6B4
:102AF0000042C4F20102904203D1CA6823F4407339
:102B000013434C6923F08002D1F800E08B68224324
:102B100060450260C362C0F828E005D042F600427A
:102B2000C4F20102904201D10969016301214161AE
:102B300010BD0000406A0021C185C184FFF728B99B
:102B400090F83A10222918BF70478268B2F5805F6A
:102B500001D1016949B3816AB2F5805F07D00AB932
:102B6000026922B10268526802F07F0201E0026845
:102B700052680A70816A01318162C18D01390A048B
:102B8000C18500D070470168CA6822F02002CA607F
:102B9000CA6822F48072CA604A6922F001024A615E
:102BA000202180F83A10FFF79FBA0168826A4968CD
:102BB0006FF35F2122F8021B8262DEE780B542F2EA
:102BC000F030C2F20000FFF7E5F840F25C10C2F20C
:102BD000000001680131016080BD0000FEE70000D7
:102BE0007047000042F20841C4F201010B6808225C
:102BF00023F00103C4F202020B60136823F0010307
:102C0000136000BF1368DB07FCD15060106840F010
:102C100001001060086840F001000860086840F496
:102C2000800008607047000010B542F2682442F24C
:102C30000040C2F20004C4F201000021C4E9000116
:102C4000012020614FF46020C4E906102046A160F5
:102C500021732175FDF72CFE2046BDE81040FDF7DD
:102C600033BD00002DE9F0438FB00E90002741F2F4
:102C700018000997CDE90777CDE90577CDE9037706
:102C8000CDE90177C4F2020001684FF0020841F477
:102C900000710160016801F400710A910A990168EC
:102CA00041F004010160016801F004010A910A99F0
:102CB00050F8041C41F0010140F8041C50F8040CC9
:102CC00000F001000A900A984FF40040069004A812
:102CD000CDF81080FEF712FB3F2041F200090A9068
:102CE0000320C4F201090B900AA94846FEF7DCF85C
:102CF00042F2CC240820C2F20004C4F20200802177
:102D00004FF480764FF480624FF48053C4E900079B
:102D10002046C4E90271C4E90462C4E90673FEF7FF
:102D200021F842F29825C2F2000509F5A050C5E944
:102D300000074FF46020AE600126C5E90670284602
:102D400065622E73C5F810802F752C62FDF7B0FDFB
:102D50002846FDF7B9FC0A20CDE90106072001AE9F
:102D6000039028463146FDF715FD0B20CDE90108FB
:102D700028463146FDF70EFD0B2003210322FEF706
:102D8000F9F90B20FEF7E4F90E9A42F24C41C4F235
:102D9000010120460023FEF72BF80EA92846002249
:102DA000FDF772FE0FB0BDE8F083000010B584B0EF
:102DB00041F21800C4F20200016840F6004441F0FC
:102DC000080101600068C4F2010400F008000090EE
:102DD00000984FF4807000900120CDE9010003209D
:102DE000039069462046FEF75FF820464FF4807155
:102DF0000022FEF755F904B010BD000010B542F2F4
:102E00006034C2F20004002341F20002C4E902303F
:102E10008020C4F20002A0612046C4E90021FEF730
:102E200047FE2046BDE81040FEF7AEBE10B542F2A8
:102E3000A834C2F20004002341F20042C4E9023087
:102E40008020C4F20002A0612046C4E90021FEF700
:102E50002FFE2046BDE81040FEF796BE42F210312C
:102E6000C2F200010860704780B54EF2180142F2CC
:102E70001032CEF20001C2F2000251F804CC126806
:102E8000002350434FF47A7200FB02FE086800BF33
:102E90000A688242FCD003449B1A824228BF6344E2
:102EA0007345104628BF80BDF2E7000080B54EF2A2
:102EB000180142F21032CEF20001C2F2000251F8C3
:102EC00004CC1268002302FB00FE08680A688242F4
:102ED000FCD003449B1A824228BF634473451046CA
:102EE00028BF80BDF2E700002DE9F04F85B00492C5
:102EF00040F2080289468046C2F20002C81E08F16C
:102F00005D011488934609F15A021FFA88F51FFAE9
:102F100080FA8FB296B2284651463A46334600941C
:102F200000F0E0F909F1B700BBF800401FFA80FBA0
:102F3000384631462A465B46009400F0D3F940F209
:102F40000800C2F200000488A8F15D0087B228469C
:102F500059463A463346CDF80C80009400F0C2F949
:102F600040F20800C2F200000488384631462A4682
:102F70005346009400F0B6F904984FF0010B083066
:102F800040F23F160027019009E000BFDDF80890ED
:102F90000BF1010BBBF11F0F09F103097BD0019865
:102FA000012500EBCB100490CDF8089005E000BFA0
:102FB00001351F2D09F10309E8D00499ABEB050099
:102FC00051F8251000EB40000129039900EB01089E
:102FD00038D18BF01E0085F01E0108434FF0FF3002
:102FE0004FF0FF3A04BF4FF60000CFF6FF7084B2F7
:102FF00005E000BF0AF1010ABAF1020FD8D009EBCF
:103000000A0148090E28F5D88AEAEA70C0EBEA708E
:10301000013010EB0802EDD4A8EB0000B0F5A07F62
:10302000E8DA20EAE070B2F59F7FC8BF32468242FC
:10303000E0DB89B280B292B20B46009400F052F904
:10304000D8E700BF4FF0FF3403E000BF0134022C8B
:10305000AED009EB040148090E28F7D884EAE470E1
:10306000C0EBE470013010EB0802EFD4A8EB0000D5
:10307000B0F5A07FEADA20EAE070B2F59F7FC8BF22
:1030800032468242E2DB89B280B292B20B460097AE
:1030900000F028F9DAE705B0BDE8F08FF0B585B0AB
:1030A00041F21800C4F20200016841F6000441F048
:1030B000400101600168002601F040010191019981
:1030C0000168C4F2010441F040010160016801ADF2
:1030D00001F04001019101990168C1F2210641F01E
:1030E000040101600068012700F0040001900198CC
:1030F000102001902046294602960397FDF7D4FE42
:10310000082001A9C1C120462946FDF7CDFEA6F53C
:103110008010029002200390A4F580502946019768
:10312000FDF7C2FE0A2000210222FEF723F80A2042
:10313000FEF70EF8092001210222FEF71BF80920F4
:10314000FEF706F8062002210222FEF713F80620F9
:10315000FDF7FEFF05B0F0BDF0B581B040F26C1593
:1031600041F27416C2F200050120C2F20006D2221A
:103170000221C5E90002002006F10C046FF07F0770
:10318000C6E900108037E8198C3078218034FDF7CB
:103190008FF820467821FDF78BF8B7F5686FF1D1ED
:1031A00000206FF07F014FF0FF3200BF6B182F1827
:1031B000C3F88820BA60C3F80421C7F8882F3718ED
:1031C00004307318802801F18001C3F88820BA60A8
:1031D000C3F80421C7F8882FE8D1883500210122DF
:1031E00001230026C6F1D1001D2828BF1D20A1EB18
:1031F00080073044461C28460437042F40F8042F2B
:10320000FAD11D2B04D80133D22E05F18005E9D166
:1032100001B0F0BD2DE9F04184B041F21800C4F2D4
:103220000200016841F6000441F0400101600168BC
:10323000C4F2010401F040010091009901686D465B
:1032400041F04001016001684FF0000801F04001C9
:10325000009100990168012741F0040101600068B4
:10326000032600F0040000900098102000902046F3
:103270002946CDF8048002970396FDF715FE082035
:10328000CDE9000820462946CDE90276FDF70CFE7F
:103290000220CDE90206A4F580502946CDE9007848
:1032A000FDF702FE04B0BDE8F0810000F0B581B08A
:1032B00042F2FA47C2F2000704463888798840F2A1
:1032C000FE7501FB00F600200021C6F6004506F061
:1032D000D7FD3889288016B1013E6C80FCD101B041
:1032E000F0BD00002DE9F04F83B004460D46111AE1
:1032F000B2EB040B18BF4FF0FF3B00290F4648BF4D
:103300004F420129A3EB05004FF00108A8BFC346B7
:10331000591B18BF4FF0FF310028029044BF4242B2
:1033200002920128B8BF884602984FF0000A8742EF
:1033300088BF38460190013000264FF00009009008
:10334000A0B2A9B206F09CFD42F2FA40C2F200001F
:1033500040F2FE720089C6F6004210800299019B7D
:10336000F0195144C61AD4BF06465C44B1EB030AB7
:10337000D4BF8A46454409F1010900991FFA89F032
:1033800081420C985080DBD203B0BDE8F08F000082
:103390002DE9F04F87B08246101AB2EB0A09804639
:1033A00005930D46029218BF4FF0FF39002848BF21
:1033B000C0F1000808F10102002657460024012848
:1033C000A8BF4FF0010900BFB8B22946934606F0E6
:1033D00057FD42F2FA40C2F20000008940F2FE714D
:1033E000C6F6004101340880002EA0B20CBF46444E
:1033F0004F44834510985A464880E5D2059ACDF847
:103400000480501B541BCDF80C9018BF4FF0FF34B4
:103410000028069044BF434206930128A8BF012418
:10342000069842F2FA41C2F2000101304FF0000862
:103430002E460027049000BF8946B1B2504606F0E0
:103440001FFDB9F8080040F2FE73C6F6004318806D
:10345000B8F1000F06980CBF804426440137049A47
:10346000B8B28242109849465880E5D20094019C37
:1034700000260027059980461FFA8AF006F000FD15
:103480004846B9F8080040F2FE72C6F600421080C5
:10349000002E08BF2644039807F1010718BF824495
:1034A000B8B283454046A2F80280E3D2DDF8089026
:1034B000DDF800B0069CDDF810A00026002700BF54
:1034C000A9B2484606F0DCFC42F2FA40C2F2000023
:1034D000008940F2FE71C6F6004101370880002ED7
:1034E000B8B20CBF26445D4482454046A1F8028034
:1034F000E6D207B0BDE8F08FF0B581B0CF20ADF8CF
:103500000200BDF8020040F60004ADF80200BDF86C
:103510000200C6F6004424F8020C0020ADF80200B8
:10352000BDF80210C122ADF80210BDF802104FF034
:10353000100C2180ADF80220BDF802104FF0010EF2
:10354000ADF80210BDF802102A2721803021ADF815
:103550000210BDF80230ADF80230BDF80230238011
:10356000ED23ADF80230BDF80230ADF80230BDF801
:10357000023024F8023C6423ADF80230BDF802307A
:10358000ADF80230BDF8023023800323ADF80230DD
:10359000BDF80230ADF80230BDF8023023801223AE
:1035A000ADF80230BDF80230ADF80230BDF802309F
:1035B00023808123ADF80230BDF80230ADF802302F
:1035C000BDF802302380E823ADF80230BDF80230A8
:1035D000ADF80230BDF8023024F8023C8523ADF886
:1035E0000230BDF80230ADF80230BDF80230238061
:1035F000ADF802C0BDF80230ADF80230BDF80230BF
:1036000023807A23ADF80230BDF80230ADF80230E5
:10361000BDF802302380CB23ADF80230BDF8023074
:10362000ADF80230BDF8023024F8023C3923ADF881
:103630000230BDF80230ADF80230BDF80230238010
:103640002C23ADF80230BDF80230ADF80230BDF8E1
:1036500002302380ADF80200BDF80230ADF8023030
:10366000BDF8023023803423ADF80230BDF80230BB
:10367000ADF80230BDF8023023800223ADF80230ED
:10368000BDF80230ADF80230BDF802302380F723D8
:10369000ADF80230BDF80230ADF80230BDF80230AE
:1036A00024F8023C2023ADF80230BDF80230ADF81A
:1036B0000230BDF802302380EA23ADF80230BDF8B5
:1036C0000230ADF80230BDF8023024F8023CADF80B
:1036D0000200BDF80230ADF80230BDF802302380A0
:1036E000ADF80200BDF80230ADF80230BDF802308E
:1036F0002380C023ADF80230BDF80230ADF80230AF
:10370000BDF8023024F8023C1B23ADF80230BDF8AE
:103710000230ADF80230BDF802302380ADF802204F
:10372000BDF80220ADF80220BDF8022024F8022CDA
:10373000ADF802E0BDF80220ADF80220BDF802208D
:103740002280C522ADF80220BDF80220ADF802208B
:10375000BDF8022024F8022CADF80210BDF80220BA
:10376000ADF80220BDF802202280ADF80210BDF8AD
:1037700002100A22ADF80210BDF802102180C72104
:10378000ADF80210BDF80210ADF80210BDF802103D
:1037900024F8021CB721ADF80210BDF80210ADF8F4
:1037A0000210BDF8021021803621ADF80210BDF8DC
:1037B0000210ADF80210BDF8021024F8021C4821D6
:1037C000ADF80210BDF80210ADF80210BDF80210FD
:1037D00021803A21ADF80210BDF80210ADF80210B8
:1037E000BDF8021024F8021C5521ADF80210BDF8F6
:1037F0000210ADF80210BDF802102180B121ADF821
:103800000210BDF80210ADF80210BDF8021024F845
:10381000021CADF80200BDF80210ADF80210BDF8B0
:10382000021021801A21ADF80210BDF80210ADF887
:103830000210BDF802102180B621ADF80210BDF8CB
:103840000210ADF80210BDF8021024F8021CADF809
:103850000220BDF80210ADF80210BDF80210218060
:10386000A221ADF80210BDF80210ADF80210BDF8AB
:1038700002102180F221ADF80210BDF80210ADF85F
:103880000210BDF8021024F8021CADF80200BDF8C9
:103890000210ADF80210BDF8021021802621ADF80B
:1038A0000210BDF80210ADF80210BDF8021024F8A5
:1038B000021CADF802E0BDF80210ADF80210BDF830
:1038C00002102180E021ADF80210BDF80210ADF821
:1038D0000210BDF8021024F8021C0F21ADF80210EE
:1038E000BDF80230ADF80230BDF802302380ADF8EB
:1038F0000270BDF80230ADF80230BDF8023023800E
:103900002823ADF80230BDF80230ADF80230BDF822
:10391000023023800823ADF80230BDF80250ADF824
:103920000250BDF8025025800E25ADF80250BDF8BA
:103930000250ADF80250BDF802502580ADF80230BB
:10394000BDF802302B25ADF80230BDF802302380DF
:103950005423ADF80230BDF80230ADF80230BDF8A6
:1039600002302380A923ADF80230BDF80230ADF853
:103970000230BDF8023023804323ADF80230BDF899
:103980000230ADF80230BDF802302380ADF80220DD
:10399000BDF80220ADF80220BDF802202280ADF86B
:1039A0000210BDF80220ADF80220BDF802202280EE
:1039B000ADF80200BDF80220ADF80220BDF80220EB
:1039C0002280ADF80200BDF80220ADF80220BDF85B
:1039D00002202280ADF80200BDF80220ADF80220DE
:1039E000BDF802202280ADF80200BDF80220ADF83B
:1039F0000220BDF802202280E122ADF80220BDF8AD
:103A00000220ADF80220BDF8022024F8022CADF807
:103A10000200BDF80220ADF80220BDF8022022808D
:103A20001522ADF80220BDF80220ADF80220BDF845
:103A3000022022801722ADF80220BDF80220ADF846
:103A40000220BDF8022022800722ADF80220BDF836
:103A50000220ADF80220BDF8022022801122ADF82C
:103A60000220BDF80230ADF80230BDF802302380EC
:103A70000623ADF80230BDF80230ADF80230BDF8D3
:103A800002302380ADF80250BDF80230ADF80230AC
:103A9000BDF8023023805623ADF80230BDF8023065
:103AA000ADF80230BDF8023023803C23ADF802307F
:103AB000BDF80230ADF80230BDF802302380052396
:103AC000ADF80230BDF80230ADF80230BDF802307A
:103AD0002380ADF802C0BDF80230ADF80230BDF869
:103AE00002302380ADF80210BDF80230ADF802308C
:103AF000BDF8023023803F23ADF80230BDF80260EC
:103B0000ADF80260BDF802602680ADF80230BDF865
:103B10000260ADF80260BDF802602680ADF80210C8
:103B2000BDF80210ADF80210BDF802102180ADF80A
:103B30000250BDF80210ADF80210BDF8021024F8D2
:103B4000021CADF80200BDF80210ADF80210BDF87D
:103B500002102180ADF80200BDF80210ADF802108D
:103B6000BDF802102180ADF802E0BDF80210ADF8FA
:103B70000210BDF802102180ADF80230BDF802102D
:103B8000ADF80210BDF802102180ADF80270BDF84A
:103B90000210ADF80210BDF8021024F8021CADF8B6
:103BA0000200BDF80210ADF80210BDF8021021802D
:103BB000ADF80200BDF80210ADF80210BDF8021019
:103BC0002180ADF80200BDF80200ADF80200BDF89A
:103BD00002002080EF20ADF80200BDF80200ADF831
:103BE0000200BDF802002080ADF80220BDF80200FE
:103BF000ADF80200BDF8020024F8020C7820FFF7AF
:103C000033F92920ADF80200BDF80200ADF802003A
:103C1000BDF8020024F8020C01B0F0BD2DE9F04F10
:103C200081B0FF23ADF80230BDF8020040F6000479
:103C3000ADF80200BDF80200C6F6004424F8020CFC
:103C4000ADF80230BDF802004FF0060EADF80200EC
:103C5000BDF802004FF00F0B20809820ADF8020055
:103C6000BDF802004FF00B0AADF80200BDF80200EB
:103C70004FF010092080ADF802E0BDF802004025A9
:103C8000ADF80200BDF802004FF00A0C2080BC2005
:103C9000ADF80200BDF80200ADF80200BDF8020068
:103CA00024F8020C0120ADF80200BDF80210ADF8B6
:103CB0000210BDF802102180ADF802B0BDF802106C
:103CC000ADF80210BDF8021021806121ADF802109C
:103CD000BDF80210ADF80210BDF802102180ADF859
:103CE0000230BDF80210ADF80210BDF802102180BC
:103CF000ADF80200BDF80210ADF80210BDF80210D8
:103D00002180ADF80200BDF80210ADF80210BDF838
:103D100002102180ADF802A0BDF80210ADF802102B
:103D2000BDF802102180ADF80290BDF80210ADF888
:103D30000210BDF8021021803721ADF80210BDF845
:103D40000210ADF80210BDF8021021806321ADF819
:103D50000210BDF80210ADF80210BDF8021021806B
:103D6000ADF80230BDF80210ADF80210BDF8021037
:103D70002180ADF80230BDF80210ADF80210BDF898
:103D800002102180ADF80200BDF80210ADF802105B
:103D9000BDF802102180ADF80200BDF80210ADF8A8
:103DA0000210BDF8021021800021ADF80210BDF80C
:103DB0000220ADF80220BDF802202280ADF80210EA
:103DC000BDF80220ADF80220BDF802202280ADF837
:103DD0000230BDF80220ADF80220BDF8022022809A
:103DE0005222ADF80220BDF80220ADF80220BDF845
:103DF00002202280ADF80200BDF80220ADF80220BA
:103E0000BDF802202280ADF80210BDF80220ADF806
:103E10000220BDF802202280ADF80250BDF8022039
:103E2000ADF80220BDF802202280BD22ADF80220AC
:103E3000BDF80220ADF80220BDF8022024F8022CC3
:103E4000ADF80200BDF80220ADF80220BDF8022056
:103E500022802322ADF80220BDF80230ADF80230F6
:103E6000BDF8023023804523ADF80230BDF8026072
:103E7000ADF80260BDF8026026806726ADF80260EA
:103E8000BDF80270ADF80270BDF802702780ADF881
:103E90000200BDF80270ADF80270BDF80270278014
:103EA000ADF80220BDF80220ADF80220BDF80220D6
:103EB0002280ADF80230BDF80220ADF80220BDF836
:103EC00002202280ADF80260BDF802201326ADF872
:103ED0000220BDF802202280BE22ADF80220BDF8EB
:103EE0000220ADF80220BDF8022024F8022CADF823
:103EF0000210BDF80220ADF80220BDF80220228099
:103F0000ADF80200BDF80220ADF80220BDF8022095
:103F10002280AB22ADF80220BDF80220ADF80220CD
:103F2000BDF8022022806022ADF80220BDF80220F8
:103F3000ADF80220BDF8022022802222ADF8022036
:103F4000BDF80230ADF80230BDF802302380ADF884
:103F50000220BDF80230ADF80230BDF802302380F7
:103F6000ADF80220BDF80230ADF80230BDF80230E5
:103F70002380ADF80220BDF80230ADF80230BDF864
:103F800002302380ADF80220BDF802202023ADF8D6
:103F90000220BDF802202280C722ADF80220BDF821
:103FA0000220ADF80220BDF8022024F8022C3622AF
:103FB000ADF80220BDF80220ADF80220BDF80220C5
:103FC0002280ED22ADF80220BDF80220ADF80220DB
:103FD000BDF8022024F8022C7F22ADF80220BDF8A3
:103FE0000220ADF80220BDF802202280ADF802B018
:103FF000BDF80220ADF80220BDF802202280C022C8
:10400000ADF80220BDF80220ADF80220BDF8022074
:1040100024F8022CADF802B0BDF80220ADF8022061
:10402000BDF802202280ADF802A0BDF80220ADF854
:104030000220BDF802202280ADF802C0BDF80220A7
:10404000ADF80220BDF802202280FC22ADF802204B
:10405000BDF80220ADF80220BDF8022024F8022CA1
:104060000822ADF80220BDF80220ADF80220BDF80C
:1040700002202280DF22ADF80220BDF80220ADF838
:104080000220BDF8022024F8022CADF80210BDF881
:104090000220ADF80220BDF802202280ADF8021007
:1040A000BDF80220ADF80220BDF802202280ADF854
:1040B0000210BDF80220ADF80220BDF802202280D7
:1040C000ADF80210BDF80220ADF80220BDF80220C4
:1040D0002280ADF80210BDF80220ADF80220BDF834
:1040E00002202280ADF80230BDF80220ADF8022097
:1040F000BDF802202280F322ADF80220BDF8022094
:10410000ADF80220BDF8022024F8022C7422ADF88C
:104110000220BDF80220ADF80220BDF80220228066
:10412000B422ADF80220BDF80220ADF80220BDF89F
:10413000022024F8022CADF80210BDF80220ADF8E0
:104140000220BDF802202280ADF80210BDF8022046
:10415000ADF80220BDF802202280ADF80210BDF8B3
:104160000220ADF80220BDF802202280F722ADF82F
:104170000220BDF80220ADF80220BDF8022024F88C
:10418000022C8222ADF80220BDF80220ADF80220F8
:10419000BDF802202280B122ADF80220BDF8022035
:1041A000ADF80220BDF8022024F8022CADF8021070
:1041B000BDF80220ADF80220BDF802202280ADF843
:1041C0000260BDF80220ADF80220BDF80220228076
:1041D000ADF80260BDF80220ADF80220BDF8022063
:1041E0002280F222ADF80220BDF80220ADF80220B4
:1041F000BDF8022024F8022C8022ADF80220BDF880
:104200000220ADF80220BDF8022022800422ADF881
:104210000220BDF80220ADF80220BDF80220228065
:10422000ADF80250BDF80220ADF80220BDF8022022
:1042300022802822ADF80220BDF80220ADF802202D
:10424000BDF802202280C122ADF80220BDF8022074
:10425000ADF80220BDF8022024F8022C1722ADF898
:104260000220BDF80220ADF80220BDF80220228015
:104270008822ADF80220BDF80250ADF80250BDF81A
:1042800002502580ADF80220BDF802200E25ADF8C1
:104290000220BDF802202280ADF80230BDF80220D5
:1042A000ADF80220BDF802202280E022ADF8022005
:1042B000BDF80220ADF80220BDF8022024F8022C3F
:1042C000ADF80210BDF80220ADF80220BDF80220C2
:1042D0002280ADF802C0BDF80220ADF80220BDF882
:1042E000022022801222ADF80220BDF80220ADF893
:1042F0000220BDF802202280ADF80290BDF8022015
:10430000ADF80220BDF802202280ADF80250BDF8C1
:104310000220ADF80220BDF802202280ADF8023064
:10432000BDF80220ADF80220BDF802202280CC2288
:10433000ADF80220BDF80220ADF80220BDF8022041
:1043400022800722ADF80220BDF80220ADF802203D
:10435000BDF802202280ADF802E0BDF80220ADF8E1
:104360000220BDF802202280ADF802A0BDF8022094
:10437000ADF80220BDF802202280ADF80250BDF851
:104380000220ADF80220BDF802202280ADF802B074
:10439000BDF80220ADF80220BDF8022022800D22D7
:1043A000ADF80220BDF80230ADF80230BDF80230A1
:1043B00023801523ADF80230BDF80280ADF80280ED
:1043C000BDF802702780ADF80290BDF80270ADF81C
:1043D0000270BDF802702780ADF80210BDF80270BF
:1043E000ADF80270BDF802702780E127ADF80270C9
:1043F000BDF80270ADF80270BDF8027024F8027CBE
:10440000ADF80210BDF80270ADF80270BDF8027090
:104410002780ADF802A0BDF80270ADF80270BDF8BB
:1044200002702780ADF80260BDF80260ADF802604E
:10443000BDF802602680ADF80220BDF80220ADF87C
:104440000220BDF802202280ADF80250BDF8022003
:10445000ADF80220BDF8022022801B22ADF8022018
:10446000BDF80220ADF80220BDF8022022807122A2
:10447000ADF80220BDF80220ADF80220BDF8022000
:104480002280ADF802E0BDF80220ADF80220BDF8B0
:1044900002202280ADF802E0BDF80220ADF8022033
:1044A000BDF802202280ADF802C0BDF80220ADF8B0
:1044B0000220BDF802202280ADF802B0BDF8022033
:1044C000ADF80220BDF802202280ADF80250BDF800
:1044D0000220ADF80220BDF802202280ADF802B023
:1044E000BDF80220ADF80220BDF802202280ADF810
:1044F0000230BDF80220ADF80220BDF80220228073
:104500000C22ADF80220BDF80220ADF80220BDF863
:1045100002202280ADF80210BDF80220ADF8022082
:10452000BDF8022022802A22ADF80220BDF8022028
:10453000ADF80220BDF8022024F8022CADF80210DC
:10454000BDF80220ADF80220BDF802202280ADF8AF
:104550000210BDF80220ADF80220BDF80220228032
:10456000ADF80200BDF80200ADF80200BDF802008F
:104570002080DF20ADF80200BDF80200ADF8020097
:10458000BDF8020020802B20ADF80200BDF802002B
:10459000ADF80200BDF8020024F8020CADF80210DC
:1045A000BDF80200ADF80200BDF802002080ADF8B1
:1045B0000210BDF80200ADF80200BDF80200208034
:1045C0000320ADF80200BDF80200ADF80200BDF80E
:1045D000020020801F20ADF80200BDF80200ADF8F7
:1045E0000200BDF8020020803A20ADF80200BDF8BC
:1045F0000200ADF80200BDF8020024F8020C5520BC
:10460000ADF80200BDF80200ADF80200BDF80200EE
:1046100020803620ADF80200BDF80200ADF802009F
:10462000BDF8020024F8020CADF80210BDF802003B
:10463000ADF80200BDF8020020801120ADF80200A4
:10464000BDF80200ADF80200BDF8020024F8020C2B
:104650007820FEF709FC2920ADF80200BDF8020021
:10466000ADF80200BDF8020024F8020C1420FEF799
:10467000FBFB2C20ADF80200BDF80200ADF80200F3
:10468000BDF8020024F8020C01B0BDE8F08F000074
:104690002DE9F04F81B0ED20ADF80200BDF8020029
:1046A00040F60004ADF80200BDF80200C6F6004472
:1046B00024F8020C0120ADF80200BDF802004FF012
:1046C0002109ADF80200BDF8020001222080FE2081
:1046D000ADF80200BDF802000025ADF80200BDF8FB
:1046E00002008B262080EE20ADF80200BDF802000B
:1046F0000223ADF80200BDF802004FF0200A24F8B2
:10470000020CDE20ADF80200BDF802004FF03C08BC
:10471000ADF80200BDF802004FF0360E2080ADF873
:104720000290BDF80210C420ADF80210BDF80210CE
:104730004FF0320B2180F121ADF80210BDF80210CC
:104740004FF02C0CADF80210BDF8021024F8021C3A
:10475000ADF80220BDF80210ADF80210BDF802104D
:104760002180DF21ADF80210BDF80210ADF8021073
:10477000BDF8021024F8021C1021ADF80210BDF89B
:104780000210ADF80210BDF802102180ADF8020051
:10479000BDF80210C620ADF80210BDF8021024F8D2
:1047A000021C8F21ADF80210BDF80210ADF8021006
:1047B000BDF802102180ADF80200BDF80210E22021
:1047C000ADF80210BDF8021024F8021CADF802503A
:1047D000BDF80210ADF80210BDF802102180ADF84E
:1047E0000200BDF80210ADF80210BDF802102180E1
:1047F000ADF80200BDF80210ADF80210BDF80210CD
:104800002180ADF80200BDF802105D20ADF8021065
:10481000BDF802102180BF21ADF80210BDF80210D2
:10482000ADF80210BDF8021024F8021CAA21ADF860
:104830000210BDF80210ADF80210BDF80210218080
:10484000B021ADF80210BDF80210ADF80210BDF8AD
:10485000021024F8021C0D21ADF80210BDF8022050
:10486000ADF80220BDF802202280ADF80250BDF85C
:104870000220ADF80220BDF802202280ADF802101F
:10488000BDF80210ADF80210BDF802102180ADF89D
:104890000250BDF80210ADF80210BDF802102180E0
:1048A0001121ADF80210BDF80210ADF80210BDF8EC
:1048B00002102180ADF80250BDF80210ADF80210D0
:1048C000BDF8021021801921ADF80210BDF80210C8
:1048D000ADF80210BDF802102180ADF80250BDF80D
:1048E0000210ADF80210BDF802102180ADF8029060
:1048F000BDF80210ADF80210BDF802102180ADF82D
:104900000250BDF80210ADF80210BDF8021021806F
:104910002D21ADF80210BDF80210ADF80210BDF85F
:1049200002102180ADF80250BDF80210ADF802105F
:10493000BDF8021021803D21ADF80210BDF8021033
:10494000ADF80210BDF802102180ADF80250BDF89C
:104950000210ADF80210BDF802102180ADF802007F
:10496000BDF80210ADF80210BDF802102180ADF8BC
:104970000250BDF80210ADF80210BDF802102180FF
:10498000ADF80200BDF802108B20ADF80210BDF8A2
:1049900002102180ADF80250BDF80210ADF80210EF
:1049A000BDF802102180B121ADF80210BDF802104F
:1049B000ADF80210BDF8021024F8021C8021ADF8F9
:1049C0000210BDF80210ADF80210BDF802102180EF
:1049D000ADF80250BDF80210ADF80210BDF802109B
:1049E0002180ADF80200BDF802100220ADF80210DF
:1049F000BDF802102180ADF80250BDF80210ADF8EC
:104A00000210BDF8021021809621ADF80210BDF809
:104A10000220ADF80220BDF802202280ADF802503D
:104A2000BDF80220ADF80220BDF802202280B2229B
:104A3000ADF80220BDF80220ADF80220BDF802203A
:104A400024F8022CADF80250BDF80220ADF8022087
:104A5000BDF802202280ADF80250BDF80220ADF86A
:104A60000220BDF802202280ADF80200BDF802202D
:104A7000B320ADF80220BDF802202280ADF802502C
:104A8000BDF80220ADF80220BDF8022022800322EA
:104A9000ADF80220BDF80270ADF80270BDF80270EA
:104AA0002780ADF80250BDF80270ADF80270BDF875
:104AB00002702780ADF80200BDF80270B720ADF893
:104AC0000270BDF8027024F8027CADF80250BDF807
:104AD0000270ADF80270BDF802702780ADF8025088
:104AE000BDF80270ADF80270BDF802702780ADF815
:104AF0000250BDF80270ADF80270BDF80270278058
:104B0000ADF80250BDF80270ADF80270BDF8027049
:104B10002780ADF80250BDF80270ADF80270BDF804
:104B200002702780ADF80250BDF80270ADF8027037
:104B3000BDF802702780ADF80250BDF80270ADF8E4
:104B40000270BDF802702780ADF80250BDF8027007
:104B5000ADF80270BDF802702780ADF80250BDF8C4
:104B60000270ADF80270BDF802702780ADF80250F7
:104B7000BDF80270ADF80270BDF802702780ADF884
:104B80000250BDF80270ADF80270BDF802702780C7
:104B9000ADF80250BDF80270ADF80270BDF80270B9
:104BA0002780ADF80250BDF80270ADF80270BDF874
:104BB00002702780ADF80250BDF80270ADF80270A7
:104BC000BDF802702780ADF80250BDF80270ADF854
:104BD0000270BDF802702780ADF80250BDF8027077
:104BE000ADF80270BDF802702780ADF80250BDF834
:104BF0000270ADF80270BDF802702780ADF8025067
:104C0000BDF80270ADF80270BDF802702780ADF8F3
:104C10000250BDF80270ADF80270BDF80270278036
:104C2000ADF80250BDF80270ADF80270BDF8027028
:104C30002780ADF80250BDF80270ADF80270BDF8E3
:104C400002702780ADF80250BDF80270ADF8027016
:104C5000BDF802702780ADF80250BDF80270ADF8C3
:104C60000270BDF802702780ADF80250BDF80270E6
:104C7000ADF80270BDF802702780B427ADF802705D
:104C8000BDF80270ADF80270BDF8027024F8027C25
:104C9000ADF80260BDF80270ADF80270BDF80270A8
:104CA0002780ADF80250BDF80270ADF80270BDF873
:104CB00002702780ADF80210BDF802100427ADF88D
:104CC0000210BDF802102180ADF80250BDF80210AC
:104CD000ADF80210BDF802102180A121ADF802103C
:104CE000BDF80210ADF80210BDF802102180ADF839
:104CF0000250BDF80210ADF80210BDF8021021807C
:104D0000B521ADF80210BDF80210ADF80210BDF8E3
:104D1000021024F8021CADF80230BDF80210FF2387
:104D2000ADF80210BDF802102180ADF80250BDF8B8
:104D30000210ADF80210BDF802102180ADF802207B
:104D4000BDF80210ADF80210BDF802102180ADF8D8
:104D50000250BDF80210ADF80210BDF8021021801B
:104D6000ADF80270BDF80210ADF80210BDF80210E7
:104D70002180ADF80250BDF80210ADF80210BDF868
:104D800002102180B621ADF80210BDF80210ADF876
:104D90000210BDF8021024F8021CADF80250BDF854
:104DA0000210ADF80210BDF802102180ADF80250DB
:104DB000BDF80210ADF80210BDF802102180ADF868
:104DC0000200BDF802106420ADF80210BDF8021018
:104DD00024F8021CADF80250BDF80210ADF8021024
:104DE000BDF802102180ADF80250BDF80210ADF8F8
:104DF0000210BDF8021021803F21ADF80210BDF86D
:104E00000210ADF80210BDF802102180ADF802507A
:104E1000BDF80210ADF80210BDF8021021805E212D
:104E2000ADF80210BDF80210ADF80210BDF8021086
:104E30002180ADF80250BDF80210ADF80210BDF8A7
:104E400002102180ADF80200BDF80210DC20ADF8A0
:104E50000210BDF802102180ADF80250BDF802101A
:104E6000ADF80210BDF8021021808C21ADF80210BF
:104E7000BDF80210ADF80210BDF802102180ADF8A7
:104E80000250BDF80210ADF80210BDF802102180EA
:104E9000AC21ADF80210BDF80210ADF80210BDF85B
:104EA00002102180ADF80250BDF80210ADF80210DA
:104EB000BDF802102180ADF80200BDF80210ADF877
:104EC0000210BDF802102180ADF80250BDF80210AA
:104ED000ADF80210BDF8021021807021ADF802106B
:104EE000BDF80210ADF80210BDF802102180ADF837
:104EF0000250BDF80210ADF80210BDF8021021807A
:104F00009021ADF80210BDF80210ADF80210BDF806
:104F100002102180ADF80250BDF80210ADF8021069
:104F2000BDF802102180EB21ADF80210BDF802108F
:104F3000ADF80210BDF802102180ADF80250BDF8A6
:104F40000210ADF80210BDF802102180ADF8020089
:104F5000BDF80210C220ADF80210BDF80210218089
:104F6000ADF80250BDF80210ADF80210BDF8021005
:104F70002180B821ADF80210BDF80210ADF8021082
:104F8000BDF8021024F8021CADF80250BDF8021062
:104F9000ADF80210BDF802102180ADF80250BDF846
:104FA0000210ADF80210BDF802102180ADF80250D9
:104FB000BDF80210ADF80210BDF802102180ADF866
:104FC0000250BDF80210ADF80210BDF802102180A9
:104FD000ADF80250BDF80210ADF80210BDF8021095
:104FE0002180ADF80250BDF80210ADF80210BDF8F6
:104FF00002102180ADF80250BDF80210ADF8021089
:10500000BDF802102180ADF80250BDF80210ADF8D5
:105010000210BDF802102180BA21ADF80210BDF8CF
:105020000210ADF80210BDF8021024F8021C242171
:10503000ADF80210BDF80220ADF80220BDF8022044
:105040002280ADF80250BDF80220ADF80220BDF874
:1050500002202280ADF80250BDF80220ADF80220F7
:10506000BDF802202280ADF80250BDF80220ADF854
:105070000220BDF802202280C122ADF80220BDF836
:105080000220ADF80220BDF8022024F8022CADF871
:1050900002A0BDF802602322ADF80260BDF80260F4
:1050A0002680ADF80250BDF80260ADF80260BDF890
:1050B000026026805426ADF80260BDF80260ADF8AB
:1050C0000260BDF802602680ADF80250BDF80260B3
:1050D000ADF80260BDF802602680ADF80230BDF880
:1050E00002603A23ADF80260BDF802602680ADF898
:1050F0000250BDF80260ADF80260BDF80260268083
:10510000ADF80200BDF802600A20ADF80260BDF8FB
:10511000026024F8026CADF80200BDF802603C2089
:10512000ADF80260BDF802602680ADF80250BDF80F
:105130000260ADF80260BDF802602680ADF8027032
:10514000BDF80270ADF80270BDF802702780ADF8AE
:105150000250BDF80270ADF80270BDF802702780F1
:10516000C327ADF80270BDF80270ADF80270BDF84B
:10517000027024F8027CADF80200BDF80270ADF8B0
:105180000270BDF802702780ADF80250BDF80270C1
:10519000ADF80270BDF802702780ADF80230BDF89E
:1051A00002702C23ADF80270BDF802702780ADF8B4
:1051B0000250BDF80270ADF80270BDF80270278091
:1051C0003927ADF80270BDF80270ADF80270BDF875
:1051D00002702780ADF80250BDF80270ADF8027081
:1051E000BDF8027027803727ADF80270BDF8027055
:1051F000ADF80270BDF802702780ADF80250BDF81E
:105200000270ADF80270BDF802702780ADF80200A0
:10521000BDF802703620ADF80270BDF8027027802C
:10522000ADF80250BDF80270ADF80270BDF8027022
:105230002780ADF80200BDF802703220ADF8027090
:10524000BDF802702780ADF80250BDF80270ADF8CD
:105250000270BDF802702780ADF80200BDF8027040
:105260002920ADF80270BDF802702780ADF8025019
:10527000BDF80270ADF80270BDF8027027802F27CC
:10528000ADF80270BDF80260ADF80260BDF80260D2
:105290002680ADF80250BDF80260ADF80260BDF89E
:1052A00002602680ADF80230BDF802602923ADF817
:1052B0000260BDF802602680ADF80250BDF80260C1
:1052C000ADF80260BDF802602680ADF80230BDF88E
:1052D0000260ADF80260BDF802602680ADF80250B1
:1052E000BDF80260ADF80260BDF802602680262697
:1052F000ADF80260BDF80230ADF80230BDF8023002
:105300002380ADF80250BDF80230ADF80230BDF890
:1053100002302380ADF80210BDF80230ADF8023043
:10532000BDF802302380ADF80250BDF80230ADF870
:105330000230BDF802302380ADF80210BDF8023013
:10534000ADF80230BDF802302380ADF80250BDF850
:105350000230ADF80230BDF8023023802323ADF8CF
:105360000230BDF80230ADF80230BDF802302380C3
:10537000ADF80250BDF80230ADF80230BDF8023091
:105380002380ADF80280BDF802304FF07A08ADF806
:105390000230BDF802302380ADF80250BDF8023073
:1053A000ADF80230BDF802302380ADF802E0BDF860
:1053B00002304FF08B0EADF80230BDF80230238082
:1053C000ADF80250BDF80230ADF80230BDF8023041
:1053D0002380ADF802B0BDF80230ADF80230BDF860
:1053E00002302380ADF80250BDF80230ADF8023033
:1053F000BDF802302380ADF80270BDF80230ADF880
:105400000230BDF802302380ADF80250BDF8023002
:10541000ADF80230BDF802302380ADF802C0BDF80F
:1054200002304FF0C40CADF80230BDF802302380DA
:10543000ADF80250BDF80230ADF80230BDF80230D0
:105440002380ADF80200BDF80230C420ADF8023070
:10545000BDF802302380ADF80250BDF80230ADF83F
:105460000230BDF802302380ADF80260BDF8023092
:105470001626ADF80230BDF802302380ADF8025098
:10548000BDF80230ADF80230BDF802302380ADF82F
:105490000210BDF80230ADF80230BDF802302380B2
:1054A000ADF80250BDF80230ADF80230BDF8023060
:1054B0002380ADF80210BDF80210ADF80210BDF85F
:1054C00002102180ADF80250BDF80210ADF80210B4
:1054D000BDF802102180ADF80220BDF80210ADF831
:1054E0000210BDF802102180ADF80250BDF8021084
:1054F000ADF80210BDF802102180ADF80200BDF831
:1055000002106220ADF80210BDF8021024F8021C4F
:10551000ADF80200BDF802100520ADF80210BDF88C
:1055200002102180ADF80250BDF80210ADF8021053
:10553000BDF802102180ADF80200BDF802108420F1
:10554000ADF80210BDF802102180ADF80250BDF890
:105550000210ADF80210BDF802102180ADF8020073
:10556000BDF80210F020ADF80210BDF80210218045
:10557000ADF80250BDF80210ADF80210BDF80210EF
:105580002180ADF80200BDF802105020ADF80210E5
:10559000BDF802102180ADF80250BDF80210ADF840
:1055A0000210BDF8021021801821ADF80210BDF8DC
:1055B0000230ADF80230BDF802302380ADF8025061
:1055C000BDF80230ADF80230BDF802302380A423CC
:1055D000ADF80230BDF80230ADF80230BDF802304F
:1055E0002380ADF80250BDF80230ADF80230BDF8AE
:1055F00002302380ADF80210BDF80210ADF80210A1
:10560000BDF802102180ADF80250BDF80210ADF8CF
:105610000210BDF802102180ADF80200BDF80210A2
:10562000F320ADF80210BDF802102180ADF8025051
:10563000BDF80210ADF80210BDF8021021800C2157
:10564000ADF80210BDF80210ADF80210BDF802105E
:105650002180ADF80250BDF80210ADF80210BDF87F
:10566000021021801721ADF80210BDF80230ADF80C
:105670000230BDF802302380ADF80250BDF8023090
:10568000ADF80230BDF8023023809523ADF802302A
:10569000BDF80230ADF80230BDF802302380ADF81D
:1056A0000250BDF80230ADF80230BDF80230238060
:1056B000ADF80200BDF80230E620ADF80230BDF8CA
:1056C00002302380ADF80250BDF80230ADF8023050
:1056D000BDF802302380ADF80200BDF8023044204E
:1056E000ADF80230BDF802302380ADF80250BDF8AD
:1056F0000230ADF80230BDF802302380C523ADF88A
:105700000230BDF80230ADF80230BDF8023024F8A6
:10571000023CADF802B0BDF802304FF0520BADF8CC
:105720000230BDF802302380ADF80250BDF80230DF
:10573000ADF80230BDF802302380ADF80200BDF8AC
:1057400002307620ADF80230BDF802302380ADF88B
:105750000250BDF80230ADF80230BDF802302380AF
:105760006523ADF80230BDF80230ADF80230BDF867
:1057700002302380ADF80250BDF80230ADF802309F
:10578000BDF802302380ADF80200BDF80230882059
:10579000ADF80230BDF802302380ADF80250BDF8FC
:1057A0000230ADF80230BDF802302380ADF80200BF
:1057B000BDF80230C620ADF80230BDF802302380BB
:1057C000ADF80250BDF80230ADF80230BDF802303D
:1057D0002380ADF80200BDF802300120ADF80230A0
:1057E000BDF8023024F8023CADF802A0BDF802205A
:1057F000A823ADF80220BDF802202280ADF80250A7
:10580000BDF80220ADF80220BDF802202280ADF8DC
:105810000210BDF80210B922ADF80210BDF8021056
:105820002180ADF80250BDF80210ADF80210BDF8AD
:1058300002102180ADF80200BDF80210C720ADF8BB
:105840000210BDF802102180ADF80250BDF8021020
:10585000ADF80210BDF802102180ADF80200BDF8CD
:105860000210E020ADF80210BDF8021024F8021C6E
:10587000ADF80250BDF80210ADF80210BDF80210EC
:105880002180ADF80250BDF80210ADF80210BDF84D
:1058900002102180ADF80250BDF80210ADF80210E0
:1058A000BDF802102180ADF80250BDF80210ADF82D
:1058B0000210BDF802102180C821ADF80210BDF819
:1058C0000210ADF80210BDF8021024F8021CADF869
:1058D0000250BDF80210ADF80210BDF80210218090
:1058E000ADF80250BDF80210ADF80210BDF802107C
:1058F0002180ADF80250BDF80210ADF80210BDF8DD
:1059000002102180ADF80250BDF80210ADF802106F
:10591000BDF802102180C921ADF80210BDF80210B7
:10592000ADF80210BDF8021024F8021CADF80250C8
:10593000BDF80210ADF80210BDF802102180ADF8DC
:105940000250BDF80210ADF80210BDF8021021801F
:10595000ADF80250BDF80210ADF80210BDF802100B
:105960002180ADF80250BDF80210ADF80210BDF86C
:1059700002102180ADF80250BDF80210ADF80210FF
:10598000BDF802102180ADF80250BDF80210ADF84C
:105990000210BDF802102180ADF80250BDF80210CF
:1059A000ADF80210BDF802102180ADF80250BDF82C
:1059B0000210ADF80210BDF802102180ADF80250BF
:1059C000BDF80210ADF80210BDF802102180ADF84C
:1059D0000250BDF80210ADF80210BDF8021021808F
:1059E000ADF80250BDF80210ADF80210BDF802107B
:1059F0002180ADF80250BDF80210ADF80210BDF8DC
:105A000002102180ADF80250BDF80210ADF802106E
:105A1000BDF802102180ADF80250BDF80210ADF8BB
:105A20000210BDF802102180ADF80250BDF802103E
:105A3000ADF80210BDF802102180ADF80250BDF89B
:105A40000210ADF80210BDF802102180ADF802007E
:105A5000BDF802101C20ADF80210BDF8021024F8A9
:105A6000021CADF80260BDF80210ADF80210BDF8DE
:105A700002102180ADF80250BDF80210ADF80210FE
:105A8000BDF802102180ADF80200BDF80210ADF89B
:105A90000210BDF802102180ADF80250BDF80210CE
:105AA000ADF80210BDF802102180ADF80290BDF8EB
:105AB00002004FF06409ADF80200BDF80200CA21EF
:105AC0002080ADF80250BDF80200ADF80200BDF82C
:105AD000020020803620ADF80200BDF80200ADF8CB
