:020000040800F2
:1000000068090020F9010008ED140008E514000853
:10001000E914000889030008A11A00080000000084
:10002000000000000000000000000000111900089E
:100030008D030008000000000D19000815190008C4
:10004000A51A000813020008130200081302000892
:1000500013020008130200089103000813020008AD
:1000600013020008CD030008110400081302000861
:10007000130200081302000813020008130200080C
:1000800013020008130200081302000813020008FC
:1000900013020008130200081302000813020008EC
:1000A00013020008130200081302000813020008DC
:1000B0001D1900084919000813020008130200085E
:1000C00013020008130200081302000813020008BC
:1000D00013020008751A0008130200081302000832
:1000E000130200081302000813020008130200089C
:1000F000130200081302000813020008130200088C
:10010000130200081302000859190008130200081E
:10011000130200081302000865190008A919000855
:10012000130200081302000813020008130200085B
:1001300000F002F800F050F814A696E8000CB24463
:10014000B344DA4501D100F047F8BAE80F000FA632
:1001500096E83000A5EB040504EB0607AAEB0704BC
:10016000A7F101074FEA15154FEA3414A4F1010471
:10017000AC4201D300F030F813F0010F18BFFB1AA6
:1001800043F0010300F001F8DBE7184768220000A4
:1001900088220000103A24BF78C878C1FAD85207E4
:1001A00024BF30C830C144BF04680C6070470000F1
:1001B000704700000023002400250026103A28BFC5
:1001C00078C1FBD8520728BF30C148BF0B607047C9
:1001D0001FB51FBD10B510BD00F0A8F81146FFF700
:1001E000F7FF01F021FD00F0C6F803B4FFF7F2FFBE
:1001F00003BC01F05DFC0000094880470948004746
:10020000FEE7FEE7FEE7FEE7FEE7FEE7FEE7FEE7C6
:10021000FEE7FEE704480549054A064B7047000023
:10022000191900083101000868030020680900203E
:1002300068050020680500207047000010B50446DE
:1002400003E001F05FFC401C09D014F8010B0549E4
:100250000028F6D1BDE810400A2001F053BC4FF051
:10026000FF3010BD7400002010B5203AC0F00B80A4
:10027000B1E81850A0E81850B1E81850A0E818509C
:10028000203ABFF4F5AF5FEA027C24BFB1E8185012
:10029000A0E8185044BF18C918C0BDE810405FEA74
:1002A000827C24BF51F8043B40F8043B08BF7047F0
:1002B000D20728BF31F8023B48BF11F8012B28BFF5
:1002C00020F8023B48BF00F8012B70474FF00002B6
:1002D00000B5134694469646203922BFA0E80C503C
:1002E000A0E80C50B1F12001BFF4F7AF090728BF17
:1002F000A0E80C5048BF0CC05DF804EB890028BF93
:1003000040F8042B08BF704748BF20F8022B11F0BB
:10031000804F18BF00F8012B704770477047704737
:100320007047000000487047100000207546FFF736
:10033000F9FFAE4605006946534620F007008546A2
:1003400018B020B5FFF766FFBDE820404FF000066B
:100350004FF000074FF000084FF0000BAC46ACE840
:10036000C009ACE8C009ACE8C009ACE8C00921F09C
:1003700007018D46704710B50446AFF30080204654
:10038000BDE81040FFF731BFFEE7000070470000F6
:10039000B0B540F214440120C4F20104012500F07C
:1003A000EFF8142001F08CFB04F57B70012100F0C4
:1003B000E1F9012807D140F2C800C2F2000001684B
:1003C000C1F1010101602560B0BD0000B0B5082099
:1003D000082500F0D5F840F2C800C2F2000000681D
:1003E00080B140F600441420C4F2010401F068FB1F
:1003F00004F54060082100F0BDF918B9204620211D
:1004000000F0BEF940F21440C4F201000560B0BD36
:10041000B0B51020102500F0B3F840F2C800C2F2C9
:1004200000000068A0B141F600041420C4F20104E9
:1004300001F046FB2046102100F09CF940B9A4F5DC
:100440004060202100F09CF92046202100F098F91E
:1004500040F21440C4F201000560B0BD90F82110D4
:10046000022927D1026840F2040C1368C4F2020C7E
:1004700023F00E03136013680CF17C018A4223F011
:10048000010111601AD940F20841C4F202018A4206
:100490004ED040F21C41C4F202018A4241D040F2E7
:1004A0003041C4F202018A4246D14FF48073CCF845
:1004B000003457E004218163012070474321C4F2D6
:1004C00002018A420EDD6B21C4F202018A421BDC6A
:1004D0004421C4F202018A423BD05821C4F20201F5
:1004E0008A4222E00821C4F202018A422FD01C2154
:1004F000C4F202018A4232D03021C4F202018A429F
:1005000013D14FF480722BE06C21C4F202018A42B5
:1005100022D08021C4F202018A4206D14FF08072BB
:100520001EE01023CCF800341CE04FF4803217E0BA
:100530000123CCF8003415E00CF588614FF48033CA
:100540008A4208BF4FF48053CCF800340AE00122FD
:1005500006E04FF4805203E04FF4801200E01022D6
:10056000CCF80020416B4FF480720029028404BF54
:100570000020704780B58847002080BD704700008C
:1005800040F21441C4F201010A68024214BF08603B
:100590007047FFF7F3BF00002DE9F04F82B00E68FF
:1005A000002E00F0E380A0F1804241F6004540F2C9
:1005B0000043A2F58432C4F201050624C4F201030B
:1005C0004FEAB227A84208BF05244FF0000E4FF0B3
:1005D00001080F254FF0000A4FF0000B052F38BF20
:1005E0004FEAB224009408E00E680AF1010A36FAD4
:1005F0000AF20EF1040E00F0B98008FA0AFC16EABD
:100600000C09F1D04E684FF6FF72C1F2100296420B
:1006100010DC122E50D8DFE806F0330A48454F4F61
:100620004F4F4F4F4F4F4F4F4F4F4F414C00D1F80F
:100630000CB041E04FF6FF72C1F2210296420FDC8E
:100640000022C1F2110296421AD00022C1F2120217
:10065000964215D00022C1F22102964210D02BE022
:100660000022C1F2220296420AD00022C1F23102D7
:10067000964205D00022C1F2320296421CD100BF40
:100680008A6842B1012A14BFC0F814C0C0F810C073
:100690004FF0080B10E04FF0040B0DE0CA6802F1B8
:1006A000040B09E04FF0000B06E0CA6802F1080BEA
:1006B00002E0CA6802F10C0B02467446B9F5807F6D
:1006C00024BF0432203C166805FA04F726EA07071F
:1006D0000BFA04F637431760CA79D2067FF584AF68
:1006E00041F21807C4F202073A684FF6084542F093
:1006F00001023A603A68CFF6FF7502F001020192FA
:10070000019A2AF003021A440F2457590EF00C06DE
:10071000B440A743009C04FA06F6374357514E688D
:100720000F25F2031A6854BF22EA090242EA0902BD
:100730001A605A68B70354BF22EA090242EA090262
:100740005A60F7029A6854BF22EA090242EA090293
:10075000B70240F20C479A60C4F201073A6854BFEE
:1007600022EA090242EA09023A603DE702B0BDE826
:10077000F08F00008068084018BF0120704700001B
:10078000C26802EA0103914341EA034101617047F3
:10079000002A08BF090401617047000040F2603080
:1007A000C2F200000068704740F2080040F2603179
:1007B000C2F20000C2F2000100780A68104408602A
:1007C0007047000080B542F20000C4F202000168E8
:1007D00041F010010160052000F070F80F2000F0DA
:1007E00005F800F02BF8002080BD0000B0B540F205
:1007F0000802C2F2000240F204011278C2F20001C3
:100800004FF47A730968B3FBF2F20446B1FBF2F1DC
:10081000084600F001FB0F2C4FF001050CD858B929
:100820004FF0FF3021460022002500F01BF840F277
:100830000C00C2F2000004602846B0BD7047000002
:10084000002848BF704700F01F01012202FA01F1A1
:100850001C2202EAD0004EF20012CEF200028150B9
:100860007047000010B54EF60C5CCEF2000CDCF8C0
:100870000030C3F3022E8EF00704042C28BF04249A
:10088000BEF103034FF0FF3E0EFA04F438BF00231D
:10089000A14399400EFA03F39A43114300F16042D9
:1008A00000F00F03090102F56442043B6344002891
:1008B00048BF03F10C02117010BD00004EF60C5140
:1008C000CEF200010A684FF6FF031A4060F30A22D5
:1008D00042F0806040F0FD7008607047002804BF5F
:1008E000012070472DE9F04381B042F20008C4F2C4
:1008F00002080446D8F800000D4600F007008842C0
:100900000CD2D8F8000020F007002843C8F80000F7
:10091000D8F8000000F00700A8426BD1206841F22F
:1009200004098107C4F2020917D5410705D5D9F892
:10093000001041F4E061C9F80010010705D5D9F8AD
:10094000001041F46051C9F80010D9F80010A268F5
:1009500021F0F0011143C9F80010C00741D1D8F8C7
:10096000000000F00700A8420CD9D8F8000020F0E1
:1009700007002843C8F80000D8F8000000F007007E
:10098000A84237D12068410707D5D9F80010E2689E
:1009900021F4E0611143C9F80010000708D5D9F827
:1009A0000000216920F4605040EAC100C9F800004D
:1009B000D9F8002002F00C00082841F20020C0F213
:1009C0007A0049D142F2E433C2F38341C0F6000316
:1009D000595CD20334D440F60010C0F23D004843C5
:1009E0003AE0606859F8041C022807D0012824D195
:1009F000890305D4012001B0BDE8F0838901F9D550
:100A0000D9F8001021F003010843C9F80000FFF7EE
:100A1000C5FE064641F28837D9F80000616800F04B
:100A20000C00B0EB810F9AD0FFF7B8FE801BB842E4
:100A3000F2D9032001B0BDE8F0838907DAD5DFE7FA
:100A4000D9F8002041F65A53C2F34042C0F60003E1
:100A50009A5C4843B0FBF2F0D9F8001041F6DC5242
:100A6000C1F30311C0F60002515C40F2040220FA07
:100A700001F140F20C00C2F200000068C2F2000274
:100A80001160FFF7B3FE002001B0BDE8F083000065
:100A900040F2040041F20401C2F20000C4F202017B
:100AA0000068096841F6EC52C1F30221C0F6000269
:100AB000515CC8407047000040F2040041F204015C
:100AC000C2F20000C4F202010068096841F6EC526B
:100AD000C1F3C221C0F60002515CC840704700005B
:100AE000002804BF012070472DE9F04182B0044680
:100AF000007841F20006C007C4F2020647D07068D1
:100B000000F00C00042808D1306880033FD56068ED
:100B1000E8BB012002B0BDE8F081706800F00C0075
:100B2000082802D17068C003EED4656830682DB122
:100B3000B5F5A02F09D0B5F5803F0AD020F480305C
:100B40003060306820F4802005E040F48020306080
:100B5000306840F480303060FFF720FE002D0546FD
:100B600012D000BF3068800311D4FFF717FE401B7E
:100B70006428F7D916E100BFFFF710FE401B642878
:100B80004FF0030000F2D88030688003F4D420785E
:100B9000800719D5706810F00C0F07D0706800F04E
:100BA0000C00082827D17068C00324D4306880075F
:100BB00003D52069012840F0A6803068616920F0E3
:100BC000F80040EAC1003060207800074ED5A069E7
:100BD00038B30020C4F242200121C0F88014FFF78E
:100BE000DDFD0546706A80072DD4FFF7D7FD401B59
:100BF0000228F7D9D6E02069002840F20000C4F2AC
:100C0000422000F0A88001210160FFF7C7FD0546E2
:100C100030688007D1D4FFF7C1FD401B0228F7D907
:100C2000C0E00020C4F242200021C0F88014FFF789
:100C3000B5FD0546706A800718D5FFF7AFFD401B6C
:100C40000228F7D9AEE040F20400C2F200000068CA
:100C500044F6D351C1F26201A0FB0101480A0190A0
:100C600000BF0198411E00280191F9D1207840076A
:100C700017D4E5698DB1706800F00C00082846D1E2
:100C8000012D40D07068216A00F480328A423AD146
:100C9000616A00F47010884235D1002002B0BDE8CE
:100CA000F081F0695FEAC00808D4F06940F0805034
:100CB000F061F06900F080500090009847F2000762
:100CC000C4F200073868C0050FD4386840F480705B
:100CD0003860FFF763FD05463868C00505D4FFF7A7
:100CE0005DFD401B6428F7D95CE0E568306A1DB102
:100CF000052D41D0012D43D020F001003062306A33
:100D000020F004003EE0012002B0BDE8F0810027A1
:100D1000C4F2422700203866FFF740FD022D054649
:100D20000ED100BF3068800153D5FFF737FD401B5F
:100D300002284FF00300F5D902B0BDE8F08100BFF2
:100D400030688001A9D5FFF729FD401B02284FF02C
:100D50000300F5D9F0E700210160FFF71FFD05460C
:100D6000306880077FF530AFFFF718FD401B022881
:100D70004FF00300F4D9DFE740F004003062306A3E
:100D800040F001003062FFF709FD002D054641F2F9
:100D9000883712D0306A800712D4FFF7FFFC401B5F
:100DA000B842F7D9032002B0BDE8F081FFF7F6FCA6
:100DB000401BB8424FF00300BED8306A8007F5D41C
:100DC000B8F1000F3FF555AFF06920F08050F061A9
:100DD0004FE7206AB0F5803F05D17168A26821F421
:100DE0000031114371607168626A21F4741111431A
:100DF0000843706001203866FFF7D0FC044600BF4E
:100E0000306880013FF549AFFFF7C8FC001B02289E
:100E10004FF00300F4D98FE7411E0020B0EB116FB3
:100E20001CBF012070474EF21002CEF2000251604A
:100E30004EF62351CEF20001F0230B700721906093
:100E4000116070477047000070470000006840F66E
:100E50000041C4F20001884200D0704740F23C20BB
:100E6000C2F2000090F90010002948BF7047C9B2D3
:100E7000402916D24022027040F2F412C2F200025F
:100E800040F23E211268C2F2000100200880506248
:100E9000106A20F00A001062106A40F0020010622E
:100EA000704710B540F2F41441F08001C2F2000422
:100EB00001702046002100F0F5F840F23E21C2F218
:100EC000000122680880106A20F00A001062106A8F
:100ED000106210BD10B5044600680169890744BF5F
:100EE000C1685FEA81713FD420680169490744BF46
:100EF000C1685FEA417143D420680169090744BFB2
:100F0000C1685FEA017148D420680169C90644BF1D
:100F1000C1685FEAC1614CD420680169C9071CBF80
:100F2000C1685FEAC17151D120680169090644BFF7
:100F3000C1685FEA016150D420680169490644BF75
:100F4000C1685FEA41614FD421680869800646BFE5
:100F5000C8685FEA806010BD6FF0200220460A6119
:100F6000BDE81040FFF770BF6FF002010161012181
:100F70002177806980073ED02046FFF767FF40E079
:100F80006FF00401016102212177806910F4407F34
:100F90003AD02046FFF75AFF3CE06FF008010161AC
:100FA00004212177C069800737D02046FFF74EFF24
:100FB00039E06FF01001016108212177C06910F458
:100FC000407F33D02046FFF741FF35E06FF001014D
:100FD0000161204600F038F8A6E76FF0800101615A
:100FE0002046FFF72FFFA7E76FF040010161204681
:100FF00000F064F8A8E7204600F022F8204600F050
:1010000021F8002020776FE7204600F019F82046ED
:1010100000F018F8002020776EE7204600F010F866
:10102000204600F00FF8002020776DE7204600F002
:1010300007F8204600F006F8002020776CE7000053
:101040007047000070470000006840F60041C4F29D
:101050000001884200D0704740F23C20C2F20000FC
:1010600090F900104029B8BF7047C9B201F03F02A3
:101070003F2A14D140F2F411C2F2000109680A6A51
:1010800022F00A020A620A6A0A62FF21017040F233
:101090003E20C2F200004FF6FF710180704701311F
:1010A000017070474FEAB101032984BF00207047E7
:1010B000006800EB8100406B704700007047000043
:1010C00070470000B0B501680A68CC684B6902F04F
:1010D0002F05202D04F0200504D11DB1BDE8B0403E
:1010E00000F08ABC5FEA027C1EBF03F0010E04F42C
:1010F000907313EB0E032CD1130619D514F0800353
:1011000016D090F83920212A11D18268B2F5805F7B
:1011100003D10269002A00F08E80026A531C036228
:1011200012784A60C28C013A1304C28476D0B0BDF2
:101130005206FCD514F0400208BFB0BDCA6822F0C8
:101140004002CA60202180F83910BDE8B04000F0AC
:10115000A1B9D10718BF14F4807102D1510706D488
:101160000CE0C16B41F00101C163510706D5BEF12E
:10117000000F03D0C16B41F00201C163910706D596
:10118000BEF1000F03D0C16B41F00401C163BCF19B
:10119000000F06D55EEA050103D0C16B41F00801DE
:1011A000C163C16B0029C2D0910604D51DB10446AC
:1011B00000F022FC204601684A69C36B02F040023D
:1011C00003F00803D21823D0CA6822F49072CA60D0
:1011D0004A6922F001024A61202280F83A204A69D5
:1011E000520624D54A6922F040024A61416BF1B1AE
:1011F00041F6ED12C0F60002044608464A63FFF7C6
:101200002DF9002893D0606B416BBDE8B0400847D2
:101210000446FFF755FF0020E063B0BDC86820F02A
:101220008000C860C86840F04000C860B0BDBDE83C
:10123000B040FFF745BF026A32F8023B6FF35F230D
:101240004B6002626EE70000002804BF0120704777
:1012500010B5044690F8390028B9002084F8380009
:10126000204600F061F8242084F839002068D4E991
:101270000212C36823F40053C360036923F440538C
:101280001A430261D4E904231143C268194341F2AD
:101290000C639A431143C1604169A26921F4407112
:1012A000114343F60002C4F201029042416102D0B0
:1012B000FFF7EEFB01E0FFF7FFFBD4E90023192164
:1012C00048439900B0FBF1F048F21F5CC5F2EB1CFB
:1012D000A0FB0C314FF69C734909C0F6FF7301FB6C
:1012E0000300322303EB0010A0FB0C03F02000EA04
:1012F000531000EB0110C3F34311084490601069D0
:10130000202120F490401061506920F02A005061A3
:10131000D06840F40050D0600020E06384F83910B9
:1013200084F83A1010BD0000B0B584B040F6000457
:10133000C4F20104006804F54051884201D004B0B1
:10134000B0BD41F21800C4F2020001686D4641F0E0
:1013500004010160016801F0040100910099016835
:1013600041F004010160016801F00401009100995D
:10137000016841F4804101600068294600F4804022
:10138000009000984FF4007000900220019001201E
:101390000290032003902046FFF7FEF84FF4806090
:1013A00000900020019020462946FFF7F5F82520FF
:1013B000FFF746FA252003210322FFF753FA04B072
:1013C000B0BD0000034690F83A0020280AD1002959
:1013D0004FF0010018BF002A00D1704793F8380081
:1013E000012801D1022070479962002022219A85AC
:1013F000DA85D86383F83A10196883F83800CA6828
:1014000042F48072CA604A6942F001024A61CA68C5
:1014100042F02002CA607047006843F60001C4F23F
:101420000101884218BF704740F24830C2F2000004
:10143000B0F90010002921D440F2D002C2F200021B
:1014400089B21378B1F5804F04D20D2B0CD141F441
:10145000804212E048F2000C0022CFF6FF7C0A2BFB
:1014600008BF41EA0C0208E040F28022C2F200020A
:1014700053544A1CC62988BF0022028040F24020F3
:1014800040F2D001C2F20000C2F200010122FFF7D7
:1014900099BF00007047000080B540F24C30C2F2A6
:1014A000000000F019F841F60000C4F2010020210C
:1014B0000022BDE88040FFF76BB9000001684A6870
:1014C000920558BF70478A68D20700D170476FF005
:1014D00001028A60FFF7E0BF0168C26800200A606D
:1014E00070470000FEE70000FEE7000070470000C4
:1014F00070B540F600440546C4F20104002600BF62
:1015000005FA06F0C0B2C20920464FF40071FFF799
:101510003FF920464FF480710122FFF739F9204648
:101520004FF480710022FFF733F90136082EE7D11E
:1015300020464FF480710122FFF72AF920464FF42C
:1015400080710022BDE87040FFF722B970B584B009
:1015500041F21800C4F202000168002641F00801BF
:101560000160006840F6004400F008000090009818
:101570004FF4807000901120029601900320C4F275
:1015800001046D46039020462946FFF705F84FF405
:101590000070009020462946FEF7FEFF20464FF4DB
:1015A00080710122FFF7F4F820464FF40071012208
:1015B000FFF7EEF8AE2000F013F9D52000F010F997
:1015C000802000F00DF9A82000F00AF93F2000F07B
:1015D00007F9D32000F004F9002000F001F94020C1
:1015E00000F0FEF8A12000F0FBF8C82000F0F8F8A9
:1015F000DA2000F0F5F8122000F0F2F8812000F077
:10160000EFF8CF2000F0ECF8D92000F0E9F8F12055
:1016100000F0E6F8DB2000F0E3F8302000F0E0F81E
:10162000A42000F0DDF8A62000F0DAF88D2000F00C
:10163000D7F8142000F0D4F8AF2000F0D1F800BFA4
:1016400046F0B000C0B200F0CBF8102000F0C8F8AF
:101650000020002400F0C4F8002000F01BF9601CFA
:1016600044B2B4F1FF3FF7DCF0B201360728E7D30C
:1016700004B070BD2DE9F04381B016467E224FEADA
:10168000400802EB40006FF0070240F0B00002EBB0
:10169000C104C0B2E5B200F0A3F8280900F11009B6
:1016A000484600F09DF804F00805284600F098F838
:1016B00041F6F450C0F6000000EB0616A6F2012732
:1016C000082400BF17F8010F00F0E4F8013CF9D13D
:1016D000A8F1010040F0B000C0B200F081F8484627
:1016E00000F07EF8284600F07BF8A6F2F9140825F1
:1016F00014F8010F00F0CEF8013DF9D101B0BDE8BA
:10170000F0830000002A08BF70472DE9F04F81B038
:101710006FF0070714467E2207EBC1014FF0FF363A
:1017200002EB4002CFB206EB400001F00805611E5B
:1017300062F04F0260F04F00C9B24FEA171903EB95
:1017400041175FFA82F85FFA80FA00BF4046013C19
:1017500000F046F809EB0406012060F31F1630463E
:1017600000F03EF8284600F03BF84FF0FF3B00BF8A
:1017700007EB0B00407800F08DF80BF1010BBBF18B
:101780000F0FF5D1504600F02BF8F0B200F028F81A
:10179000284600F025F81026B85D00F07BF80136E9
:1017A000202EF9D12006A7F12007CFD101B0BDE846
:1017B000F04F7047F0B581B0144612786AB10D460B
:1017C000064600277819C1B2D2B23046FFF752FF61
:1017D0000137F8B2225C002AF4D101B0F0BD00005C
:1017E00070B540F60044C4F20104054620464FF4AB
:1017F00000710122FEF7CCFF20464FF480710122D8
:10180000FEF7C6FF20464FF400710022FEF7C0FF2E
:1018100020464FF480710022FEF7BAFF7820FFF7D0
:1018200067FE082620464FF400710022FEF7B0FF45
:1018300020464FF480710122FEF7AAFF20464FF4A4
:1018400080710022FEF7A4FF013EEBD120464FF449
:1018500080710122FEF79CFF20464FF48071002228
:10186000FEF796FF2846FFF743FE20464FF400712F
:101870000022FEF78DFF20464FF480710122FEF713
:1018800087FF20464FF400710122BDE87040FEF74B
:101890007FBF0000B0B540F60044C4F20104054625
:1018A00020464FF400710122FEF772FF20464FF4EC
:1018B00080710122FEF76CFF20464FF40071002278
:1018C000FEF766FF20464FF480710022FEF760FFAE
:1018D0007820FFF70DFE4020FFF70AFE2846FFF7AD
:1018E00007FE20464FF400710022FEF751FF20460C
:1018F0004FF480710122FEF74BFF20464FF4007138
:101900000122BDE8B040FEF743BF00007047000071
:1019100070470000FEF748BF7047000010B540F266
:10192000D404C2F2000420680069C00708BF10BDDB
:1019300041F60000C4F201002021FEF721FF2068DB
:101940006FF00101016110BD40F21C10C2F20000F5
:10195000006800697047000040F2F410C2F2000015
:10196000FFF7B8BA10B540F26414C2F20004206860
:101970006FF00101016141F60000C4F20100202175
:10198000FEF7FEFE03A0FEF759FC2046BDE810401E
:10199000FFF7A0BA54494D3620696E7465727275AE
:1019A0007074210D0000000010B540F2AC14C2F2BA
:1019B000000420686FF00101016140F60040C4F2AC
:1019C00001002021FEF7DCFE03A0FEF737FC2046D5
:1019D000BDE81040FFF77EBA54494D3720696E7458
:1019E000657272757074210D00000000406A00215C
:1019F000C185C184FFF764BB90F83A10222918BF53
:101A000070478268B2F5805F01D1016949B3816A8C
:101A1000B2F5805F07D00AB9026922B10268526844
:101A200002F07F0201E0026852680A70816A0131A7
:101A30008162C18D01390A04C18500D070470168F7
:101A4000CA6822F02002CA60CA6822F48072CA60A2
:101A50004A6922F001024A61202180F83A10FFF71A
:101A6000DBBC0168826A49686FF35F2122F8021BC0
:101A70008262DEE780B540F24020C2F20000FFF74C
:101A800021FB41F60000C4F201002021FEF778FEA0
:101A900040F27000C2F2000001680131016080BDB7
:101AA000FEE7000040F24C30C2F20000FFF706BD36
:101AB0007047000040F2CC01C2F20001086070479C
:101AC00080B54EF2180140F2CC02CEF20001C2F213
:101AD000000251F804CC1268002350434FF47A728C
:101AE00000FB02FE086800BF0A688242FCD0034483
:101AF0009B1A824228BF63447345104628BF80BDAD
:101B0000F2E7000043F60001C4F201010A68520640
:101B1000FCD5C2B24A6070472DE9F04184B041F271
:101B20001800C4F20200016841F6000441F04001CF
:101B300001600168C4F2010401F0400100910099C4
:101B400001686D4641F04001016001684FF00008F6
:101B500001F04001009100990168012741F0040162
:101B600001600068032600F0040000900098102037
:101B7000009020462946CDF8048002970396FEF790
:101B80000BFD0820CDE9000820462946CDE9027664
:101B9000FEF702FD0220CDE90206A4F58050294699
:101BA000CDE90078FEF7F8FC04B0BDE8F081000054
:101BB00070B584B041F21800C4F20200016840F62A
:101BC000004441F0080101600168C4F2010401F021
:101BD00008010091009901686D4641F040010160E3
:101BE0000068202600F04000009000980120CDE918
:101BF000010003200390204629460096FEF7CCFC06
:101C0000009604F5406630462946FEF7C5FC20469E
:101C100020210122FEF7BCFD304620210122FEF7E3
:101C2000B7FD04B070BD0000A0B0FEF7CBFD4FF4CF
:101C3000E01000F045F84820FFF73CFF4FF4E1309A
:101C400000F06CF8FFF7B4FFFFF766FFFFF77EFCCC
:101C500041F65C516C46C0F6000120468022FEF73A
:101C600003FB0120012104222346FFF74BFD032043
:101C700001214122FFF7FEFC0BA202200321FFF706
:101C800099FD0DA204200121FFF794FD40F60044C8
:101C9000C4F2010420460221FEF772FD4FF4FA70EF
:101CA000FFF70EFFF6E700BF49742773204D7967F1
:101CB0006F21212121210000746573740000000050
:101CC000F0B58FB005AD044628462821FEF7FEFA90
:101CD0000120002605904FF480300227CDE906064A
:101CE000CDE90C7028460496CDE90266CDE9006680
:101CF0000E94FEF7F5FE00B1FEE70F20CDE90007D8
:101D00004FF48060CDE90306684602210296FEF793
:101D1000E5FD00B1FEE70FB0F0BD000010B540F2E8
:101D2000402443F60001C2F20004C4F20101002283
:101D30000C23C4E900102046C4E90222C4E90423AC
:101D4000A261FFF781FA40F2D001C2F20001204601
:101D50000122BDE81040FFF735BB010208080878F2
:101D6000880B0B0C08888878080808008080804061
:101D7000433434083443434080808000808383832D
:101D8000838383FF8383838383808000000000003C
:101D9000808080FF0000000000000000000000F0D4
:101DA00000000000FF40404040000000808080FFB5
:101DB00080808080FF80808080808000004F4F4B3B
:101DC0004F4B4BFF4B4F4F4B4F00000083B7B7B308
:101DD000B3B7B7FBB7B3B3B3B7838300000000005A
:101DE00000000000010203040607080900000000CB
:101DF00001020304000000000000000000000000D9
:101E000000000000000000F80000000000000033A7
:101E10003000000000100C06100C0600000000004E
:101E20000000000040C07840C0784000043F040437
:101E30003F040400007088FC08300000001820FFF8
:101E4000211E0000F008F000E018000000211C0333
:101E50001E211E0000F00888700000001E212324AF
:101E60001927211010160E000000000000000000CD
:101E700000000000000000E018040200000000075D
:101E80001820400000020418E00000000040201864
:101E900007000000404080F0804040000202010F37
:101EA00001020200000000F0000000000101011F1B
:101EB00001010100000000000000000080B070007F
:101EC000000000000000000000000000000101010F
:101ED000010101010000000000000000003030009E
:101EE0000000000000000000806018040060180678
:101EF0000100000000E010080810E000000F1020B2
:101F000020100F00001010F8000000000020203FFB
:101F10002020000000700808088870000030282485
:101F20002221300000300888884830000018202026
:101F300020110E000000C02010F80000000704244B
:101F4000243F240000F80888880808000019212090
:101F500020110E0000E0108888180000000F1120EA
:101F600020110E0000380808C83808000000003FA3
:101F7000000000000070880808887000001C222102
:101F800021221C0000E010080810E00000003122AF
:101F900022110F00000000C0C0000000000000304F
:101FA00030000000000000800000000000008060A1
:101FB0000000000000008040201008000001020422
:101FC0000810200040404040404040000404040409
:101FD00004040400000810204080000000201008C5
:101FE00004020100007048080808F00000000030FA
:101FF00036010000C030C828E810E0000718272488
:1020000023140B000000C038E0000000203C230235
:102010000227382008F8888888700000203F202098
:1020200020110E00C03008080808380007182020CA
:102030002010080008F808080810E000203F2020C1
:1020400020100F0008F88888E8081000203F2020A2
:102050002320180008F88888E8081000203F200096
:1020600003000000C03008080838000007182020CE
:10207000221E020008F808000008F808203F21018D
:1020800001213F20000808F8080800000020203F38
:102090002020000000000808F8080800C0808080A8
:1020A0007F00000008F888C028180800203F2001A1
:1020B0002638200008F8080000000000203F2020FB
:1020C0002020300008F8F800F8F80800203F003F12
:1020D000003F200008F830C00008F808203F20002A
:1020E00007183F00E01008080810E0000F1020203B
:1020F00020100F0008F808080808F000203F210110
:1021000001010000E01008080810E0000F18242466
:1021100038504F0008F8888888887000203F2000D9
:10212000030C30200070880808083800003820218F
:1021300021221C00180808F8080818000000203F99
:102140002000000008F808000008F808001F202000
:1021500020201F000878880000C8380800000738D1
:102160000E010000F80800F80008F800033C070022
:10217000073C0300081868808068180820302C038A
:10218000032C30200838C800C83808000000203F61
:102190002000000010080808C83808002038262150
:1021A00020201800000000FE020202000000007F54
:1021B00040404000000C30C0000000000000000162
:1021C0000638C00000020202FE000000004040404D
:1021D0007F00000000000402020204000000000072
:1021E00000000000000000000000000080808080EF
:1021F00080808080000202040000000000000000D7
:10220000000000000000808080800000001924226F
:1022100022223F2008F8008080000000003F1120AB
:1022200020110E000000008080800000000E1120B0
:1022300020201100000000808088F800000E11208E
:1022400020103F200000808080800000001F22229C
:1022500022221300008080F0888888180020203F08
:10226000202000000000808080808000006B94941B
:102270009493600008F8008080800000203F2100D7
:1022800000203F2000809898000000000020203FA0
:1022900020200000000000809898000000C080808E
:1022A000807F000008F8000080808000203F24022A
:1022B0002D302000000808F8000000000020203F1A
:1022C000202000008080808080808000203F2000CF
:1022D0003F20003F8080008080800000203F210060
:1022E00000203F200000808080800000001F202010
:1022F00020201F00808000808000000080FFA1203F
:1023000020110E000000008080808000000E11204F
:1023100020A0FF80808080008080800020203F21DE
:102320002000010000008080808080000033242491
:1023300024241900008080E0808000000000001F3D
:10234000202000008080000000808000001F2020EE
:1023500020103F20808080000080808000010E30AF
:102360000806010080800080008080800F300C0310
:102370000C300F0000808000808080000020312E13
:102380000E312000808080000080808080818E70EF
:102390001806010000808080808080000021302CA1
:1023A0002221300000000000807C020200000000BA
:1023B000003F404000000000FF000000000000005F
:1023C000FF0000000002027C800000000040403F4F
:1023D00000000000000601010202040400000000E9
:1023E0000000000002030405060708090A0B0C0D93
:1023F0000E0F10101824000800000020100000002C
:10240000940100082824000810000020580900004A
:10241000B401000800000000010000000024F400E6
:082420000100000010000000A3
:0400000508000131BD
:00000001FF
