:020000040800F2
:10000000B009002011020008E12200084D2200087A
:10001000DD220008C10B00083D250008000000009B
:10002000000000000000000000000000E9220008BD
:10003000C50B000800000000E5220008ED220008C2
:100040002B0200082B0200082B0200082B020008DC
:100050002B0200082B020008C90B00082B02000825
:100060002B020008050C0008490C00082B020008B0
:100070002B0200082B0200082B0200082B020008AC
:100080002B0200082B0200082B0200082B0200089C
:100090002B0200082B0200082B0200082B0200088C
:1000A0002B0200082B0200082B0200082B0200087C
:1000B000F522000821230008312300082B02000844
:1000C0002B0200082B0200082B0200082B0200085C
:1000D0002B0200081D2500082B0200082B02000837
:1000E0002B0200082B0200082B0200082B0200083C
:1000F0002B0200082B0200082B0200082B0200082C
:100100002B0200082B0200082B0200082B0200081B
:100110002B0200082B0200083D2300088123000861
:100120002B0200082B0200082B0200082B020008FB
:1001300000F002F800F05DF814A696E8000CB24456
:10014000B344DA4501D100F054F8BAE80F000FA625
:1001500096E83000A5EB040504EB0607AAEB0704BC
:10016000A7F101074FEA15154FEA3414A4F1010471
:10017000AC4201D300F03DF813F0010F18BFFB1A99
:1001800043F0010300F001F8DBE718477421010098
:1001900094210100103A24BF78C878C1FAD85207D8
:1001A00024BF30C830C144BF04680C6070470000F1
:1001B000704700000023002400250026103A28BFC5
:1001C00078C1FBD8520728BF30C148BF0B607047C9
:1001D000662909F0A087002070471FB500F0C2FB18
:1001E00004000020002109F0BDFDE0601FBD10B536
:1001F00010BD00F0B7FC1146FFF7EFFF08F0AAFFB3
:1002000000F0D5FC03B4FFF7F2FF03BC02F098F94D
:100210000948804709480047FEE7FEE7FEE7FEE79A
:10022000FEE7FEE7FEE7FEE7FEE7FEE704480549D6
:10023000054A064B70470000F12200083101000812
:10024000B0030020B0090020B0050020B005002058
:10025000704700000FB41CB5084B06AA7B446946E2
:100260000090059800F065FB04460020694600F008
:1002700073FB20461CBC5DF814FB0000F90600006F
:100280002DE9F05F894604464FF0000ADFF874B1AB
:10029000FB44C0F820A02046E1688847002874D0BD
:1002A000252806D0D4E901219047206A401C20620D
:1002B000F1E700265F462046E1688847202805468A
:1002C00007DB312D05D2781910F8200C08B1064350
:1002D000F1E7B00701D526F00406C4F81CA00027FA
:1002E000C4F818A02A2D09D0284609F033FD38B3E8
:1002F00004EB8708303DC8F8185019E059F8041B82
:10030000204604EB87029161E1688847012F05468A
:1003100018D1E069002820DA26F020061DE0D8F880
:10032000180000EB800005EB40003038C8F81800DA
:100330002046E1688847054609F00CFD0028EED10B
:10034000012F0AD02E2D08D12046E16888477F1C56
:100350000546022F46F02006C4DBA069002803DA18
:10036000404246F00106A061F00701D026F01006D9
:100370006C2D0BD0682D09D04C2D39D06A2D35D07D
:10038000742D35D07A2D33D016E038E0E1682F4651
:1003900020468847B842054609D16C2F26D04FF435
:1003A0008060E168064320468847054604E06C2FDC
:1003B0001AD04FF4807006430DB3A5F141001928FF
:1003C00002D8203546F400664A4629462046266073
:1003D0004E46FFF7FDFE80B101280BD0F61D26F03A
:1003E000070000F1080956E74020E4E78020D8E73D
:1003F0000020D6E706F104094DE7284652E7206AB7
:10040000BDE8F09F869E000010B5044603E002F0B0
:1004100007F9401C09D014F8010B05490028F6D152
:10042000BDE810400A2002F0FBB84FF0FF3010BDCD
:100430007C0000204FF0000200B51346944696461B
:10044000203922BFA0E80C50A0E80C50B1F12001E7
:10045000BFF4F7AF090728BFA0E80C5048BF0CC095
:100460005DF804EB890028BF40F8042B08BF7047F3
:1004700048BF20F8022B11F0804F18BF00F8012B65
:10048000704700004FF0013C50F8042B51F8043B3A
:100490009A4221D1A2EB0C03934313EACC1317D158
:1004A00050F8042B51F8043B9A4215D1A2EB0C03EF
:1004B000934313EACC130BD150F8042B51F8043BAF
:1004C0009A4209D1A2EB0C03934313EACC13DBD07D
:1004D0004FF00000704700BFD01A01BAB1FA81F1A5
:1004E00001F0180122FA01F0CB40DBB2C0B2C01A11
:1004F000C1F120012CFA01F3D11A914311EAC31181
:10050000E6D1704770477047704770472DE9FF4F3D
:100510000C461E464FF0FF378BB0D2E90001DDF8E4
:1005200060800A908A46C1F30A5505B93D4600210C
:1005300008464FF00000BAF1000F00F4400005DA61
:1005400000EB80004FF4400101EA50004FEA90595F
:10055000B9F1010F00DDB9460A9850EA4A000ED001
:1005600044F61050A5F2FF3545432F14B8F1000FA3
:100570001ED07542291E1EDDC9F100021CE0B8F133
:10058000010F4FF0000001D0302103E0F24305E0FD
:100590002154401CB042FBDB304600220021215494
:1005A0000B99C1F80880C1E900200FB0BDE8F08FB9
:1005B000BD1B6D1CDEE74A4600DA694206A800F062
:1005C0005BFA06AB93E8070003AB83E807005046ED
:1005D0000A9908F0E2FF8DE80700A0F500501F38E7
:1005E00000900398002D0ADD42F21F014A4608449C
:1005F000002303A90390684609F04CFA09E0A0F52E
:1006000000504A461F38002303A90390684609F0AA
:1006100056FA8DE807000004000C03D04FF0FF30BD
:10062000410800E01046B8F1000F03D0002200920C
:1006300015461EE0751E05D400F098F9303262555B
:100640006D1EF9D5B3460122084302D000227F1C5B
:1006500004E02078302801D100227F1E002A09976B
:1006600084D01DE0112D07DA00F080F93032625598
:100670006D1C50EA0102F5D1084302D00098C8B1C0
:100680000EE00021681E05E0235C625C6354225486
:10069000401E491C8142F7DBAB46A81B401E099057
:1006A000002004F80B000B98099AC0F80880C0E9F4
:1006B000002B7AE711264FF0000857E72DE9F04F9D
:1006C00088460446D21D22F0070191B0D1E900010D
:1006D000CDE90A0109F02AFB02460B98C00F01D0B0
:1006E0002D2007E02068810701D52B2002E0202182
:1006F00001EAC000032A099001D0072A05DB03465E
:100700004146204600F078F90BE12078800601D5BB
:10071000E06900E00620B8F1650F814606D0B8F127
:10072000660F18D0B8F1670F70D131E00020B9F131
:10073000110F009001DB112301E009F101030AAA66
:1007400001A90CA8FFF7E2FEDDE90C70002609F113
:100750000105834647E001204B4600904FF00047DB
:100760000AAA01A90CA8FFF7D1FEDDE90DB00C998A
:100770005D46002610B909F101000D18B9EB05001E
:1007800003D4C0F1FF3609F10105A5EB09002BE008
:10079000B9F1010F01DA4FF001090020B9F1110F91
:1007A0000090484601DD112300E003460AAA01A992
:1007B0000CA8FFF7ABFEDDE90C704D460026834622
:1007C000207800070AD4AB4500DA5D4601A8012D68
:1007D00004DD411911F8011C302907D04F4502DA18
:1007E00017F1040F04DA012082460FE06D1EEEE7D8
:1007F000002F02DCED1B3E4403E0781CA84200DD24
:100800007D1CB81B00F1010A4FF00047207800075B
:1008100003D4AA4501DB4FF0FF3A0021B7F1004FA6
:100820000DF143088DF8431024D002202B23002F14
:1008300001DA7F422D230A21021EA0F1010000DC13
:100840005FB197FBF1FC97FBF1F201FB1C7C1746B3
:100850000CF1300C08F801CDEEE7A8F101000370AF
:100860002188090501D5452100E06521A0F1010895
:1008700000F8011C09980FA9A1EB0807FF1D00B1A2
:100880000120411901EBEA70A1693844081A401EA1
:10089000A0612078C00602D42046AFF300800998FA
:1008A00028B1D4E901219047206A401C20622078B9
:1008B000C00622D52046AFF300801EE0002E04DBE8
:1008C000B34502DD01A8805D00E03020D4E90121BC
:1008D0009047206A401C2062761CAAF101005FEA62
:1008E000000A0AD100F03EF8C0680168405CD4E913
:1008F00001219047206A401C2062281EA5F10105B5
:10090000DCDC07E0D4E9012118F8010B9047206AEC
:10091000401C2062381EA7F10107F3DC2046AFF32C
:100920000080032011B041E601694A1C0261087889
:10093000704700B58FB0CDE901310021059105491F
:100940007944CDE9031011466846FFF799FC0FB0D2
:1009500000BD0000E5FFFFFF0A6802F8010B0A6016
:1009600070470000004870473800002030B5B0F1F3
:100970000A0271F100034FEA900E4EEA817EB0EB5D
:100980000E0061EB91014FEA101E4EEA017E10EB62
:100990000E0041EB11114FEA102E4EEA016E10EBE2
:1009A0000E0041EB11214FEA104E4EEA014E10EBC2
:1009B0000E0041EB1141401841F100014FEAD00017
:1009C00040EA41704FEAD1014FEA810444EA907451
:1009D00010EB800544EB01046D1944EB0404521B39
:1009E000A3414FF0000348BF0A3200D530BD401C80
:1009F00041F1000130BD00002DE9F0411F460446E1
:100A000003260168072A01F4006004DB08B116A57B
:100A100005E016A503E008B115A500E015A521F035
:100A200010002060A069C01EA0610FB1401EA0612F
:100A30002046AFF300804FB1D4E9012138469047FA
:100A4000206A401C2062C01C206206E0206AFAE78F
:100A5000D4E9012115F8010B9047761EF8D2204603
:100A6000AFF30080BDE8F0814E414E006E616E0034
:100A7000494E4600696E66002DE9F04781461646EC
:100A80008AB0354878440DC88DE80D003248784466
:100A9000801C03AC0DC884E80D0041F69B3008446F
:100AA000372190FBF1F290FBF1F5A5F1800501FBF8
:100AB00012041B3C02D56442012000E00020DFF854
:100AC00098A080460027FA44AAF1BE0A0EE0E0078B
:100AD0000AD03246684607EB470101230AEB810141
:100AE00008F0EDFF8DE8070064107F1C002CEED1AC
:100AF000194F7F44AE3F19E0E80715D007EB04100B
:100B00000DF1180A90E80E008AE80E00C068F04265
:100B100001D1981908903246012306A903A808F0CC
:100B2000CEFF03AB83E807006D10641C002DE3D1FA
:100B30004FF0010332466946B8F1000F03A802D016
:100B400008F0A8FF01E008F0BAFFC9E90001C9F800
:100B500008200AB0BDE8F0872097000000487047E1
:100B6000180000207546FFF7F9FFAE4605006946FC
:100B7000534620F00700854618B020B5FFF756FB16
:100B8000BDE820404FF000064FF000074FF000088E
:100B90004FF0000BAC46ACE8C009ACE8C009ACE8CB
:100BA000C009ACE8C00921F007018D46704710B5B7
:100BB0000446AFF300802046BDE81040FFF722BB9B
:100BC000FEE7000070470000B0B540F21444012079
:100BD000C4F20104012500F06FF9142001F0E0FCDB
:100BE00004F57B70012100F061FA012807D140F281
:100BF000D000C2F200000168C1F10101016025606E
:100C0000B0BD0000B0B50820082500F055F940F24D
:100C1000D000C2F20000006880B140F60044142009
:100C2000C4F2010401F0BCFC04F54060082100F0AE
:100C30003DFA18B92046202100F03EFA40F2144057
:100C4000C4F201000560B0BD10B51020102400F002
:100C500033F940F2D000C2F20000006848B114201D
:100C600001F09EFC41F60000C4F20100102100F0EA
:100C70001DFA40F21440C4F20100046010BD0000EF
:100C8000B3F5804F034619D1B0B553F822C0002008
:100C9000CCF6F0700CEA000E91E83100D1F818C0E3
:100CA00040EA0E0040EA0410C96840EA052040EA24
:100CB0000C0040EA0141BDE8B04001E06FF0704136
:100CC000002043F8221070472DE9F04F83B00B68E5
:100CD000024650F8230001F1240B20F0010042F8F5
:100CE0002300D1E902C0D1E900E301908869D1E98C
:100CF000049A0290D1E90C80D1E9077600909BE834
:100D0000300852F82E008021CFF6F0710840BCF177
:100D1000080F08BF43F040030199194341EA090154
:100D200041EA0A01394331432143294341EA0B0196
:100D3000029B41EA08011943009B1943084340EA1A
:100D40000C01002042F82E1003B0BDE8F08F000027
:100D5000F0B500EB82025068D1E902E400F0404CAB
:100D6000D1E90030D1E9045643EA0C03002743EAF5
:100D70000010CFF6F07740EA0E20896907EB0555A1
:100D800040EA04402843FE36084340EA066100205A
:100D90005160F0BD90F82110022927D1026840F27D
:100DA000040C1368C4F2020C23F00E0313601368E2
:100DB0000CF17C018A4223F0010111601AD940F242
:100DC0000841C4F202018A424ED040F21C41C4F2F2
:100DD00002018A4241D040F23041C4F202018A420B
:100DE00046D14FF48073CCF8003457E0042181637E
:100DF000012070474321C4F202018A420EDD6B21BB
:100E0000C4F202018A421BDC4421C4F202018A427C
:100E10003BD05821C4F202018A4222E00821C4F2E8
:100E200002018A422FD01C21C4F202018A4232D030
:100E30003021C4F202018A4213D14FF480722BE0B8
:100E40006C21C4F202018A4222D08021C4F2020144
:100E50008A4206D14FF080721EE01023CCF8003495
:100E60001CE04FF4803217E00123CCF8003415E089
:100E70000CF588614FF480338A4208BF4FF48053E9
:100E8000CCF800340AE0012206E04FF4805203E07F
:100E90004FF4801200E01022CCF80020416B4FF498
:100EA00080720029028404BF0020704780B5884703
:100EB000002080BD7047000040F21441C4F20101DF
:100EC0000A68024214BF08607047FFF7F3BF0000D2
:100ED0002DE9F04F82B00E68002E00F0E380A0F103
:100EE000804241F6004540F20043A2F58432C4F24C
:100EF00001050624C4F201034FEAB227A84208BF45
:100F000005244FF0000E4FF001080F254FF0000AA6
:100F10004FF0000B052F38BF4FEAB224009408E0D1
:100F20000E680AF1010A36FA0AF20EF1040E00F018
:100F3000B98008FA0AFC16EA0C09F1D04E684FF69F
:100F4000FF72C1F21002964210DC122E50D8DFE878
:100F500006F0330A48454F4F4F4F4F4F4F4F4F4FBB
:100F60004F4F4F414C00D1F80CB041E04FF6FF72AB
:100F7000C1F2210296420FDC0022C1F21102964218
:100F80001AD00022C1F21202964215D00022C1F2FC
:100F90002102964210D02BE00022C1F2220296429A
:100FA0000AD00022C1F23102964205D00022C1F2DD
:100FB000320296421CD100BF8A6842B1012A14BF96
:100FC000C0F814C0C0F810C04FF0080B10E04FF08C
:100FD000040B0DE0CA6802F1040B09E04FF0000BAE
:100FE00006E0CA6802F1080B02E0CA6802F10C0BC5
:100FF00002467446B9F5807F24BF0432203C16684F
:1010000005FA04F726EA07070BFA04F637431760D8
:10101000CA79D2067FF584AF41F21807C4F20207FD
:101020003A684FF6084542F001023A603A68CFF656
:10103000FF7502F001020192019A2AF003021A449C
:101040000F2457590EF00C06B440A743009C04FA35
:1010500006F6374357514E680F25F2031A6854BFFE
:1010600022EA090242EA09021A605A68B70354BF29
:1010700022EA090242EA09025A60F7029A6854BF5A
:1010800022EA090242EA0902B70240F20C479A60DA
:10109000C4F201073A6854BF22EA090242EA09028F
:1010A0003A603DE702B0BDE8F08F0000806808407C
:1010B00018BF012070470000C26802EA0103914393
:1010C00041EA034101617047002A08BF0904016138
:1010D0007047000040F2AC30C2F200000068704778
:1010E00040F20C0040F2AC31C2F20000C2F200014A
:1010F00000780A68104408607047000080B542F22A
:101100000000C4F20200016841F0100101600520F6
:1011100000F070F80F2000F005F800F02BF8002028
:1011200080BD0000B0B540F20C02C2F2000240F2F5
:1011300004011278C2F200014FF47A730968B3FB1C
:10114000F2F20446B1FBF2F1084600F077FB0F2CF7
:101150004FF001050CD858B94FF0FF30214600225E
:10116000002500F01BF840F21000C2F200000460FD
:101170002846B0BD70470000002848BF704700F007
:101180001F01012202FA01F11C2202EAD0004EF2F4
:101190000012CEF2000281507047000010B54EF6EA
:1011A0000C5CCEF2000CDCF80030C3F3022E8EF0A3
:1011B0000704042C28BF0424BEF103034FF0FF3EB4
:1011C0000EFA04F438BF0023A14399400EFA03F34A
:1011D0009A43114300F1604200F00F03090102F548
:1011E0006442043B6344002848BF03F10C021170C1
:1011F00010BD00004EF60C51CEF200010A684FF609
:10120000FF031A4060F30A2242F0806040F0FD7054
:1012100008607047002804BF012070472DE9F043A3
:1012200081B042F20008C4F202080446D8F8000077
:101230000D4600F0070088420CD2D8F8000020F0DC
:1012400007002843C8F80000D8F8000000F00700A5
:10125000A8426BD1206841F204098107C4F2020957
:1012600017D5410705D5D9F8001041F4E061C9F858
:101270000010010705D5D9F8001041F46051C9F8F4
:101280000010D9F80010A26821F0F0011143C9F84C
:101290000010C00741D1D8F8000000F00700A842B4
:1012A0000CD9D8F8000020F007002843C8F8000047
:1012B000D8F8000000F00700A84237D120684107A5
:1012C00007D5D9F80010E26821F4E0611143C9F8AC
:1012D0000010000708D5D9F80000216920F46050FB
:1012E00040EAC100C9F80000D9F8002002F00C0063
:1012F000082841F20020C0F27A0049D142F2C0230E
:10130000C2F38341C0F60103595CD20334D440F6E2
:101310000010C0F23D0048433AE0606859F8041CF0
:10132000022807D0012824D1890305D4012001B067
:10133000BDE8F0838901F9D5D9F8001021F0030147
:101340000843C9F80000FFF7C5FE064641F288379A
:10135000D9F80000616800F00C00B0EB810F9AD062
:10136000FFF7B8FE801BB842F2D9032001B0BDE8F8
:10137000F0838907DAD5DFE7D9F800204AF2C013F5
:10138000C2F34042C0F600039A5C4843B0FBF2F05F
:10139000D9F800104AF2D012C1F30311C0F60002CE
:1013A000515C40F2040220FA01F140F21000C2F256
:1013B00000000068C2F200021160FFF7B3FE0020D7
:1013C00001B0BDE8F083000040F2040041F20401E6
:1013D000C2F20000C4F20201006809684AF2E01299
:1013E000C1F30221C0F60002515CC8407047000002
:1013F00040F2040041F20401C2F20000C4F2020112
:10140000006809684AF2E012C1F3C221C0F6000286
:10141000515CC84070470000002804BF012070479D
:101420002DE9F04182B00446007841F20006C00781
:10143000C4F2020647D0706800F00C00042808D1FE
:10144000306880033FD56068E8BB012002B0BDE88A
:10145000F081706800F00C00082802D17068C003A9
:10146000EED4656830682DB1B5F5A02F09D0B5F57B
:10147000803F0AD020F480303060306820F4802033
:1014800005E040F480203060306840F48030306007
:10149000FFF720FE002D054612D000BF3068800304
:1014A00011D4FFF717FE401B6428F7D916E100BFDF
:1014B000FFF710FE401B64284FF0030000F2D880B5
:1014C00030688003F4D42078800719D5706810F054
:1014D0000C0F07D0706800F00C00082827D1706846
:1014E000C00324D43068800703D52069012840F068
:1014F000A6803068616920F0F80040EAC1003060E1
:10150000207800074ED5A06938B30020C4F24220ED
:101510000121C0F88014FFF7DDFD0546706A8007E1
:101520002DD4FFF7D7FD401B0228F7D9D6E020695C
:10153000002840F20000C4F2422000F0A8800121FF
:101540000160FFF7C7FD054630688007D1D4FFF77B
:10155000C1FD401B0228F7D9C0E00020C4F24220A0
:101560000021C0F88014FFF7B5FD0546706A8007BA
:1015700018D5FFF7AFFD401B0228F7D9AEE040F2C7
:101580000400C2F20000006844F6D351C1F26201C7
:10159000A0FB0101480A019000BF0198411E0028EC
:1015A0000191F9D12078400717D4E5698DB17068B1
:1015B00000F00C00082846D1012D40D07068216A47
:1015C00000F480328A423AD1616A00F47010884295
:1015D00035D1002002B0BDE8F081F0695FEAC008B3
:1015E00008D4F06940F08050F061F06900F080505C
:1015F0000090009847F20007C4F200073868C00561
:101600000FD4386840F480703860FFF763FD0546FA
:101610003868C00505D4FFF75DFD401B6428F7D985
:101620005CE0E568306A1DB1052D41D0012D43D045
:1016300020F001003062306A20F004003EE001201A
:1016400002B0BDE8F0810027C4F2422700203866CE
:10165000FFF740FD022D05460ED100BF3068800126
:1016600053D5FFF737FD401B02284FF00300F5D993
:1016700002B0BDE8F08100BF30688001A9D5FFF756
:1016800029FD401B02284FF00300F5D9F0E70021A7
:101690000160FFF71FFD0546306880077FF530AF1A
:1016A000FFF718FD401B02284FF00300F4D9DFE7D5
:1016B00040F004003062306A40F001003062FFF711
:1016C00009FD002D054641F2883712D0306A8007A7
:1016D00012D4FFF7FFFC401BB842F7D9032002B039
:1016E000BDE8F081FFF7F6FC401BB8424FF0030065
:1016F000BED8306A8007F5D4B8F1000F3FF555AF7A
:10170000F06920F08050F0614FE7206AB0F5803F2B
:1017100005D17168A26821F40031114371607168CC
:10172000626A21F474111143084370600120386625
:10173000FFF7D0FC044600BF306880013FF549AF99
:10174000FFF7C8FC001B02284FF00300F4D98FE715
:1017500018B18369B3F5807F01D101207047F0B5DE
:1017600081B00D4690F84110144600F1080631B9D9
:10177000002180F84010074600F020F83846016844
:10178000074608463146FFF79FFA3868BA68294687
:10179000FFF7DEFAD7E901023B6B2146FFF770FA4B
:1017A0003868B96850F8212042F0010240F8212041
:1017B000012087F84100002001B0F0BDB0B584B031
:1017C00041F21800C4F2020050F8041C41F2004437
:1017D00041F4807140F8041C50F8041CC4F2010468
:1017E00001F480710091009901686D4641F020017B
:1017F0000160016801F0200100910099016841F049
:10180000400101600068294600F040000090009807
:101810004CF20370009002200190012002900320FE
:1018200003902046FFF754FB4FF68070009004F5BC
:1018300080602946FFF74CFB04B0B0BD411E00207C
:10184000B0EB116F1CBF012070474EF21002CEF2B8
:10185000000251604EF62351CEF20001F0230B70CE
:1018600007219060116070477047000070470000CA
:10187000016840F60000C4F20000814218BF7047C2
:1018800010B500F588302021FFF716FC40F29020BB
:10189000C2F2000090F9001000292FD4C9B24029EB
:1018A00015D24022027040F24822C2F2000240F2F9
:1018B00092211268C2F20001002008805062106A72
:1018C00020F00A001062106A40F0020015E040F2B9
:1018D000482441F08001C2F200040170204600213A
:1018E00000F07EFA40F29221C2F2000122680880E4
:1018F000106A20F00A001062106A1062BDE8104001
:101900007047000090F83C30012B04BF0220704764
:10191000F0B5012380F83C300368D1E900C4D1F868
:101920000CE01D6A082A38D0042A1ED0002A4CD1A7
:1019300025F001021A621A4640F6FF3752F8186F76
:101940001D6AC4F20007BB425DDCB3F1804F6CD06E
:1019500040F20047C4F20007BB4266D040F60007E1
:10196000C4F20007BB4260D078E025F010021A6292
:101970001A4652F8185F24024FF2FF071E6ABC4352
:1019800025F473456EF30F3444EA050726F0A006EC
:101990000CF00A0546EA05162CE025F480721A625E
:1019A0001A4652F81C5F1E6A25F0F3056EF3071401
:1019B00044EA05074FEA5C0565F3492617601E6295
:1019C000136823F00C0313603FE025F480521A6281
:1019D0001A4652F81C5F24024FF2FF07BC431E6AEE
:1019E00025F473456EF30F3444EA05074FEA5C05AE
:1019F00065F34D3617601E62136823F4406313606D
:101A00008968090222E040F60047C4F20007BB42A1
:101A10000BD043F20047C4F20107BB4205D042F6A7
:101A20000047C4F20107BB4218D126F00306344335
:101A300025F00A070CF00A066EF3071437449C6180
:101A40001F629F6927F00C079F618968136819431B
:101A50001160002180F83C100020F0BD46F0010428
:101A6000E6E70000002804BF0120704710B50446D7
:101A700090F83D0028B9002084F83C00204600F092
:101A80001FF8022084F83D002068211D00F09AFC18
:101A9000012084F8460084F83E0084F83F0084F872
:101AA000400084F8410084F8420084F8430084F840
:101AB000440084F8450084F83D00002010BD00007B
:101AC000016840F60000C4F20000814218BF704770
:101AD00080B584B041F21801C4F202014A6800F5F1
:101AE000823042F004024A604A6802F00402009226
:101AF000009A0A6842F020020A60096801F0200199
:101B000000910099402100910221CDE901110321AA
:101B100003916946FFF7DCF91E2001210322FFF73C
:101B20003DFB1E20FFF728FB04B0BDE88040704756
:101B3000022249B1082913D0042914BF80F841209A
:101B400080F83F2019B90FE080F83E2061B10829E4
:101B50000DD0042914BF80F8452080F8432008E008
:101B600080F840200029F2D180F8422001E080F87E
:101B700044204FEAB102032A0AD842F2D02C03686B
:101B8000C0F6010C5CF822C0DA6842EA0C02DA60A6
:101B9000006801F01F010122036A02FA01F123EA41
:101BA00001020262026A114340F6FF32C4F20002EF
:101BB000904201620FDCB0F1804F1ED040F2004134
:101BC000C4F20001884218D040F60001C4F20001BE
:101BD000884212D016E040F60041C4F2000188426B
:101BE0000BD043F20041C4F20101884205D042F615
:101BF0000041C4F20101884204D1816801F007016B
:101C0000062903D0016841F00101016000207047FE
:101C100010B5044600680169890744BFC1685FEADE
:101C200081713FD420680169490744BFC1685FEAF8
:101C3000417143D420680169090744BFC1685FEA64
:101C4000017148D420680169C90644BFC1685FEAD0
:101C5000C1614CD420680169C9071CBFC1685FEA33
:101C6000C17151D120680169090644BFC1685FEAAA
:101C7000016150D420680169490644BFC1685FEA28
:101C800041614FD421680869800646BFC8685FEA91
:101C9000806010BD6FF0200220460A61BDE8104050
:101CA000FFF7E4BD6FF00201016101212177806936
:101CB00080073ED02046FFF7DBFD40E06FF00401D7
:101CC000016102212177806910F4407F3AD02046DB
:101CD000FFF7CEFD3CE06FF00801016104212177A0
:101CE000C069800737D02046FFF7C2FD39E06FF0AA
:101CF0001001016108212177C06910F4407F33D0C1
:101D00002046FFF7B5FD35E06FF001010161204687
:101D100000F038F8A6E76FF0800101612046FFF778
:101D2000A3FDA7E76FF040010161204600F064F8D1
:101D3000A8E7204600F022F8204600F021F8002015
:101D400020776FE7204600F019F8204600F018F8D9
:101D5000002020776EE7204600F010F8204600F0C3
:101D60000FF8002020776DE7204600F007F82046A6
:101D700000F006F8002020776CE7000070470000B4
:101D800070470000006840F60001C4F2000188427C
:101D900000D0704740F29020C2F2000090F900108D
:101DA0004029B8BF7047C9B201F03F023F2A14D1A1
:101DB00040F24821C2F2000109680A6A22F00A02D0
:101DC0000A620A6A0A62FF21017040F29220C2F29E
:101DD00000004FF6FF7101807047013101707047BC
:101DE0004FEAB101032984BF00207047006800EB6F
:101DF0008100406B70470000704700007047000092
:101E0000B0B501680A68CC684B6902F02F05202D37
:101E100004F0200504D11DB1BDE8B04000F040BB86
:101E20005FEA027C1EBF03F0010E04F4907313EB13
:101E30000E032CD1130619D514F0800316D090F898
:101E40003920212A11D18268B2F5805F03D102695D
:101E5000002A00F08E80026A531C036212784A60E6
:101E6000C28C013A1304C28476D0B0BD5206FCD5B0
:101E700014F0400208BFB0BDCA6822F04002CA6038
:101E8000202180F83910BDE8B04000F0A1B9D10799
:101E900018BF14F4807102D1510706D40CE0C16B55
:101EA00041F00101C163510706D5BEF1000F03D017
:101EB000C16B41F00201C163910706D5BEF1000F6D
:101EC00003D0C16B41F00401C163BCF1000F06D522
:101ED0005EEA050103D0C16B41F00801C163C16B2B
:101EE0000029C2D0910604D51DB1044600F0D8FAED
:101EF000204601684A69C36B02F0400203F0080300
:101F0000D21823D0CA6822F49072CA604A6922F0BB
:101F100001024A61202280F83A204A69520624D5FB
:101F20004A6922F040024A61416BF1B142F29542A6
:101F3000C0F60002044608464A63FEF72BFF00285D
:101F400093D0606B416BBDE8B04008470446FFF793
:101F500055FF0020E063B0BDC86820F08000C86075
:101F6000C86840F04000C860B0BDBDE8B040FFF7B1
:101F700045BF026A32F8023B6FF35F234B60026297
:101F80006EE70000002804BF0120704710B504462A
:101F900090F8390028B9002084F83800204600F075
:101FA00061F8242084F839002068D4E90212C3685B
:101FB00023F40053C360036923F440531A430261BE
:101FC000D4E904231143C268194341F20C639A43D4
:101FD0001143C1604169A26921F44071114343F684
:101FE0000002C4F201029042416102D0FFF7ECF915
:101FF00001E0FFF7FDF9D4E90023192148439900D6
:10200000B0FBF1F048F21F5CC5F2EB1CA0FB0C31F9
:102010004FF69C734909C0F6FF7301FB030032239E
:1020200003EB0010A0FB0C03F02000EA531000EBC0
:102030000110C3F34311084490601069202120F47B
:1020400090401061506920F02A005061D06840F43F
:102050000050D0600020E06384F8391084F83A1012
:1020600010BD0000B0B584B040F60004C4F2010415
:10207000006804F54051884201D004B0B0BD41F27F
:102080001800C4F2020001686D4641F004010160CD
:10209000016801F0040100910099016841F0040118
:1020A0000160016801F0040100910099016841F4A8
:1020B000804101600068294600F48040009000984B
:1020C0004FF4007000900220019001200290032044
:1020D00003902046FEF7FCFE4FF480600090002045
:1020E000019020462946FEF7F3FE2520FFF744F82D
:1020F000252003210322FFF751F804B0B0BD0000F2
:10210000034690F83A0020280AD100294FF0010038
:1021100018BF002A00D1704793F83800012801D178
:10212000022070479962002022219A85DA85D863BF
:1021300083F83A10196883F83800CA6842F480724C
:10214000CA604A6942F001024A61CA6842F020024C
:10215000CA607047006843F60001C4F2010188427A
:1021600018BF704740F29C30C2F20000B0F9001076
:10217000002921D440F2DC02C2F2000289B21378B5
:10218000B1F5804F04D20D2B0CD141F4804212E006
:1021900048F2000C0022CFF6FF7C0A2B08BF41EA70
:1021A0000C0208E040F2D422C2F2000253544A1C4E
:1021B000C62988BF0022028040F2942040F2DC0150
:1021C000C2F20000C2F200010122FFF799BF000035
:1021D0007047000080B540F29021C2F2000140F249
:1021E00092220878C2F20002128800F03F0042EA10
:1021F000004000220A7007F027FF0023C4F24D03BD
:10220000002207F0C5FD80BD10B540F29020C2F25B
:1022100000000021017040F2922041F20044C2F21D
:102220000000C4F20104018020464FF40061012245
:10223000FEF74AFF0F2000F0D5F920464FF4006169
:102240000022BDE81040FEF73FBF0000FEE700009F
:10225000F0B585B041F21800C4F20200016841F007
:1022600020010160016801F02001019101990168DC
:1022700041F0080101600068472100F0080001906A
:1022800001984FF6FF7000F0D5F94FF4006040F66A
:102290000044002701900120C4F20104039702903A
:1022A000032004F5006501AE049028463146FEF790
:1022B0000FFE4020CDE9010720463146FEF708FE1B
:1022C00028464FF400610122FEF7FEFE2046402121
:1022D0000122FEF7F9FE05B0F0BD0000FEE70000A8
:1022E000704700007047000070470000FEF7F8BE1E
:1022F0007047000010B540F22814C2F200042068B4
:102300000069C00708BF10BD41F60000C4F201001B
:102310002021FEF7D1FE20686FF00101016110BDA0
:1023200040F27010C2F200000068006970470000BF
:1023300040F24820C2F20000FFF76ABC10B540F23C
:10234000B814C2F2000420686FF00101016141F687
:102350000000C4F201002021FEF7AEFE03A0FEF74C
:1023600053F82046BDE81040FFF752BC54494D36A3
:1023700020696E74657272757074210D0000000022
:1023800010B540F20024C2F2000420686FF0010191
:10239000016140F60040C4F201002021FEF78CFEEE
:1023A00003A0FEF731F82046BDE81040FFF730BC2F
:1023B00054494D3720696E74657272757074210DC1
:1023C0000000000010B540F6FF320368C4F20002BE
:1023D00040F6004E43F2004C9042C4F2000EC4F2AC
:1023E000010C20DCB0F1804F27D040F20044C4F251
:1023F0000004A04221D040F60004C4F20004A04230
:102400001BD090421FDCB0F1804F26D040F200423A
:10241000C4F20002904220D040F60002C4F2000252
:1024200090421AD01DE0704507D0604505D042F6B5
:102430000044C4F20104A042E3D14C6823F07003CD
:1024400023439042DFDD704507D0604505D042F65A
:102450000042C4F20102904203D1CA6823F44073DF
:1024600013434C6923F08002D1F800E08B682243CB
:1024700060450260C362C0F828E005D042F6004221
:10248000C4F20102904201D1096901630121416155
:1024900010BD0000406A0021C185C184FFF7AEBCB9
:1024A00090F83A10222918BF70478268B2F5805F11
:1024B00001D1016949B3816AB2F5805F07D00AB9D9
:1024C000026922B10268526802F07F0201E00268EC
:1024D00052680A70816A01318162C18D01390A0432
:1024E000C18500D070470168CA6822F02002CA6026
:1024F000CA6822F48072CA604A6922F001024A6105
:10250000202180F83A10FFF725BE0168826A4968E9
:102510006FF35F2122F8021B8262DEE780B540F292
:102520009420C2F20000FFF76BFC40F27800C2F288
:10253000000001680131016080BD0000FEE700007D
:102540007047000010B584B041F21800C4F20200D8
:10255000016840F6004441F0080101600068C4F2DF
:10256000010400F00800009000984FF48070009083
:102570000120CDE901000320039069462046FEF7C3
:10258000A7FC20464FF480710022FEF79DFD04B0A9
:1025900010BD000040F2D801C2F20001086070478F
:1025A00080B54EF2180140F2D802CEF20001C2F21C
:1025B000000251F804CC1268002350434FF47A72A1
:1025C00000FB02FE086800BF0A688242FCD0034498
:1025D0009B1A824228BF63447345104628BF80BDC2
:1025E000F2E7000080B54EF2180140F2D802CEF2B8
:1025F0000001C2F2000251F804CC1268002302FB71
:1026000000FE08680A688242FCD003449B1A82429A
:1026100028BF63447345104628BF80BDF2E7000021
:1026200043F60001C4F201010A685206FCD5C2B2A9
:102630004A607047B0B584B040F248240025C2F229
:10264000000440F60002C4F20002C4E90250204631
:10265000CDE90255CDE90055C4E90021FFF702FAA2
:102660000120CDE901056946204600220095039529
:10267000FFF748F92068C16841F00101C1602046B8
:102680000021FFF755FA04B0B0BD00002DE9F0417C
:1026900084B041F21800C4F20200016841F600045F
:1026A00041F0400101600168C4F2010401F0400101
:1026B0000091009901686D4641F040010160016898
:1026C0004FF0000801F040010091009901680127D6
:1026D00041F0040101600068032600F0040000904E
:1026E00000981020009020462946CDF804800297DB
:1026F0000396FEF7EDFB0820CDE9000820462946A9
:10270000CDE90276FEF7E4FB0220CDE90206A4F54E
:1027100080502946CDE90078FEF7DAFB04B0BDE829
:10272000F0810000F0B581B040F29E37C2F20007A0
:1027300004463888798840F2FE7501FB00F60020D7
:102740000021C6F6004506F085FB3889288016B1C1
:10275000013E6C80FCD101B0F0BD0000F0B581B04D
:10276000CF20ADF80200BDF8020040F60004ADF83D
:102770000200BDF80200C6F6004424F8020C002056
:10278000ADF80200BDF80210C122ADF80210BDF88C
:1027900002104FF0100C2180ADF80220BDF802109D
:1027A0004FF0010EADF80210BDF802102A2721806B
:1027B0003021ADF80210BDF80230ADF80230BDF89E
:1027C00002302380ED23ADF80230BDF80230ADF8C1
:1027D0000230BDF8023024F8023C6423ADF8023028
:1027E000BDF80230ADF80230BDF80230238003237B
:1027F000ADF80230BDF80230ADF80230BDF802305D
:1028000023801223ADF80230BDF80230ADF802305B
:10281000BDF8023023808123ADF80230BDF80230CC
:10282000ADF80230BDF802302380E823ADF8023065
:10283000BDF80230ADF80230BDF8023024F8023C99
:102840008523ADF80230BDF80230ADF80230BDF896
:1028500002302380ADF802C0BDF80230ADF802307E
:10286000BDF8023023807A23ADF80230BDF8023083
:10287000ADF80230BDF802302380CB23ADF8023032
:10288000BDF80230ADF80230BDF8023024F8023C49
:102890003923ADF80230BDF80230ADF80230BDF892
:1028A000023023802C23ADF80230BDF80230ADF8A1
:1028B0000230BDF802302380ADF80200BDF80230CE
:1028C000ADF80230BDF8023023803423ADF8023079
:1028D000BDF80230ADF80230BDF80230238002238B
:1028E000ADF80230BDF80230ADF80230BDF802306C
:1028F0002380F723ADF80230BDF80230ADF8023086
:10290000BDF8023024F8023C2023ADF80230BDF8B7
:102910000230ADF80230BDF802302380EA23ADF872
:102920000230BDF80230ADF80230BDF8023024F8B4
:10293000023CADF80200BDF80230ADF80230BDF83F
:1029400002302380ADF80200BDF80230ADF802304D
:10295000BDF802302380C023ADF80230BDF802304C
:10296000ADF80230BDF8023024F8023C1B23ADF86C
:102970000230BDF80230ADF80230BDF802302380DD
:10298000ADF80220BDF80220ADF80220BDF802200B
:1029900024F8022CADF802E0BDF80220ADF80220C8
:1029A000BDF802202280C522ADF80220BDF8022029
:1029B000ADF80220BDF8022024F8022CADF8021078
:1029C000BDF80220ADF80220BDF802202280ADF84B
:1029D0000210BDF802100A22ADF80210BDF8021074
:1029E0002180C721ADF80210BDF80210ADF8021029
:1029F000BDF8021024F8021CB721ADF80210BDF892
:102A00000210ADF80210BDF8021021803621ADF899
:102A10000210BDF80210ADF80210BDF8021024F843
:102A2000021C4821ADF80210BDF80210ADF80210EA
:102A3000BDF8021021803A21ADF80210BDF8021055
:102A4000ADF80210BDF8021024F8021C5521ADF8B3
:102A50000210BDF80210ADF80210BDF8021021807E
:102A6000B121ADF80210BDF80210ADF80210BDF8AA
:102A7000021024F8021CADF80200BDF80210ADF8F7
:102A80000210BDF8021021801A21ADF80210BDF825
:102A90000210ADF80210BDF802102180B621ADF889
:102AA0000210BDF80210ADF80210BDF8021024F8B3
:102AB000021CADF80220BDF80210ADF80210BDF8FE
:102AC00002102180A221ADF80210BDF80210ADF86D
:102AD0000210BDF802102180F221ADF80210BDF8FD
:102AE0000210ADF80210BDF8021024F8021CADF877
:102AF0000200BDF80210ADF80210BDF802102180EE
:102B00002621ADF80210BDF80210ADF80210BDF894
:102B1000021024F8021CADF802E0BDF80210ADF876
:102B20000210BDF802102180E021ADF80210BDF8BE
:102B30000210ADF80210BDF8021024F8021C0F219B
:102B4000ADF80210BDF80230ADF80230BDF8023029
:102B50002380ADF80270BDF80230ADF80230BDF848
:102B6000023023802823ADF80230BDF80230ADF8E2
:102B70000230BDF8023023800823ADF80230BDF8E2
:102B80000250ADF80250BDF8025025800E25ADF878
:102B90000250BDF80250ADF80250BDF80250258039
:102BA000ADF80230BDF802302B25ADF80230BDF88B
:102BB000023023805423ADF80230BDF80230ADF866
:102BC0000230BDF802302380A923ADF80230BDF8F1
:102BD0000230ADF80230BDF8023023804323ADF857
:102BE0000230BDF80230ADF80230BDF8023023806B
:102BF000ADF80220BDF80220ADF80220BDF8022099
:102C00002280ADF80210BDF80220ADF80220BDF818
:102C100002202280ADF80200BDF80220ADF80220AB
:102C2000BDF802202280ADF80200BDF80220ADF808
:102C30000220BDF802202280ADF80200BDF802207B
:102C4000ADF80220BDF802202280ADF80200BDF8E8
:102C50000220ADF80220BDF802202280E122ADF86A
:102C60000220BDF80220ADF80220BDF8022024F8B1
:102C7000022CADF80200BDF80220ADF80220BDF82C
:102C8000022022801522ADF80220BDF80220ADF806
:102C90000220BDF8022022801722ADF80220BDF8E4
:102CA0000220ADF80220BDF8022022800722ADF8F4
:102CB0000220BDF80220ADF80220BDF802202280DB
:102CC0001122ADF80220BDF80230ADF80230BDF897
:102CD000023023800623ADF80230BDF80230ADF893
:102CE0000230BDF802302380ADF80250BDF802304A
:102CF000ADF80230BDF8023023805623ADF8023023
:102D0000BDF80230ADF80230BDF8023023803C231C
:102D1000ADF80230BDF80230ADF80230BDF8023037
:102D200023800523ADF80230BDF80230ADF8023043
:102D3000BDF802302380ADF802C0BDF80230ADF816
:102D40000230BDF802302380ADF80210BDF8023029
:102D5000ADF80230BDF8023023803F23ADF80230D9
:102D6000BDF80260ADF80260BDF802602680ADF8E3
:102D70000230BDF80260ADF80260BDF80260268046
:102D8000ADF80210BDF80210ADF80210BDF8021047
:102D90002180ADF80250BDF80210ADF80210BDF868
:102DA000021024F8021CADF80200BDF80210ADF8C4
:102DB0000210BDF802102180ADF80200BDF802102B
:102DC000ADF80210BDF802102180ADF802E0BDF8A8
:102DD0000210ADF80210BDF802102180ADF80230EB
:102DE000BDF80210ADF80210BDF802102180ADF858
:102DF0000270BDF80210ADF80210BDF8021024F800
:102E0000021CADF80200BDF80210ADF80210BDF8CA
:102E100002102180ADF80200BDF80210ADF80210DA
:102E2000BDF802102180ADF80200BDF80200ADF837
:102E30000200BDF802002080EF20ADF80200BDF8CE
:102E40000200ADF80200BDF802002080ADF80220BB
:102E5000BDF80200ADF80200BDF8020024F8020C33
:102E60007820FFF79DFB2920ADF80200BDF8020095
:102E7000ADF80200BDF8020024F8020C01B0F0BD6C
:102E80002DE9F04F81B0FF23ADF80230BDF802000C
:102E900040F60004ADF80200BDF80200C6F600449A
:102EA00024F8020CADF80230BDF802004FF0060E17
:102EB000ADF80200BDF802004FF00F0B2080982003
:102EC000ADF80200BDF802004FF00B0AADF80200A9
:102ED000BDF802004FF010092080ADF802E0BDF807
:102EE00002004025ADF80200BDF802004FF00A0CC8
:102EF0002080BC20ADF80200BDF80200ADF8020051
:102F0000BDF8020024F8020C0120ADF80200BDF863
:102F10000210ADF80210BDF802102180ADF802B029
:102F2000BDF80210ADF80210BDF802102180612139
:102F3000ADF80210BDF80210ADF80210BDF8021095
:102F40002180ADF80230BDF80210ADF80210BDF8D6
:102F500002102180ADF80200BDF80210ADF8021099
:102F6000BDF802102180ADF80200BDF80210ADF8E6
:102F70000210BDF802102180ADF802A0BDF80210C9
:102F8000ADF80210BDF802102180ADF80290BDF836
:102F90000210ADF80210BDF8021021803721ADF803
:102FA0000210BDF80210ADF80210BDF80210218029
:102FB0006321ADF80210BDF80210ADF80210BDF8A3
:102FC00002102180ADF80230BDF80210ADF80210F9
:102FD000BDF802102180ADF80230BDF80210ADF846
:102FE0000210BDF802102180ADF80200BDF80210F9
:102FF000ADF80210BDF802102180ADF80200BDF856
:103000000210ADF80210BDF8021021800021ADF8C9
:103010000210BDF80220ADF80220BDF80220228087
:10302000ADF80210BDF80220ADF80220BDF8022074
:103030002280ADF80230BDF80220ADF80220BDF8C4
:10304000022022805222ADF80220BDF80220ADF805
:103050000220BDF802202280ADF80200BDF8022057
:10306000ADF80220BDF802202280ADF80210BDF8B4
:103070000220ADF80220BDF802202280ADF80250F7
:10308000BDF80220ADF80220BDF802202280BD224A
:10309000ADF80220BDF80220ADF80220BDF80220F4
:1030A00024F8022CADF80200BDF80220ADF8022091
:1030B000BDF8022022802322ADF80220BDF80230A4
:1030C000ADF80230BDF8023023804523ADF8023060
:1030D000BDF80260ADF80260BDF802602680672688
:1030E000ADF80260BDF80270ADF80270BDF8027074
:1030F0002780ADF80200BDF80270ADF80270BDF88F
:1031000002702780ADF80220BDF80220ADF8022041
:10311000BDF802202280ADF80230BDF80220ADF8E3
:103120000220BDF802202280ADF80260BDF8022026
:103130001326ADF80220BDF802202280BE22ADF891
:103140000220BDF80220ADF80220BDF8022024F8CC
:10315000022CADF80210BDF80220ADF80220BDF837
:1031600002202280ADF80200BDF80220ADF8022056
:10317000BDF802202280AB22ADF80220BDF802206B
:10318000ADF80220BDF8022022806022ADF80220B6
:10319000BDF80220ADF80220BDF8022022802222D4
:1031A000ADF80220BDF80230ADF80230BDF80230B3
:1031B0002380ADF80220BDF80230ADF80230BDF832
:1031C00002302380ADF80220BDF80230ADF80230A5
:1031D000BDF802302380ADF80220BDF80230ADF812
:1031E0000230BDF802302380ADF80220BDF8022085
:1031F0002023ADF80220BDF802202280C722ADF8BE
:103200000220BDF80220ADF80220BDF8022024F80B
:10321000022C3622ADF80220BDF80220ADF80220C3
:10322000BDF802202280ED22ADF80220BDF8022078
:10323000ADF80220BDF8022024F8022C7F22ADF860
:103240000220BDF80220ADF80220BDF80220228045
:10325000ADF802B0BDF80220ADF80220BDF80220A2
:103260002280C022ADF80220BDF80220ADF8022075
:10327000BDF8022024F8022CADF802B0BDF80220FF
:10328000ADF80220BDF802202280ADF802A0BDF802
:103290000220ADF80220BDF802202280ADF802C065
:1032A000BDF80220ADF80220BDF802202280FC22E9
:1032B000ADF80220BDF80220ADF80220BDF80220D2
:1032C00024F8022C0822ADF80220BDF80220ADF847
:1032D0000220BDF802202280DF22ADF80220BDF8D6
:1032E0000220ADF80220BDF8022024F8022CADF82F
:1032F0000210BDF80220ADF80220BDF802202280A5
:10330000ADF80210BDF80220ADF80220BDF8022091
:103310002280ADF80210BDF80220ADF80220BDF801
:1033200002202280ADF80210BDF80220ADF8022084
:10333000BDF802202280ADF80210BDF80220ADF8E1
:103340000220BDF802202280ADF80230BDF8022034
:10335000ADF80220BDF802202280F322ADF8022051
:10336000BDF80220ADF80220BDF8022024F8022C9E
:103370007422ADF80220BDF80220ADF80220BDF89D
:1033800002202280B422ADF80220BDF80220ADF860
:103390000220BDF8022024F8022CADF80210BDF87E
:1033A0000220ADF80220BDF802202280ADF8021004
:1033B000BDF80220ADF80220BDF802202280ADF851
:1033C0000210BDF80220ADF80220BDF802202280D4
:1033D000F722ADF80220BDF80220ADF80220BDF8BA
:1033E000022024F8022C8222ADF80220BDF802202F
:1033F000ADF80220BDF802202280B122ADF80220F3
:10340000BDF80220ADF80220BDF8022024F8022CFD
:10341000ADF80210BDF80220ADF80220BDF8022080
:103420002280ADF80260BDF80220ADF80220BDF8A0
:1034300002202280ADF80260BDF80220ADF8022023
:10344000BDF802202280F222ADF80220BDF8022051
:10345000ADF80220BDF8022024F8022C8022ADF83D
:103460000220BDF80220ADF80220BDF80220228023
:103470000422ADF80220BDF80220ADF80220BDF80C
:1034800002202280ADF80250BDF80220ADF80220E3
:10349000BDF8022022802822ADF80220BDF80220CB
:1034A000ADF80220BDF802202280C122ADF8022032
:1034B000BDF80220ADF80220BDF8022024F8022C4D
:1034C0001722ADF80220BDF80220ADF80220BDF8A9
:1034D000022022808822ADF80220BDF80250ADF80B
:1034E0000250BDF802502580ADF80220BDF8022040
:1034F0000E25ADF80220BDF802202280ADF8023082
:10350000BDF80220ADF80220BDF802202280E022A2
:10351000ADF80220BDF80220ADF80220BDF802206F
:1035200024F8022CADF80210BDF80220ADF80220FC
:10353000BDF802202280ADF802C0BDF80220ADF82F
:103540000220BDF8022022801222ADF80220BDF830
:103550000220ADF80220BDF802202280ADF80290D2
:10356000BDF80220ADF80220BDF802202280ADF89F
:103570000250BDF80220ADF80220BDF802202280E2
:10358000ADF80230BDF80220ADF80220BDF80220EF
:103590002280CC22ADF80220BDF80220ADF8022036
:1035A000BDF8022022800722ADF80220BDF80220DB
:1035B000ADF80220BDF802202280ADF802E0BDF88F
:1035C0000220ADF80220BDF802202280ADF802A052
:1035D000BDF80220ADF80220BDF802202280ADF82F
:1035E0000250BDF80220ADF80220BDF80220228072
:1035F000ADF802B0BDF80220ADF80220BDF80220FF
:1036000022800D22ADF80220BDF80230ADF8023064
:10361000BDF8023023801523ADF80230BDF80280DA
:10362000ADF80280BDF802702780ADF80290BDF8B9
:103630000270ADF80270BDF802702780ADF802107C
:10364000BDF80270ADF80270BDF802702780E12766
:10365000ADF80270BDF80270ADF80270BDF80270EE
:1036600024F8027CADF80210BDF80270ADF80270CB
:10367000BDF802702780ADF802A0BDF80270ADF869
:103680000270BDF802702780ADF80260BDF80260DC
:10369000ADF80260BDF802602680ADF80220BDF8EA
:1036A0000220ADF80220BDF802202280ADF80250C1
:1036B000BDF80220ADF80220BDF8022022801B22B6
:1036C000ADF80220BDF80220ADF80220BDF80220BE
:1036D00022807122ADF80220BDF80220ADF8022050
:1036E000BDF802202280ADF802E0BDF80220ADF85E
:1036F0000220BDF802202280ADF802E0BDF80220D1
:10370000ADF80220BDF802202280ADF802C0BDF85D
:103710000220ADF80220BDF802202280ADF802B0F0
:10372000BDF80220ADF80220BDF802202280ADF8DD
:103730000250BDF80220ADF80220BDF80220228020
:10374000ADF802B0BDF80220ADF80220BDF80220AD
:103750002280ADF80230BDF80220ADF80220BDF89D
:10376000022022800C22ADF80220BDF80220ADF824
:103770000220BDF802202280ADF80210BDF8022020
:10378000ADF80220BDF8022022802A22ADF80220E6
:10379000BDF80220ADF80220BDF8022024F8022C6A
:1037A000ADF80210BDF80220ADF80220BDF80220ED
:1037B0002280ADF80210BDF80220ADF80220BDF85D
:1037C00002202280ADF80200BDF80200ADF8020030
:1037D000BDF802002080DF20ADF80200BDF8020035
:1037E000ADF80200BDF8020020802B20ADF80200E9
:1037F000BDF80200ADF80200BDF8020024F8020C8A
:10380000ADF80210BDF80200ADF80200BDF80200EC
:103810002080ADF80210BDF80200ADF80200BDF83E
:10382000020020800320ADF80200BDF80200ADF8D0
:103830000200BDF8020020801F20ADF80200BDF894
:103840000200ADF80200BDF8020020803A20ADF879
:103850000200BDF80200ADF80200BDF8020024F835
:10386000020C5520ADF80200BDF80200ADF80200D0
:10387000BDF8020020803620ADF80200BDF802003D
:10388000ADF80200BDF8020024F8020CADF80210F9
:10389000BDF80200ADF80200BDF802002080112042
:1038A000ADF80200BDF80200ADF80200BDF802005C
:1038B00024F8020C7820FEF773FE2920ADF80200F0
:1038C000BDF80200ADF80200BDF8020024F8020CB9
:1038D0001420FEF765FE2C20ADF80200BDF80200B2
:1038E000ADF80200BDF8020024F8020C01B0BDE8FA
:1038F000F08F00002DE9F04F81B0ED20ADF802000F
:10390000BDF8020040F60004ADF80200BDF8020068
:10391000C6F6004424F8020C0120ADF80200BDF800
:1039200002004FF02109ADF80200BDF802000122AB
:103930002080FE20ADF80200BDF802000025ADF8A1
:103940000200BDF802008B262080EE20ADF80200B8
:10395000BDF802000223ADF80200BDF802004FF0EE
:10396000200A24F8020CDE20ADF80200BDF80200A7
:103970004FF03C08ADF80200BDF802004FF0360EE3
:103980002080ADF80290BDF80210C420ADF80210FE
:10399000BDF802104FF0320B2180F121ADF802107A
:1039A000BDF802104FF02C0CADF80210BDF802105B
:1039B00024F8021CADF80220BDF80210ADF8021088
:1039C000BDF802102180DF21ADF80210BDF8021011
:1039D000ADF80210BDF8021024F8021C1021ADF859
:1039E0000210BDF80210ADF80210BDF802102180DF
:1039F000ADF80200BDF80210C620ADF80210BDF807
:103A0000021024F8021C8F21ADF80210BDF802103C
:103A1000ADF80210BDF802102180ADF80200BDF82B
:103A20000210E220ADF80210BDF8021024F8021CCA
:103A3000ADF80250BDF80210ADF80210BDF802104A
:103A40002180ADF80200BDF80210ADF80210BDF8FB
:103A500002102180ADF80200BDF80210ADF802108E
:103A6000BDF802102180ADF80200BDF802105D2003
:103A7000ADF80210BDF802102180BF21ADF8021090
:103A8000BDF80210ADF80210BDF8021024F8021CB7
:103A9000AA21ADF80210BDF80210ADF80210BDF871
:103AA00002102180B021ADF80210BDF80210ADF86F
:103AB0000210BDF8021024F8021C0D21ADF802100E
:103AC000BDF80220ADF80220BDF802202280ADF83A
:103AD0000250BDF80220ADF80220BDF8022022807D
:103AE000ADF80210BDF80210ADF80210BDF80210DA
:103AF0002180ADF80250BDF80210ADF80210BDF8FB
:103B0000021021801121ADF80210BDF80210ADF8AD
:103B10000210BDF802102180ADF80250BDF802106D
:103B2000ADF80210BDF8021021801921ADF8021085
:103B3000BDF80210ADF80210BDF802102180ADF8FA
:103B40000250BDF80210ADF80210BDF8021021803D
:103B5000ADF80290BDF80210ADF80210BDF80210E9
:103B60002180ADF80250BDF80210ADF80210BDF88A
:103B7000021021802D21ADF80210BDF80210ADF821
:103B80000210BDF802102180ADF80250BDF80210FD
:103B9000ADF80210BDF8021021803D21ADF80210F1
:103BA000BDF80210ADF80210BDF802102180ADF88A
:103BB0000250BDF80210ADF80210BDF802102180CD
:103BC000ADF80200BDF80210ADF80210BDF8021009
:103BD0002180ADF80250BDF80210ADF80210BDF81A
:103BE00002102180ADF80200BDF802108B20ADF864
:103BF0000210BDF802102180ADF80250BDF802108D
:103C0000ADF80210BDF802102180B121ADF802100C
:103C1000BDF80210ADF80210BDF8021024F8021C25
:103C20008021ADF80210BDF80210ADF80210BDF809
:103C300002102180ADF80250BDF80210ADF802105C
:103C4000BDF802102180ADF80200BDF8021002207C
:103C5000ADF80210BDF802102180ADF80250BDF899
:103C60000210ADF80210BDF8021021809621ADF8C7
:103C70000210BDF80220ADF80220BDF8022022801B
:103C8000ADF80250BDF80220ADF80220BDF80220C8
:103C90002280B222ADF80220BDF80220ADF8022049
:103CA000BDF8022024F8022CADF80250BDF8022025
:103CB000ADF80220BDF802202280ADF80250BDF818
:103CC0000220ADF80220BDF802202280ADF80200EB
:103CD000BDF80220B320ADF80220BDF802202280FA
:103CE000ADF80250BDF80220ADF80220BDF8022068
:103CF00022800322ADF80220BDF80270ADF80270F8
:103D0000BDF802702780ADF80250BDF80270ADF822
:103D10000270BDF802702780ADF80200BDF8027095
:103D2000B720ADF80270BDF8027024F8027CADF83F
:103D30000250BDF80270ADF80270BDF80270278025
:103D4000ADF80250BDF80270ADF80270BDF8027017
:103D50002780ADF80250BDF80270ADF80270BDF8D2
:103D600002702780ADF80250BDF80270ADF8027005
:103D7000BDF802702780ADF80250BDF80270ADF8B2
:103D80000270BDF802702780ADF80250BDF80270D5
:103D9000ADF80270BDF802702780ADF80250BDF892
:103DA0000270ADF80270BDF802702780ADF80250C5
:103DB000BDF80270ADF80270BDF802702780ADF852
:103DC0000250BDF80270ADF80270BDF80270278095
:103DD000ADF80250BDF80270ADF80270BDF8027087
:103DE0002780ADF80250BDF80270ADF80270BDF842
:103DF00002702780ADF80250BDF80270ADF8027075
:103E0000BDF802702780ADF80250BDF80270ADF821
:103E10000270BDF802702780ADF80250BDF8027044
:103E2000ADF80270BDF802702780ADF80250BDF801
:103E30000270ADF80270BDF802702780ADF8025034
:103E4000BDF80270ADF80270BDF802702780ADF8C1
:103E50000250BDF80270ADF80270BDF80270278004
:103E6000ADF80250BDF80270ADF80270BDF80270F6
:103E70002780ADF80250BDF80270ADF80270BDF8B1
:103E800002702780ADF80250BDF80270ADF80270E4
:103E9000BDF802702780ADF80250BDF80270ADF891
:103EA0000270BDF802702780ADF80250BDF80270B4
:103EB000ADF80270BDF802702780ADF80250BDF871
:103EC0000270ADF80270BDF802702780ADF80250A4
:103ED000BDF80270ADF80270BDF802702780B427FB
:103EE000ADF80270BDF80270ADF80270BDF8027056
:103EF00024F8027CADF80260BDF80270ADF80270E3
:103F0000BDF802702780ADF80250BDF80270ADF820
:103F10000270BDF802702780ADF80210BDF80210E3
:103F20000427ADF80210BDF802102180ADF8025050
:103F3000BDF80210ADF80210BDF802102180A121D9
:103F4000ADF80210BDF80210ADF80210BDF8021075
:103F50002180ADF80250BDF80210ADF80210BDF896
:103F600002102180B521ADF80210BDF80210ADF8A5
:103F70000210BDF8021024F8021CADF80230BDF8A2
:103F80000210FF23ADF80210BDF802102180ADF839
:103F90000250BDF80210ADF80210BDF802102180E9
:103FA000ADF80220BDF80210ADF80210BDF8021005
:103FB0002180ADF80250BDF80210ADF80210BDF836
:103FC00002102180ADF80270BDF80210ADF80210A9
:103FD000BDF802102180ADF80250BDF80210ADF816
:103FE0000210BDF802102180B621ADF80210BDF814
:103FF0000210ADF80210BDF8021024F8021CADF852
:104000000250BDF80210ADF80210BDF80210218078
:10401000ADF80250BDF80210ADF80210BDF8021064
:104020002180ADF80200BDF802106420ADF8021046
:10403000BDF8021024F8021CADF80250BDF80210C1
:10404000ADF80210BDF802102180ADF80250BDF8A5
:104050000210ADF80210BDF8021021803F21ADF82A
:104060000210BDF80210ADF80210BDF80210218058
:10407000ADF80250BDF80210ADF80210BDF8021004
:1040800021805E21ADF80210BDF80210ADF80210DB
:10409000BDF802102180ADF80250BDF80210ADF855
:1040A0000210BDF802102180ADF80200BDF8021028
:1040B000DC20ADF80210BDF802102180ADF80250EE
:1040C000BDF80210ADF80210BDF8021021808C215D
:1040D000ADF80210BDF80210ADF80210BDF80210E4
:1040E0002180ADF80250BDF80210ADF80210BDF805
:1040F00002102180AC21ADF80210BDF80210ADF81D
:104100000210BDF802102180ADF80250BDF8021077
:10411000ADF80210BDF802102180ADF80200BDF824
:104120000210ADF80210BDF802102180ADF8025067
:10413000BDF80210ADF80210BDF802102180702108
:10414000ADF80210BDF80210ADF80210BDF8021073
:104150002180ADF80250BDF80210ADF80210BDF894
:10416000021021809021ADF80210BDF80210ADF8C8
:104170000210BDF802102180ADF80250BDF8021007
:10418000ADF80210BDF802102180EB21ADF802104D
:10419000BDF80210ADF80210BDF802102180ADF894
:1041A0000250BDF80210ADF80210BDF802102180D7
:1041B000ADF80200BDF80210C220ADF80210BDF843
:1041C00002102180ADF80250BDF80210ADF80210C7
:1041D000BDF802102180B821ADF80210BDF8021020
:1041E000ADF80210BDF8021024F8021CADF8025020
:1041F000BDF80210ADF80210BDF802102180ADF834
:104200000250BDF80210ADF80210BDF80210218076
:10421000ADF80250BDF80210ADF80210BDF8021062
:104220002180ADF80250BDF80210ADF80210BDF8C3
:1042300002102180ADF80250BDF80210ADF8021056
:10424000BDF802102180ADF80250BDF80210ADF8A3
:104250000210BDF802102180ADF80250BDF8021026
:10426000ADF80210BDF802102180ADF80250BDF883
:104270000210ADF80210BDF802102180BA21ADF88D
:104280000210BDF80210ADF80210BDF8021024F8BB
:10429000021C2421ADF80210BDF80220ADF8022066
:1042A000BDF802202280ADF80250BDF80220ADF822
:1042B0000220BDF802202280ADF80250BDF8022095
:1042C000ADF80220BDF802202280ADF80250BDF802
:1042D0000220ADF80220BDF802202280C122ADF8F4
:1042E0000220BDF80220ADF80220BDF8022024F81B
:1042F000022CADF802A0BDF802602322ADF80260E6
:10430000BDF802602680ADF80250BDF80260ADF83D
:104310000260BDF8026026805426ADF80260BDF848
:104320000260ADF80260BDF802602680ADF8025070
:10433000BDF80260ADF80260BDF802602680ADF8FD
:104340000230BDF802603A23ADF80260BDF80260A9
:104350002680ADF80250BDF80260ADF80260BDF8ED
:1043600002602680ADF80200BDF802600A20ADF8B8
:104370000260BDF8026024F8026CADF80200BDF8DE
:1043800002603C20ADF80260BDF802602680ADF806
:104390000250BDF80260ADF80260BDF802602680F0
:1043A000ADF80270BDF80270ADF80270BDF8027091
:1043B0002780ADF80250BDF80270ADF80270BDF86C
:1043C00002702780C327ADF80270BDF80270ADF807
:1043D0000270BDF8027024F8027CADF80200BDF84E
:1043E0000270ADF80270BDF802702780ADF802507F
:1043F000BDF80270ADF80270BDF802702780ADF80C
:104400000230BDF802702C23ADF80270BDF80270C6
:104410002780ADF80250BDF80270ADF80270BDF80B
:10442000027027803927ADF80270BDF80270ADF830
:104430000270BDF802702780ADF80250BDF802701E
:10444000ADF80270BDF8027027803727ADF8027012
:10445000BDF80270ADF80270BDF802702780ADF8AB
:104460000250BDF80270ADF80270BDF802702780EE
:10447000ADF80200BDF802703620ADF80270BDF84C
:1044800002702780ADF80250BDF80270ADF80270DE
:10449000BDF802702780ADF80200BDF8027032202E
:1044A000ADF80270BDF802702780ADF80250BDF87B
:1044B0000270ADF80270BDF802702780ADF80200FE
:1044C000BDF802702920ADF80270BDF80270278097
:1044D000ADF80250BDF80270ADF80270BDF8027080
:1044E00027802F27ADF80270BDF80260ADF802609A
:1044F000BDF802602680ADF80250BDF80260ADF84C
:104500000260BDF802602680ADF80230BDF802609E
:104510002923ADF80260BDF802602680ADF8025094
:10452000BDF80260ADF80260BDF802602680ADF80B
:104530000230BDF80260ADF80260BDF8026026806E
:10454000ADF80250BDF80260ADF80260BDF802603F
:1045500026802626ADF80260BDF80230ADF80230A4
:10456000BDF802302380ADF80250BDF80230ADF83E
:104570000230BDF802302380ADF80210BDF80230E1
:10458000ADF80230BDF802302380ADF80250BDF81E
:104590000230ADF80230BDF802302380ADF80210D1
:1045A000BDF80230ADF80230BDF802302380ADF81E
:1045B0000250BDF80230ADF80230BDF80230238061
:1045C0002323ADF80230BDF80230ADF80230BDF85B
:1045D00002302380ADF80250BDF80230ADF8023051
:1045E000BDF802302380ADF80280BDF802304FF0F4
:1045F0007A08ADF80230BDF802302380ADF80250E1
:10460000BDF80230ADF80230BDF802302380ADF8BD
:1046100002E0BDF802304FF08B0EADF80230BDF86D
:1046200002302380ADF80250BDF80230ADF8023000
:10463000BDF802302380ADF802B0BDF80230ADF80D
:104640000230BDF802302380ADF80250BDF80230D0
:10465000ADF80230BDF802302380ADF80270BDF82D
:104660000230ADF80230BDF802302380ADF80250C0
:10467000BDF80230ADF80230BDF802302380ADF84D
:1046800002C0BDF802304FF0C40CADF80230BDF8E6
:1046900002302380ADF80250BDF80230ADF8023090
:1046A000BDF802302380ADF80200BDF80230C4200E
:1046B000ADF80230BDF802302380ADF80250BDF8ED
:1046C0000230ADF80230BDF802302380ADF8026050
:1046D000BDF802301626ADF80230BDF80230238056
:1046E000ADF80250BDF80230ADF80230BDF802302E
:1046F0002380ADF80210BDF80230ADF80230BDF8ED
:1047000002302380ADF80250BDF80230ADF802301F
:10471000BDF802302380ADF80210BDF80210ADF8EC
:104720000210BDF802102180ADF80250BDF8021051
:10473000ADF80210BDF802102180ADF80220BDF8DE
:104740000210ADF80210BDF802102180ADF8025041
:10475000BDF80210ADF80210BDF802102180ADF8CE
:104760000200BDF802106220ADF80210BDF8021080
:1047700024F8021CADF80200BDF802100520ADF8C7
:104780000210BDF802102180ADF80250BDF80210F1
:10479000ADF80210BDF802102180ADF80200BDF89E
:1047A00002108420ADF80210BDF802102180ADF88F
:1047B0000250BDF80210ADF80210BDF802102180C1
:1047C000ADF80200BDF80210F020ADF80210BDF8FF
:1047D00002102180ADF80250BDF80210ADF80210B1
:1047E000BDF802102180ADF80200BDF80210502083
:1047F000ADF80210BDF802102180ADF80250BDF8EE
:104800000210ADF80210BDF8021021801821ADF899
:104810000210BDF80230ADF80230BDF8023023803E
:10482000ADF80250BDF80230ADF80230BDF80230EC
:104830002380A423ADF80230BDF80230ADF8023079
:10484000BDF802302380ADF80250BDF80230ADF85B
:104850000230BDF802302380ADF80210BDF802101E
:10486000ADF80210BDF802102180ADF80250BDF87D
:104870000210ADF80210BDF802102180ADF8020060
:10488000BDF80210F320ADF80210BDF8021021802F
:10489000ADF80250BDF80210ADF80210BDF80210DC
:1048A00021800C21ADF80210BDF80210ADF8021005
:1048B000BDF802102180ADF80250BDF80210ADF82D
:1048C0000210BDF8021021801721ADF80210BDF8CA
:1048D0000230ADF80230BDF802302380ADF802504E
:1048E000BDF80230ADF80230BDF8023023809523C8
:1048F000ADF80230BDF80230ADF80230BDF802303C
:104900002380ADF80250BDF80230ADF80230BDF89A
:1049100002302380ADF80200BDF80230E620ADF889
:104920000230BDF802302380ADF80250BDF80230ED
:10493000ADF80230BDF802302380ADF80200BDF8BA
:1049400002304420ADF80230BDF802302380ADF8CB
:104950000250BDF80230ADF80230BDF802302380BD
:10496000C523ADF80230BDF80230ADF80230BDF815
:10497000023024F8023CADF802B0BDF802304FF02E
:10498000520BADF80230BDF802302380ADF8025072
:10499000BDF80230ADF80230BDF802302380ADF82A
:1049A0000200BDF802307620ADF80230BDF80230CA
:1049B0002380ADF80250BDF80230ADF80230BDF8EA
:1049C000023023806523ADF80230BDF80230ADF827
:1049D0000230BDF802302380ADF80250BDF802303D
:1049E000ADF80230BDF802302380ADF80200BDF80A
:1049F00002308820ADF80230BDF802302380ADF8D7
:104A00000250BDF80230ADF80230BDF8023023800C
:104A1000ADF80200BDF80230C620ADF80230BDF896
:104A200002302380ADF80250BDF80230ADF80230FC
:104A3000BDF802302380ADF80200BDF8023001203D
:104A4000ADF80230BDF8023024F8023CADF802A007
:104A5000BDF80220A823ADF80220BDF80220228074
:104A6000ADF80250BDF80220ADF80220BDF80220DA
:104A70002280ADF80210BDF80210B922ADF8021084
:104A8000BDF802102180ADF80250BDF80210ADF85B
:104A90000210BDF802102180ADF80200BDF802102E
:104AA000C720ADF80210BDF802102180ADF8025009
:104AB000BDF80210ADF80210BDF802102180ADF86B
:104AC0000200BDF80210E020ADF80210BDF802109F
:104AD00024F8021CADF80250BDF80210ADF8021027
:104AE000BDF802102180ADF80250BDF80210ADF8FB
:104AF0000210BDF802102180ADF80250BDF802107E
:104B0000ADF80210BDF802102180ADF80250BDF8DA
:104B10000210ADF80210BDF802102180C821ADF8D6
:104B20000210BDF80210ADF80210BDF8021024F812
:104B3000021CADF80250BDF80210ADF80210BDF82D
:104B400002102180ADF80250BDF80210ADF802103D
:104B5000BDF802102180ADF80250BDF80210ADF88A
:104B60000210BDF802102180ADF80250BDF802100D
:104B7000ADF80210BDF802102180C921ADF8021075
:104B8000BDF80210ADF80210BDF8021024F8021CA6
:104B9000ADF80250BDF80210ADF80210BDF80210D9
:104BA0002180ADF80250BDF80210ADF80210BDF83A
:104BB00002102180ADF80250BDF80210ADF80210CD
:104BC000BDF802102180ADF80250BDF80210ADF81A
:104BD0000210BDF802102180ADF80250BDF802109D
:104BE000ADF80210BDF802102180ADF80250BDF8FA
:104BF0000210ADF80210BDF802102180ADF802508D
:104C0000BDF80210ADF80210BDF802102180ADF819
:104C10000250BDF80210ADF80210BDF8021021805C
:104C2000ADF80250BDF80210ADF80210BDF8021048
:104C30002180ADF80250BDF80210ADF80210BDF8A9
:104C400002102180ADF80250BDF80210ADF802103C
:104C5000BDF802102180ADF80250BDF80210ADF889
:104C60000210BDF802102180ADF80250BDF802100C
:104C7000ADF80210BDF802102180ADF80250BDF869
:104C80000210ADF80210BDF802102180ADF80250FC
:104C9000BDF80210ADF80210BDF802102180ADF889
:104CA0000250BDF80210ADF80210BDF802102180CC
:104CB000ADF80200BDF802101C20ADF80210BDF8DE
:104CC000021024F8021CADF80260BDF80210ADF825
:104CD0000210BDF802102180ADF80250BDF802109C
:104CE000ADF80210BDF802102180ADF80200BDF849
:104CF0000210ADF80210BDF802102180ADF802508C
:104D0000BDF80210ADF80210BDF802102180ADF818
:104D10000290BDF802004FF06409ADF80200BDF842
:104D20000200CA212080ADF80250BDF80200ADF8A3
:104D30000200BDF8020020803620ADF80200BDF868
:104D40000200ADF80200BDF802002080ADF802506C
:104D5000BDF80200ADF80200BDF802002080462038
:104D6000ADF80200BDF80200ADF80200BDF8020087
:104D70002080ADF80250BDF80200ADF80200BDF889
:104D800002002080ADF802B0BDF80200ADF80200CC
:104D9000BDF802002080ADF80250BDF80200ADF869
:104DA0000200BDF802002080ADF80290BDF80200BC
:104DB000ADF80200BDF802002080ADF80250BDF849
:104DC0000200ADF80200BDF802002080ADF80280BC
:104DD000BDF80200ADF80200BDF802002080ADF879
:104DE0000250BDF80200ADF80200BDF802002080BC
:104DF000ADF802E0BDF80200ADF80200BDF8020017
:104E00002080ADF80250BDF80200ADF80200BDF8F8
:104E1000020020809920ADF80200BDF80200ADF834
:104E20000200BDF802002080ADF80250BDF802007B
:104E3000ADF80200BDF802002080ADF80230BDF8E8
:104E40000200ADF80200BDF802002080ADF802506B
:104E5000BDF80200ADF80200BDF802002080ADF8F8
:104E60000220BDF80200ADF80200BDF8020020806B
:104E7000ADF80250BDF80200ADF80200BDF8020026
:104E80002080ADF802C0BDF80200ADF80200BDF808
:104E900002002080ADF80250BDF80200ADF802001B
:104EA000BDF802002080ADF80210BDF80200ADF898
:104EB0000200BDF802002080ADF80250BDF80200EB
:104EC000ADF80200BDF802002080D220ADF802004B
:104ED000BDF802A0ADF802A0BDF802704FF0F30AD1
:104EE0002780ADF80250BDF80270ADF80270BDF831
:104EF00002702780D927ADF80270BDF80270ADF8B6
:104F00000270BDF802702780ADF80250BDF8027043
:104F1000ADF80270BDF802702780E027ADF802708E
:104F2000BDF80270ADF80270BDF802702780ADF8D0
:104F30000250BDF80270ADF80270BDF80270278013
:104F4000ADF802A0BDF80270ADF80270BDF80270B5
:104F50002780ADF80250BDF80270ADF80270BDF8C0
:104F600002702780E127ADF80270BDF80270ADF83D
:104F70000270BDF8027024F8027CADF80260BDF842
:104F80000260ADF80260BDF802602680ADF8025004
:104F9000BDF80260ADF80260BDF8026026801C26F4
:104FA000ADF80260BDF80260ADF80260BDF80260C5
:104FB0002680ADF80250BDF80260ADF80260BDF881
:104FC000026026802226ADF80260BDF80260ADF8CE
:104FD0000260BDF802602680ADF80250BDF80260A4
:104FE000ADF80260BDF8026026803626ADF802609A
:104FF000BDF80260ADF80260BDF802602680ADF831
:105000000250BDF80260ADF80260BDF80260268073
:105010004526ADF80260BDF80260ADF80260BDF84B
:1050200002602680ADF80250BDF80260ADF8026063
:10503000BDF802602680ADF802B0BDF80270D1263E
:10504000ADF80270BDF802704FF0DD0B2780ADF8AF
:105050000250BDF80270ADF80270BDF802702780F2
:10506000ADF80290BDF802704FF09709ADF80270EC
:10507000BDF802702780ADF80250BDF80270ADF89F
:105080000270BDF802702780ADF80280BDF8027092
:105090004FF00508ADF80270BDF802702780ADF83A
:1050A0000250BDF80270ADF80270BDF802702780A2
:1050B000ADF802E0BDF802704FF0880EADF8027056
:1050C000BDF802702780ADF80250BDF80270ADF84F
:1050D0000270BDF8027027809927ADF80270BDF804
:1050E0000270ADF80270BDF802702780ADF8025072
:1050F000BDF80270ADF80270BDF802702780ADF8FF
:105100000230BDF80230C227ADF80230BDF80230DF
:105110002380ADF80250BDF80230ADF80230BDF882
:1051200002302380ADF80220BDF80220A623ADF89E
:105130000220BDF802202280ADF80250BDF8022006
:10514000ADF80220BDF802202280ADF802C0BDF803
:1051500002204FF0F30CADF80220BDF802202280AF
:10516000ADF80250BDF80220ADF80220BDF80220D3
:105170002280ADF80210BDF80210C722ADF802106F
:10518000BDF802102180ADF80250BDF80210ADF854
:105190000210BDF802102180ADF80200BDF8020037
:1051A000B721ADF80200BDF802002080ADF8025032
:1051B000BDF80200ADF80200BDF802002080D82042
:1051C000ADF80200BDF80200ADF80200BDF8020023
:1051D0002080ADF80250BDF80200ADF80200BDF825
:1051E00002002080E020ADF80200BDF80200ADF81A
:1051F0000200BDF802002080ADF80250BDF80200A8
:10520000ADF80200BDF802002080ADF802A0BDF8A4
:1052100002004FF0440AADF80200BDF80200208001
:10522000ADF80250BDF80200ADF80200BDF8020072
:105230002080E220ADF80200BDF80200ADF80200C7
:10524000BDF8020024F8020CADF80280BDF802009F
:10525000ADF80200BDF802002080ADF80250BDF8A4
:105260000200ADF80200BDF8020020800B20ADF86E
:105270000200BDF80200ADF80200BDF80200208077
:10528000ADF80250BDF80200ADF80200BDF8020012
:1052900020801B20ADF80200BDF80200ADF802002E
:1052A000BDF802002080ADF80250BDF80200ADF854
:1052B0000200BDF8020020803420ADF80200BDF8E5
:1052C0000200ADF80200BDF802002080ADF80250E7
:1052D000BDF80200ADF80200BDF802002080ADF874
:1052E00002A0BDF80200ADF80200BDF80200208067
:1052F000ADF80250BDF80200ADF80200BDF80200A2
:1053000020804F20ADF80200BDF80200ADF8020089
:10531000BDF802002080ADF80250BDF80200ADF8E3
:105320000200BDF8020020806120ADF80200BDF847
:105330000200ADF80200BDF802002080ADF8025076
:10534000BDF80200ADF80200BDF80200208079200F
:10535000ADF80200BDF80200ADF80200BDF8020091
:105360002080ADF80250BDF80200ADF80200BDF893
:1053700002002080ADF802E0BDF80200ADF80200A6
:10538000BDF802002080ADF80250BDF80200ADF873
:105390000200BDF802002080ADF80290BDF80200C6
:1053A000ADF80200BDF802002080ADF80250BDF853
:1053B0000200ADF80200BDF802002080ADF8023016
:1053C000BDF80200ADF80200BDF802002080ADF883
:1053D0000250BDF80200ADF80200BDF802002080C6
:1053E000ADF80210BDF80200ADF80200BDF80200F1
:1053F0002080ADF80250BDF80200ADF80200BDF803
:1054000002002080ADF80270BDF80200ADF8020085
:10541000BDF802002080ADF80250BDF80200ADF8E2
:105420000200BDF802002080ADF80220BDF80200A5
:10543000ADF80200BDF802002080ADF80250BDF8C2
:105440000200ADF80200BDF802002080ADF8026055
:10545000BDF80200ADF80200BDF802002080ADF8F2
:105460000250BDF80200ADF80200BDF80200208035
:10547000D620ADF80200BDF80200ADF80200BDF87C
:1054800002002080ADF80250BDF80200ADF8020025
:10549000BDF802002080DD20ADF80200BDF802005A
:1054A000ADF80200BDF802002080ADF80250BDF852
:1054B0000200ADF80200BDF802002080ADF802C085
:1054C000BDF80200ADF80200BDF802002080ADF882
:1054D0000250BDF80200ADF80200BDF802002080C5
:1054E000E320ADF80200BDF80200ADF80200BDF8FF
:1054F000020024F8020CADF80280BDF802004FF063
:105500009308ADF80200BDF802002080ADF802500B
:10551000BDF80200ADF80200BDF8020020800A20AC
:10552000ADF80200BDF80200ADF80200BDF80200BF
:105530002080ADF80250BDF80200ADF80200BDF8C1
:10554000020020801C20ADF80200BDF80200ADF87A
:105550000200BDF802002080ADF80250BDF8020044
:10556000ADF80200BDF8020020803320ADF8020043
:10557000BDF80200ADF80200BDF802002080ADF8D1
:105580000250BDF80200ADF80200BDF80200208014
:10559000ADF802A0BDF802004FF0740AADF80200A9
:1055A000BDF802002080ADF80250BDF80200ADF851
:1055B0000200BDF8020020805020ADF80200BDF8C6
:1055C0000200ADF80200BDF802002080ADF80250E4
:1055D000BDF80200ADF80200BDF802002080622094
:1055E000ADF80200BDF80200ADF80200BDF80200FF
:1055F0002080ADF80250BDF80200ADF80200BDF801
:10560000020020807820ADF80200BDF80200ADF85D
:105610000200BDF802002080ADF80250BDF8020083
:10562000ADF80200BDF802002080ADF802E0BDF840
:1056300002004FF0C40EADF80200BDF80200208059
:10564000ADF80250BDF80200ADF80200BDF802004E
:105650002080ADF80290BDF802004FF08409ADF84B
:105660000200BDF802002080ADF80250BDF8020033
:10567000ADF80200BDF802002080ADF80230BDF8A0
:105680000200ADF80200BDF802002080ADF8025023
:10569000BDF80200ADF80200BDF802002080ADF8B0
:1056A0000210BDF802000121ADF80200BDF80200B1
:1056B0002080ADF80250BDF80200ADF80200BDF840
:1056C00002002080ADF80270BDF80200A227ADF8FC
:1056D0000200BDF802002080ADF80250BDF80200C3
:1056E000ADF80200BDF802002080ADF80220BDF840
:1056F0000200ADF80200BDF802002080ADF80250B3
:10570000BDF80200ADF80200BDF802002080ADF83F
:105710000260BDF80200B326ADF80200BDF8020039
:105720002080ADF80250BDF80200ADF80200BDF8CF
:1057300002002080D520ADF80200BDF80200ADF8CF
:105740000200BDF802002080ADF80250BDF8020052
:10575000ADF80200BDF802002080ADF802B0BDF83F
:1057600002004FF05D0BADF80200BDF80200208092
:10577000ADF80250BDF80200ADF80200BDF802001D
:105780002080ADF802C0BDF802004FF0CD0CADF89E
:105790000200BDF802002080ADF80250BDF8020002
:1057A000ADF80200BDF802002080E420ADF8020050
:1057B000BDF80200ADF80200BDF8020024F8020CAA
:1057C000ADF80210BDF80200ADF80200BDF802000D
:1057D0002080ADF80250BDF80200ADF80200BDF81F
:1057E00002002080ADF80210BDF80200ADF8020002
:1057F000BDF802002080ADF80250BDF80200ADF8FF
:105800000200BDF8020020800220ADF80200BDF8C1
:105810000200ADF80200BDF802002080ADF8025091
:10582000BDF80200ADF80200BDF8020020802A2079
:10583000ADF80200BDF80200ADF80200BDF80200AC
:105840002080ADF80250BDF80200ADF80200BDF8AE
:10585000020020803C20ADF80200BDF80200ADF847
:105860000200BDF802002080ADF80250BDF8020031
:10587000ADF80200BDF8020020804B20ADF8020018
:10588000BDF80200ADF80200BDF802002080ADF8BE
:105890000250BDF80200ADF80200BDF80200208001
:1058A000ADF802B0BDF80200ADF80200BDF802008C
:1058B0002080ADF80250BDF80200ADF80200BDF83E
:1058C00002002080ADF802A0BDF80200ADF8020091
:1058D000BDF802002080ADF80250BDF80200ADF81E
:1058E0000200BDF802002080ADF80290BDF8020071
:1058F000ADF80200BDF802002080ADF80250BDF8FE
:105900000200ADF80200BDF802002080ADF8028070
:10591000BDF80200ADF80200BDF802002080ADF82D
:105920000250BDF80200ADF80200BDF80200208070
:10593000ADF80270BDF80200ADF80200BDF802003B
:105940002080ADF80250BDF80200ADF80200BDF8AD
:1059500002002080ADF80260BDF80200ADF8020040
:10596000BDF802002080ADF80250BDF80200ADF88D
:105970000200BDF802002080BE20ADF80200BDF894
:105980000210ADF80210BDF802102180ADF80250EF
:10599000BDF80210ADF80210BDF802102180ADF87C
:1059A00002E0BDF80210ADF80210BDF8021021802F
:1059B000ADF80250BDF80210ADF80210BDF80210AB
:1059C0002180ADF802C0BDF80220DD21ADF8022033
:1059D000BDF802202280ADF80250BDF80220ADF8DB
:1059E0000220BDF802202280D322ADF80220BDF8AB
:1059F0000230ADF80230BDF802302380ADF802501D
:105A0000BDF80230ADF80230BDF802302380ADF8A9
:105A10000210BDF80230F321ADF80230BDF80230BB
:105A20002380ADF80250BDF80230ADF80230BDF869
:105A300002302380ADF80210BDF80230ADF802301C
:105A4000BDF802302380ADF80250BDF80230ADF849
:105A50000230BDF802302380E523ADF80230BDF8F6
:105A60000230ADF80230BDF8023024F8023CADF847
:105A70000250BDF80230ADF80230BDF8023023808C
:105A8000ADF80250BDF80230ADF80230BDF802307A
:105A90002380ADF80250BDF80230ADF80230BDF8F9
:105AA00002302380ADF80250BDF80230ADF802306C
:105AB000BDF8023023800223ADF80230BDF8023079
:105AC000ADF80230BDF802302380ADF80250BDF8C9
:105AD0000230ADF80230BDF8023023802923ADF842
