:020000040800F2
:10000000F0070020F9010008311200082912000849
:100010002D12000841030008D9120008000000005A
:10002000000000000000000000000000391200087D
:100030004503000800000000351200083D120008CA
:10004000130200081302000813020008130200083C
:1000500013020008130200084903000813020008F5
:100060001302000885030008C903000813020008F2
:10007000130200081302000813020008130200080C
:1000800013020008130200081302000813020008FC
:1000900013020008130200081302000813020008EC
:1000A00013020008130200081302000813020008DC
:1000B00013020008130200081302000813020008CC
:1000C00013020008130200081302000813020008BC
:1000D00013020008CD1200081302000813020008E2
:1000E000130200081302000813020008130200089C
:1000F000130200081302000813020008130200088C
:10010000130200081302000813020008130200087B
:10011000130200081302000813020008130200086B
:10012000130200081302000813020008130200085B
:1001300000F002F800F050F814A696E8000CB24463
:10014000B344DA4501D100F047F8BAE80F000FA632
:1001500096E83000A5EB040504EB0607AAEB0704BC
:10016000A7F101074FEA15154FEA3414A4F1010471
:10017000AC4201D300F030F813F0010F18BFFB1AA6
:1001800043F0010300F001F8DBE71847A01C000072
:10019000C01C0000103A24BF78C878C1FAD85207B2
:1001A00024BF30C830C144BF04680C6070470000F1
:1001B000704700000023002400250026103A28BFC5
:1001C00078C1FBD8520728BF30C148BF0B607047C9
:1001D0001FB51FBD10B510BD00F084F81146FFF724
:1001E000F7FF01F095F900F0A2F803B4FFF7F2FF72
:1001F00003BC01F073F80000094880470948004734
:10020000FEE7FEE7FEE7FEE7FEE7FEE7FEE7FEE7C6
:10021000FEE7FEE704480549054A064B7047000023
:100220004112000831010008F0010020F007002011
:10023000F0030020F00300207047000010B50446D2
:1002400003E001F075F8401C09D014F8010B0549D2
:100250000028F6D1BDE810400A2001F069B84FF03F
:10026000FF3010BD700000204FF0000200B51346B3
:1002700094469646203922BFA0E80C50A0E80C50C6
:10028000B1F12001BFF4F7AF090728BFA0E80C5077
:1002900048BF0CC05DF804EB890028BF40F8042B70
:1002A00008BF704748BF20F8022B11F0804F18BFDD
:1002B00000F8012B7047704770477047704710B5C2
:1002C00000F008F8006810BD10B5044600F002F810
:1002D000046010BD004870471000002000487047BF
:1002E000100000207546FFF7F9FFAE46050069468D
:1002F000534620F00700854618B020B5FFF78AFF67
:10030000BDE820404FF000064FF000074FF0000816
:100310004FF0000BAC46ACE8C009ACE8C009ACE853
:10032000C009ACE8C00921F007018D46704710B53F
:100330000446AFF300802046BDE81040FFF755BFEC
:10034000FEE7000070470000B0B540F21444012001
:10035000C4F20104012500F0EFF8142000F0C6FFFC
:1003600004F57B70012100F0E1F9012807D140F28A
:10037000C400C2F200000168C1F101010160256002
:10038000B0BD0000B0B50820082500F0D5F840F257
:10039000C400C2F20000006880B140F6004414209E
:1003A000C4F2010400F0A2FF04F54060082100F04F
:1003B000BDF918B92046202100F0BEF940F21440E2
:1003C000C4F201000560B0BDB0B51020102500F0EA
:1003D000B3F840F2C400C2F200000068A0B141F6D8
:1003E00000041420C4F2010400F080FF2046102114
:1003F00000F09CF940B9A4F54060202100F09CF980
:100400002046202100F098F940F21440C4F2010087
:100410000560B0BD90F82110022927D1026840F292
:10042000040C1368C4F2020C23F00E03136013686B
:100430000CF17C018A4223F0010111601AD940F2CB
:100440000841C4F202018A424ED040F21C41C4F27B
:1004500002018A4241D040F23041C4F202018A4294
:1004600046D14FF48073CCF8003457E00421816307
:10047000012070474321C4F202018A420EDD6B2144
:10048000C4F202018A421BDC4421C4F202018A4206
:100490003BD05821C4F202018A4222E00821C4F272
:1004A00002018A422FD01C21C4F202018A4232D0BA
:1004B0003021C4F202018A4213D14FF480722BE042
:1004C0006C21C4F202018A4222D08021C4F20201CE
:1004D0008A4206D14FF080721EE01023CCF800341F
:1004E0001CE04FF4803217E00123CCF8003415E013
:1004F0000CF588614FF480338A4208BF4FF4805373
:10050000CCF800340AE0012206E04FF4805203E008
:100510004FF4801200E01022CCF80020416B4FF421
:1005200080720029028404BF0020704780B588478C
:10053000002080BD7047000040F21441C4F2010168
:100540000A68024214BF08607047FFF7F3BF00005B
:100550002DE9F04F82B00E68002E00F0E380A0F18C
:10056000804241F6004540F20043A2F58432C4F2D5
:1005700001050624C4F201034FEAB227A84208BFCE
:1005800005244FF0000E4FF001080F254FF0000A30
:100590004FF0000B052F38BF4FEAB224009408E05B
:1005A0000E680AF1010A36FA0AF20EF1040E00F0A2
:1005B000B98008FA0AFC16EA0C09F1D04E684FF629
:1005C000FF72C1F21002964210DC122E50D8DFE802
:1005D00006F0330A48454F4F4F4F4F4F4F4F4F4F45
:1005E0004F4F4F414C00D1F80CB041E04FF6FF7235
:1005F000C1F2210296420FDC0022C1F211029642A2
:100600001AD00022C1F21202964215D00022C1F285
:100610002102964210D02BE00022C1F22202964223
:100620000AD00022C1F23102964205D00022C1F266
:10063000320296421CD100BF8A6842B1012A14BF1F
:10064000C0F814C0C0F810C04FF0080B10E04FF015
:10065000040B0DE0CA6802F1040B09E04FF0000B37
:1006600006E0CA6802F1080B02E0CA6802F10C0B4E
:1006700002467446B9F5807F24BF0432203C1668D8
:1006800005FA04F726EA07070BFA04F63743176062
:10069000CA79D2067FF584AF41F21807C4F2020787
:1006A0003A684FF6084542F001023A603A68CFF6E0
:1006B000FF7502F001020192019A2AF003021A4426
:1006C0000F2457590EF00C06B440A743009C04FABF
:1006D00006F6374357514E680F25F2031A6854BF88
:1006E00022EA090242EA09021A605A68B70354BFB3
:1006F00022EA090242EA09025A60F7029A6854BFE4
:1007000022EA090242EA0902B70240F20C479A6063
:10071000C4F201073A6854BF22EA090242EA090218
:100720003A603DE702B0BDE8F08F00008068084005
:1007300018BF012070470000C26802EA010391431C
:1007400041EA034101617047002A08BF09040161C1
:100750007047000040F2E810C2F2000000687047E5
:10076000002804BF01207047B0B504460068D4E9F2
:1007700001124CF6CC43036045F2555303604160CF
:100780008260FFF7E7FF05462068C16831B1FFF7D7
:10079000E1FF401B2628F7D90320B0BD4AF6AA2165
:1007A00001600020B0BD000001684AF6AA220020C6
:1007B0000A60704740F2080040F2E811C2F20000FF
:1007C000C2F2000100780A68104408607047000017
:1007D00080B542F20000C4F20200016841F010014D
:1007E0000160052000F070F80F2000F005F800F01F
:1007F0002BF8002080BD0000B0B540F20802C2F224
:10080000000240F204011278C2F200014FF47A7340
:100810000968B3FBF2F20446B1FBF2F1084600F0BE
:1008200001FB0F2C4FF001050CD858B94FF0FF30E9
:1008300021460022002500F01BF840F20C00C2F215
:10084000000004602846B0BD70470000002848BF83
:10085000704700F01F01012202FA01F11C2202EA96
:10086000D0004EF20012CEF200028150704700001C
:1008700010B54EF60C5CCEF2000CDCF80030C3F381
:10088000022E8EF00704042C28BF0424BEF10303BB
:100890004FF0FF3E0EFA04F438BF0023A143994005
:1008A0000EFA03F39A43114300F1604200F00F0384
:1008B000090102F56442043B6344002848BF03F188
:1008C0000C02117010BD00004EF60C51CEF200016A
:1008D0000A684FF6FF031A4060F30A2242F0806074
:1008E00040F0FD7008607047002804BF0120704789
:1008F0002DE9F04381B042F20008C4F20208044638
:10090000D8F800000D4600F0070088420CD2D8F855
:10091000000020F007002843C8F80000D8F80000C5
:1009200000F00700A8426BD1206841F2040981075A
:10093000C4F2020917D5410705D5D9F8001041F4D2
:10094000E061C9F80010010705D5D9F8001041F49D
:100950006051C9F80010D9F80010A26821F0F00128
:100960001143C9F80010C00741D1D8F8000000F0C9
:100970000700A8420CD9D8F8000020F0070028434F
:10098000C8F80000D8F8000000F00700A84237D1EE
:100990002068410707D5D9F80010E26821F4E0612A
:1009A0001143C9F80010000708D5D9F800002169E3
:1009B00020F4605040EAC100C9F80000D9F80020D6
:1009C00002F00C00082841F20020C0F27A0049D160
:1009D00041F61A63C2F38341C0F60003595CD203A7
:1009E00034D440F60010C0F23D0048433AE060685D
:1009F00059F8041C022807D0012824D1890305D402
:100A0000012001B0BDE8F0838901F9D5D9F80010C3
:100A100021F003010843C9F80000FFF79BFE0646DA
:100A200041F28837D9F80000616800F00C00B0EBA3
:100A3000810F9AD0FFF78EFE801BB842F2D90320B7
:100A400001B0BDE8F0838907DAD5DFE7D9F80020E7
:100A500041F60063C2F34042C0F600039A5C48438B
:100A6000B0FBF2F0D9F8001041F60262C1F30311B5
:100A7000C0F60002515C40F2040220FA01F140F29B
:100A80000C00C2F200000068C2F200021160FFF721
:100A9000B3FE002001B0BDE8F083000040F2040086
:100AA00041F20401C2F20000C4F2020100680968C8
:100AB00041F61262C1F30221C0F60002515CC84047
:100AC0007047000040F2040041F20401C2F200004D
:100AD000C4F202010068096841F61262C1F3C22142
:100AE000C0F60002515CC84070470000002804BFF7
:100AF000012070472DE9F04182B00446007841F2B0
:100B00000006C007C4F2020647D0706800F00C006F
:100B1000042808D1306880033FD56068E8BB012015
:100B200002B0BDE8F081706800F00C00082802D126
:100B30007068C003EED4656830682DB1B5F5A02F9C
:100B400009D0B5F5803F0AD020F48030306030689D
:100B500020F4802005E040F480203060306840F4CC
:100B600080303060FFF7F6FD002D054612D000BF43
:100B70003068800311D4FFF7EDFD401B6428F7D9DE
:100B800016E100BFFFF7E6FD401B64284FF00300AD
:100B900000F2D88030688003F4D42078800719D51B
:100BA000706810F00C0F07D0706800F00C00082877
:100BB00027D17068C00324D43068800703D520692A
:100BC000012840F0A6803068616920F0F80040EA12
:100BD000C1003060207800074ED5A06938B30020EE
:100BE000C4F242200121C0F88014FFF7B3FD05468E
:100BF000706A80072DD4FFF7ADFD401B0228F7D99E
:100C0000D6E02069002840F20000C4F2422000F043
:100C1000A88001210160FFF79DFD0546306880072F
:100C2000D1D4FFF797FD401B0228F7D9C0E0002080
:100C3000C4F242200021C0F88014FFF78BFD054666
:100C4000706A800718D5FFF785FD401B0228F7D989
:100C5000AEE040F20400C2F20000006844F6D35156
:100C6000C1F26201A0FB0101480A019000BF019896
:100C7000411E00280191F9D12078400717D4E56979
:100C80008DB1706800F00C00082846D1012D40D0CD
:100C90007068216A00F480328A423AD1616A00F4B5
:100CA0007010884235D1002002B0BDE8F081F069B3
:100CB0005FEAC00808D4F06940F08050F061F06944
:100CC00000F080500090009847F20007C4F200073F
:100CD0003868C0050FD4386840F480703860FFF77A
:100CE00039FD05463868C00505D4FFF733FD401BC4
:100CF0006428F7D95CE0E568306A1DB1052D41D064
:100D0000012D43D020F001003062306A20F0040051
:100D10003EE0012002B0BDE8F0810027C4F2422786
:100D200000203866FFF716FD022D05460ED100BFE4
:100D30003068800153D5FFF70DFD401B02284FF0AE
:100D40000300F5D902B0BDE8F08100BF3068800132
:100D5000A9D5FFF7FFFC401B02284FF00300F5D98F
:100D6000F0E700210160FFF7F5FC054630688007D9
:100D70007FF530AFFFF7EEFC401B02284FF0030079
:100D8000F4D9DFE740F004003062306A40F001003F
:100D90003062FFF7DFFC002D054641F2883712D0A4
:100DA000306A800712D4FFF7D5FC401BB842F7D950
:100DB000032002B0BDE8F081FFF7CCFC401BB84235
:100DC0004FF00300BED8306A8007F5D4B8F1000FA9
:100DD0003FF555AFF06920F08050F0614FE7206A91
:100DE000B0F5803F05D17168A26821F4003111434C
:100DF00071607168626A21F4741111430843706074
:100E000001203866FFF7A6FC044600BF3068800169
:100E10003FF549AFFFF79EFC001B02284FF003008F
:100E2000F4D98FE7411E0020B0EB116F1CBF0120E9
:100E300070474EF21002CEF2000251604EF623517E
:100E4000CEF20001F0230B70072190601160704713
:100E500070470000B0B501680A68CC684B6902F0C1
:100E60002F05202D04F0200504D11DB1BDE8B040B0
:100E700000F0EEB95FEA027C1EBF03F0010E04F43D
:100E8000907313EB0E032CD1130619D514F08003C5
:100E900016D090F83920212A11D18268B2F5805FEE
:100EA00003D10269002A00F08E80026A531C03629B
:100EB00012784A60C28C013A1304C28476D0B0BD65
:100EC0005206FCD514F0400208BFB0BDCA6822F03B
:100ED0004002CA60202180F83910BDE8B04000F01F
:100EE000A1B9D10718BF14F4807102D1510706D4FB
:100EF0000CE0C16B41F00101C163510706D5BEF1A1
:100F0000000F03D0C16B41F00201C163910706D508
:100F1000BEF1000F03D0C16B41F00401C163BCF10D
:100F2000000F06D55EEA050103D0C16B41F0080150
:100F3000C163C16B0029C2D0910604D51DB104461E
:100F400000F086F9204601684A69C36B02F040024E
:100F500003F00803D21823D0CA6822F49072CA6042
:100F60004A6922F001024A61202280F83A204A6947
:100F7000520624D54A6922F040024A61416BF1B120
:100F800041F24522C0F60002044608464A63FFF7D4
:100F900041FA002893D0606B416BBDE8B040084730
:100FA0000446FFF755FF0020E063B0BDC86820F09D
:100FB0008000C860C86840F04000C860B0BDBDE8AF
:100FC000B040FFF745BF026A32F8023B6FF35F2380
:100FD0004B6002626EE70000002804BF01207047EA
:100FE00010B5044690F8390028B9002084F838007C
:100FF000204600F061F8242084F839002068D4E904
:101000000212C36823F40053C360036923F44053FE
:101010001A430261D4E904231143C268194341F21F
:101020000C639A431143C1604169A26921F4407184
:10103000114343F60002C4F201029042416102D022
:10104000FFF72CFD01E0FFF73DFDD4E90023192156
:1010500048439900B0FBF1F048F21F5CC5F2EB1C6D
:10106000A0FB0C314FF69C734909C0F6FF7301FBDE
:101070000300322303EB0010A0FB0C03F02000EA76
:10108000531000EB0110C3F3431108449060106942
:10109000202120F490401061506920F02A00506116
:1010A000D06840F40050D0600020E06384F839102C
:1010B00084F83A1010BD0000B0B584B040F60004CA
:1010C000C4F20104006804F54051884201D004B024
:1010D000B0BD41F21800C4F2020001686D4641F053
:1010E00004010160016801F00401009100990168A8
:1010F00041F004010160016801F0040100910099D0
:10110000016841F4804101600068294600F4804094
:10111000009000984FF40070009002200190012090
:101120000290032003902046FFF712FA4FF48060EC
:1011300000900020019020462946FFF709FA25205B
:10114000FFF784FB252003210322FFF791FB04B066
:10115000B0BD0000034690F83A0020280AD10029CB
:101160004FF0010018BF002A00D1704793F83800F3
:10117000012801D1022070479962002022219A851E
:10118000DA85D86383F83A10196883F83800CA689A
:1011900042F48072CA604A6942F001024A61CA6838
:1011A00042F02002CA607047006843F60001C4F2B2
:1011B0000101884218BF704740F2E410C2F20000FB
:1011C000B0F90010002921D440F2D802C2F2000286
:1011D00089B21378B1F5804F04D20D2B0CD141F4B4
:1011E000804212E048F2000C0022CFF6FF7C0A2B6E
:1011F00008BF41EA0C0208E040F21C12C2F20002F1
:1012000053544A1CC62988BF0022028040F2DC00E9
:1012100040F2D801C2F20000C2F200010122FFF741
:1012200099BF000070470000FEE70000FEE70000E5
:10123000704700007047000070470000FFF7BABA1F
:1012400070470000406A0021C185C184FFF700BEDD
:1012500090F83A10222918BF70478268B2F5805F73
:1012600001D1016949B3816AB2F5805F07D00AB93B
:10127000026922B10268526802F07F0201E002684E
:1012800052680A70816A01318162C18D01390A0494
:10129000C18500D070470168CA6822F02002CA6088
:1012A000CA6822F48072CA604A6922F001024A6167
:1012B000202180F83A10FFF777BF0168826A4968F9
:1012C0006FF35F2122F8021B8262DEE740F2DC004E
:1012D000C2F20000FFF7BEBDFEE70000704700004D
:1012E00040F2C801C2F200010860704780B54EF2BA
:1012F000180140F2C802CEF20001C2F2000251F819
:1013000004CC1268002350434FF47A7200FB02FEB3
:10131000086800BF0A688242FCD003449B1A8242DC
:1013200028BF63447345104628BF80BDF2E7000024
:1013300043F60001C4F201010A685206FCD5C2B2AC
:101340004A60704740F2CC00C2F20000FFF72CBAAE
:101350002DE9F04184B041F21800C4F202000168A6
:1013600041F6000441F0400101600168C4F201044B
:1013700001F040010091009901686D4641F0400183
:10138000016001684FF0000801F0400100910099F0
:101390000168012741F0040101600068032600F0A4
:1013A0000400009000981020009020462946CDF8B7
:1013B000048002970396FFF7CBF80820CDE90008D8
:1013C00020462946CDE90276FFF7C2F80220CDE992
:1013D0000206A4F580502946CDE90078FFF7B8F859
:1013E00004B0BDE8F0810000B0B540F2E615002879
:1013F000C2F200051CBF00202870287841F60004C6
:10140000C4F20104B0B120461021FFF78FF9012882
:1014100040D120460821FFF789F901283AD1A4F5E7
:1014200080500121FFF782F900284FF0000008BF2B
:101430002870B0BD20461021FFF778F958B120463A
:101440000821FFF773F930B1A4F580500121FFF7AF
:101450006DF90128D7D10A20FFF748FF0120287035
:1014600020461021FFF762F9B0FA80F045092046C6
:101470000821FFF75BF90028A4F580504FF0010127
:1014800008BF0225FFF752F901462846012908BF87
:101490000320B0BD0020B0BD70B584B041F218008B
:1014A000C4F20200016840F6004441F00801016006
:1014B0000168C4F2010401F008010091009901687B
:1014C0006D4641F0400101600068202600F04000B8
:1014D000009000980120CDE90100032003902046F0
:1014E00029460096FFF734F8009604F5406630462A
:1014F0002946FFF72DF8204620210122FFF724F985
:10150000304620210122FFF71FF904B070BD000012
:10151000FFF75EF94FF4E01000F08AF84820FFF77B
:10152000DFFE4FF4E13000F0B1F8FFF7B5FFFFF751
:101530000FFF40F60044C4F201042046202100229F
:10154000FFF702F94FF47A70FFF7D0FE2046202112
:101550000122FFF7F9F804F5406020210022FFF78F
:10156000F3F844F20001C4F28F01002000F01EF8ED
:1015700007A0FEF763FE00BF0120FFF735FF032839
:1015800008BFFFF7DFFE0A20FFF7B0FEF4E700BF59
:10159000E69687E6ADA2E5A2A83132333132333187
:1015A000323377656E7A68696D6F0D002DE9F0430F
:1015B00081B00023C4F244030022002400F0AAFA00
:1015C0000023C3F6D073002200F0A4FA05460E46AD
:1015D00000F070FA40F6FF71884218D340F200081C
:1015E0000027C3F6F07840F6FE7900BF0137FCB261
:1015F00000204146224600F077F802460B46284676
:10160000314600F0BFF800F055FA4845EED80146E3
:1016100040F2CC0043F20002C2F20000C4F2000229
:10162000C0E90024816001B0BDE8F043FFF798B83D
:10163000F0B58FB005AD044628462821FEF714FE0C
:101640000120002605904FF480300227CDE90606E0
:10165000CDE90C7028460496CDE90266CDE9006616
:101660000E94FFF743FA00B1FEE70F20CDE9000723
:101670004FF48060CDE90306684602210296FFF729
:1016800033F900B1FEE70FB0F0BD000010B540F235
:10169000DC0443F60001C2F20004C4F2010100229E
:1016A0000C23C4E900102046C4E90222C4E9042343
:1016B000A261FFF791FC40F2D801C2F2000120467E
:1016C0000122BDE81040FFF745BD40F20132002085
:1016D0004FF0E04100F04EBB024A0020110700F03D
:1016E00049BB000001FDFFFF2DE9F04106460C4615
:1016F00040F2FF75174635EA14502BD000221346EE
:10170000304600F09BF925D03A463046214600F09D
:1017100031FB06460C4635EA145010D00022134621
:10172000304600F08BF915D10220FEF7CDFDFFF712
:10173000D3FF0A46214662F31E01BDE8F081022074
:10174000FEF7C2FDFFF7C1FF0A46214662F31E0104
:10175000BDE8F08130462146BDE8F08102494FF0F6
:10176000000000F0D5BA00BF0000F87F491058BF54
:10177000C1F140415B1058BFC3F140438B42EFF3CE
:10178000008070472DE9C04130B4DFF8A8C23CEAC0
:10179000111418BF3CEA131400F0F0801CEA111475
:1017A00081EA030544EAD57418BF1CEA131500F05A
:1017B000CB80A4EB050404F17F7404F500344FF0F2
:1017C000004545EAC12145EAC32341EA505143EAB5
:1017D00052534FEAC0204FEAC222994208BF9042BA
:1017E00000F0A0804FEA13650FF24816765D4FEACD
:1017F000134506FB05F7C7F1807706FB07F74FEAAD
:10180000D737A7FB03687642A7FB06CEC8F580381A
:1018100038BFA8F1010807FB08E6A6FB028C4FF0D1
:10182000000EE6FB03CED8F100086FEA0C0C5CF169
:10183000000C6FEA0E0E4EF1004EA6FB0C584FF056
:101840000007E6FB0E87A1FB08C6A0FB07CE16EB40
:101850000E064FF0000545F10005E1FB076515F1A7
:10186000E04E7EBFA4F580345FEA46066D4116F176
:10187000800745F100054FEA172747EA05674FEA59
:1018800015254FEA0666A6F1DE46B6F1805F20D93F
:10189000384605EBC47124F0010C01EB0C11BCF1CE
:1018A000FE6F02D8F0BCBDE8008124425CBF01F5A8
:1018B000801E9EEAC47F02D4F0BCBDE800812442B1
:1018C00000F13980A1F1C041F0BCBDE8004100F059
:1018D00019BA4FEAD02040EA41504FEAD1214FEAED
:1018E000D22242EA43524FEAD323A7FB028607FBE8
:1018F000036605FB02661EEA0E0F58BFA6EB0056F4
:10190000B6EB00564FEA520E4EEAC37E18EB0E0EAF
:1019100056EB530EBCD518EB02085E417F1C55F107
:101920000005B5E74FF480154FF000074FF00006B3
:101930004FF00008ACE701F1C04101F000414FF069
:101940000000F0BCBDE800810CEA131511EA0C1F81
:1019500000D00CE013EA0C1F00F025804FF00000CF
:1019600081EA030101F00041F0BCBDE80081F0BC58
:10197000BDE8004181EA030100F0C4B9F0BCBDE854
:10198000004170B500F070F9097EFC3E00F007B828
:101990004FF0000081EA030101F00041704781EA45
:1019A000030100F0AFB9F0BCBDE8004122494FF09F
:1019B00000007047FFFDFBF9F7F5F4F2F0EEEDEBF8
:1019C000E9E8E6E4E3E1E0DEDDDBDAD8D7D5D4D33D
:1019D000D1D0CFCDCCCBCAC8C7C6C5C4C2C1C0BF89
:1019E000BEBDBCBBBAB9B8B7B6B5B4B3B2B1B0AF8F
:1019F000AEADACABAAA9A8A8A7A6A5A4A3A3A2A173
:101A0000A09F9F9E9D9C9C9B9A999998979796952D
:101A100095949393929191908F8F8E8E8D8C8C8BC9
:101A20008B8A898988888787868585848483838251
:101A3000828181800000FF070000F87F51EA030CDB
:101A400017D41CF5801F58BFBCF5801F00F106801D
:101A5000994218BF704708BF9042704707D711F5E9
:101A6000801F58BF13F5801F19D4994270478942CF
:101A700070471CF5801F08D5BCF5801FF7D58B4239
:101A800018BF704708BF824270474FF4001C1CEB20
:101A9000410F38BF1CEB430F01D28B42704770B52A
:101AA00000F0E2F8922449004FF000514FF08053CB
:101AB000FFF75CBE4FEA41034FEA5353A3F580633F
:101AC000D3F11E03C8BFD3F1210C0CDD4FF000424F
:101AD00042EAC12242EA505232FA03FC8CEAE17C2B
:101AE000ACEBE1707047102BC4BF0020704703F5CA
:101AF000787CBCF1FF3F04D06FF0004282EA210005
:101B0000704770B500F0B0F849922480002070470B
:101B1000F2E7000070B5DFF848C11CEA111E1EBFD5
:101B20001CEA13159EEA0C0F95EA0C0F00F06F806B
:101B300081EA03044EEAD47EAE4421EA4C1123EA42
:101B40004C1341F4801143F48013AEF17F7EA1FB6E
:101B5000024CA0FB0365361955EB0C05A1FB034CA9
:101B60004CF10003A0FB021C16EB0C06654153F17F
:101B70000003094218BF46F0010613F4007F0BD1A1
:101B80004FEA03314FEA053041EA155140EA165059
:101B900034036FF003020AE04FEAC3214FEAC52085
:101BA00041EA555140EA5650F4026FF0020202EB4E
:101BB0002E4201EB025585EACE710AD05FEA440C51
:101BC00018BF24F0004450F1000041F1000120EA68
:101BD000D47040F2FE7C624500D270BDA84214BFB2
:101BE0004FF080444FF04044002E08BF0024BEF167
:101BF000806FA8BFA1F1C041BDE8704080F2828033
:101C000001F1C04101F000414FF0000070470CEAC3
:101C100013159EEA0C0F18BF95EA0C0F06D081EA47
:101C2000030E4FF000000EF0004170BD00F01CF8F4
:101C30008900013E00F007B800F009B84FEA430CF4
:101C40005FEA5C5C08D081EA030100F05BB84FEA10
:101C5000410C5FEA5C5CF6D102494FF0000070472E
:101C60000000FF070000F87F0EF1020E2EF0030EB9
:101C70005EF8046B364205D4012A43EB030515F5E3
:101C8000001F12D8012841EB010C1CF5001F0CD8D5
:101C90000ED14FEAD17C0CEB4C0C0CF1020C15F57B
:101CA000001F08BF4CEBD37C04E04FF0080C01E0B0
:101CB0004FEAD37C0CEB4C0526FA05F606F0070636
:101CC000B6F1040C06D20EEB860CBDE870404CF069
:101CD000010C6047DFE80CF0090B02024FF00041F5
:101CE000A1F500214FF0000070BD194610460128F3
:101CF00051EB010418BFD4F5001484BF002001F09B
:101D0000004170BD0808A0F500114FEA310170478D
:101D10000CF00F03092B08BF082000F059800A2B94
:101D20000BD0082B18BF704708BF1CF0400F0AD01B
:101D30004FF000004FF0000170471CF0400F18BF3B
:101D40004FF0004070471CF0100F08D000F07F42A9
:101D500020F0704342EAD3014FEA4370704700F02D
:101D6000604021F07F4242EA000201F07F4040EAF9
:101D7000727070474FF0FF0C4CF4E06C1CEA11538A
:101D80001CBF9CEA030C9445C2BFDA4201EB02512E
:101D90007047002B0DD0BCF1000F0FD001F00041B7
:101DA000002AA4BF41F0E04141F07F614FF0000004
:101DB000704701F000414FF00000704750EA0133D6
:101DC0004FF09B0C18BF4CF0806C7FF4C7AC704791
:101DD0001CF4801F11D01CF4E02F03D06FEACC312B
:101DE000490070474FF04050EFF3008222F07042FC
:101DF00042EA000282F3008870474FF0000070470B
:101E000001020000000000000000010203040607B8
:101E1000080900000000010203040203040506078C
:101E200008090A0B0C0D0E0F10100000501E0008C0
:101E3000000000201000000094010008601E00084F
:101E400010000020E0070000B401000800000000BE
:101E5000010000000024F400010000001000000058
:0400000508000131BD
:00000001FF
